:1000000019C033C032C031C030C02FC02EC02DC087
:100010002CC02BC02AC029C028C027C026C025C09C
:1000200024C024C0AFC2C3C220C01FC01EC01DC098
:100030001CC01BC011241FBECFEFD2E0DEBFCDBF5E
:1000400011E0A0E0B1E0EAE0F7E002C005900D9217
:10005000AA30B107D9F721E0AAE0B1E001C01D92B2
:10006000A63AB207E1F7A5D04EC3CACF1F920F92AE
:100070000FB60F9211248F939F93EF93FF9380916C
:100080005001813041F028F0823039F0833041F462
:1000900006C0439A05C0419A03C05E9A01C05C9AAB
:1000A00080915201882371F0E091510180915001BB
:1000B000F0E098E0899FE00DF11D11248EB5E05D20
:1000C000FE4F80839091520181E0892780935201F5
:1000D00080915201813099F590E0809150018130FA
:1000E00059F028F0823059F0833099F40DC086B170
:1000F00082FB882780F90EC086B181700BC089B160
:1001000085FB882780F906C089B183FB882780F9A1
:1001100001C0892F882309F380915001813041F07B
:1001200028F0823039F0833041F406C0439805C08E
:10013000419803C05E9801C05C981EBC31C080919C
:1001400051018F5F8093510180915101883041F4BA
:1001500010925101809150018F5F83708093500104
:1001600080915001811104C0809151018823C1F018
:1001700080915001813041F028F0823039F0833095
:1001800041F406C0439805C0419803C05E9801C081
:100190005C98E0915101F0E0EF5FFE4F80818EBDF1
:1001A000FF91EF919F918F910F900FBE0F901F9035
:1001B0001895A8952CE088E190E00FB6F894A895E2
:1001C000809360000FBE209360008FE284B98AE3C1
:1001D00087B984ED8AB92A9A04B603FE04C05F9AEF
:1001E00084B7877F84BF439A419A5E9A5C9A81ED77
:1001F0008CBD81E08DBD44E050E060E070E08BE0BC
:1002000091E05CD240E250E060E870E08BE091E089
:1002100055D2B2D18CE090E0F6D178940F2EFBE26B
:10022000AF2EF1E0BF2EF02D412C512CC1E0D0E0DB
:10023000242C352C0F2EFCE2EF2EF1E0FF2EF02DBA
:100240000F2EFDE2CF2EF1E0DF2EF02D0EE211E0B9
:100250000F2EFFE26F2EF1E07F2EF02DA8958091FA
:100260005001811107C080915101811103C0439851
:100270008EEF8EBD80EE9EE20197F1F780E8F501EA
:100280008083C201F5014081582FFC01E05DFE4FE3
:100290007081FC01E55FFE4F60819E01671710F0E1
:1002A000222D332D02C0220F331F5A95E2F7242B43
:1002B000F501208301968630910521F7F701108220
:1002C000C201F7016081AC014A5F5F4FFA01E05D56
:1002D000FE4F7081FA01E55FFE4F40819E01471796
:1002E00010F0222D332D082E02C0220F331F0A9446
:1002F000E2F7262BF701208301968730910509F755
:10030000F6011082C201F6016081AC01435F5F4FCC
:10031000FA01E05DFE4F7081FA01E55FFE4F40811A
:100320009E01471710F0222D332D082E02C0220FF8
:10033000331F0A94E2F7262BF601208301968630BC
:10034000910509F7F8011082C201F8016081AC0142
:100350004D5E5F4FFA01E05DFE4F7081FA01E55F8F
:10036000FE4F40819E01471710F0222D332D082E9D
:1003700002C0220F331F0A94E2F7262BF8012083D4
:1003800001968730910509F780ECF3018083C20163
:10039000F3016081AC01465E5F4FFA01E05DFE4F04
:1003A0007081FA01E55FFE4F40819E01471710F012
:1003B000222D332D082E02C0220F331F0A94E2F79C
:1003C000262BF301208301968630910509F742011F
:1003D000F401E55DFE4F808134D1FFEF8F1A9F0A53
:1003E00085E088169104A1F7C20122D18A3A09F06A
:1003F00046C080910A01882359F1C2019C01FC0189
:10040000E05DFE4F5081FC01EA57FE4F40815417DA
:1004100040F4FC01E05DFE4F4081FC01EA57FE4FD5
:100420004083F901E05DFE4F5081F901EA59FE4F2A
:100430004081451740F4F901E05DFE4F4081F9012C
:10044000EA59FE4F4083019680329105B9F606CFF6
:1004500081E080930A01C201FC01E05DFE4F208132
:10046000DC01AA57BE4F2C932081FC01EA59FE4FB4
:10047000208301968032910579F75A9AEFCEC20116
:10048000D7D0853571F580910A018823C1F0C2016A
:10049000FC01E05DFE4F3081FC01EA59FE4F2081F6
:1004A000231740F4FC01E05DFE4F2081FC01EA5976
:1004B000FE4F208301968032910551F7CFCE82E026
:1004C00080930A01C201FC01E05DFE4F2081FC0126
:1004D000EA59FE4F2083019680329105A1F7299AAF
:1004E000BDCE80910A01813039F510920A01920146
:1004F000F901EA57FE4F8081F901EA59FE4F408128
:1005000090E0880F991F840F911D63E070E0AFD0D9
:10051000F901E55FFE4F60832F5F3F4F20323105C9
:1005200039F7F89440E250E060E870E08BE091E049
:10053000D4D078945A9892CE80910A01823009F0F2
:100540008DCE10920A01C201FC01EA59FE4F2081B2
:100550002B5FFC01E55FFE4F208301968032910501
:1005600099F7F89440E250E060E870E08BE091E0A9
:10057000B4D07894299872CE1092B90088E4809310
:10058000B80008951F920F920FB60F9211248F9307
:100590008091C600809355018091C000887180933E
:1005A00000018F910F900FBE0F901F9018951F9212
:1005B0000F920FB60F9211248F939F93EF93FF9397
:1005C0009091540180915301981779F0E091530173
:1005D000809153018F5F8F7080935301F0E0EA5A4E
:1005E000FE4F80818093C60005C0E1ECF0E0808181
:1005F0008F7D8083FF91EF919F918F910F900FBE20
:100600000F901F901895992324F422E02093C000A6
:100610009F779093C5008093C400E1ECF0E088E9F7
:10062000808386E08093C200808180628083089509
:10063000009721F020910001FC0120838091550159
:100640000895209154012F5F2F7090915301291725
:10065000E1F3E0915401F0E0EA5AFE4F80832093E9
:100660005401E1ECF0E0808180628083089597FB83
:10067000072E16F4009406D077FD08D00BD007FCA7
:1006800005D03EF4909581959F4F089570956195A2
:100690007F4F0895AA1BBB1B51E107C0AA1FBB1FB8
:1006A000A617B70710F0A61BB70B881F991F5A95FE
:1006B000A9F780959095BC01CD010895DC01862FA6
:1006C000E82FF999FECF1FBA05C0E1BDF89AE3956E
:1006D00000B40D924150C8F70895DC01862F02C086
:1006E0002D9104D04150E0F70895262FF999FECFBF
:1006F0001FBA1FBA81BD20BD0FB6F894FA9AF99AB5
:0A0700000FBE01960895F894FFCF94
:0A070A0001FEBEEEAEDE9ECE8E00B4
:00000001FF
