:100000000C942B010C94A61F0C945F010C945F01BF
:100010000C945F010C945F010C945F010C945F01E0
:100020000C945F010C945F010C945F010C945F01D0
:100030000C945F010C945F010C945F010C945F01C0
:100040000C945F010C945F010C945F010C945F01B0
:100050000C9410120C945F010C945F010C945F01DE
:100060000C94331D0C94BD100C945F010C945F0133
:100070000C945F010C945F010C945F010C945F0180
:100080000C945F010C945F010C942E1E0C948C1E3A
:100090000C945F010C945F010C945F010C94680850
:1000A0000C945F010C945F010C945F010C94EA1EA8
:1000B0000C94481F0C945F010C945F010C945F0139
:1000C0000C945F010C945F010C945F010C945F0130
:1000D0000C945F010C945F010C945F010C945F0120
:1000E0000C945F010C945F010C945F010C945F0110
:1000F0000C945F010C9497030C9494070C945F018B
:100100000C945F010C945F010C945F010C945F01EF
:100110000C945F010C945F010C945F010C94F9073F
:100120000C945F010C945F010C945F010C945F01CF
:100130000C94C91C0C94821D0C945F010C945F01FB
:100140000C945F010C945F010C945F010C94AD1D45
:100150000C945F010C945F010C945F010C945F019F
:100160000C94A81C0C94731C0C945F010C945F01FC
:100170000C945F010C945F010C945F010C945F017F
:100180000C945F010C945F010C945F010C945F016F
:100190000C945F010C945F010C945F010C945F015F
:1001A0000C945F010C945F010C945F010C94FE1C95
:1001B0000C94D81D0C945F010C945F010C945F01AA
:1001C0000C945F010C945F010C94031E0C945F016E
:1001D0000C945F010C945F010C945F010C945F011F
:1001E0000C945F010C945F010C945F010C943E1C15
:1001F0000C945F017920A320C420E52006210F2163
:100200000F210F210F210F21372180210A229B224C
:100210002C2398230A246524AE24C625CF253F2607
:1002200070268326084AD73B3BCE016E84BCBFFDB7
:10023000C12F3D6C74319ABD56833DDA3D00C77FB6
:1002400011BED9E4BB4C3E916BAAAABE000000804F
:100250003F00D331DA3111241FBECFEFDFE2DEBF22
:10026000CDBF18BE19BE1ABE1BBE14E2A0E0B0E29C
:10027000EAEAF8E700E00BBF02C007900D92A83F42
:10028000B107D9F71BBE27E2A8EFB4E201C01D9267
:10029000AC38B207E1F712E0C4E5D2E000E006C0F6
:1002A00022970109FE010BBF0E94913BC235D10785
:1002B00080E00807A9F70E94BC2B0C94433C0C94E7
:1002C0000000FC01608371834863DB0111964C934D
:1002D000A081B18115962C930190F081E02D81E0F1
:1002E000848308950F93213208F051C0013408F03F
:1002F00050C0FC01E959FF4F308131114CC0FC0165
:10030000E959FF4F31E03083FC01E859FF4F10827B
:10031000222371F0E42FF52F40E050E03191DC0111
:10032000A40FB51F13963C934F5F5F4F4217B0F376
:10033000DC0112966C931297FC01ED59FF4F20835C
:10034000AC59BF4F0C93DC01AB59BF4F1C92DC0181
:10035000AA59BF4F1C922081222349F0FC0122811F
:100360002E7F0190F081E02D268381E017C0FC01F3
:10037000EC59FF4F2081222381F0DC0112962C9151
:1003800012972160ED91FC91268381E007C080E007
:1003900005C080E003C080E001C081E00F910895B6
:1003A000FC01E959FF4F2081211125C0FC01E959C9
:1003B000FF4F21E02083FC01E859FF4F1082DC0150
:1003C00012966C93FC01ED59FF4F1082FC01EC5921
:1003D000FF4F1082FC01EB59FF4F1082FC01EA59DC
:1003E000FF4F1082FC0122812E7F0190F081E02DD1
:1003F000268381E0089580E00895DC01ED91FC9171
:100400001197248122FF05C0A859BF4F34E03C93C7
:1004100005C0DC01A859BF4F33E03C93286024831A
:10042000FC01E959FF4F10820895FC01E859FF4F84
:100430006083FC01E959FF4F10820895CF93DF9349
:10044000EC01FC01EA59FF4F8081803480F4E8819F
:10045000F9818781FE01EA59FF4F9081DE01A90FE2
:10046000B11D93968C9380818F5F808308C0E88153
:10047000F98183E0838362E0CE010E941502FE01D0
:10048000EC59FF4F9081FE01EA59FF4F8081891797
:1004900028F4E881F98182E0838308C0E881F9814A
:1004A00087E0838361E0CE010E941502DF91CF9146
:1004B0000895CF93DF93FC01ED59FF4F3081FC018C
:1004C000EC59FF4F4081DC01ED91FC91248124FF28
:1004D0000CC023E02383FC01E859FF4F25E0208373
:1004E000FC01E959FF4F108224C0DC01AB59BF4F1A
:1004F0002C91231768F4DC01AB59BF4F2C91EC0110
:10050000C20FD11D8B8187838C918F5F8C9311C01B
:10051000DC01AA59BF4F2C91241730F4DC0112964C
:100520008C918160868305C023E0238361E00E9473
:100530001502DF91CF910895DC01ED91FC912481AA
:10054000322F3C7019F00E94FD01089526FF03C070
:100550000E945902089522231CF40E941E0208954D
:1005600066E00E9415020895EF920F93CF93DF93F8
:10057000FC01DB01EE2009F457C0603A88E07807FF
:1005800039F4C0E4D6E088E0898384E08A834CC0F3
:10059000603B88E0780739F4C0E4D6E080E88983DE
:1005A00080E48A8341C0603A89E0780739F4C0E684
:1005B000D6E088E0898384E08A8336C0603B89E0A6
:1005C000780739F4C0E6D6E080E8898380E48A833E
:1005D0002BC0603A8AE0780739F4C0E8D6E088E0BA
:1005E000898384E08A8320C0603B8AE0780739F4FD
:1005F000C0E8D6E080E8898380E48A8315C0603A49
:100600008BE0780739F4C0EAD6E088E0898384E09B
:100610008A830AC0603B8BE0780731F4C0EAD6E0F9
:1006200080E8898380E48A83A083B183228315A232
:1006300016A213A214A211A612A617A210A683E056
:1006400015968C931597007313960C931397552357
:1006500074F414968C911497846014968C93149768
:100660005F7716964C93169717965C9305C016966F
:100670004C93169717965C93A081B18114968C9138
:100680001497806114968C930190F081E02D848101
:1006900088608483DF91CF910F91EF900895FC01E2
:1006A00087A190A521A532A58F5F982F9F7081E02B
:1006B000921301C080E08823C1F027A130A5332721
:1006C000DF01A20FB31F53966C932F5F3F4F2F7024
:1006D000332727A330A7A081B18113969C9113974C
:1006E0009C7F2281922B13969C930895FC0181A5F7
:1006F00092A527A130A599272817390739F4019029
:10070000F081E02D83818C7F83830895A1A5B2A51C
:10071000AE0FBF1F53968C91A081B1818C9381A5A0
:1007200092A501968F70992781A792A708951F928D
:100730000F920FB60F92112408B60F9218BE09B689
:100740000F9219BE0AB60F921ABE0BB60F921BBEBD
:10075000CF92DF92EF92FF920F931F932F933F93CD
:100760004F935F936F937F938F939F93AF93BF93B9
:10077000EF93FF93CF93DF93CDB7DEB7C054D1098A
:10078000CDBFDEBFE0912225F091232540818091ED
:10079000FD248230D1F130F4882359F0813009F002
:1007A00075C01DC0833009F446C0843009F06EC0A6
:1007B00058C080E090E0642F70E09B01082E02C0DA
:1007C000359527950A94E2F721703327FC01EE5FF7
:1007D000FA4D208301968630910579F757C080E065
:1007E00090E0642F70E09B01082E02C0359527959C
:1007F0000A94E2F721703327FC01E85FFA4D208369
:1008000001968730910579F741C080E090E0642F30
:1008100070E09B01082E02C0359527950A94E2F7F7
:1008200021703327FC01E15FFA4D20830196863069
:10083000910579F72BC080E090E0642F70E09B0178
:10084000082E02C0359527950A94E2F721703327C8
:10085000FC01EB5EFA4D208301968730910579F714
:1008600015C080E090E0642F70E09B01082E02C06C
:10087000359527950A94E2F721703327FC01E45E51
:10088000FA4D208301968630910579F78091FD24F9
:1008900081110DC0842F90E0082E892F000C881F35
:1008A000990B000C881F991F029709F018C38091BB
:1008B000FD24843009F0E3C2842F90E0082E892FB4
:1008C000000C881F990B000C881F991F039709F0D3
:1008D00006C3D5C21092FD24FE01319680E4DF01EB
:1008E0001D928A95E9F7CE2EDF2E7F0100E010E001
:1008F000B801882777FD8095982F0E94B63820E0B0
:1009000030E044E351E40E94803A20E030E044EBE0
:1009100050E40E943E370E948338F701619371933F
:100920007F010F5F1F4F0032110511F7EC2DFD2DD8
:1009300080E090E06FEF7FEFDC01AE5FBA4D2C916D
:10094000222331F020813181621773070CF4B90141
:10095000019632968032910579F76F3FFFEF7F075E
:1009600009F055C085E28093F824A6C0DC01AE5F93
:10097000BA4D2C91222351F1F1100BC0208131810D
:10098000DB01A21BB30B9D0172F431952195310956
:100990000AC020813181D801A21BB30B9D011AF43A
:1009A000319521953109243B31051CF0BE2DB21B38
:1009B0002B2F30E0421753074CF4F11004C0008194
:1009C0001181A90103C060817181A901019632964C
:1009D0008032910559F60F3FEFEF1E0799F48827F3
:1009E00077FD8095982F0E94B6382DEC3CEC4CECAE
:1009F0005DE30E94803A0E94E33A0E948838609347
:100A0000F8245AC0F394F2E0FF120AC041C2F12C5C
:100A100040E050E00FEF1FEF0F2EF8E6EF2EF02D25
:100A2000EC2DFD2D80E090E0A1CF962F872FB8010F
:100A3000092F182FCB01801B910B853B9105BCF032
:100A400028E631E08901081B190BC80195958795A7
:100A5000680F791F882777FD8095982F0E94B638F8
:100A60002DEC3CEC4CEC5DE30E94803A10C0959577
:100A70008795681B790B882777FD8095982F0E94B2
:100A8000B6382DEC3CEC4CEC5DE30E94803A0E94C1
:100A9000E33A0E9488386093F8249091F82489E31F
:100AA000989F812D112486958695869514E2819FC5
:100AB000901911249093F8248091F824853209F03C
:100AC0004CC08091F9248823F1F1809100208F3F60
:100AD000A9F020915027309151274AE58402C001A6
:100AE00011248F519F4F68E671E00E944F3B821B9B
:100AF000930B809300259093012516C020915027D9
:100B000030915127809101205AE58502C0011124BE
:100B10008C549F4F68E671E00E944F3B821B930B01
:100B200080930025909301258091002590910125C7
:100B3000919581959109809300259093012584E0FA
:100B40008093FF24CCC18FEF8093012080930220FB
:100B5000809300201092FF24C2C12091F82440917C
:100B6000502750915127822F90E09C01220F331F74
:100B7000C901880F991F880F991F820F931F840F37
:100B8000951F99232CF08093FA249093FB2406C0A0
:100B900088599E4F8093FA249093FB248091FA24E5
:100BA0009091FB2468E671E00E944F3B482F592F3B
:100BB0008093FA249093FB24809102208F3FD9F4F4
:100BC000842F9C012D5231092A35310568F09C0192
:100BD000275831092A35310548F0815E91098A3557
:100BE000910530F483E005C081E003C082E001C0DC
:100BF00080E080930220809100208F3F49F5842F70
:100C0000952F9C012E5131092E31310508F44BC12D
:100C10009C01225D31092E31310508F444C19C014B
:100C2000285731092E31310508F437C18C529140D3
:100C30004E9708F432C18FEF09C0833011F081E084
:100C400005C083E003C083E001C082E08093002000
:100C5000A09101208A2F992787FD9095242F352F69
:100C6000F901BD97EA35F10508F42EC1A9014758ED
:100C700051094A35510508F41EC1B901615E710977
:100C80006A35710508F019C163E018C1A901475818
:100C900051094A35510540F0A901415E51094A35D3
:100CA000510520F443E005C042E003C040E001C02C
:100CB00041E0BC01641B710962307105C1F414C0CC
:100CC0004A35510540F0A901415E51094A355105A7
:100CD00020F443E003C042E001C040E050E0481B84
:100CE000590B4230510519F4AF3F09F0F4C0EA3511
:100CF000F10570F0A901475851094A35510550F0E6
:100D0000A901415E51094A35510530F443E005C05F
:100D100041E003C042E001C040E050E08417950785
:100D200011F41092F924409100204F3F79F1EA35F7
:100D3000F10570F0C901875891098A35910550F085
:100D4000C901815E91098A35910530F483E005C0BF
:100D500081E003C082E001C080E0582F481769F0AD
:100D6000992787FD9095841B910947FD93950197DD
:100D700021F0433031F4511104C01092F92440E0C5
:100D800033C081E08093F92441E004C04091F9240C
:100D9000442351F15091F824852F90E0880F991F3A
:100DA000BC01660F771F660F771F860F971FEA3506
:100DB000F10568F0B901675871096A35710548F0A5
:100DC000215E31092A35310530F423E005C021E0E8
:100DD00003C022E001C020E030E02E5F3F4F2370CF
:100DE0003078209301202AC05091F824852F90E07C
:100DF000880F991FBC01660F771F660F771F860F3C
:100E0000971F8C549F4F68E671E00E944F3BEA3574
:100E1000F10568F0B901675871096A35710548F044
:100E2000215E31092A35310530F423E005C021E087
:100E300003C022E001C020E020930120853B910502
:100E400014F08856914091958195910980930025E1
:100E500090930125442311F083E001C082E0809348
:100E6000FF248091FC248F5F8093FC2485FF37C092
:100E700088ED84BF81E0E8E7F0E0818330C08091B5
:100E8000FD248F5F8093FD24853008F023CD27C09B
:100E9000601771070CF4C9CDCDCD80910220882355
:100EA00009F4D1CECACE809102208250823008F45B
:100EB000CCCE80E0CBCE62E001C060E08C01061BAE
:100EC00011090AF0E3CEFCCEAC01415051090AF001
:100ED000EFCE41E003CF41E04093F92408CFC05C5E
:100EE000DF4FCDBFDEBFDF91CF91FF91EF91BF917B
:100EF000AF919F918F917F916F915F914F913F91B2
:100F00002F911F910F91FF90EF90DF90CF900F9056
:100F10000BBE0F900ABE0F9009BE0F9008BE0F9037
:100F20000FBE0F901F9018951F920F920FB60F9241
:100F3000112408B60F9218BE09B60F9219BE0BB64F
:100F40000F921BBE2F933F934F935F936F937F93AB
:100F50008F939F93AF93BF93EF93FF9382E295E2BA
:100F60000E947603FF91EF91BF91AF919F918F9176
:100F70007F916F915F914F913F912F910F900BBE99
:100F80000F9009BE0F9008BE0F900FBE0F901F90DC
:100F90001895EF920F93EE24E39400E322E049E1E9
:100FA00050E060EB7AE082E295E20E94B4020F9199
:100FB000EF900895811108C060E082E295E20E94FE
:100FC0004F0310924D25089590914D259F5F90936A
:100FD0004D25963068F0813031F46AEA82E295E27C
:100FE0000E944F03089565E582E295E20E944F0357
:100FF00008951F920F920FB60F92112408B60F9208
:1010000018BE09B60F9219BE0BB60F921BBE2F93D6
:101010003F938F939F93AF93BF93EF93FF93E09191
:101020003327F0E0A0E0B2E094968D919C919597E3
:10103000A0913327B0E0AA0FBB1FAD5DB84D2D9135
:101040003C91821B930BEE0FFF1FED5EF84D8083EA
:101050009183E0ECF7E0808580FD04C08091332728
:10106000873091F0809133278F5F8770809333278B
:1010700080913327880F880F880FE0E0F2E081A38A
:1010800080A1806880A311C08091132790911427BC
:1010900020911F2730912027820F931F96958795C7
:1010A0008093212790932227DDCFFF91EF91BF916D
:1010B000AF919F918F913F912F910F900BBE0F9009
:1010C00009BE0F9008BE0F900FBE0F901F9018958D
:1010D0001F920F920FB60F92112408B60F9218BEEE
:1010E0000F9008BE0F900FBE0F901F901895AAEC9E
:1010F000B1E022E02C93FC0184911C9290E00895D1
:10110000CF93DF9380E290E00E947708C0E0D2E0C6
:101110008C8781E290E00E9477088D8780E290E0E2
:101120000E9477088C8781E290E00E9477088D8783
:1011300081E088A319A2198296E09C8390E39A83A8
:101140001B829FE09E838AA3888388A1806888A3EE
:10115000DF91CF910895AB01772324F444275527DD
:10116000461B570B242F352F2D3D95E0390710F0E6
:101170002CED35E01616170694F440E150E0082EE9
:1011800002C0440F551F0A94E2F7E0E2F7E04583FE
:101190004CED55E0BA01621B730B9B010BC040E1A3
:1011A00050E0082E02C0440F551F0A94E2F7E0E217
:1011B000F7E04683811105C0E0E0FAE020A731A7FF
:1011C0000895813029F4E0E0FAE022A733A70895DA
:1011D000823029F4E0E0FAE024A735A70895E0E0A2
:1011E000FAE026A737A708952F923F924F925F9279
:1011F0006F927F928F929F92AF92BF92CF92DF9227
:10120000EF92FF920F931F93CF93DF93CDB7DEB78B
:10121000A697CDBFDEBF1C0180E1E6EAF1E2DE0168
:10122000519601900D928A95E1F780E1E6EBF1E2AB
:10123000DE01119601900D928A95E1F7CE0141965B
:101240008BA39CA3FE013196E9A3FAA300E010E072
:101250002DA23EA25101FAE5AF0EB11C2A013B01BD
:1012600004C18DA19EA188599E4FEAF3893621E0E1
:10127000920734F0885691408936E1E09E07D4F712
:101280008A35910564F4FC01EE0FFF1FEE0FFF1F7E
:10129000E75FFF4D208131814281538136C0843B1D
:1012A00091057CF4E4EBF0E0E81BF90BEE0FFF1F77
:1012B000EE0FFF1FE75FFF4D208131814281538197
:1012C00024C08E30F1E09F077CF4FC01EE0FFF1F7D
:1012D000EE0FFF1FE75CF24E80819181A281B38106
:1012E0009C01AD01505811C0E8E6F1E0E81BF90B94
:1012F000EE0FFF1FEE0FFF1FE75FFF4D8081918113
:10130000A281B3819C01AD0150587801E9A1FAA1F5
:101310006191719181919191E9A3FAA30E94803A20
:10132000A30192010E94803A862E972EC82ED92EB4
:10133000C501BB201CF488599E4FEAF38936F1E0C1
:101340009F0734F088569140893621E09207D4F700
:101350008A35910564F4FC01EE0FFF1FEE0FFF1FAD
:10136000E75FFF4D208131814281538136C0843B4C
:1013700091057CF4E4EBF0E0E81BF90BEE0FFF1FA6
:10138000EE0FFF1FE75FFF4D2081318142815381C6
:1013900024C08E30E1E09E077CF4FC01EE0FFF1FBD
:1013A000EE0FFF1FE75CF24E80819181A281B38135
:1013B0009C01AD01505811C0E8E6F1E0E81BF90BC3
:1013C000EE0FFF1FEE0FFF1FE75FFF4D8081918142
:1013D000A281B3819C01AD015058EBA1FCA16191A8
:1013E000719181919191EBA3FCA30E94803AA3019A
:1013F00092010E94803A9B01AC01682D792D8C2DC1
:101400009D2D0E943E37862E972EC82ED92E20E085
:1014100030E0A9010E94DE3918166CF420E030E0BB
:1014200040E05FE3682D792D8C2D9D2D0E943E3785
:101430000E94F1380CC020E030E040E05FE3682D0E
:10144000792D8C2D9D2D0E943D370E9404380E94DD
:101450008338F701EE0FFF1FEC5AF84D608371835C
:101460000F5F1F4F0430110531F033200CF4F9CE1B
:101470008DA19EA1FBCEA696CDBFDEBFDF91CF9101
:101480001F910F91FF90EF90DF90CF90BF90AF90A2
:101490009F908F907F906F905F904F903F902F9094
:1014A00008952F923F924F925F926F927F928F9208
:1014B0009F92AF92BF92CF92DF92EF92FF920F93E3
:1014C0001F93CF93DF93CDB7DEB7A697CDBFDEBF17
:1014D0008C016A017B0180E1E6EAF1E2DE015196CE
:1014E00001900D928A95E1F780E1E6EBF1E2DE01F1
:1014F000119601900D928A95E1F7053B11052CF0AC
:1015000008561140053B1105DCF70C342FEF12078C
:101510000CF02AC108591E4F0C348FEF1807D4F372
:1015200023C18DA19EA188599E4FEAF38936E1E03F
:101530009E0734F0885691408936F1E09F07D4F732
:101540008A35910564F4FC01EE0FFF1FEE0FFF1FBB
:10155000E75FFF4D208131814281538136C0843B5A
:1015600091057CF4E4EBF0E0E81BF90BEE0FFF1FB4
:10157000EE0FFF1FE75FFF4D2081318142815381D4
:1015800024C08E3021E092077CF4FC01EE0FFF1F97
:10159000EE0FFF1FE75CF24E80819181A281B38143
:1015A0009C01AD01505811C0E8E6F1E0E81BF90BD1
:1015B000EE0FFF1FEE0FFF1FE75FFF4D8081918150
:1015C000A281B3819C01AD0150587501E9A1FAA136
:1015D0006191719181919191E9A3FAA30E94803A5E
:1015E000A30192010E94803A862E972EC82ED92EF2
:1015F000C10133201CF488599E4FEAF38936F1E08B
:101600009F0734F088569140893621E09207D4F73D
:101610008A35910564F4FC01EE0FFF1FEE0FFF1FEA
:10162000E75FFF4D208131814281538136C0843B89
:1016300091057CF4E4EBF0E0E81BF90BEE0FFF1FE3
:10164000EE0FFF1FE75FFF4D208131814281538103
:1016500024C08E30E1E09E077CF4FC01EE0FFF1FFA
:10166000EE0FFF1FE75CF24E80819181A281B38172
:101670009C01AD01505811C0E8E6F1E0E81BF90B00
:10168000EE0FFF1FEE0FFF1FE75FFF4D808191817F
:10169000A281B3819C01AD015058EBA1FCA16191E5
:1016A000719181919191EBA3FCA30E94803AA301D7
:1016B00092010E94803A9B01AC01682D792D8C2DFE
:1016C0009D2D0E943E37862E972EC82ED92E20E0C3
:1016D00030E0A9010E94DE3918166CF420E030E0F9
:1016E00040E05FE3682D792D8C2D9D2D0E943E37C3
:1016F0000E94F1380CC020E030E040E05FE3682D4C
:10170000792D8C2D9D2D0E943D370E9404380E941A
:101710008338F701EE0FFF1FEC5AF84D6083718399
:101720008091FF24882399F0F701EE0FFF1FEC5AF8
:10173000F84D8081918199230CF4019695958795B8
:10174000F701EE0FFF1FEC5AF84D80839183FFEFF6
:10175000AF1ABF0A24E0A216B104C9F011230CF499
:10176000E0CE8DA19EA1E2CECE0141968BA39CA39B
:10177000FE013196E9A3FAA3A12CB12C0DA31EA35F
:101780001801FAE52F0E311C26013701E7CFA69686
:10179000CDBFDEBFDF91CF911F910F91FF90EF90F2
:1017A000DF90CF90BF90AF909F908F907F906F9081
:1017B0005F904F903F902F9008952F923F924F92BD
:1017C0005F926F927F928F929F92AF92BF92CF92D1
:1017D000DF92EF92FF920F931F93CF93DF93CDB7DA
:1017E000DEB7A897CDBFDEBF5C016B0180E1E6EC00
:1017F000F1E2DE01519601900D928A95E1F780E1C8
:10180000E6EBF1E2DE01119601900D928A95E1F787
:10181000E0907521F0907621EA18FB08009177217D
:1018200010917821061B170B80915C2790914E2513
:10183000981709F445C160917521709176216A1954
:101840007B09882777FD8095982F0E94B6382DEC6C
:101850003CEC4CE45BE30E94803A20914F253091B0
:10186000502540915125509152250E943E37662EB9
:10187000772E882E992E20E030E048EC52E40E942A
:10188000DE3918166CF480E090E0A8ECB2E48093A6
:101890004F2590935025A0935125B093522525C0F4
:1018A00020E030E048EC52EC662D772D882D992D04
:1018B0000E94173888236CF0862D972DA82DB92DFE
:1018C00080934F2590935025A0935125B093522596
:1018D0000CC080E090E0A8ECB2EC80934F25909390
:1018E0005025A0935125B093522560917521709198
:1018F00076216A197B09882777FD8095982F0E94A9
:10190000B63820914F253091502540915125509166
:1019100052250E94803A20E030E0A9010E94173849
:10192000181644F010924F25109250251092512510
:101930001092522560917721709178216C197D0960
:10194000882777FD8095982F0E94B6382DEC3CECC7
:101950004CE45BE30E94803A20915325309154255A
:1019600040915525509156250E943E37862E972E40
:10197000A82EB92E20E030E048EC52E40E94DE3977
:1019800018166CF480E090E0A8ECB2E48093532544
:1019900090935425A0935525B093562525C020E05B
:1019A00030E048EC52EC682D792D8A2D9B2D0E9459
:1019B000173888236CF0882D992DAA2DBB2D809384
:1019C000532590935425A0935525B09356250CC0CC
:1019D00080E090E0A8ECB2EC8093532590935425DE
:1019E000A0935525B0935625609177217091782169
:1019F0006C197D09882777FD8095982F0E94B6384D
:101A000020915325309154254091552550915625CC
:101A10000E94803A20E030E0A9010E941738181691
:101A200044F010925325109254251092552510928F
:101A300056258091032090910420B701681B790BF3
:101A4000882777FD8095982F0E94B63820E030E0F7
:101A500040E852E40E94803A20E030E040EA50E45E
:101A60000E94803A462E572E882E992E809105206E
:101A700090910620B801681B790B882777FD809527
:101A8000982F0E94B63820E030E040E852E40E94EF
:101A9000803A20E030E040EA50E40E94803A662E2E
:101AA000772EA82EB92EE0920320F0920420009306
:101AB00005201093062080915C2780934E2508C056
:101AC000612C712CA12CB12C412C512C812C912CEE
:101AD000B701882777FD8095982F0E94B63820E0BF
:101AE00030E040E451E40E94803A6B017C0120E048
:101AF00030E040E850E460914F257091502580918E
:101B00005125909152250E94803A9B01AC01C7015A
:101B1000B6010E943E376B017C012DEC3CEC4CE49D
:101B20005EE3642D752D882D992D0E94803A9B01CE
:101B3000AC01C701B6010E943E37262E372E882EF3
:101B4000992EB801882777FD8095982F0E94B63886
:101B500020E030E040E451E40E94803A6B017C01D7
:101B600020E030E040E850E4609153257091542526
:101B700080915525909156250E94803A9B01AC0199
:101B8000C701B6010E943E376B017C012DEC3CEC95
:101B90004CE45EE3662D772D8A2D9B2D0E94803AC2
:101BA0009B01AC01C701B6010E943E376DA37EA325
:101BB0008FA398A7CE0101968BA39CA3FE017196DB
:101BC000E9A3FAA300E010E05801EBA1FCA12191E8
:101BD000319141915191EBA3FCA3E9A1FAA141906C
:101BE000519061907190E9A3FAA3622D732D882D15
:101BF000992D0E94803A6B017C01A3019201BDA145
:101C0000AEA1FFA1E8A56B2F7A2F8F2F9E2F0E94E8
:101C1000803A9B01AC01C701B6010E943E37C62E37
:101C2000D72EE82EF92E20E030E0A9010E94DE39FF
:101C300018166CF420E030E040E05FE36C2D7D2D61
:101C40008E2D9F2D0E943E370E94F1380CC020E05F
:101C500030E040E05FE36C2D7D2D8E2D9F2D0E94A6
:101C60003D370E9404380E948338F501EE0FFF1FB4
:101C7000EC5AF84D608371830F5F1F4F04301105DC
:101C800009F0A2CF80E090E060E070E09C01FC01F0
:101C9000EE0FFF1FEC5AF84D40815181552344F05F
:101CA000FC01EE0FFF1FEC5AF84D408151810AC034
:101CB000FC01EE0FFF1FEC5AF84D40815181519508
:101CC0004195510964177507DCF4F901EE0FFF1F08
:101CD000EC5AF84D40815181552344F0F901EE0F43
:101CE000FF1FEC5AF84D608171810AC0F901EE0FB7
:101CF000FF1FEC5AF84D60817181719561957109F2
:101D000001968430910511F6613BF4E07F070CF4F5
:101D10005BC0882777FD8095982F0E94B6389B017D
:101D2000AC0160E070E086E994E40E941B38A62EC6
:101D3000B72EC82ED92E00E010E07801F801EE0F82
:101D4000FF1FEC5AF84D60817181882777FD8095DF
:101D5000982F0E94B6382A2D3B2D4C2D5D2D0E94C8
:101D6000803A662E772E882E992E20E030E0A90149
:101D70000E94DE3918166CF420E030E040E05FE3AA
:101D8000662D772D882D992D0E943E370E94F138BF
:101D90000CC020E030E040E05FE3662D772D882D19
:101DA000992D0E943D370E9404380E948338F70124
:101DB000EE0FFF1FEC5AF84D608371830F5F1F4FCA
:101DC0000430110509F0B9CFA896CDBFDEBFDF9171
:101DD000CF911F910F91FF90EF90DF90CF90BF9028
:101DE000AF909F908F907F906F905F904F903F90BB
:101DF0002F9008958F929F92AF92BF920F931F934F
:101E0000CF93DF93BC01A8958730910558F020E46B
:101E10003CE9C9010197F1F766507109A89567304F
:101E20007105B8F780E090E00E94B4384B015C0186
:101E300020E030E04AEF55E40E94803A062F172F49
:101E4000D82FC92F20E030E040E85FE30E94173828
:101E500088234CF120E03FEF4FE757E4602F712FCC
:101E60008D2F9C2F0E94DE391816B4F420E030E04C
:101E700040E251E4C501B4010E94803A0E948838D2
:101E800061157105A9F020E233E0C9010197F1F76E
:101E900061507109D1F70CC0602F712F8D2F9C2FCD
:101EA0000E94883802C061E070E0CB010197F1F731
:101EB000A895DF91CF911F910F91BF90AF909F9008
:101EC0008F90089590915E2591110DC0811113C0DE
:101ED0000AC084EF91E0E0E0F8E080A791A781E0FC
:101EE00080930820089580910820815080930820D5
:101EF000882379F3089588EE93E0E0E0F8E080A786
:101F000091A7109208200895809107208823B9F0A6
:101F100081E080935E2584E690E080935A2590933B
:101F20005B2510925725109258258EEF9FEF8093D6
:101F3000F5269093F6261092072010925E250895BC
:101F400080910720882361F08FE090E080935A25EC
:101F500090935B25109257251092582510920720D8
:101F6000089580910720811118C080915C2590917F
:101F70005D25019680935C2590935D258F3F9105AB
:101F800060F084E0E0E2F7E0868310925C25109236
:101F90005D2581E080930720089580915A259091D6
:101FA0005B25892B71F080915A2590915B250197D3
:101FB00080935A2590935B2584E0E0E2F7E08583E7
:101FC000089584E0E0E2F7E086830895E0E2F7E038
:101FD000808581FD2EC080915725909158250697C8
:101FE000C0F081E08093592588E0E0E0F7E0858348
:101FF0008091572590915825499708F046C08091C7
:1020000057259091582501968093572590935825F0
:1020100008951092592588E0E0E0F7E086838091EA
:1020200057259091582501968093572590935825D0
:1020300008958091572590915825069788F081E062
:102040008093592588E0E0E0F7E08583809157256B
:10205000909158250197809357259093582508957E
:102060001092592588E0E0E0F7E0868380915725BB
:1020700090915825892B49F08091572590915825AA
:1020800001978093572590935825089581309105A5
:10209000E9F56F3F7F4F09F05EC046EC6AE875E2F4
:1020A00087E895E20E94AB3442EE6AE875E28BE77E
:1020B00095E20E94743644EE6AE875E28FE795E295
:1020C0000E94743646EE6AE875E283E895E20E9463
:1020D000743640E563EF75E287E795E20E94E131EF
:1020E0004EEC6AE875E283E795E20E94073648EA1B
:1020F0006AE875E283E695E20E946E3640EC63EF93
:1021000075E28FE595E20E94A4340895892B19F5B4
:102110006F3F7F4F01F58FE595E20E94AA3483E679
:1021200095E20E94733683E795E20E940D3687E7B9
:1021300095E20E94E73183E895E20E947A368FE7C4
:1021400095E20E947A368BE795E20E947A3687E81C
:1021500095E20E94B0340895EF920F93EE24E39439
:1021600000E221E04FEC50E060EA78E080E697E2A0
:102170000E94B4020F91EF9008951F920F920FB634
:102180000F92112408B60F9218BE09B60F9219BE0D
:102190000AB60F921ABE0BB60F921BBE2F933F9337
:1021A0004F935F936F937F938F939F93AF93BF935F
:1021B000CF93DF93EF93FF93E0916027F091612736
:1021C000408180915F27873009F462C068F48330D2
:1021D00039F120F4813021F148F51CC0853009F433
:1021E00042C008F04DC036C08B3009F47BC030F4DB
:1021F000893009F462C008F06DC057C08D3009F411
:1022000086C008F47CC08E3009F48EC08F3009F08F
:10221000E7C092C0453509F4E3C010925F27E5C0DE
:102220004A3A09F4DDC010925F27DFC0453531F42A
:10223000E0915D27F0915E2712860CC0463539F497
:10224000E0915D27F0915E2781E0828703C01092C4
:102250005F27CBC0E0915D27F0915E27842F90E04F
:1022600083879487BDC0E0915D27F0915E27238529
:102270003485942F80E0822B932B83879487B0C082
:10228000E0915D27F0915E2750E040875187A8C01C
:10229000E0915D27F0915E2720853185942F80E0C5
:1022A000822B932B808791879BC0E0915D27F091D3
:1022B0005E2750E04483558393C0E0915D27F09101
:1022C0005E2724813581942F80E0822B932B848399
:1022D000958386C0E0915D27F0915E2750E04683AC
:1022E00057837EC0E0915D27F0915E27268137817C
:1022F000942F80E0822B932B8683978371C0E0918B
:102300005D27F0915E2750E04083518369C0E091E2
:102310005D27F0915E2720813181942F80E0822B10
:10232000932B808391835CC0E0915D27F0915E27C1
:1023300050E04283538354C0E0915D27F0915E27C3
:1023400022813381942F80E0822B932B828393838D
:1023500020813181C281D381A481B5816681778159
:1023600040855185838594852C0F3D1F2A0F3B1F87
:10237000260F371F240F351F2817390769F581E00D
:1023800085872481358180915027909151274091F4
:10239000342750913527205A310912F42D5F3F4FD1
:1023A0003595279535952795820F931F9A01220F12
:1023B000331F220F331F220F331F420F531F840F6F
:1023C000951F6AE070E00E944F3B60933427709342
:1023D000352710928B2701C0158610925F2705C004
:1023E00080915F278F5F80935F27FF91EF91DF914F
:1023F000CF91BF91AF919F918F917F916F915F919D
:102400004F913F912F910F900BBE0F900ABE0F90EE
:1024100009BE0F9008BE0F900FBE0F901F90189529
:102420001F920F920FB60F92112408B60F9218BE8A
:1024300009B60F9219BE0AB60F921ABE0BB60F92CA
:102440001BBE2F923F924F925F926F927F928F921C
:102450009F92AF92BF92CF92DF92EF92FF920F9333
:102460001F932F933F934F935F936F937F938F931C
:102470009F93AF93BF93EF93FF93CF93DF93CDB72A
:10248000DEB72A97CDBFDEBF80915C278931E8F1A6
:1024900010925C27E0EEF6E0808580FD3BC08085F1
:1024A00086FD1BC08091A5218823D1F087E795E2A6
:1024B0000E940F3380934B2790934C27109238271C
:1024C0001092392760914B2770914C2780E590E05E
:1024D0000E94FB3B1092A52103C081E08093A521BF
:1024E0001092F4261092F5261092F626E0EEF6E011
:1024F000808580FD06C08085829581700E94DA0704
:1025000009C080E00E94DA0705C080915C278F5FD8
:1025100080935C27E0EEF6E0808580FD04C0109299
:10252000FF241092F92480917826909179269C01BD
:102530002F5F3F4F20937826309379268D3D95402D
:10254000D0F180910127909102278136994028F19E
:102550008091FD269091FE26992364F48091FD26BA
:102560009091FE269195819591098B3491054CF0BF
:1025700080E018C08091FD269091FE268B34910555
:1025800074F4E0EEF6E0808580FD0BC09091D826D3
:1025900081E0933039F480E005C080E003C080E042
:1025A00001C081E00E94620F80E496E0809378266B
:1025B0009093792630C080917826909179269C015D
:1025C0002F5F3F4F2093782630937926893E9340A2
:1025D00038F084EF91E0E0E0F8E080A791A71BC01D
:1025E00080917826909179269C012F5F3F4F209310
:1025F000782630937926853F914038F088EE93E035
:10260000E0E0F8E080A791A706C084EF91E0E0E069
:10261000F8E080A791A780914D278F5F80934D2789
:10262000843008F45AC010924D278091472790912A
:1026300048278093492790934A2787E795E20E948D
:102640006234853009F03FC080E4E0E0F7E0868343
:1026500087E795E20E940F3320914B2730914C275A
:10266000821B930B89879A8789859A85853B91057B
:102670003CF089859A858856914089879A870BC056
:1026800089859A858C349F4F34F489859A85885939
:102690009E4F89879A8789859A8580935027909342
:1026A000512787E795E20E942034833F30F080E88D
:1026B000E0E0F7E086830C94AE1B80E8E0E0F7E012
:1026C00085830C94AE1B87E795E20E94E83180E495
:1026D000E0E0F7E085830C94AE1B813009F0E7C29F
:1026E000E0EEF6E0808585FF03C08CE291E002C059
:1026F00080ED97E020911327309114272817390790
:1027000098F520911527309116272817390760F57D
:1027100020911727309118272817390728F520917D
:10272000192730911A2728173907F0F420911B2711
:1027300030911C2728173907B8F420911D273091B4
:102740001E272817390780F420911F273091202752
:102750002817390748F4209121273091222728177C
:10276000390710F40C94EC1B0F2EF8EECF2EF4E288
:10277000DF2EF02DE12CF12C212C312C412C512C71
:10278000612C712C812C912C5701F701EE0FFF1F4A
:10279000ED5EF84D6081718180E090E00E94B43878
:1027A000F60130812181F2E0CF0ED11C032F122FD0
:1027B00011232CF4980128593E4FEAF301C09801E7
:1027C000293641E0340734F0285631402936E1E01B
:1027D0003E07D4F72A35310564F4F901EE0FFF1FE7
:1027E000EE0FFF1FE75FFF4D208131814281538152
:1027F00032C0243B31057CF4E4EBF0E0E21BF30B48
:10280000EE0FFF1FEE0FFF1FE75FFF4D20813181AD
:102810004281538120C02E30F1E03F076CF4F90172
:10282000EE0FFF1FEE0FFF1FE75CF24E208131819C
:102830004281538150580FC0E8E6F1E0E21BF30BF0
:10284000EE0FFF1FEE0FFF1FE75FFF4D208131816D
:102850004281538150580E94803A9B01AC01662D01
:10286000772D882D992D0E943E37662E772E882E43
:10287000992EF501EE0FFF1FED5EF84D608171811D
:1028800080E090E00E94B438065A1F4F1AF40859AD
:102890001E4FEAF3093621E0120734F008561140C2
:1028A000093631E01307D4F70A35110564F4F8014D
:1028B000EE0FFF1FEE0FFF1FE75FFF4D20813181FD
:1028C0004281538136C0043B11057CF4E4EBF0E017
:1028D000E01BF10BEE0FFF1FEE0FFF1FE75FFF4D39
:1028E000208131814281538124C00E3041E01407A0
:1028F0007CF4F801EE0FFF1FEE0FFF1FE75CF24EB6
:102900000081118122813381A9019801505811C0A1
:10291000E8E6F1E0E01BF10BEE0FFF1FEE0FFF1FEB
:10292000E75FFF4D0081118122813381A901980168
:1029300050580E94803A9B01AC01622D732D842D6A
:10294000952D0E943E37262E372E482E592E8FEF7A
:10295000E81AF80AE8E0EE16F10409F015CF262D82
:10296000372D482D592D622D732D842D952D0E94C4
:10297000B13720E030E044E353E40E94803A2BED8D
:102980003FE049E450E40E941B380E948338609382
:10299000FD267093FE268091FD269091FE262091C3
:1029A000502730915127821B930B8093FB269093E5
:1029B000FC26E0ECF7E0808580FD0AC08091FD26D2
:1029C0009091FE2605978093FD269093FE2619C0D0
:1029D0008091FD269091FE2648968093FD26909347
:1029E000FE268091FD269091FE26181619064CF4BD
:1029F0008091FD269091FE260A978093FD26909364
:102A0000FE268091FD269091FE268D349F4F5CF42A
:102A10008091FD269091FE2688599E4F8093FD2639
:102A20009093FE2611C08091FD269091FE26853B55
:102A3000910554F08091FD269091FE268856914094
:102A40008093FD269093FE26222D332D442D552D67
:102A5000662D772D882D992D0E94EB396B017C0115
:102A600020E030E0A9010E94DE3918165CF420E075
:102A700030E040E05FE3C701B6010E943E370E94AC
:102A8000F1380AC020E030E040E05FE3C701B60162
:102A90000E943D370E9404380E94883860930127C5
:102AA000709302270091FD261091FE266091012768
:102AB0007091022780E090E00E94B4386B017C01A5
:102AC000000F111F000F111F065A1F4F1AF408594B
:102AD0001E4FEAF3093621E0120734F00856114080
:102AE000093631E01307D4F70A35110564F4F8010B
:102AF000EE0FFF1FEE0FFF1FE75FFF4D20813181BB
:102B00004281538136C0043B11057CF4E4EBF0E0D4
:102B1000E01BF10BEE0FFF1FEE0FFF1FE75FFF4DF6
:102B2000208131814281538124C00E3041E014075D
:102B30007CF4F801EE0FFF1FEE0FFF1FE75CF24E73
:102B400080819181A281B3819C01AD01505811C057
:102B5000E8E6F1E0E01BF10BEE0FFF1FEE0FFF1FA9
:102B6000E75FFF4D80819181A281B3819C01AD011E
:102B7000505860E070E080E191E40E943D379B0195
:102B8000AC01C701B6010E94803A20E030E040E08D
:102B90005EE30E94803AE62EF72E082F192F20E0E0
:102BA00030E0A9010E94DE3918166CF420E030E014
:102BB00040E05FE36E2D7F2D802F912F0E943E37E6
:102BC0000E94F1380CC020E030E040E05FE36E2D61
:102BD0007F2D802F912F0E943D370E9404380E9444
:102BE00088386093FF26709300278091F526909196
:102BF000F6269C012F5F3F4F2093F5263093F62653
:102C00008034914008F041C08091012790910227C3
:102C10008039914008F4EFC52091F9263091FA26C9
:102C200080910127909102272059314028173907B8
:102C300008F0E1C52091F9263091FA26809101270C
:102C40009091022720573E4F8217930708F0D3C573
:102C50002091F7263091F8268091FD269091FE264E
:102C600025503109281739070CF0C5C52091F726E2
:102C70003091F8268091FD269091FE262B5F3F4FE4
:102C8000821793070CF46AC5B6C58091F52690911A
:102C9000F6268138924020F481E08093F4265EC5C8
:102CA0001092F4261092F5261092F62657C582301F
:102CB00009F09DC3809136279091372720915027A6
:102CC00030915127821B930B853B91053CF0885630
:102CD000914080934727909348270FC08C343FEF53
:102CE00093072CF0809347279093482706C0885974
:102CF0009E4F809347279093482700914727109134
:102D00004827B801882777FD8095982F0E94B6380C
:102D10004B015C0120E030E040E85CE30E94803A37
:102D200020914327309144274091452750914627D1
:102D30000E943E37462E572E682E792E20E030E036
:102D400048E453E40E94DE3918166CF480E090E009
:102D5000A8E4B3E48093432790934427A0934527A6
:102D6000B093462725C020E030E048E453EC642DC2
:102D7000752D862D972D0E94173888236CF0842D91
:102D8000952DA62DB72D8093432790934427A0938C
:102D90004527B09346270CC080E090E0A8E4B3EC50
:102DA0008093432790934427A0934527B0934627C9
:102DB0002091492730914A27029FC001039F900D1F
:102DC000129F900D112418161906B4F020E030E07F
:102DD00040E05FE36091432770914427809145274D
:102DE000909146270E94803A60934327709344272E
:102DF0008093452790934627C0904327D09044273F
:102E0000E0904527F0904627A7019601C501B4013F
:102E10000E94803A20E030E0A9010E94173818167D
:102E200084F024EA30E74DE75FE3C701B6010E9472
:102E3000803A60934327709344278093452790936B
:102E4000462787E795E20E94C132809341279093FD
:102E5000422780917A25882321F0109241271092F1
:102E600042276091412770914227009138271091A5
:102E70003927882777FD8095982F0E94B63820E063
:102E800030E040E85CE30E94803A0E948338600FA3
:102E9000711F60933827709339278091382790915C
:102EA000392760E777E10E944F3B80933827909362
:102EB00039276091382770913927882777FD8095C9
:102EC000982F0E94B6382FE832EC45E75DE30E9468
:102ED000803A0E9483386093362770933727809119
:102EE000362790913727853B91055CF080913627F6
:102EF00090913727885691408093362790933727B3
:102F000011C080913627909137278C349F4F54F40D
:102F1000809136279091372788599E4F8093362786
:102F200090933727009141271091422760914727BE
:102F300070914827882777FD8095982F0E94B63892
:102F400020E030E04AE751E40E94803A6B017C01C6
:102F500020E030E040E051E4609143277091442745
:102F600080914527909146270E94803A9B01AC01B1
:102F7000C701B6010E943E376B017C01B80188276A
:102F800077FD8095982F0E94B63820E030E040E829
:102F90005DE30E94803A9B01AC01C701B6010E942B
:102FA0003E37E62EF72E082F192FA62EB72EC82E45
:102FB000D92E982F4E2D5F2D692F712F40933D27CD
:102FC00050933E2760933F277093402720E030E0E6
:102FD0004AE754E46E2D7F2D802F912F0E94DE3919
:102FE0001816BCF480E090E0AAE7B4E480933D2793
:102FF00090933E27A0933F27B0934027A12CB12C5C
:103000000F2EFAE7CF2EF02D0F2EF4E4DF2EF02D49
:103010002EC020E030E04AE754EC6E2D7F2D802F4B
:10302000912F0E9417388823BCF480E090E0AAE733
:10303000B4EC80933D2790933E27A0933F27B09315
:103040004027A12CB12C0F2EFAE7CF2EF02D0F2EFA
:10305000F4ECDF2EF02D18C020E030E0A9016E2D39
:103060007F2D802F912F0E94DE3918166CF420E0FE
:1030700030E040E05FE36A2D7B2D8C2D9D2D0E947A
:103080003E370E94F1380CC020E030E040E05FE3C2
:103090006A2D7B2D8C2D9D2D0E943D370E9404387A
:1030A0000E948338609352277093532780913B2767
:1030B00090913C27892B41F080913B2790913C27B0
:1030C0008093522790935327A0905427B090552770
:1030D0008091522790915327A80EB91EC090562771
:1030E000D09057278091522790915327C80ED91E10
:1030F000E0905827F09059278091522790915327BC
:10310000E80EF91E00915A2710915B2780915227F3
:1031100090915327080F191F83E795E20E940E36FE
:1031200080935E2690935F26BC0180E090E00E9431
:10313000B4389B01AC0160E070EE84E496E40E9438
:103140001B38662E772E882E992EB501882777FD9D
:103150008095982F0E94B638262D372D482D592D51
:103160000E94803A0E94833869837A83B601882757
:1031700077FD8095982F0E94B638262D372D482D43
:10318000592D0E94803A0E9483386B837C83B7015B
:10319000882777FD8095982F0E94B638262D372DE9
:1031A000482D592D0E94803A0E9483386D837E837A
:1031B000B801882777FD8095982F0E94B638262D74
:1031C000372D482D592D0E94803A0E9483386F83F5
:1031D000788787E795E20E946A3399233CF087E776
:1031E00095E20E946A330B9754F422C087E795E278
:1031F0000E946A339195819591090B97CCF087E7EE
:1032000095E20E94253299234CF087E795E20E94CF
:103210002532813293400CF03FC00AC087E795E227
:103220000E94253291958195910981329340A4F5B0
:1032300087E795E20E94C53399233CF087E795E242
:103240000E94C5330B9754F433C087E795E20E9480
:10325000C5339195819591090B9754F187E795E2D4
:103260000E942532992354F087E795E20E94253287
:1032700021E08132934074F420E00CC087E795E2AE
:103280000E94253291958195910921E081329340E8
:103290000CF420E0222361F0809152279091532773
:1032A0008F8398878D839E838B839C8389839A8366
:1032B0008E010F5F1F4F7E0189E0E80EF11CF801BF
:1032C00060E070E0308121813296832F922F992324
:1032D0001CF4919581959109681779070CF4BC014C
:1032E000EE15FF0579F76D3DE5E07E070CF450C063
:1032F000882777FD8095982F0E94B6389B01AC01F6
:1033000060E070E88BEB94E40E941B38462E572E49
:10331000682E792E6801F80160817181882777FD18
:103320008095982F0E94B638242D352D462D572D87
:103330000E94803A862E972EA82EB92E20E030E0EB
:10334000A9010E94DE3918166CF420E030E040E05C
:103350005FE3682D792D8A2D9B2D0E943E370E94B8
:10336000F1380CC020E030E040E05FE3682D792DBB
:103370008A2D9B2D0E943D370E9404380E9483387D
:10338000F601608371830E5F1F4F0E151F0511F646
:10339000E0EEF6E0808580FF15C069817A8180E0EB
:1033A0000E94AB086B817C8181E00E94AB086D813B
:1033B0007E8182E00E94AB086F81788583E00E9465
:1033C000AB08CCC160E070E080E00E94AB0860E038
:1033D00070E081E00E94AB0860E070E082E00E9453
:1033E000AB0860E070E083E00E94AB08B7C18330B7
:1033F00009F0B4C18091E72681115EC08BE795E2A8
:103400000E941C37882309F47FC083E895E20E945C
:103410001C37882309F478C08BE795E20E94CE36EA
:1034200008EE16E2F8018083918383E895E20E941A
:10343000CE368093EC269093ED26F8018081918121
:10344000892BF1F48091EC269091ED26892B59F48B
:1034500080E590E08093E8269093E9268093EC261F
:103460009093ED261FC02091EC263091ED2682EA44
:1034700090E0821B930B8093E8269093E92612C07C
:103480008091EC269091ED26892B61F42091E8261D
:103490003091E92682EA90E0821B930B8093EC2620
:1034A0009093ED268FE795E20E94C3368091E72640
:1034B0008F5F8093E72628C08091E726813021F531
:1034C0008FE795E20E941C378823F1F08FE795E2A1
:1034D0000E94CE360AEE16E2F801808391838BE7D4
:1034E00095E20E94C336F80180819181892B31F4E5
:1034F00084E690E08093EA269093EB2683E895E2B9
:103500000E94C3361092E7268091EC269091ED261A
:103510002091E8263091E9268A549F4F821B930B15
:1035200096958795E3EEF6E2808391838081918181
:103530008130944024F01092E3261092E42680918A
:10354000EA269091EB260596E5EEF6E280839183DC
:103550008081918180937721909378218091E826D2
:103560009091E9262091EC263091ED26820F931F51
:103570008739910520F1E8EEF6E280819181809310
:103580007F2190938021ACEEB6E28D919C911197B2
:103590008093792190937A211092DA261092D9267D
:1035A0008D919C91208131818A549F4F821B930B76
:1035B000969587958093752190937621CFC0209121
:1035C000E8263091E9264091DA26E42FF0E0EE0F6C
:1035D000FF1FE158FE4D808191812C5E3F4F821785
:1035E000930708F14F5F433018F44093DA2603C085
:1035F00082E08093DA268091DA2690E0FC01EE0FDB
:10360000FF1FE352F94DDC01AA0FBB1FA158BE4DAD
:1036100080917F21909180212D913C91821B930B71
:103620008083918310C02091E8263091E92644964A
:103630002817390740F0442321F041504093DA26FF
:1036400002C01092DA266091DA26262F30E08091AF
:10365000E8269091E926F901EE0FFF1FE158FE4D93
:10366000808391834091EC265091ED267091D9266C
:10367000E72FF0E0EE0FFF1FE758FE4D80819181AC
:103680004C5E5F4F8417950708F17F5F733018F425
:103690007093D92603C082E08093D9268091D926E1
:1036A00090E0FC01EE0FFF1FE752F94DDC01AA0F7D
:1036B000BB1FA758BE4D8091792190917A214D91E1
:1036C0005C91841B950B8083918310C04091EC2604
:1036D0005091ED2644964817590740F0772321F082
:1036E00071507093D92602C01092D9267091D926B4
:1036F000472F50E08091EC269091ED26FA01EE0FD5
:10370000FF1FE758FE4D808391838091E8269091BA
:10371000E926662349F0F901EE0FFF1FE352F94D48
:1037200020813181820F931F2091EC263091ED266C
:10373000772349F0FA01EE0FFF1FE752F94D408160
:103740005181240F351F281B390B2A543F4FC901C3
:103750009695879580937521909376210E94E60F28
:103760000E94B10F1092FC24E0EEF6E0808582FF0B
:103770000BC08091D2268F5F8093D226823320F0B7
:103780000E94C71F1092D22680915E2690915F26DC
:10379000883F9A4288F480915D268F5F80935D26F2
:1037A0008B30F4F190E2E0E0F7E095838531C4F1ED
:1037B00084E180935D2634C080915D2681508093A2
:1037C0005D268A3024F490E2E0E0F7E096838823D7
:1037D0003CF510925D2624C085E090E0809301279F
:1037E000909302278093FF26909300271092FD2646
:1037F0001092FE26FAC980910127909102278093AA
:10380000F9269093FA268091FD269091FE268093CA
:10381000F7269093F8261092F5261092F6269ECF62
:103820002A96CDBFDEBFDF91CF91FF91EF91BF917F
:10383000AF919F918F917F916F915F914F913F9148
:103840002F911F910F91FF90EF90DF90CF90BF903D
:10385000AF909F908F907F906F905F904F903F9030
:103860002F900F900BBE0F900ABE0F9009BE0F90C5
:1038700008BE0F900FBE0F901F9018951F920F92C9
:103880000FB60F92112408B60F9218BE09B60F9208
:1038900019BE0BB60F921BBE2F933F934F935F93AE
:1038A0006F937F938F939F93AF93BF93EF93FF9308
:1038B00087EA96E20E947603FF91EF91BF91AF9164
:1038C0009F918F917F916F915F914F913F912F9138
:1038D0000F900BBE0F9009BE0F9008BE0F900FBE49
:1038E0000F901F9018951F920F920FB60F921124F0
:1038F00008B60F9218BE09B60F9219BE0BB60F92FA
:103900001BBE2F933F934F935F936F937F938F9340
:103910009F93AF93BF93EF93FF938BE796E20E9441
:103920007603FF91EF91BF91AF919F918F917F911E
:103930006F915F914F913F912F910F900BBE0F9020
:1039400009BE0F9008BE0F900FBE0F901F901895E4
:103950001F920F920FB60F92112408B60F9218BE45
:103960000BB60F921BBE8F93EF93FF93E091A726A8
:10397000F091A826808180937A26FF91EF918F9114
:103980000F900BBE0F9008BE0F900FBE0F901F90B0
:1039900018951F920F920FB60F92112408B60F922E
:1039A00018BE09B60F9219BE0BB60F921BBE2F930D
:1039B0003F934F935F936F937F938F939F93AF93B7
:1039C000BF93EF93FF9383EF95E20E949C02FF91D8
:1039D000EF91BF91AF919F918F917F916F915F9187
:1039E0004F913F912F910F900BBE0F9009BE0F90FA
:1039F00008BE0F900FBE0F901F9018951F920F9248
:103A00000FB60F92112408B60F9218BE09B60F9286
:103A100019BE0BB60F921BBE2F933F934F935F932C
:103A20006F937F938F939F93AF93BF93EF93FF9386
:103A30008AE895E20E949C02FF91EF91BF91AF91BD
:103A40009F918F917F916F915F914F913F912F91B6
:103A50000F900BBE0F9009BE0F9008BE0F900FBEC7
:103A60000F901F9018951F920F920FB60F9211246E
:103A700008B60F9218BE0BB60F921BBE2F938F93F2
:103A80009F93EF93FF938091F0268F5F8093F026B2
:103A90008091F026813049F4E0E6F6E0808585FFEC
:103AA000FDCFE0ECF8E013821FC08091F026823059
:103AB00059F4E0ECF8E02381922F80E08093EE2629
:103AC0009093EF26138210C0E0ECF8E02381809100
:103AD000EE269091EF26822B8093EE269093EF2690
:103AE0008EEF83831092F026FF91EF919F918F913B
:103AF0002F910F900BBE0F9008BE0F900FBE0F902E
:103B00001F9018951F920F920FB60F92112408B6AE
:103B10000F9218BE0BB60F921BBE8F939F93EF931D
:103B2000FF9310926C2610926D26E0E6F6E28081FB
:103B3000982F9F5F908388301CF088E080936026E8
:103B4000FF91EF919F918F910F900BBE0F9008BE48
:103B50000F900FBE0F901F9018951F920F920FB6E7
:103B60000F92112408B60F9218BE0BB60F921BBE0F
:103B70008F939F93EF93FF9310926E2610926F2670
:103B8000E1E6F6E28081982F9F5F908388301CF0F9
:103B900088E080936126FF91EF919F918F910F9024
:103BA0000BBE0F9008BE0F900FBE0F901F90189580
:103BB0001F920F920FB60F92112408B60F9218BEE3
:103BC0000BB60F921BBE8F939F93EF93FF931092B0
:103BD000702610927126E2E6F6E28081982F9F5FB0
:103BE000908388301CF088E080936226FF91EF91EB
:103BF0009F918F910F900BBE0F9008BE0F900FBE3C
:103C00000F901F9018951F920F920FB60F921124CC
:103C100008B60F9218BE0BB60F921BBE8F939F93E0
:103C2000EF93FF931092722610927326E3E6F6E26A
:103C30008081982F9F5F908388301CF088E080936C
:103C40006326FF91EF919F918F910F900BBE0F9084
:103C500008BE0F900FBE0F901F9018951F920F92E5
:103C60000FB60F92112408B60F9218BE09B60F9224
:103C700019BE0AB60F921ABE0BB60F921BBE2F9337
:103C80003F934F935F936F937F938F939F93AF93E4
:103C9000BF93CF93DF93EF93FF9380916026181625
:103CA00034F4E0E0F9E010A211A210926026E4E7FB
:103CB000F6E28081982F9F5F908380FD12C0C0E064
:103CC000D9E028A139A140E050E064E57AEE8AE22B
:103CD00090E00E94633B20936C2630936D2618A2DF
:103CE00019A2FF91EF91DF91CF91BF91AF919F9179
:103CF0008F917F916F915F914F913F912F910F9095
:103D00000BBE0F900ABE0F9009BE0F9008BE0F9019
:103D10000FBE0F901F9018951F920F920FB60F9223
:103D2000112408B60F9218BE09B60F9219BE0AB632
:103D30000F921ABE0BB60F921BBE2F933F934F9359
:103D40005F936F937F938F939F93AF93BF93CF9323
:103D5000DF93EF93FF9380916126181634F4E0E42B
:103D6000F9E010A211A210926126E5E7F6E2808147
:103D7000982F9F5F908380FD12C0C0E4D9E028A1F6
:103D800039A140E050E064E57AEE8AE290E00E94DA
:103D9000633B20936E2630936F2618A219A2FF91E1
:103DA000EF91DF91CF91BF91AF919F918F917F91D3
:103DB0006F915F914F913F912F910F900BBE0F909C
:103DC0000ABE0F9009BE0F9008BE0F900FBE0F9055
:103DD0001F9018951F920F920FB60F92112408B6DC
:103DE0000F9218BE09B60F9219BE0AB60F921ABEEC
:103DF0000BB60F921BBE2F933F934F935F936F931E
:103E00007F938F939F93AF93BF93CF93DF93EF9362
:103E1000FF9380916226181634F4E0E0FBE010A2D4
:103E200011A210926226E6E7F6E28081982F9F5F4A
:103E3000908380FD12C0C0E0DBE028A139A140E002
:103E400050E064E57AEE8AE290E00E94633B2093C2
:103E500070263093712618A219A2FF91EF91DF917D
:103E6000CF91BF91AF919F918F917F916F915F9112
:103E70004F913F912F910F900BBE0F900ABE0F9064
:103E800009BE0F9008BE0F900FBE0F901F9018959F
:103E90001F920F920FB60F92112408B60F9218BE00
:103EA00009B60F9219BE0AB60F921ABE0BB60F9240
:103EB0001BBE2F933F934F935F936F937F938F938B
:103EC0009F93AF93BF93CF93DF93EF93FF93809133
:103ED0006326181634F4E0E4FBE010A211A210925D
:103EE0006326E7E7F6E28081982F9F5F908380FD4D
:103EF00012C0C0E4DBE028A139A140E050E064E555
:103F00007AEE8AE290E00E94633B2093722630931F
:103F1000732618A219A2FF91EF91DF91CF91BF9163
:103F2000AF919F918F917F916F915F914F913F9151
:103F30002F910F900BBE0F900ABE0F9009BE0F90ED
:103F400008BE0F900FBE0F901F9018951F920F92F2
:103F50000FB60F92112408B60F9218BEE0ECF7E0EE
:103F60006FE050E420E43FE1A8956583452FA895D4
:103F7000C9010197F1F74150D1F7A8956683452F04
:103F8000A895C9010197F1F74150D1F7EDCFEF9214
:103F9000FF920F931F93CF93DF9387E895E20E94E0
:103FA000BD352091D5263091D6268217930709F486
:103FB00091C02091D5263091D62631FF06C091FFC1
:103FC00031C703C027E12093D7262091D526309111
:103FD000D62633FF3CC793FF30C739C71092D72688
:103FE00036C7CF5FDF5FC930E1F39B010C2E02C003
:103FF000220F331F0A94E2F74091D5265091D6261E
:1040000042235323452B09F45EC02E233F23232B49
:1040100009F028C758C000E02091D3263091D4265B
:104020002115324070F04091D3265091D426202F94
:1040300030E03460240F351F2093D3263093D426EC
:1040400031C02091D3263091D4262F3F3105C1F0C5
:10405000B8F0E090D326F090D426402F50E0440FE3
:10406000551F9A01220F331F220F331F420F531F78
:1040700052604E0D5F1D4093D3265093D42612C03C
:104080004091D3265091D426452B61F4033028F477
:10409000109F90011124316001C09D012093D3260F
:1040A0003093D4262091D3263091D4262115344044
:1040B00050F02091D3263091D4262093D726109209
:1040C000D3261092D426DB3008F48BCF8093D526EC
:1040D0009093D62687E895E20E942C35E091D7266A
:1040E000F0E0E831F10508F08BC6E650FF4F0C9484
:1040F0007F3B26ED31E241E061E087E895E20E94F6
:10410000B134E0ECF7E060856170605D87E895E2CE
:104110000E949B352AEE31E241E062E087E895E2B9
:104120000E94B1342FEF31E241E063E087E895E28D
:104130000E94B13421E132E241E064E087E895E297
:104140000E94B13494C623E232E241E061E087E8A4
:1041500095E20E94B13425E332E241E062E087E873
:1041600095E20E94B13425E432E241E063E087E861
:1041700095E20E94B13423E532E241E064E087E851
:1041800095E20E94B13473C624E632E241E061E078
:1041900087E895E20E94B13425E732E241E062E02F
:1041A00087E895E20E94B13425E832E241E063E01D
:1041B00087E895E20E94B13429E932E241E064E007
:1041C00087E895E20E94B13452C62EEA32E241E01D
:1041D00061E087E895E20E94B13428EB32E241E0E9
:1041E00062E087E895E20E94B13421EC32E241E0DE
:1041F00063E087E895E20E94B13429EC32E241E0C5
:1042000064E087E895E20E94B13431C62BED32E2DA
:1042100041E061E087E895E20E94B13428C62EEEC5
:1042200032E241E061E087E895E20E94B1342AEE93
:1042300031E241E062E087E895E20E94B13422E099
:1042400033E241E063E087E895E20E94B1342EE07A
:1042500033E244E064E087E895E20E94B134609183
:10426000D726605D87E895E20E949B3500C62FE166
:1042700033E241E061E087E895E20E94B1342091A9
:104280005427309155274AE061E087E895E20E9483
:10429000FC3428E233E241E062E087E895E20E94E4
:1042A000B13420915627309157274AE062E087E8E1
:1042B00095E20E94FC3421E333E241E063E087E8C9
:1042C00095E20E94B13420915827309159274AE055
:1042D00063E087E895E20E94FC342AE333E241E0A0
:1042E00064E087E895E20E94B13420915A2730912A
:1042F0005B274AE064E087E895E20E94FC34B7C59A
:10430000209154273091552780915227909153271F
:10431000280F391F41E061E087E895E20E94FC34F4
:1043200020915627309157278091522790915327FB
:10433000280F391F41E062E087E895E20E94FC34D3
:1043400020915827309159278091522790915327D7
:10435000280F391F41E063E087E895E20E94FC34B2
:1043600020915A2730915B278091522790915327B3
:10437000280F391F41E064E087E895E20E94FC3491
:1043800023E433E249E061E087E895E20E94B1343A
:1043900020914E2730914F2741E161E087E895E277
:1043A0000E94FC342AE433E249E062E087E895E2C7
:1043B0000E94B134209150273091512741E162E0B1
:1043C00087E895E20E94FC3421E533E249E063E0AE
:1043D00087E895E20E94B13487E795E20E940F33A7
:1043E0009C0141E163E087E895E20E94FC3427E507
:1043F00033E249E064E087E895E20E94B13420911D
:104400004B2730914C2741E164E087E895E20E9418
:10441000FC342DC52CE533E241E061E087E895E20C
:104420000E94B134209113273091142747E061E0B6
:1044300087E895E20E94FC3422E633E241E062E044
:1044400087E895E20E94B134209115273091162714
:1044500047E062E087E895E20E94FC3428E633E218
:1044600041E063E087E895E20E94B134209117278C
:104470003091182747E063E087E895E20E94FC341A
:104480002EE633E241E064E087E895E20E94B13431
:104490002091192730911A2747E064E087E895E2D8
:1044A0000E94FC3424E733E24BE061E087E895E2C8
:1044B0000E94B13420911B2730911C2741E161E01B
:1044C00087E895E20E94FC342AE733E24BE062E0A1
:1044D00087E895E20E94B13420911D2730911E2774
:1044E00041E162E087E895E20E94FC3420E833E293
:1044F0004BE063E087E895E20E94B13420911F27EA
:104500003091202741E163E087E895E20E94FC3486
:1045100026E833E24BE064E087E895E20E94B1349C
:10452000209121273091222741E164E087E895E23C
:104530000E94FC349CC42CE533E241E061E087E852
:1045400095E20E94B134209103273091042747E07F
:1045500061E087E895E20E94FC3422E633E241E024
:1045600062E087E895E20E94B134209105273091FE
:10457000062747E062E087E895E20E94FC3428E6DF
:1045800033E241E063E087E895E20E94B134209194
:1045900007273091082747E063E087E895E20E940B
:1045A000FC342EE633E241E064E087E895E20E94C5
:1045B000B1342091092730910A2747E064E087E869
:1045C00095E20E94FC3424E733E24BE061E087E8A7
:1045D00095E20E94B13420910B2730910C2741E1E4
:1045E00061E087E895E20E94FC342AE733E24BE081
:1045F00062E087E895E20E94B13420910D27309166
:104600000E2741E162E087E895E20E94FC3420E851
:1046100033E24BE063E087E895E20E94B1342091F9
:104620000F273091102741E163E087E895E20E946F
:10463000FC3426E833E24BE064E087E895E20E9430
:10464000B134209111273091122741E164E087E8CD
:1046500095E20E94FC340BC42CE833E241E061E0B7
:1046600087E895E20E94B1342091FB263091FC2628
:104670004CE061E087E895E20E94FC3429E933E2EE
:1046800041E062E087E895E20E94B1342091FD2686
:104690003091FE264CE062E087E895E20E94FC340F
:1046A00026EA33E241E063E087E895E20E94B13414
:1046B00020910127309102274CE063E087E895E2E2
:1046C0000E94FC3423EB33E241E064E087E895E2AA
:1046D0000E94B1342091FF26309100274CE064E025
:1046E00087E895E20E94FC3420EC33E241E161E08E
:1046F00087E895E20E94B1342091F1263091F226AC
:1047000041E162E087E895E20E94FC3425EC33E267
:1047100041E163E087E895E20E94B1342091F326FD
:1047200030E041E164E087E895E20E94FC349FC3F9
:104730002AEC33E241E061E087E895E20E94B1347F
:1047400028ED33E241E062E087E895E20E94B1346F
:1047500026EE33E241E063E087E895E20E94B1345F
:104760002091F42630E04FE061E087E895E20E9476
:10477000FC342091F5263091F6264FE062E087E880
:1047800095E20E94FC342091D82630E04FE063E0AF
:1047900087E895E20E94FC34C0EED6E028852170BF
:1047A00030E041E064E087E895E20E94FC3428852F
:1047B000229526952695237011E02127217030E05F
:1047C00045E064E087E895E20E94FC34E0E2F7E02F
:1047D000208526951227212F217030E049E064E0E2
:1047E00087E895E20E94FC3428852295217030E00C
:1047F0004DE064E087E895E20E94FC34288522FBC6
:10480000222720F930E041E164E087E895E20E9448
:10481000FC342DC324EF33E241E062E087E895E207
:104820000E94B1342091E8263091E9264BE062E005
:1048300087E895E20E94FC342FEF33E241E063E029
:1048400087E895E20E94B1342091EA263091EB2668
:104850004BE063E087E895E20E94FC342AE034E212
:1048600041E064E087E895E20E94B1342091EC26B3
:104870003091ED264BE064E087E895E20E94FC343D
:1048800024E134E24FE061E087E895E20E94B13430
:1048900020917521309176214FE062E087E895E222
:1048A0000E94FC342AE134E24FE063E087E895E2BD
:1048B0000E94B13420917721309178214FE064E05B
:1048C00087E895E20E94FC34D2C220E234E241E063
:1048D00061E087E895E20E94B1342CE234E241E0E5
:1048E00062E087E895E20E94B13428E334E241E0D7
:1048F00063E087E895E20E94B13425E434E241E0C8
:1049000064E087E895E20E94B1342091E32630917B
:10491000E4264EE061E087E895E20E94FC342091B5
:10492000E5263091E6264EE062E087E895E20E94B7
:10493000FC3420917521309176214EE063E087E8C8
:1049400095E20E94FC3420917721309178214EE04D
:1049500064E087E895E20E94FC3489C241E061E0AE
:1049600087E895E20E94753560911B25605D87E8B8
:1049700095E20E949B3560911C25605D87E895E279
:104980000E949B3560911D25605D87E895E20E943D
:104990009B3560911E25605D87E895E20E949B35FE
:1049A00060911F25605D87E895E20E949B356091CC
:1049B0002025605D87E895E20E949B356091212566
:1049C000605D87E895E20E949B3560910225605DFD
:1049D00087E895E20E949B3560910325605D87E83A
:1049E00095E20E949B3560910425605D87E895E221
:1049F0000E949B3560910525605D87E895E20E94E5
:104A00009B3560910625605D87E895E20E949B35A5
:104A100060910725605D87E895E20E949B35609173
:104A20000825605D87E895E20E949B3520911A2554
:104A300030E041E062E087E895E20E94FC3420919A
:104A4000092530E04EE062E087E895E20E94FC3400
:104A50002091192530E041E063E087E895E20E946B
:104A6000FC3420910A2530E04EE063E087E895E2CF
:104A70000E94FC3441E064E087E895E20E947535CD
:104A800060911825605D87E895E20E949B356091F2
:104A90001725605D87E895E20E949B356091162599
:104AA000605D87E895E20E949B3560911525605D09
:104AB00087E895E20E949B3560911425605D87E848
:104AC00095E20E949B3560911325605D87E895E231
:104AD0000E949B3560911225605D87E895E20E94F7
:104AE0009B3560911125605D87E895E20E949B35BA
:104AF00060911025605D87E895E20E949B3560918A
:104B00000F25605D87E895E20E949B3560910E2538
:104B1000605D87E895E20E949B3560910D25605DA0
:104B200087E895E20E949B3560910C25605D87E8DF
:104B300095E20E949B3560910B25605D87E895E2C8
:104B40000E949B3522E534E240E161E087E895E28E
:104B50000E94B1342091FE2430E040E162E087E819
:104B600095E20E94FC3425E433E240E163E087E80B
:104B700095E20E94B134209100253091012540E159
:104B800064E087E895E20E94FC3471C128E534E2D4
:104B900041E061E087E895E20E94B13468C12FE608
:104BA00034E241E061E087E895E20E94B13420916F
:104BB00050273091512747E061E087E895E20E9455
:104BC000FC342AE734E241E062E087E895E20E94A3
:104BD000B134209141273091422747E062E087E8D5
:104BE00095E20E94FC3420E834E241E063E087E88B
:104BF00095E20E94B13487E795E20E94C5339C019B
:104C000047E063E087E895E20E94FC3427E834E25D
:104C10004BE061E087E895E20E94B13487E795E2D6
:104C20000E9425329C0141E161E087E895E20E9403
:104C3000FC342DE834E24BE062E087E895E20E9424
:104C4000B13487E795E20E9473329C0141E162E052
:104C500087E895E20E94FC3423E934E24BE063E00C
:104C600087E895E20E94B1342091362730913727AA
:104C70004FE063E087E895E20E94FC34F8C028E941
:104C800034E241E061E087E895E20E94B13424E734
:104C900036E248E061E087E895E20E94FC342FE9C3
:104CA00034E241E062E087E895E20E94B1342CE60C
:104CB00036E247E062E087E895E20E94FC3424EAAD
:104CC00034E241E063E087E895E20E94B13424E6F3
:104CD00036E247E063E087E895E20E94FC34C7C013
:104CE0002DEA34E241E061E087E895E20E94B134C8
:104CF00020915E2630915F2648E061E087E895E2EA
:104D00000E94FC34B4C023EB34E241E061E087E868
:104D100095E20E94B13422EB32E24FE061E087E895
:104D200095E20E94B13427EB34E241E062E087E88B
:104D300095E20E94B1342CEB34E24DE062E087E86A
:104D400095E20E94B13421EC34E241E063E087E86F
:104D500095E20E94B1342AEC34E24DE063E087E84A
:104D600095E20E94B1342FEC34E241E064E087E840
:104D700095E20E94B1342091F82430E045E061E0F2
:104D800087E895E20E94FC342091FA243091FB24BC
:104D900046E062E087E895E20E94FC34209100251D
:104DA0003091012542E162E087E895E20E94FC34FF
:104DB00020910120332727FD30954AE063E087E802
:104DC00095E20E94FC34209100202F3F39F08AE5C3
:104DD000280290011124235D3F4F02C02FEF3FEFC7
:104DE00042E163E087E895E20E94FC342091F924D7
:104DF00030E048E064E087E895E20E94FC3437C088
:104E000026ED34E241E061E087E895E20E94B134AA
:104E10002091D72630E041E062E087E895E20E94E9
:104E2000FC3425C02091D72621502093D7262091ED
:104E3000D726283108F0C6C8C8C82091D7262F5FCA
:104E40002093D7262091D726283108F0C7C8D1E073
:104E5000C0E061E070E0FC01E095F095A0E0B1E019
:104E600014E6C1C8DA3008F0D6C80D2FD5C8DF91D6
:104E7000CF911F910F91FF90EF9008958F929F9285
:104E8000AF92BF92CF92DF92EF92FF920F931F9358
:104E9000CF93DF93E0E2F7E0808581FD39C1809117
:104EA000012790910227813A9F4008F431C18091F7
:104EB000FD269091FE2699235CF48091FD26909129
:104EC000FE269195819591094E970CF42BC120C136
:104ED0008091FD269091FE264E970CF423C118C1B7
:104EE000809150279091512791958195910921E0CA
:104EF0004E9754F020E008C08091502790915127A0
:104F000021E04E970CF020E021110E94840F40E038
:104F100050E862EA74E480E090E00E94510A109246
:104F20004E2710924F2718C1809101279091022798
:104F3000813F9A4008F407C18091FD269091FE269A
:104F400099235CF48091FD269091FE2691958195A0
:104F500091098D970CF4EEC0F6C08091FD269091DA
:104F6000FE268D970CF4E6C0EEC081E080935C26AF
:104F70008091FD269091FE268E976CF08091FD2603
:104F80009091FE2640E050E066E974E48C52914036
:104F90000E94510AE1C08091FD269091FE26833D3A
:104FA0009F4F6CF48091FD269091FE2640E050E0EA
:104FB00066E974E4845D9E4F0E94510ACDC0609101
:104FC000FD267091FE26882777FD8095982F0E94F8
:104FD000B6382DEC3CEC4CEC5FE30E94803A0E942A
:104FE0008338DC01CB0140E050E061E674E40E94CC
:104FF000510A8091FB269091FC26992364F48091BC
:10500000FB269091FC2691958195910921E04E9780
:1050100054F020E008C08091FB269091FC2621E00E
:105020004E970CF020E0222309F496C08091FB26D5
:105030009091FC2691958195910980934E279093AC
:105040004F278AC0E0ECF7E0808580FD07C068E26A
:1050500070E08AE590E00E94DD0B06C06EE170E032
:105060008AE590E00E94DD0B10924E2710924F27A8
:1050700073C08091012790910227C4E9D1E17E019C
:10508000E81AF90AC090F926D090FA260091FD2678
:105090001091FE26B70180E090E00E94B4382AE922
:1050A00039E949E15FE30E94803A4B015C01CC1988
:1050B000DD09B7016C1B7D0B80E090E00E94B438E5
:1050C0002DEC3CEC4CE45EE30E94803A9B01AC0189
:1050D000C501B4010E943E376B017C01B8018827ED
:1050E00077FD8095982F0E94B6382AE939E949E979
:1050F0005FE30E94803A0E948338DC01CB01B70154
:10510000A6010E94510A10924E2710924F2724C0E8
:1051100010925C268091012790910227893B9B4049
:1051200048F402CF809150279091512799230CF099
:10513000E3CED6CE8091FB269091FC268A35910550
:105140000CF413CF15CF8091012790910227883757
:10515000910508F477CF8DCFDF91CF911F910F91FB
:10516000FF90EF90DF90CF90BF90AF909F908F9087
:1051700008958F929F92AF92BF92CF92DF92EF925B
:10518000FF920F931F93CF93DF938091592588232C
:1051900009F416C18091752190917621CD970CF478
:1051A00013C28091752190917621883791050CF07A
:1051B0000BC280913A27882309F416C205C2809158
:1051C00050279091512791958195910921E00A9757
:1051D00054F020E008C0809150279091512721E0A1
:1051E0000A970CF020E021110E94840F40E050E863
:1051F00062EA74E480E090E00E94510A10923B273A
:1052000010923C270BC28091FF24882339F18091B2
:105210000120813021F090910020911104C082E0A2
:1052200080933A272DC0833011F0933021F481E030
:1052300080933A2725C02091E8263091E926809175
:10524000EC269091ED268217930720F481E080935D
:105250003A2716C082E080933A2712C02091E826B0
:105260003091E9268091EC269091ED2682179307E4
:1052700020F481E080933A2703C082E080933A27AC
:10528000809150279091512780933627909337270C
:10529000C5C180913A27813021F080913A27823030
:1052A00091F580913A27813019F484ED9EEF02C088
:1052B0008CE291E080933B2790933C2780913627A6
:1052C0009091372799236CF4809136279091372756
:1052D00091958195910921E0893791055CF420E051
:1052E00009C0809136279091372721E089379105B1
:1052F0000CF420E0222309F491C180913A278E5FBB
:1053000080933A278BC180913A27833029F080918E
:105310003A27843009F082C180913A27833019F40A
:1053200084E29AEF02C08CED95E080933B27909346
:105330003C27809136279091372799236CF48091F0
:1053400036279091372791958195910921E08A35EB
:1053500091055CF020E009C08091362790913727B5
:1053600021E08A3591050CF020E021110E94840F84
:105370008091362790913727992364F480913627BE
:105380009091372791958195910921E0449754F0A8
:1053900020E008C0809136279091372721E044977C
:1053A0000CF020E0222309F439C110923A27109220
:1053B0003B2710923C2710924E2710924F272EC168
:1053C00010925C2610923A2710923B2710923C27AD
:1053D0008091012790910227893B9B4008F015C1DD
:1053E0008091012790910227813F9A4008F404C1DF
:1053F0008091FD269091FE2699235CF48091FD26F4
:105400009091FE269195819591098D970CF4FDC0A0
:10541000F3C08091FD269091FE268D970CF4F5C087
:10542000EBC081E080935C268091FD269091FE2662
:105430008E976CF08091FD269091FE2640E050E022
:1054400066E974E48C5291400E94510AE7C0809151
:10545000FD269091FE26833D9F4F6CF48091FD26A2
:105460009091FE2640E050E066E974E4845D9E4F32
:105470000E94510AD3C06091FD267091FE268827B4
:1054800077FD8095982F0E94B6382DEC3CEC4CECC3
:105490005FE30E94803A0E948338DC01CB0140E048
:1054A00050E061E674E40E94510A8091FB269091DD
:1054B000FC26992364F48091FB269091FC2691951B
:1054C0008195910921E04E9754F020E008C0809129
:1054D000FB269091FC2621E04E970CF020E0222341
:1054E00009F49CC08091FB269091FC2691958195B2
:1054F000910980934E2790934F2790C0E0ECF7E0FE
:10550000808580FD07C068E270E08AE590E00E9437
:10551000DD0B06C06EE170E08AE590E00E94DD0BD5
:1055200010924E2710924F2779C0809101279091B9
:105530000227C4E9D1E17E01E81AF90AC090F926F0
:10554000D090FA260091FD261091FE26B70180E04A
:1055500090E00E94B4382AE939E949E15FE30E940A
:10556000803A4B015C01CC19DD09B7016C1B7D0B46
:1055700080E090E00E94B4382DEC3CEC4CE45EE31B
:105580000E94803A9B01AC01C501B4010E943E37E4
:105590006B017C01B801882777FD8095982F0E94C8
:1055A000B6382AE939E949E95FE30E94803A0E9466
:1055B0008338DC01CB01B701A6010E94510A109289
:1055C0004E2710924F272AC081E080935C2640E04E
:1055D00050E0BA0180E090E00E94510A80913A27A1
:1055E000882309F410CE55CE8091502790915127F1
:1055F00099230CF0F0CDE3CD809101279091022703
:105600008837910508F47ACF90CF8091FB2690914E
:10561000FC268A3591050CF404CF06CFDF91CF919B
:105620001F910F91FF90EF90DF90CF90BF90AF90C0
:105630009F908F9008958091012790910227843C3C
:10564000994058F46EE170E08AE590E00E94DD0B2D
:1056500010924E2710924F270895809175219091B6
:105660007621CD970CF475C08091752190917621AB
:10567000883791050CF06DC0809177219091782149
:10568000803591050CF45DC064C08091FD26909139
:10569000FE2691958195910921E08A3591055CF06E
:1056A00020E009C08091FD269091FE2621E08A35F8
:1056B00091050CF020E02223D9F06091FD26709135
:1056C000FE26882777FD8095982F0E94B6382AE914
:1056D00039E949E95FE30E94803A0E948338DC019E
:1056E000CB0140E050E066E974E40E94510A08955D
:1056F0008091FD269091FE26181619068CF4809153
:10570000FD269091FE2640E050E066E974E48C525C
:1057100091400E94510A10924E2710924F270895EF
:105720008091FD269091FE2640E050E066E974E409
:10573000845D9E4F0E94510A10924E2710924F276F
:1057400008958091FD269091FE2699230CF0AACF12
:105750009CCF6EE170E08AE590E00E94DD0B089539
:1057600010924E2710924F2740E050E0BA0180E09F
:1057700090E00E94510A0895A89597E188ED0FB630
:10578000F894A89580933400909380000FBEE0E5D4
:10579000F0E083EC828380818860808382EC858363
:1057A000818183FFFDCFE0E5F0E08081806180832F
:1057B00088ED84BFE0E4F0E01182E0E5F0E0818173
:1057C00084FFFDCF88ED84BF84E0809340002BE907
:1057D00040EC60E974E083EF95E20E9461012BE9FF
:1057E00040EC60EB74E08AE895E20E94610110925F
:1057F0002006A0E4B6E08BED8C938BE880936006E6
:105800008FE8809380068BE98093A00680EE96E077
:10581000FC0110822FEF20930007C0E2D7E02CEFAD
:105820002883E0ECF7E0108228E1208B218B228B8B
:10583000238BFC01268B88E08D83E0E0FAE081E099
:10584000808383EF81838CED95E086A397A3E0E0CE
:10585000F8E085E0808383E1818380E197E286A39D
:1058600097A384EF91E080A791A782E015968C938F
:105870008091780083FF08C081E0E0E0F7E0858355
:1058800088E08093780031C08091780082FF08C062
:1058900082E0E0E0F7E0858384E08093780025C033
:1058A0008091780085FF0AC0E0E0F7E081E0858321
:1058B00082E0858380E28093780017C08091780031
:1058C00084FF04C080E1809378000FC0809178004D
:1058D00081FF04C082E08093780007C08091780047
:1058E00080FF03C081E080937800E0E4F8E037E0D7
:1058F0003083118284E690E086A397A310A211A2C0
:1059000021E02683E0E0F9E0308311828FEF9FEF02
:1059100086A397A310A211A22683E0E4F9E03083C6
:10592000118286A397A310A211A22683E0E0FBE0D8
:105930003083118286A397A310A211A22683E0E4EC
:10594000FBE03083118286A397A310A211A22683C5
:1059500080E090E00E94F63B282F392F20934B27C0
:1059600030934C2780E590E00E94F63B282F392F9A
:1059700020934B2730934C2780914B2790914C27B5
:1059800081319E4024F010924B2710924C270E94A8
:10599000C907EE24E39400E021E043E350E060EB2C
:1059A0007BE087EA96E20E94B40200E121E043E353
:1059B00050E060EA79E08BE796E20E94B4020E9430
:1059C000AC10F89487E0E0EAF0E082837894E0EEAF
:1059D000F6E0808582FF05C061E087E895E20E94DD
:1059E0004E358BE795E20E947B368FE795E20E9469
:1059F0007B3683E895E20E947B3687E895E20E9439
:105A00007B368BE795E20E94A13683E895E20E94FF
:105A1000A136E0ECF7E0808580FD41C080919521C2
:105A2000909196218093232790932427809197210A
:105A300090919821809325279093262780919921F2
:105A400090919A21809327279093282780919B21DA
:105A500090919C218093292790932A2780919D21C2
:105A600090919E2180932B2790932C2780919F21AA
:105A70009091A02180932D2790932E278091A12192
:105A80009091A22180932F27909330278091A3217A
:105A90009091A421809331279093322740C0809128
:105AA00085219091862180932327909324278091AC
:105AB0008721909188218093252790932627809194
:105AC000892190918A21809327279093282780917C
:105AD0008B2190918C218093292790932A27809164
