:100000000C942D010C946D210C9461010C946101F0
:100010000C9461010C9461010C9461010C946101D8
:100020000C9461010C9461010C9461010C946101C8
:100030000C9461010C9461010C9461010C946101B8
:100040000C9461010C9461010C9461010C946101A8
:100050000C9412120C9461010C9461010C946101D6
:100060000C94DA1E0C94BF100C9461010C94610185
:100070000C9461010C9461010C9461010C94610178
:100080000C9461010C9461010C94F51F0C945320A5
:100090000C9461010C9461010C9461010C94600852
:1000A0000C9461010C9461010C9461010C94B120D9
:1000B0000C940F210C9461010C9461010C9461016A
:1000C0000C9461010C9461010C9461010C94610128
:1000D0000C9461010C9461010C9461010C94610118
:1000E0000C9461010C9461010C9461010C94610108
:1000F0000C9461010C9499030C94A2070C94610177
:100100000C9461010C9461010C9461010C946101E7
:100110000C9461010C9461010C9461010C9407082A
:100120000C9461010C9461010C9461010C946101C7
:100130000C94701E0C94491F0C9461010C94610185
:100140000C9461010C9461010C9461010C94741F76
:100150000C9461010C9461010C9461010C94610197
:100160000C944F1E0C941A1E0C9461010C946101A6
:100170000C9461010C9461010C9461010C94610177
:100180000C9461010C9461010C9461010C94610167
:100190000C9461010C9461010C9461010C94610157
:1001A0000C9461010C9461010C9461010C94A51EE6
:1001B0000C949F1F0C9461010C9461010C946101DB
:1001C0000C9461010C9461010C94CA1F0C946101A0
:1001D0000C9461010C9461010C9461010C94610117
:1001E0000C9461010C9461010C9461010C94E51D67
:1001F0000C94610149227B229C22BD22DE22E7224F
:10020000E722E722E722E7220F235823E223732481
:1002100004257025E0253B2684269C27DD274D28D4
:100220007E2891280E299F29084AD73B3BCE016E94
:1002300084BCBFFDC12F3D6C74319ABD56833DDA3D
:100240003D00C77F11BED9E4BB4C3E916BAAAABE4C
:10025000000000803F00AA35B13511241FBECFEF4A
:10026000DFE2DEBFCDBF18BE19BE1ABE1BBE15E24F
:10027000A0E0B0E2E8E5F0E800E00BBF02C00790C4
:100280000D92AC33B107D9F71BBE27E2ACE3B5E260
:1002900001C01D92A73FB207E1F712E0C8E5D2E026
:1002A00000E006C022970109FE010BBF0E94683FD3
:1002B000C635D10780E00807A9F70E948B2F0C9460
:1002C0001A400C940000FC01608371834863DB01D9
:1002D00011964C93A081B18115962C930190F081D9
:1002E000E02D81E0848308950F93213208F051C0FE
:1002F000013408F050C0FC01E959FF4F3081311141
:100300004CC0FC01E959FF4F31E03083FC01E85952
:10031000FF4F1082222371F0E42FF52F40E050E0D0
:100320003191DC01A40FB51F13963C934F5F5F4FD3
:100330004217B0F3DC0112966C931297FC01ED5951
:10034000FF4F2083AC59BF4F0C93DC01AB59BF4F1B
:100350001C92DC01AA59BF4F1C922081222349F034
:10036000FC0122812E7F0190F081E02D268381E027
:1003700017C0FC01EC59FF4F2081222381F0DC01E2
:1003800012962C9112972160ED91FC91268381E0C9
:1003900007C080E005C080E003C080E001C081E0CC
:1003A0000F910895FC01E959FF4F2081211125C0CB
:1003B000FC01E959FF4F21E02083FC01E859FF4F80
:1003C0001082DC0112966C93FC01ED59FF4F1082F4
:1003D000FC01EC59FF4F1082FC01EB59FF4F1082DA
:1003E000FC01EA59FF4F1082FC0122812E7F01900F
:1003F000F081E02D268381E0089580E00895DC01FE
:10040000ED91FC911197248122FF05C0A859BF4F9F
:1004100034E03C9305C0DC01A859BF4F33E03C9366
:1004200028602483FC01E959FF4F10820895FC01E4
:10043000E859FF4F6083FC01E959FF4F108208958E
:10044000CF93DF93EC01FC01EA59FF4F80818034A8
:1004500080F4E881F9818781FE01EA59FF4F90819C
:10046000DE01A90FB11D93968C9380818F5F8083ED
:1004700008C0E881F98183E0838362E0CE010E94B5
:100480001702FE01EC59FF4F9081FE01EA59FF4F20
:100490008081891728F4E881F98182E0838308C08C
:1004A000E881F98187E0838361E0CE010E94170231
:1004B000DF91CF910895CF93DF93FC01ED59FF4F6A
:1004C0003081FC01EC59FF4F4081DC01ED91FC9142
:1004D000248124FF0CC023E02383FC01E859FF4F53
:1004E00025E02083FC01E959FF4F108224C0DC0184
:1004F000AB59BF4F2C91231768F4DC01AB59BF4FA8
:100500002C91EC01C20FD11D8B8187838C918F5F61
:100510008C9311C0DC01AA59BF4F2C91241730F4E1
:10052000DC0112968C918160868305C023E02383D1
:1005300061E00E941702DF91CF910895DC01ED91F7
:10054000FC912481322F3C7019F00E94FF01089524
:1005500026FF03C00E945B02089522231CF40E9420
:100560002002089566E00E9417020895EF920F930B
:10057000CF93DF93FC01DB01EE2009F457C0603A12
:1005800088E0780739F4C0E4D6E088E0898384E025
:100590008A834CC0603B88E0780739F4C0E4D6E039
:1005A00080E8898380E48A8341C0603A89E07807E3
:1005B00039F4C0E6D6E088E0898384E08A8336C0D7
:1005C000603B89E0780739F4C0E6D6E080E88983AB
:1005D00080E48A832BC0603A8AE0780739F4C0E867
:1005E000D6E088E0898384E08A8320C0603B8AE08B
:1005F000780739F4C0E8D6E080E8898380E48A830C
:1006000015C0603A8BE0780739F4C0EAD6E088E09C
:10061000898384E08A830AC0603B8BE0780731F4E9
:10062000C0EAD6E080E8898380E48A83A083B1832E
:10063000228315A216A213A214A211A612A617A213
:1006400010A683E015968C931597007313960C9360
:100650001397552374F414968C9114978460149610
:100660008C9314975F7716964C93169717965C9316
:1006700005C016964C93169717965C93A081B1818E
:1006800014968C911497806114968C930190F0814C
:10069000E02D848188608483DF91CF910F91EF906A
:1006A0000895FC0187A190A521A532A58F5F982F01
:1006B0009F7081E0921301C080E08823C1F027A1E0
:1006C00030A53327DF01A20FB31F53966C932F5F22
:1006D0003F4F2F70332727A330A7A081B1811396F6
:1006E0009C9113979C7F2281922B13969C93089543
:1006F000FC0181A592A527A130A5992728173907C4
:1007000039F40190F081E02D83818C7F83830895FB
:10071000A1A5B2A5AE0FBF1F53968C91A081B18148
:100720008C9381A592A501968F70992781A792A796
:1007300008951F920F920FB60F92112408B60F92D0
:1007400018BE09B60F9219BE0AB60F921ABE0BB6A2
:100750000F921BBECF92DF92EF92FF920F931F93E7
:100760002F933F934F935F936F937F938F939F93B9
:10077000AF93BF93EF93FF93CF93DF93CDB7DEB7E4
:10078000C054D109CDBFDEBFE0916625F091672549
:100790004081809141258230D1F130F4882359F095
:1007A000813009F075C01DC0833009F446C0843023
:1007B00009F06EC058C080E090E0642F70E09B01AB
:1007C000082E02C0359527950A94E2F72170332749
:1007D000FC01EA5BFA4D208301968630910579F79A
:1007E00057C080E090E0642F70E09B01082E02C0AB
:1007F000359527950A94E2F721703327FC01E45BD5
:10080000FA4D208301968730910579F741C080E049
:1008100090E0642F70E09B01082E02C0359527956B
:100820000A94E2F721703327FC01ED5AFA4D208338
:1008300001968630910579F72BC080E090E0642F17
:1008400070E09B01082E02C0359527950A94E2F7C7
:1008500021703327FC01E75AFA4D20830196873037
:10086000910579F715C080E090E0642F70E09B015E
:10087000082E02C0359527950A94E2F72170332798
:10088000FC01E05AFA4D208301968630910579F7F4
:100890008091412581110DC0842F90E0082E892F71
:1008A000000C881F990B000C881F991F029709F0F4
:1008B00024C380914125843009F0EFC2842F90E059
:1008C000082E892F000C881F990B000C881F991F78
:1008D000039709F012C3E1C210924125FE0131963F
:1008E00080E4DF011D928A95E9F7CE2EDF2E7F018D
:1008F00000E010E0B801882777FD8095982F0E94CE
:100900008D3C20E030E044E351E40E94573E20E07B
:1009100030E044EB50E40E94153B0E945A3CF70142
:10092000619371937F010F5F1F4F0032110511F723
:10093000EC2DFD2D80E090E06FEF7FEFDC01AA5BF6
:10094000BA4D2C91222331F0208131816217730737
:100950000CF4B901019632968032910579F76F3F18
:10096000FFEF7F0709F055C085E280933C25A6C0C4
:10097000DC01AA5BBA4D2C91222351F1F1100BC07E
:1009800020813181DB01A21BB30B9D0172F43195F3
:10099000219531090AC020813181D801A21BB30BF6
:1009A0009D011AF4319521953109243B31051CF044
:1009B000BE2DB21B2B2F30E0421753074CF4F11021
:1009C00004C000811181A90103C060817181A90166
:1009D000019632968032910559F60F3FEFEF1E07D0
:1009E00099F4882777FD8095982F0E948D3C2DECF7
:1009F0003CEC4CEC5DE30E94573E0E94BA3E0E94E4
:100A00005F3C60933C255AC0F394F2E0FF120AC0A9
:100A10004DC2F12C40E050E00FEF1FEF0F2EF8E633
:100A2000EF2EF02DEC2DFD2D80E090E0A1CF962F44
:100A3000872FB801092F182FCB01801B910B853B05
:100A40009105BCF028E631E08901081B190BC801AB
:100A500095958795680F791F882777FD8095982F42
:100A60000E948D3C2DEC3CEC4CEC5DE30E94573E2B
:100A700010C095958795681B790B882777FD809521
:100A8000982F0E948D3C2DEC3CEC4CEC5DE30E94D9
:100A9000573E0E94BA3E0E945F3C60933C25909175
:100AA0003C2589E3989F812D11248695869586950E
:100AB00014E2819F9019112490933C2580913C254C
:100AC000853209F054C080913D25882309F441C046
:100AD000809100208F3FA9F02091B9273091BA274B
:100AE0004AE58402C00111248F519F4F68E671E0EE
:100AF0000E94263F821B930B8093442590934525AB
:100B000016C02091B9273091BA27809101205AE56B
:100B10008502C00111248C549F4F68E671E00E9449
:100B2000263F821B930B809344259093452580910B
:100B3000442590914525919581959109809344256F
:100B40009093452584E080934325E0E0F7E085839A
:100B5000D4C18FEF809301208093022080930020E6
:100B60001092432584E0E0E0F7E08683C6C184E08C
:100B7000E0E0F7E0858320913C254091B927509132
:100B8000BA27822F90E09C01220F331FC901880FE2
:100B9000991F880F991F820F931F840F951F992308
:100BA0002CF080933E2590933F2506C088599E4F98
:100BB00080933E2590933F2580913E2590913F253F
:100BC00068E671E00E94263F482F592F80933E250A
:100BD00090933F25809102208F3FD9F4842F9C0170
:100BE0002D5231092A35310568F09C012758310909
:100BF0002A35310548F0815E91098A35910530F436
:100C000083E005C081E003C082E001C080E0809302
:100C10000220809100208F3F49F5842F952F9C0161
:100C20002E5131092E31310508F44BC19C01225D52
:100C300031092E31310508F444C19C01285731098E
:100C40002E31310508F437C18C5291404E9708F48B
:100C500032C18FEF09C0833011F081E005C083E01D
:100C600003C083E001C082E080930020A0910120B6
:100C70008A2F992787FD9095242F352FF901BD974D
:100C8000EA35F10508F42EC1A901475851094A3542
:100C9000510508F41EC1B901615E71096A3571051B
:100CA00008F019C163E018C1A901475851094A3534
:100CB000510540F0A901415E51094A35510520F422
:100CC00043E005C042E003C040E001C041E0BC0198
:100CD000641B710962307105C1F414C04A355105B5
:100CE00040F0A901415E51094A35510520F443E025
:100CF00003C042E001C040E050E0481B590B4230C5
:100D0000510519F4AF3F09F0F4C0EA35F10570F070
:100D1000A901475851094A35510550F0A901415ED2
:100D200051094A35510530F443E005C041E003C0A4
:100D300042E001C040E050E08417950711F41092A2
:100D40003D25409100204F3F79F1EA35F10570F0E3
:100D5000C901875891098A35910550F0C901815E12
:100D600091098A35910530F483E005C081E003C024
:100D700082E001C080E0582F481769F0992787FD6D
:100D80009095841B910947FD9395019721F043307D
:100D900031F4511104C010923D2540E033C081E090
:100DA00080933D2541E004C040913D25442351F10D
:100DB00050913C25852F90E0880F991FBC01660F4C
:100DC000771F660F771F860F971FEA35F10568F0CA
:100DD000B901675871096A35710548F0215E31091A
:100DE0002A35310530F423E005C021E003C022E0BC
:100DF00001C020E030E02E5F3F4F23703078209319
:100E000001202AC050913C25852F90E0880F991F22
:100E1000BC01660F771F660F771F860F971F8C54D4
:100E20009F4F68E671E00E94263FEA35F10568F0C1
:100E3000B901675871096A35710548F0215E3109B9
:100E40002A35310530F423E005C021E003C022E05B
:100E500001C020E020930120853B910514F08856C5
:100E600091409195819591098093442590934525D2
:100E7000442311F083E001C082E0809343258091F8
:100E800040258F5F8093402585FF37C088ED84BF64
:100E900081E0E8E7F0E0818330C0809141258F5FF9
:100EA00080934125853008F017CD27C06017710762
:100EB0000CF4BDCDC1CD80910220882309F4D1CEA0
:100EC000CACE809102208250823008F4CCCE80E0DD
:100ED000CBCE62E001C060E08C01061B11090AF074
:100EE000E3CEFCCEAC01415051090AF0EFCE41E017
:100EF00003CF41E040933D2508CFC05CDF4FCDBF1D
:100F0000DEBFDF91CF91FF91EF91BF91AF919F91A4
:100F10008F917F916F915F914F913F912F911F9191
:100F20000F91FF90EF90DF90CF900F900BBE0F903E
:100F30000ABE0F9009BE0F9008BE0F900FBE0F9013
:100F40001F9018951F920F920FB60F92112408B69A
:100F50000F9218BE09B60F9219BE0BB60F921BBEA8
:100F60002F933F934F935F936F937F938F939F93B1
:100F7000AF93BF93EF93FF9386E695E20E947803C9
:100F8000FF91EF91BF91AF919F918F917F916F9161
:100F90005F914F913F912F910F900BBE0F9009BE23
:100FA0000F9008BE0F900FBE0F901F901895EF92F4
:100FB0000F93EE24E39400E322E049E150E060EB7C
:100FC0007AE086E695E20E94B6020F91EF900895CE
:100FD000811108C060E086E695E20E9451031092FC
:100FE00091250895909191259F5F9093912596303A
:100FF00068F0813031F46AEA86E695E20E94510396
:10100000089565E586E695E20E94510308951F92D2
:101010000F920FB60F92112408B60F9218BE09B6A0
:101020000F9219BE0AB60F921ABE0BB60F921BBED4
:101030002F933F938F939F93AF93BF93CF93DF9360
:10104000EF93FF93A0919C27B0E0E0E0F2E084A151
:1010500095A1C0919C27D0E0CC0FDD1FC458D84D7E
:1010600028813981821B930BAA0FBB1FA459B84D4D
:101070008D939C9380919C278F5F877080939C2792
:1010800080919C27880F880F880F81A380A180689A
:1010900080A3FF91EF91DF91CF91BF91AF919F918D
:1010A0008F913F912F910F900BBE0F900ABE0F9022
:1010B00009BE0F9008BE0F900FBE0F901F9018959D
:1010C0001F920F920FB60F92112408B60F9218BEFE
:1010D0000F9008BE0F900FBE0F901F901895AAECAE
:1010E000B1E022E02C93FC0184911C9290E00895E1
:1010F000CF93DF9380E290E00E946F08C0E0D2E0DF
:101100008C8781E290E00E946F088D8780E290E0FA
:101110000E946F088C8781E290E00E946F088D87A3
:1011200081E088A319A2198296E09C8390E39A83B8
:101130001B829FE09E838AA3888388A1806888A3FE
:10114000DF91CF910895AB01772324F444275527ED
:10115000461B570B242F352F2D3D95E0390710F0F6
:101160002CED35E01616170694F440E150E0082EF9
:1011700002C0440F551F0A94E2F7E0E2F7E045830E
:101180004CED55E0BA01621B730B9B010BC040E1B3
:1011900050E0082E02C0440F551F0A94E2F7E0E227
:1011A000F7E04683811105C0E0E0FAE020A731A70F
:1011B0000895813029F4E0E0FAE022A733A70895EA
:1011C000823029F4E0E0FAE024A735A70895E0E0B2
:1011D000FAE026A737A708952F923F924F925F9289
:1011E0006F927F928F929F92AF92BF92CF92DF9237
:1011F000EF92FF920F931F93CF93DF93CDB7DEB79C
:10120000A697CDBFDEBF1C0180E1E0EBF1E2DE017D
:10121000519601900D928A95E1F780E1E0ECF1E2C0
:10122000DE01119601900D928A95E1F7CE0141966B
:101230008BA39CA3FE013196E9A3FAA300E010E082
:101240002DA23EA25101FAE5AF0EB11C2A013B01CD
:1012500004C18DA19EA188599E4FEAF3893621E0F1
:10126000920734F0885691408936E1E09E07D4F722
:101270008A35910564F4FC01EE0FFF1FEE0FFF1F8E
:10128000E75FFF4D208131814281538136C0843B2D
:1012900091057CF4E4EBF0E0E81BF90BEE0FFF1F87
:1012A000EE0FFF1FE75FFF4D2081318142815381A7
:1012B00024C08E30F1E09F077CF4FC01EE0FFF1F8D
:1012C000EE0FFF1FE75CF24E80819181A281B38116
:1012D0009C01AD01505811C0E8E6F1E0E81BF90BA4
:1012E000EE0FFF1FEE0FFF1FE75FFF4D8081918123
:1012F000A281B3819C01AD0150587801E9A1FAA106
:101300006191719181919191E9A3FAA30E94573E55
:10131000A30192010E94573E862E972EC82ED92EE9
:10132000C501BB201CF488599E4FEAF38936F1E0D1
:101330009F0734F088569140893621E09207D4F710
:101340008A35910564F4FC01EE0FFF1FEE0FFF1FBD
:10135000E75FFF4D208131814281538136C0843B5C
:1013600091057CF4E4EBF0E0E81BF90BEE0FFF1FB6
:10137000EE0FFF1FE75FFF4D2081318142815381D6
:1013800024C08E30E1E09E077CF4FC01EE0FFF1FCD
:10139000EE0FFF1FE75CF24E80819181A281B38145
:1013A0009C01AD01505811C0E8E6F1E0E81BF90BD3
:1013B000EE0FFF1FEE0FFF1FE75FFF4D8081918152
:1013C000A281B3819C01AD015058EBA1FCA16191B8
:1013D000719181919191EBA3FCA30E94573EA301CF
:1013E00092010E94573E9B01AC01682D792D8C2DF6
:1013F0009D2D0E94153B862E972EC82ED92E20E0BB
:1014000030E0A9010E94B53D18166CF420E030E0F0
:1014100040E05FE3682D792D8C2D9D2D0E94153BBA
:101420000E94C83C0CC020E030E040E05FE3682D43
:10143000792D8C2D9D2D0E94143B0E94DB3B0E9438
:101440005A3CF701EE0FFF1FE354F84D60837183A0
:101450000F5F1F4F0430110531F033200CF4F9CE2B
:101460008DA19EA1FBCEA696CDBFDEBFDF91CF9111
:101470001F910F91FF90EF90DF90CF90BF90AF90B2
:101480009F908F907F906F905F904F903F902F90A4
:1014900008952F923F924F925F926F927F928F9218
:1014A0009F92AF92BF92CF92DF92EF92FF920F93F3
:1014B0001F93CF93DF93CDB7DEB7A697CDBFDEBF27
:1014C0008C016A017B0180E1E0EBF1E2DE015196E3
:1014D00001900D928A95E1F780E1E0ECF1E2DE0106
:1014E000119601900D928A95E1F7053B11052CF0BC
:1014F00008561140053B1105DCF70C342FEF12079D
:101500000CF02AC108591E4F0C348FEF1807D4F382
:1015100023C18DA19EA188599E4FEAF38936E1E04F
:101520009E0734F0885691408936F1E09F07D4F742
:101530008A35910564F4FC01EE0FFF1FEE0FFF1FCB
:10154000E75FFF4D208131814281538136C0843B6A
:1015500091057CF4E4EBF0E0E81BF90BEE0FFF1FC4
:10156000EE0FFF1FE75FFF4D2081318142815381E4
:1015700024C08E3021E092077CF4FC01EE0FFF1FA7
:10158000EE0FFF1FE75CF24E80819181A281B38153
:101590009C01AD01505811C0E8E6F1E0E81BF90BE1
:1015A000EE0FFF1FEE0FFF1FE75FFF4D8081918160
:1015B000A281B3819C01AD0150587501E9A1FAA146
:1015C0006191719181919191E9A3FAA30E94573E93
:1015D000A30192010E94573E862E972EC82ED92E27
:1015E000C10133201CF488599E4FEAF38936F1E09B
:1015F0009F0734F088569140893621E09207D4F74E
:101600008A35910564F4FC01EE0FFF1FEE0FFF1FFA
:10161000E75FFF4D208131814281538136C0843B99
:1016200091057CF4E4EBF0E0E81BF90BEE0FFF1FF3
:10163000EE0FFF1FE75FFF4D208131814281538113
:1016400024C08E30E1E09E077CF4FC01EE0FFF1F0A
:10165000EE0FFF1FE75CF24E80819181A281B38182
:101660009C01AD01505811C0E8E6F1E0E81BF90B10
:10167000EE0FFF1FEE0FFF1FE75FFF4D808191818F
:10168000A281B3819C01AD015058EBA1FCA16191F5
:10169000719181919191EBA3FCA30E94573EA3010C
:1016A00092010E94573E9B01AC01682D792D8C2D33
:1016B0009D2D0E94153B862E972EC82ED92E20E0F8
:1016C00030E0A9010E94B53D18166CF420E030E02E
:1016D00040E05FE3682D792D8C2D9D2D0E94153BF8
:1016E0000E94C83C0CC020E030E040E05FE3682D81
:1016F000792D8C2D9D2D0E94143B0E94DB3B0E9476
:101700005A3CF701EE0FFF1FE354F84D60837183DD
:1017100080914325882399F0F701EE0FFF1FE354D2
:10172000F84D8081918199230CF4019695958795C8
:10173000F701EE0FFF1FE354F84D80839183FFEF15
:10174000AF1ABF0A24E0A216B104C9F011230CF4A9
:10175000E0CE8DA19EA1E2CECE0141968BA39CA3AB
:10176000FE013196E9A3FAA3A12CB12C0DA31EA36F
:101770001801FAE52F0E311C26013701E7CFA69696
:10178000CDBFDEBFDF91CF911F910F91FF90EF9002
:10179000DF90CF90BF90AF909F908F907F906F9091
:1017A0005F904F903F902F9008952F923F924F92CD
:1017B0005F926F927F928F929F92AF92BF92CF92E1
:1017C000DF92EF92FF920F931F93CF93DF93CDB7EA
:1017D000DEB7A897CDBFDEBF5C016B0180E1E0ED15
:1017E000F1E2DE01519601900D928A95E1F780E1D8
:1017F000E0ECF1E2DE01119601900D928A95E1F79D
:10180000E0907521F0907621EA18FB08009177218D
:1018100010917821061B170B8091C5279091922576
:10182000981709F445C160917521709176216A1964
:101830007B09882777FD8095982F0E948D3C2DECA1
:101840003CEC4CE45BE30E94573E209193253091A1
:10185000942540919525509196250E94153B662E22
:10186000772E882E992E20E030E048EC52E40E943A
:10187000B53D18166CF480E090E0A8ECB2E48093DB
:10188000932590939425A0939525B093962525C0F4
:1018900020E030E048EC52EC662D772D882D992D14
:1018A0000E94EE3B88236CF0862D972DA82DB92D34
:1018B0008093932590939425A0939525B093962596
:1018C0000CC080E090E0A8ECB2EC8093932590935C
:1018D0009425A0939525B0939625609175217091DC
:1018E00076216A197B09882777FD8095982F0E94B9
:1018F0008D3C2091932530919425409195255091D0
:1019000096250E94573E20E030E0A9010E94EE3B60
:10191000181644F010929325109294251092952554
:101920001092962560917721709178216C197D092C
:10193000882777FD8095982F0E948D3C2DEC3CECFC
:101940004CE45BE30E94573E209197253091982507
:101950004091992550919A250E94153B862E972EED
:10196000A82EB92E20E030E048EC52E40E94B53DAC
:1019700018166CF480E090E0A8ECB2E48093972510
:1019800090939825A0939925B0939A2525C020E09F
:1019900030E048EC52EC682D792D8A2D9B2D0E9469
:1019A000EE3B88236CF0882D992DAA2DBB2D8093BA
:1019B000972590939825A0939925B0939A250CC0CC
:1019C00080E090E0A8ECB2EC809397259093982566
:1019D000A0939925B0939A256091772170917821F1
:1019E0006C197D09882777FD8095982F0E948D3C82
:1019F00020919725309198254091992550919A25CD
:101A00000E94573E20E030E0A9010E94EE3B1816EC
:101A100044F01092972510929825109299251092D3
:101A20009A258091032090910420B701681B790BBF
:101A3000882777FD8095982F0E948D3C20E030E02C
:101A400040E852E40E94573E20E030E040EA50E493
:101A50000E94573E462E572E882E992E80910520A3
:101A600090910620B801681B790B882777FD809537
:101A7000982F0E948D3C20E030E040E852E40E9424
:101A8000573E20E030E040EA50E40E94573E662E88
:101A9000772EA82EB92EE0920320F0920420009316
:101AA0000520109306208091C5278093922508C0B9
:101AB000612C712CA12CB12C412C512C812C912CFE
:101AC000B701882777FD8095982F0E948D3C20E0F4
:101AD00030E040E451E40E94573E6B017C0120E07D
:101AE00030E040EA50E46091932570919425809114
:101AF0009525909196250E94573E9B01AC01C70108
:101B0000B6010E94153B6B017C012DEC3CEC4CECCA
:101B10005EE3642D752D882D992D0E94573E9B0103
:101B2000AC01C701B6010E94153B262E372E882E28
:101B3000992EB801882777FD8095982F0E948D3CBB
:101B400020E030E040E451E40E94573E6B017C010C
:101B500020E030E040EA50E46091972570919825AC
:101B60008091992590919A250E94573E9B01AC0146
:101B7000C701B6010E94153B6B017C012DEC3CECCA
:101B80004CEC5EE3662D772D8A2D9B2D0E94573EEF
:101B90009B01AC01C701B6010E94153B6DA37EA35A
:101BA0008FA398A7CE0101968BA39CA3FE017196EB
:101BB000E9A3FAA300E010E05801EBA1FCA12191F8
:101BC000319141915191EBA3FCA3E9A1FAA141907C
:101BD000519061907190E9A3FAA3622D732D882D25
:101BE000992D0E94573E6B017C01A3019201BDA17A
:101BF000AEA1FFA1E8A56B2F7A2F8F2F9E2F0E94F9
:101C0000573E9B01AC01C701B6010E94153BC62E91
:101C1000D72EE82EF92E20E030E0A9010E94B53D34
:101C200018166CF420E030E040E05FE36C2D7D2D71
:101C30008E2D9F2D0E94153B0E94C83C0CC020E0B9
:101C400030E040E05FE36C2D7D2D8E2D9F2D0E94B6
:101C5000143B0E94DB3B0E945A3CF501EE0FFF1F34
:101C6000E354F84D608371830F5F1F4F04301105FB
:101C700009F0A2CF80E090E060E070E09C01FC0100
:101C8000EE0FFF1FE354F84D40815181552344F07E
:101C9000FC01EE0FFF1FE354F84D408151810AC053
:101CA000FC01EE0FFF1FE354F84D40815181519527
:101CB0004195510964177507DCF4F901EE0FFF1F18
:101CC000E354F84D40815181552344F0F901EE0F62
:101CD000FF1FE354F84D608171810AC0F901EE0FD6
:101CE000FF1FE354F84D6081718171956195710911
:101CF00001968430910511F6613BF4E07F070CF406
:101D00005BC0882777FD8095982F0E948D3C9B01B2
:101D1000AC0160E070E086E994E40E94F23BA62EFC
:101D2000B72EC82ED92E00E010E07801F801EE0F92
:101D3000FF1FE354F84D60817181882777FD8095FE
:101D4000982F0E948D3C2A2D3B2D4C2D5D2D0E94FD
:101D5000573E662E772E882E992E20E030E0A9017E
:101D60000E94B53D18166CF420E030E040E05FE3DF
:101D7000662D772D882D992D0E94153B0E94C83C19
:101D80000CC020E030E040E05FE3662D772D882D29
:101D9000992D0E94143B0E94DB3B0E945A3CF701A4
:101DA000EE0FFF1FE354F84D608371830F5F1F4FE9
:101DB0000430110509F0B9CFA896CDBFDEBFDF9181
:101DC000CF911F910F91FF90EF90DF90CF90BF9038
:101DD000AF909F908F907F906F905F904F903F90CB
:101DE0002F9008958F929F92AF92BF920F931F935F
:101DF000CF93DF93BC01A8958730910558F020E47C
:101E00003CE9C9010197F1F766507109A89567305F
:101E10007105B8F780E090E00E948B3C4B015C01BB
:101E200020E030E04AEF55E40E94573E062F172F7E
:101E3000D82FC92F20E030E040E85FE30E94EE3B5E
:101E400088234CF120E03FEF4FE757E4602F712FDC
:101E50008D2F9C2F0E94B53D1816B4F420E030E081
:101E600040E251E4C501B4010E94573E0E945F3C2C
:101E700061157105A9F020E233E0C9010197F1F77E
:101E800061507109D1F70CC0602F712F8D2F9C2FDD
:101E90000E945F3C02C061E070E0CB010197F1F766
:101EA000A895DF91CF911F910F91BF90AF909F9018
:101EB0008F9008959091A22591111DC0811123C08A
:101EC0001AC088EE93E0E0E0F8E080A791A706C092
:101ED00081E792E0E0E0F8E080A791A71092082067
:101EE000089584EF91E0E0E0F8E080A791A781E019
:101EF00080930820089580910820815080930820C5
:101F0000882379F30895823019F7DBCF8091072079
:101F10008823B9F081E08093A22584E690E0809345
:101F20009E2590939F2510929B2510929C258EEFC5
:101F30009FEF80934E2790934F2710920720109287
:101F4000A225089580910720882361F08FE090E01A
:101F500080939E2590939F2510929B2510929C25FF
:101F600010920720089580910720811118C0809158
:101F7000A0259091A12501968093A0259093A1255D
:101F80008F3F910560F084E0E0E2F7E086831092F5
:101F9000A0251092A12581E08093072008958091CB
:101FA0009E2590919F25892B71F080919E2590917F
:101FB0009F25019780939E2590939F2584E0E0E2E2
:101FC000F7E08583089584E0E0E2F7E086830895F2
:101FD000E0E2F7E0808581FF2EC080919B25909103
:101FE0009C250697C0F081E080939D2588E0E0E085
:101FF000F7E0858380919B2590919C25499708F077
:1020000046C080919B2590919C25019680939B25AD
:1020100090939C25089510929D2588E0E0E0F7E0DC
:10202000868380919B2590919C25019680939B258A
:1020300090939C25089580919B2590919C250697CF
:1020400088F081E080939D2588E0E0E0F7E08583DB
:1020500080919B2590919C25019780939B2590933F
:102060009C25089510929D2588E0E0E0F7E08683A6
:1020700080919B2590919C25892B49F080919B25EF
:1020800090919C25019780939B2590939C25089582
:1020900081309105E9F56F3F7F4F09F05EC046EC56
:1020A0006EEC75E28BEC95E20E94823842EE6EECAB
:1020B00075E28FEB95E20E944B3A44EE6EEC75E2CE
:1020C00083EC95E20E944B3A46EE6EEC75E287ECAB
:1020D00095E20E944B3A40E567E376E28BEB95E2AE
:1020E0000E94B8354EEC6EEC75E287EB95E20E94EB
:1020F000DE3948EA6EEC75E287EA95E20E94453ADD
:1021000040EC67E376E283EA95E20E947B3808952B
:10211000892B19F56F3F7F4F01F583EA95E20E9405
:10212000813887EA95E20E944A3A87EB95E20E945D
:10213000E4398BEB95E20E94BE3587EC95E20E9474
:10214000513A83EC95E20E94513A8FEB95E20E945E
:10215000513A8BEC95E20E9487380895EF920F93E5
:10216000EE24E39400E221E04FEC50E060EA78E0F6
:102170008BEC97E20E94B6020F91EF9008951F92A8
:102180000F920FB60F92112408B60F9218BE09B61F
:102190000F9219BE0AB60F921ABE0BB60F921BBE53
:1021A0002F933F934F935F936F937F938F939F935F
:1021B000AF93BF93CF93DF93EF93FF93E091CB2740
:1021C000F091CC2740818091CA27873009F462C002
:1021D00068F4833039F120F4813021F148F51CC0D6
:1021E000853009F442C008F04DC036C08B3009F488
:1021F0007BC030F4893009F462C008F06DC057C06C
:102200008D3009F486C008F47CC08E3009F48EC08D
:102210008F3009F0E7C092C0453509F4E3C0109251
:10222000CA27E5C04A3A09F4DDC01092CA27DFC0C8
:10223000453531F4E091C627F091C72712860CC0CE
:10224000463539F4E091C627F091C72781E08287AF
:1022500003C01092CA27CBC0E091C627F091C727D0
:10226000842F90E083879487BDC0E091C627F091CA
:10227000C72723853485942F80E0822B932B838777
:102280009487B0C0E091C627F091C72750E04087FF
:102290005187A8C0E091C627F091C72720853185D6
:1022A000942F80E0822B932B808791879BC0E091B5
:1022B000C627F091C72750E04483558393C0E0912F
:1022C000C627F091C72724813581942F80E0822B87
:1022D000932B8483958386C0E091C627F091C7270E
:1022E00050E0468357837EC0E091C627F091C72710
:1022F00026813781942F80E0822B932B86839783CE
:1023000071C0E091C627F091C72750E04083518308
:1023100069C0E091C627F091C72720813181942FB1
:1023200080E0822B932B808391835CC0E091C62751
:10233000F091C72750E04283538354C0E091C627F1
:10234000F091C72722813381942F80E0822B932B39
:102350008283938320813181C281D381A481B5811D
:102360006681778140855185838594852C0F3D1F3B
:102370002A0F3B1F260F371F240F351F2817390739
:1023800069F581E08587248135818091B927909115
:10239000BA2740919D2750919E27205A310912F467
:1023A0002D5F3F4F3595279535952795820F931FC4
:1023B0009A01220F331F220F331F220F331F420FA8
:1023C000531F840F951F6AE070E00E94263F6093C0
:1023D0009D2770939E271092F62701C015861092B4
:1023E000CA2705C08091CA278F5F8093CA27FF91B3
:1023F000EF91DF91CF91BF91AF919F918F917F919D
:102400006F915F914F913F912F910F900BBE0F9065
:102410000ABE0F9009BE0F9008BE0F900FBE0F901E
:102420001F9018951F920F920FB60F92112408B6A5
:102430000F9218BE09B60F9219BE0AB60F921ABEB5
:102440000BB60F921BBE2F923F924F925F926F92EC
:102450007F928F929F92AF92BF92CF92DF92EF9234
:10246000FF920F931F932F933F934F935F936F931D
:102470007F938F939F93AF93BF93EF93FF93CF93EC
:10248000DF93CDB7DEB72A97CDBFDEBF8091C527DA
:102490008931E8F11092C527E0EEF6E0808580FDF5
:1024A0003BC0808586FD1BC08091AF218823D1F081
:1024B0008BEB95E20E94E6368093B4279093B52784
:1024C0001092A1271092A2276091B4277091B5278E
:1024D00080E590E00E94D23F1092AF2103C081E0DE
:1024E0008093AF2110924D2710924E2710924F27C4
:1024F000E0EEF6E0808580FD06C0808582958170E3
:102500000E94E80709C080E00E94E80705C08091AA
:10251000C5278F5F8093C527E0EEF6E0808580FDBC
:1025200004C01092432510923D258091BC269091C5
:10253000BD269C012F5F3F4F2093BC263093BD26C4
:10254000893B9B4008F44CC080915A2790915B27AF
:102550008136994010F40C946C1D8091562790910F
:102560005727992364F48091562790915727919586
:10257000819591098B3491055CF00C946C1D8091D0
:102580005627909157278B34910514F00C946C1DAD
:10259000E0EEF6E0808580FF02C00C94711D809112
:1025A0001C27833011F00C94711D0C946C1D8091CC
:1025B000A327811107C08091B9279091BA278B3545
:1025C000910524F082E00E945A0F03C081E00E942E
:1025D0005A0F89EB9BE08093BC269093BD2630C0B8
:1025E0008091BC269091BD269C012F5F3F4F209388
:1025F000BC263093BD26813D974038F084EF91E0B2
:10260000E0E0F8E080A791A71BC08091BC269091E4
:10261000BD269C012F5F3F4F2093BC263093BD26E3
:10262000893E934038F088EE93E0E0E0F8E080A740
:1026300091A706C084EF91E0E0E0F8E080A791A7C1
:102640008091B6278F5F8093B627843008F45AC0F4
:102650001092B6278091B0279091B1278093B2272E
:102660009093B3278BEB95E20E943938853009F0BF
:102670003FC080E4E0E0F7E086838BEB95E20E94C8
:10268000E6362091B4273091B527821B930B8987BA
:102690009A8789859A85853B91053CF089859A853D
:1026A0008856914089879A870BC089859A858C3492
:1026B0009F4F34F489859A8588599E4F89879A87D8
:1026C00089859A858093B9279093BA278BEB95E2F9
:1026D0000E94F737833F30F080E8E0E0F7E0868340
:1026E0000C94511D80E8E0E0F7E085830C94511DC7
:1026F0008BEB95E20E94BF3580E4E0E0F7E0858354
:102700000C94511D813009F05BC487EB95E20E9467
:10271000E5398093A2269093A326883F9A4288F4B5
:102720008091A1268F5F8093A1268531CCF090E225
:10273000E0E0F7E0958389329CF088E28093A1265F
:102740000FC08091A12681508093A126843144F44A
:1027500090E2E0E0F7E09683882314F41092A1263B
:10276000E0EEF6E0808585FF03C080E491E002C0E2
:1027700080ED97E020916C2730916D27281739075D
:1027800098F520916E2730916F272817390760F54B
:1027900020917027309171272817390728F520914B
:1027A00072273091732728173907F0F42091742786
:1027B0003091752728173907B8F420917627309182
:1027C00077272817390780F42091782730917927C7
:1027D0002817390748F420917A2730917B2728174A
:1027E000390710F40C94781D0F2EF4E2CF2EF5E289
:1027F000DF2EF02DE12CF12C212C312C412C512CF1
:10280000612C712C812C912C5701F701EE0FFF1FC9
:10281000E459F84D6081718180E090E00E948B3C2A
:10282000F60130812181F2E0CF0ED11C032F122F4F
:1028300011232CF4980128593E4FEAF301C0980166
:10284000293641E0340734F0285631402936E1E09A
:102850003E07D4F72A35310564F4F901EE0FFF1F66
:10286000EE0FFF1FE75FFF4D2081318142815381D1
:1028700032C0243B31057CF4E4EBF0E0E21BF30BC7
:10288000EE0FFF1FEE0FFF1FE75FFF4D208131812D
:102890004281538120C02E30F1E03F076CF4F901F2
:1028A000EE0FFF1FEE0FFF1FE75CF24E208131811C
:1028B0004281538150580FC0E8E6F1E0E21BF30B70
:1028C000EE0FFF1FEE0FFF1FE75FFF4D20813181ED
:1028D0004281538150580E94573E9B01AC01662DA6
:1028E000772D882D992D0E94153B662E772E882EE8
:1028F000992EF501EE0FFF1FE459F84D60817181AB
:1029000080E090E00E948B3C065A1F4F1AF4085951
:102910001E4FEAF3093621E0120734F00856114041
:10292000093631E01307D4F70A35110564F4F801CC
:10293000EE0FFF1FEE0FFF1FE75FFF4D208131817C
:102940004281538136C0043B11057CF4E4EBF0E096
:10295000E01BF10BEE0FFF1FEE0FFF1FE75FFF4DB8
:10296000208131814281538124C00E3041E014071F
:102970007CF4F801EE0FFF1FEE0FFF1FE75CF24E35
:102980000081118122813381A9019801505811C021
:10299000E8E6F1E0E01BF10BEE0FFF1FEE0FFF1F6B
:1029A000E75FFF4D0081118122813381A9019801E8
:1029B00050580E94573E9B01AC01622D732D842D0F
:1029C000952D0E94153B262E372E482E592E8FEF1F
:1029D000E81AF80AE8E0EE16F10409F015CF262D02
:1029E000372D482D592D622D732D842D952D0E9444
:1029F000883B20E030E044E353E40E94573E2BED57
:102A00003FE049E450E40E94F23B0E945A3C60934C
:102A1000562770935727E0ECF7E0808580FF09C0C8
:102A2000809156279091572705968093562790932B
:102A3000572780915627909157272091B927309199
:102A4000BA27821B930B809354279093552780912C
:102A50005627909157278D349F4F5CF480915627CD
:102A60009091572788599E4F8093562790935727C8
:102A700011C08091562790915727853B910554F0BE
:102A800080915627909157278856914080935627DA
:102A900090935727222D332D442D552D662D772DBC
:102AA000882D992D0E94C23D6B017C0120E030E011
:102AB000A9010E94B53D18165CF420E030E040E02A
:102AC0005FE3C701B6010E94153B0E94C83C0AC0E3
:102AD00020E030E040E05FE3C701B6010E94143B14
:102AE0000E94DB3B0E945F3C60935A2770935B27F8
:102AF000009156271091572760915A2770915B27B4
:102B000080E090E00E948B3C6B017C01000F111F64
:102B1000000F111F065A1F4F1AF408591E4FEAF3EF
:102B2000093621E0120734F008561140093631E029
:102B30001307D4F70A35110564F4F801EE0FFF1FEF
:102B4000EE0FFF1FE75FFF4D2081318142815381EE
:102B500036C0043B11057CF4E4EBF0E0E01BF10B24
:102B6000EE0FFF1FEE0FFF1FE75FFF4D208131814A
:102B70004281538124C00E3041E014077CF4F801F7
:102B8000EE0FFF1FEE0FFF1FE75CF24E8081918179
:102B9000A281B3819C01AD01505811C0E8E6F1E07B
:102BA000E01BF10BEE0FFF1FEE0FFF1FE75FFF4D66
:102BB00080819181A281B3819C01AD01505860E078
:102BC00070E080E191E40E94143B9B01AC01C701DD
:102BD000B6010E94573E20E030E040E05EE30E94F4
:102BE000573EE62EF72E082F192F20E030E0A901DE
:102BF0000E94B53D18166CF420E030E040E05FE341
:102C00006E2D7F2D802F912F0E94153B0E94C83C76
:102C10000CC020E030E040E05FE36E2D7F2D802F80
:102C2000912F0E94143B0E94DB3B0E945F3C60930B
:102C300058277093592700E010E0412C512C612C4B
:102C4000712C812C912CA12CB12C0F2EF4EB2F2E5A
:102C5000312CF02D78016801CC0CDD1CF601EA5C0A
:102C6000F84D6081718180E090E00E948B3CF6011C
:102C7000E157FE4D2081318133231CF428593E4F0A
:102C8000EAF32936E1E03E0734F028563140293690
:102C9000F1E03F07D4F72A35310564F4F901EE0F6E
:102CA000FF1FEE0FFF1FE75FFF4D20813181428143
:102CB000538131C0243B310574F4F101E21BF30B65
:102CC000EE0FFF1FEE0FFF1FE75FFF4D20813181E9
:102CD0004281538120C02E3041E034076CF4F90169
:102CE000EE0FFF1FEE0FFF1FE75CF24E20813181D8
:102CF0004281538150580FC0E8E6F1E0E21BF30B2C
:102D0000EE0FFF1FEE0FFF1FE75FFF4D20813181A8
:102D10004281538150580E94573E9B01AC01682D5F
:102D2000792D8A2D9B2D0E94153B862E972EA82E3D
:102D3000B92EEE0CFF1CF701EA5CF84D6081718141
:102D400080E090E00E948B3CF701E157FE4D20812E
:102D50003181265A3F4F1AF428593E4FEAF329365B
:102D6000E1E03E0734F0285631402936F1E03F07D4
:102D7000D4F72A35310564F4F901EE0FFF1FEE0F89
:102D8000FF1FE75FFF4D208131814281538135C0B4
:102D9000243B310574F4F101E21BF30BEE0FFF1F2E
:102DA000EE0FFF1FE75FFF4D20813181428153818C
:102DB00024C02E3041E034077CF4F901EE0FFF1FF0
:102DC000EE0FFF1FE75CF24EC080D180E280F380FF
:102DD000A7019601505811C0E8E6F1E0E21BF30BA1
:102DE000EE0FFF1FEE0FFF1FE75FFF4DC080D1808A
:102DF000E280F380A701960150580E94573E9B0144
:102E0000AC01642D752D862D972D0E94153B462E05
:102E1000572E682E792E0F5F1F4F0830110509F0CD
:102E200019CF282D392D4A2D5B2D642D752D862D1A
:102E3000972D0E94883B20E030E044E353E40E9459
:102E4000573E2BED3FE049E450E40E94F23B0E94E4
:102E50005A3C6093342770933527809134279091A2
:102E600035278D349F4F5CF480913427909135271E
:102E700088599E4F809334279093352711C08091B5
:102E8000342790913527853B910554F08091342764
:102E90009091352788569140809334279093352719
:102EA000242D352D462D572D682D792D8A2D9B2DBE
:102EB0000E94C23D6B017C0120E030E0A9010E942C
:102EC000B53D18165CF420E030E040E05FE3C70158
:102ED000B6010E94153B0E94C83C0AC020E030E0C9
:102EE00040E05FE3C701B6010E94143B0E94DB3B58
:102EF0000E945F3C609332277093332780914E2766
:102F000090914F279C012F5F3F4F20934E27309386
:102F10004F278034914008F041C080915A2790910A
:102F20005B278039914008F4F2C5209152273091F7
:102F3000532780915A2790915B27205931402817B9
:102F4000390708F0E4C5209152273091532780912A
:102F50005A2790915B2720573E4F8217930708F01E
:102F6000D6C52091502730915127809156279091B6
:102F7000572725503109281739070CF0C8C520916B
:102F800050273091512780915627909157272B5FDA
:102F90003F4F821793070CF484C5B9C580914E2723
:102FA00090914F278138924020F481E080934D2703
:102FB00078C510924D2710924E2710924F2771C559
:102FC000823009F065C38091B7279091B82720918E
:102FD000B9273091BA27821B930B853B91053CF0B2
:102FE000885691408093B0279093B1270FC08C34BE
:102FF0004FEF94072CF08093B0279093B12706C031
:1030000088599E4F8093B0279093B1270091B027A5
:103010001091B127B801882777FD8095982F0E94DD
:103020008D3C4B015C0120E030E040E85CE30E9415
:10303000573E2091AC273091AD274091AE2750915B
:10304000AF270E94153B462E572E682E792E20E082
:1030500030E048E453E40E94B53D18166CF480E07B
:1030600090E0A8E4B3E48093AC279093AD27A093BD
:10307000AE27B093AF2725C020E030E048E453EC02
:10308000642D752D862D972D0E94EE3B88236CF0C4
:10309000842D952DA62DB72D8093AC279093AD2729
:1030A000A093AE27B093AF270CC080E090E0A8E4D7
:1030B000B3EC8093AC279093AD27A093AE27B09349
:1030C000AF272091B2273091B327029FC001039F01
:1030D000900D129F900D112418161906B4F020E0DF
:1030E00030E040E05FE36091AC277091AD278091C4
:1030F000AE279091AF270E94573E6093AC27709304
:10310000AD278093AE279093AF27C090AC27D09087
:10311000AD27E090AE27F090AF27A7019601C5013B
:10312000B4010E94573E20E030E0A9010E94EE3B2E
:10313000181684F024EA30E74DE75FE3C701B601D3
:103140000E94573E6093AC277093AD278093AE27C3
:103150009093AF278BEB95E20E9498368093AA2735
:103160009093AB278091BE25882321F01092AA2747
:103170001092AB276091AA277091AB270091A127ED
:103180001091A227882777FD8095982F0E948D3C6B
:1031900020E030E040E85CE30E94573E0E945A3C49
:1031A000600F711F6093A1277093A2278091A127C0
:1031B0009091A22760E876E10E94263F8093A127A4
:1031C0009093A2278091A1279091A22799230CF494
:1031D0000F9695958795959587959595879595954E
:1031E000879580939F279093A02780919F27909108
:1031F000A027853B91055CF080919F279091A027A7
:103200008856914080939F279093A02711C080916A
:103210009F279091A0278C349F4F54F480919F2733
:103220009091A02788599E4F80939F279093A02725
:103230000091AA271091AB276091B0277091B12718
:10324000882777FD8095982F0E948D3C20E030E004
:103250004AE751E40E94573E6B017C0120E030E0D8
:1032600040E051E46091AC277091AD278091AE278A
:103270009091AF270E94573E9B01AC01C701B60158
:103280000E94153B6B017C01B801882777FD809572
:10329000982F0E948D3C20E030E040E85DE30E94E2
:1032A000573E9B01AC01C701B6010E94153BE62EBB
:1032B000F72E082F192FA62EB72EC82ED92E982FED
:1032C0004E2D5F2D692F712F4093A6275093A7276E
:1032D0006093A8277093A92780919D25882399F151
:1032E00020E030E048EC53E46E2D7F2D802F912FAD
:1032F0000E94B53D18166CF480E090E0A8ECB3E4B1
:103300008093A6279093A727A093A827B093A927D7
:1033100013C420E030E048EC53EC6E2D7F2D802F5D
:10332000912F0E94EE3B88230CF03FC080E090E09C
:10333000A8ECB3EC8093A6279093A727A093A82787
:10334000B093A92702C420E030E04AE754E46E2D90
:103350007F2D802F912F0E94B53D18166CF480E0D0
:1033600090E0AAE7B4E48093A6279093A727A093C0
:10337000A827B093A927E0C320E030E04AE754EC47
:103380006E2D7F2D802F912F0E94EE3B88236CF4B1
:1033900080E090E0AAE7B4EC8093A6279093A7275B
:1033A000A093A827B093A927D0C320E030E0A901BB
:1033B0006E2D7F2D802F912F0E94B53D18166CF435
:1033C00020E030E040E05FE36A2D7B2D8C2D9D2DC9
:1033D0000E94153B0E94C83C0CC020E030E040E059
:1033E0005FE36A2D7B2D8C2D9D2D0E94143B0E9446
:1033F000DB3B0E945A3C6093BB277093BC278091B3
:10340000A4279091A527892B29F08091432583300B
:1034100008F4A4C32091BD273091BE278091BB271B
:103420009091BC27820F931F89839A832091BF2795
:103430003091C0278091BB279091BC27820F931FAA
:103440008B839C832091C1273091C2278091BB2719
:103450009091BC27820F931F8D839E832091C32759
:103460003091C4278091BB279091BC27820F931F76
:103470008F8398878BEB95E20E94413799233CF02C
:103480008BEB95E20E944137099754F422C08BEBF5
:1034900095E20E9441379195819591090997CCF069
:1034A0008BEB95E20E94FC3599234CF08BEB95E277
:1034B0000E94FC35813293400CF03FC00AC08BEB78
:1034C00095E20E94FC359195819591098132934056
:1034D000A4F58BEB95E20E949C3799233CF08BEB93
:1034E00095E20E949C37099754F433C08BEB95E228
:1034F0000E949C37919581959109099754F18BEB26
:1035000095E20E94FC35992354F08BEB95E20E94E2
:10351000FC3521E08132934074F420E00CC08BEB49
:1035200095E20E94FC3591958195910921E08132C7
:1035300093400CF420E0222361F08091BB2790910E
:10354000BC278F8398878D839E838B839C838983FD
:103550009A838E010F5F1F4F7E0189E0E80EF11CF8
:10356000F80160E070E0308121813296832F922F44
:1035700099231CF4919581959109681779070CF4AA
:10358000BC01EE15FF0579F76D3DE5E07E070CF413
:1035900050C0882777FD8095982F0E948D3C9B0115
:1035A000AC0160E070E88BEB94E40E94F23B462EA5
:1035B000572E682E792E6801F80160817181882765
:1035C00077FD8095982F0E948D3C242D352D462D1A
:1035D000572D0E94573E862E972EA82EB92E20E0FA
:1035E00030E0A9010E94B53D18166CF420E030E0EF
:1035F00040E05FE3682D792D8A2D9B2D0E94153BBD
:103600000E94C83C0CC020E030E040E05FE3682D41
:10361000792D8A2D9B2D0E94143B0E94DB3B0E943A
:103620005A3CF601608371830E5F1F4FE016F1066E
:1036300011F6E0EEF6E0808580FF15C069817A81A1
:1036400080E00E94A3086B817C8181E00E94A30836
:103650006D817E8182E00E94A3086F81788583E07E
:103660000E94A3081EC260E070E080E00E94A308F0
:1036700060E070E081E00E94A30860E070E082E01A
:103680000E94A30860E070E083E00E94A30809C2E2
:10369000833009F006C280912B2781115EC08FEB29
:1036A00095E20E94F33A882309F47FC087EC95E203
:1036B0000E94F33A882309F478C08FEB95E20E94C8
:1036C000A53A0CE217E2F8018083918387EC95E23A
:1036D0000E94A53A8093302790933127F80180818A
:1036E0009181892BF1F48091302790913127892B9A
:1036F00059F480E590E080932C2790932D278093B8
:103700003027909331271FC02091302730913127E7
:1037100082EA90E0821B930B80932C2790932D27B5
:1037200012C08091302790913127892B61F420912C
:103730002C2730912D2782EA90E0821B930B8093F7
:1037400030279093312783EC95E20E949A3A80913A
:103750002B278F5F80932B2728C080912B278130C8
:1037600021F583EC95E20E94F33A8823F1F083EC93
:1037700095E20E94A53A0EE217E2F8018083918358
:103780008FEB95E20E949A3AF80180819181892B12
:1037900031F484E690E080932E2790932F2787ECD6
:1037A00095E20E949A3A10922B27809130279091AF
:1037B000312720912C2730912D278A549F4F821B2F
:1037C000930B96958795E7E2F7E28083918380815A
:1037D00091818130944024F010922727109228275D
:1037E00080912E2790912F270596E9E2F7E28083BA
:1037F000918380819181809377219093782180912A
:103800002C2790912D272091302730913127820F3E
:10381000931F8739910520F1ECE2F7E280819181D5
:1038200080937F2190938021A0E3B7E28D919C91BA
:1038300011978093792190937A2110921E271092EC
:103840001D278D919C91208131818A549F4F821B2D
:10385000930B969587958093752190937621CFC091
:1038600020912C2730912D2740911E27E42FF0E046
:10387000EE0FFF1FE158FE4D808191812C5E3F4F7E
:103880008217930708F14F5F433018F440931E27C7
:1038900003C082E080931E2780911E2790E0FC01E8
:1038A000EE0FFF1FEF5DF84DDC01AA0FBB1FA15803
:1038B000BE4D80917F21909180212D913C91821B62
:1038C000930B8083918310C020912C2730912D275A
:1038D00044962817390740F0442321F04150409383
:1038E0001E2702C010921E2760911E27262F30E04F
:1038F00080912C2790912D27F901EE0FFF1FE158A1
:10390000FE4D8083918340913027509131277091F3
:103910001D27E72FF0E0EE0FFF1FE758FE4D8081D7
:1039200091814C5E5F4F8417950708F17F5F73307C
:1039300018F470931D2703C082E080931D278091A7
:103940001D2790E0FC01EE0FFF1FE35EF84DDC0148
:10395000AA0FBB1FA758BE4D8091792190917A2163
:103960004D915C91841B950B8083918310C0409195
:1039700030275091312744964817590740F0772354
:1039800021F0715070931D2702C010921D27709175
:103990001D27472F50E08091302790913127FA0161
:1039A000EE0FFF1FE758FE4D8083918380912C27F7
:1039B00090912D27662349F0F901EE0FFF1FEF5D6F
:1039C000F84D20813181820F931F20913027309153
:1039D0003127772349F0FA01EE0FFF1FE35EF84D20
:1039E00040815181240F351F281B390B2A543F4F2A
:1039F000C901969587958093752190937621809142
:103A00004325882309F44DC0809101208130E1F0E5
:103A10001CF4882339F045C0823041F1833009F02D
:103A200040C032C0E0914325F0E0EE0FFF1FEB579E
:103A3000FE4D2081318180EF90E0821B930B8093BB
:103A40007721909378212DC0E0914325F0E0EE0F8F
:103A5000FF1FEB57FE4D2081318184EB90E0821BEC
:103A6000930B80937521909376211BC0E0914325A1
:103A7000F0E0EE0FFF1FEB57FE4D808191818093A8
:103A80007721909378210DC0E0914325F0E0EE0F6F
:103A9000FF1FEB57FE4D808191818093752190939C
:103AA00076210E94E80F0E94B30F10924025E0EEAD
:103AB000F6E0808582FF0BC0809116278F5F809390
:103AC0001627823320F00E948E21109216278EEF47
:103AD000E0ECF8E083834BC080E00E945A0F0C9426
:103AE000E9128091432581110C94E2120C94D712B3
:103AF00085E090E080935A2790935B278093582726
:103B000090935927109256271092572794C8809166
:103B10005A2790915B278093522790935327809147
:103B200056279091572780935027909351271092B2
:103B30004E2710924F27B5CFA090A627B090A72769
:103B4000C090A827D090A9273BCCA090A627B090E2
:103B5000A727C090A827D090A9273FCC8091A42761
:103B60009091A5278093BB279093BC2753CC2A968E
:103B7000CDBFDEBFDF91CF91FF91EF91BF91AF91AC
:103B80009F918F917F916F915F914F913F912F9175
:103B90001F910F91FF90EF90DF90CF90BF90AF906B
:103BA0009F908F907F906F905F904F903F902F905D
:103BB0000F900BBE0F900ABE0F9009BE0F9008BE6B
:103BC0000F900FBE0F901F9018951F920F920FB677
:103BD0000F92112408B60F9218BE09B60F9219BEA3
:103BE0000BB60F921BBE2F933F934F935F936F9330
:103BF0007F938F939F93AF93BF93EF93FF938BEE3E
:103C000096E20E947803FF91EF91BF91AF919F914F
:103C10008F917F916F915F914F913F912F910F9075
:103C20000BBE0F9009BE0F9008BE0F900FBE0F90F5
:103C30001F9018951F920F920FB60F92112408B67D
:103C40000F9218BE09B60F9219BE0BB60F921BBE8B
:103C50002F933F934F935F936F937F938F939F9394
:103C6000AF93BF93EF93FF938FEB96E20E9478039D
:103C7000FF91EF91BF91AF919F918F917F916F9144
:103C80005F914F913F912F910F900BBE0F9009BE06
:103C90000F9008BE0F900FBE0F901F9018951F92A7
:103CA0000F920FB60F92112408B60F9218BE0BB6E2
:103CB0000F921BBE8F93EF93FF93E091EB26F09151
:103CC000EC2680818093BE26FF91EF918F910F901B
:103CD0000BBE0F9008BE0F900FBE0F901F9018954F
:103CE0001F920F920FB60F92112408B60F9218BEB2
:103CF00009B60F9219BE0BB60F921BBE2F933F93BE
:103D00004F935F936F937F938F939F93AF93BF93E3
:103D1000EF93FF9387E396E20E949E02FF91EF915B
:103D2000BF91AF919F918F917F916F915F914F91D3
:103D30003F912F910F900BBE0F9009BE0F9008BEC0
:103D40000F900FBE0F901F9018951F920F920FB6F5
:103D50000F92112408B60F9218BE09B60F9219BE21
:103D60000BB60F921BBE2F933F934F935F936F93AE
:103D70007F938F939F93AF93BF93EF93FF938EECBB
:103D800095E20E949E02FF91EF91BF91AF919F91AA
:103D90008F917F916F915F914F913F912F910F90F4
:103DA0000BBE0F9009BE0F9008BE0F900FBE0F9074
:103DB0001F9018951F920F920FB60F92112408B6FC
:103DC0000F9218BE0BB60F921BBE2F938F939F932B
:103DD000EF93FF93809149278F5F809349278091CC
:103DE0004927813049F4E0E6F6E0808585FFFDCF84
:103DF000E0ECF8E013823FC080914927823059F40B
:103E0000E0ECF8E02381922F80E0809346279093A6
:103E10004727138230C0E0ECF8E0238180914627E9
:103E200090914727822B8093462790934727E091D4
:103E30004827F0E08091462790914727EE0FFF1F1B
:103E4000EA5CF84D8083918310924927809148273E
:103E50008F5F8093482780914827883018F0109210
:103E6000482709C0E0914827F0E0EC5CFA4D8081DA
:103E7000E0ECF8E08383FF91EF919F918F912F9178
:103E80000F900BBE0F9008BE0F900FBE0F901F90AB
:103E900018951F920F920FB60F92112408B60F9229
:103EA00018BE0BB60F921BBE8F939F93EF93FF9399
:103EB0001092B0261092B126E4EAF6E28081982FA3
:103EC0009F5F908388301CF088E08093A426FF9148
:103ED000EF919F918F910F900BBE0F9008BE0F90A6
:103EE0000FBE0F901F9018951F920F920FB60F9252
:103EF000112408B60F9218BE0BB60F921BBE8F93FB
:103F00009F93EF93FF931092B2261092B326E5EAA7
:103F1000F6E28081982F9F5F908388301CF088E0C4
:103F20008093A526FF91EF919F918F910F900BBEEB
:103F30000F9008BE0F900FBE0F901F9018951F9204
:103F40000F920FB60F92112408B60F9218BE0BB63F
:103F50000F921BBE8F939F93EF93FF931092B42603
:103F60001092B526E6EAF6E28081982F9F5F908353
:103F700088301CF088E08093A626FF91EF919F91F6
:103F80008F910F900BBE0F9008BE0F900FBE0F9039
:103F90001F9018951F920F920FB60F92112408B61A
:103FA0000F9218BE0BB60F921BBE8F939F93EF9389
:103FB000FF931092B6261092B726E7EAF6E28081C8
:103FC000982F9F5F908388301CF088E08093A7260D
:103FD000FF91EF919F918F910F900BBE0F9008BEB4
:103FE0000F900FBE0F901F9018951F920F920FB653
:103FF0000F92112408B60F9218BE09B60F9219BE7F
:104000000AB60F921ABE0BB60F921BBE2F933F93A8
:104010004F935F936F937F938F939F93AF93BF93D0
:10402000CF93DF93EF93FF938091A426181634F477
:10403000E0E0F9E010A211A21092A426E8EBF6E26B
:104040008081982F9F5F908380FD12C0C0E0D9E0EF
:1040500028A139A140E050E064E57AEE8AE290E0E0
:104060000E943A3F2093B0263093B12618A219A29D
:10407000FF91EF91DF91CF91BF91AF919F918F9180
:104080007F916F915F914F913F912F910F900BBE58
:104090000F900ABE0F9009BE0F9008BE0F900FBE82
:1040A0000F901F9018951F920F920FB60F92112428
:1040B00008B60F9218BE09B60F9219BE0AB60F9233
:1040C0001ABE0BB60F921BBE2F933F934F935F9375
:1040D0006F937F938F939F93AF93BF93CF93DF9310
:1040E000EF93FF938091A526181634F4E0E4F9E0ED
:1040F00010A211A21092A526E9EBF6E28081982F7A
:104100009F5F908380FD12C0C0E4D9E028A139A14F
:1041100040E050E064E57AEE8AE290E00E943A3FA7
:104120002093B2263093B32618A219A2FF91EF91E3
:10413000DF91CF91BF91AF919F918F917F916F91BF
:104140005F914F913F912F910F900BBE0F900ABE40
:104150000F9009BE0F9008BE0F900FBE0F901F90DA
:1041600018951F920F920FB60F92112408B60F9256
:1041700018BE09B60F9219BE0AB60F921ABE0BB638
:104180000F921BBE2F933F934F935F936F937F9339
:104190008F939F93AF93BF93CF93DF93EF93FF934F
:1041A0008091A626181634F4E0E0FBE010A211A2DC
:1041B0001092A626EAEBF6E28081982F9F5F90830B
:1041C00080FD12C0C0E0DBE028A139A140E050E052
:1041D00064E57AEE8AE290E00E943A3F2093B426AA
:1041E0003093B52618A219A2FF91EF91DF91CF91DC
:1041F000BF91AF919F918F917F916F915F914F91FF
:104200003F912F910F900BBE0F900ABE0F9009BEE9
:104210000F9008BE0F900FBE0F901F9018951F9221
:104220000F920FB60F92112408B60F9218BE09B65E
:104230000F9219BE0AB60F921ABE0BB60F921BBE92
:104240002F933F934F935F936F937F938F939F939E
:10425000AF93BF93CF93DF93EF93FF938091A72604
:10426000181634F4E0E4FBE010A211A21092A72685
:10427000EBEBF6E28081982F9F5F908380FD12C068
:10428000C0E4DBE028A139A140E050E064E57AEE2B
:104290008AE290E00E943A3F2093B6263093B726F8
:1042A00018A219A2FF91EF91DF91CF91BF91AF9129
:1042B0009F918F917F916F915F914F913F912F913E
:1042C0000F900BBE0F900ABE0F9009BE0F9008BE54
:1042D0000F900FBE0F901F9018951F920F920FB660
:1042E0000F92112408B60F9218BEE0ECF7E06FE0D1
:1042F00050E420E43FE1A8956583452FA895C901C6
:104300000197F1F74150D1F7A8956683452FA895FD
:10431000C9010197F1F74150D1F7EDCFEF92FF922C
:104320000F931F93CF93DF938BEC95E20E94943908
:104330002091192730911A278217930709F49AC000
:104340002091192730911A2731FF08C091FD02C032
:104350000C94D62903C029E120931B27209119270B
:1043600030911A2733FD02C00C94EE2993FD02C050
:104370000C94E3290C94EE2910921B270C94EE293F
:10438000CF5FDF5FC930E1F39B010C2E02C0220F2B
:10439000331F0A94E2F74091192750911A274223BC
:1043A0005323452B09F45FC02E233F23232B11F009
:1043B0000C94FA2958C000E0209117273091182753
:1043C0002115324070F04091172750911827202F67
:1043D00030E03460240F351F2093172730931827BF
:1043E00031C020911727309118272F3F3105C1F098
:1043F000B8F0E0901727F0901827402F50E0440FB6
:10440000551F9A01220F331F220F331F420F531FD4
:1044100052604E0D5F1D409317275093182712C00E
:104420004091172750911827452B61F4033028F449
:10443000109F90011124316001C09D012093172726
:1044400030931827209117273091182721153440D1
:1044500050F0209117273091182720931B27109296
:10446000172710921827DB3008F48ACF809319277A
:1044700090931A278BEC95E20E940339E0911B2759
:10448000F0E0EA31F10508F07FC7E650FF4F0C94E9
:10449000563F20EE31E241E061E08BEC95E20E9474
:1044A0008838E0ECF7E060856170605D8BEC95E248
:1044B0000E94723924EF31E241E062E08BEC95E238
:1044C0000E94883820E032E24DE062E08BEC95E219
:1044D0000E94883829E032E241E063E08BEC95E20B
:1044E0000E9488382BE132E241E064E08BEC95E2F7
:1044F0000E94883886C72DE232E241E061E08BEC11
:1045000095E20E9488382FE332E241E062E08BECD2
:1045100095E20E9488382FE432E241E063E08BECC0
:1045200095E20E9488382DE532E241E064E08BECB0
:1045300095E20E94883865C72EE632E241E061E0EC
:104540008BEC95E20E9488382FE732E241E062E08E
:104550008BEC95E20E9488382FE832E241E063E07C
:104560008BEC95E20E94883823EA32E241E064E075
:104570008BEC95E20E94883844C728EB32E241E098
:1045800061E08BEC95E20E94883822EC32E241E057
:1045900062E08BEC95E20E9488382BEC32E241E03D
:1045A00063E08BEC95E20E94883823ED32E241E033
:1045B00064E08BEC95E20E94883823C725EE32E256
:1045C00041E061E08BEC95E20E9488381AC728EF41
:1045D00032E241E061E08BEC95E20E9488382CE009
:1045E00033E241E062E08BEC95E20E94883821E200
:1045F00033E241E063E08BEC95E20E9488382DE2E3
:1046000033E244E064E08BEC95E20E9488386091EC
:104610001B27605D8BEC95E20E947239F2C62EE397
:1046200033E241E061E08BEC95E20E948838209112
:10463000BD273091BE274AE061E08BEC95E20E94F5
:10464000D33827E433E241E062E08BEC95E20E944C
:1046500088382091BF273091C0274AE062E08BEC78
:1046600095E20E94D33820E533E241E063E08BEC31
:1046700095E20E9488382091C1273091C2274AE0F4
:1046800063E08BEC95E20E94D33829E533E241E008
:1046900064E08BEC95E20E9488382091C32730912A
:1046A000C4274AE064E08BEC95E20E94D338A9C6A7
:1046B0002091BD273091BE278091BB279091BC27C8
:1046C000280F391F41E061E08BEC95E20E94D3385E
:1046D0002091BF273091C0278091BB279091BC27A4
:1046E000280F391F41E062E08BEC95E20E94D3383D
:1046F0002091C1273091C2278091BB279091BC2780
:10470000280F391F41E063E08BEC95E20E94D3381B
:104710002091C3273091C4278091BB279091BC275B
:10472000280F391F41E064E08BEC95E20E94D338FA
:1047300022E633E249E061E08BEC95E20E948838A2
:104740002091B7273091B82741E161E08BEC95E2E9
:104750000E94D33829E633E249E062E08BEC95E22F
:104760000E9488382091B9273091BA2741E162E050
:104770008BEC95E20E94D33820E733E249E063E016
:104780008BEC95E20E9488388BEB95E20E94E6362E
:104790009C0141E163E08BEC95E20E94D33826E76F
:1047A00033E249E064E08BEC95E20E948838209186
:1047B000B4273091B52741E164E08BEC95E20E948B
:1047C000D3381FC62BE733E241E061E08BEC95E282
:1047D0000E94883820916C2730916D2747E061E076
:1047E0008BEC95E20E94D33821E833E241E062E0AD
:1047F0008BEC95E20E94883820916E2730916F27CC
:1048000047E062E08BEC95E20E94D33827E833E280
:1048100041E063E08BEC95E20E948838209170279C
:104820003091712747E063E08BEC95E20E94D3382A
:104830002DE833E241E064E08BEC95E20E94883899
:10484000209172273091732747E064E08BEC95E26A
:104850000E94D33823E933E24BE061E08BEC95E230
:104860000E948838209174273091752741E161E0DA
:104870008BEC95E20E94D33829E933E24BE062E009
:104880008BEC95E20E94883820917627309177272B
:1048900041E162E08BEC95E20E94D3382FE933E2EC
:1048A0004BE063E08BEC95E20E94883820917827FA
:1048B0003091792741E163E08BEC95E20E94D33897
:1048C00025EA33E24BE064E08BEC95E20E94883805
:1048D00020917A2730917B2741E164E08BEC95E2CF
:1048E0000E94D3388EC52BE733E241E061E08BECC8
:1048F00095E20E94883820915C2730915D2747E03F
:1049000061E08BEC95E20E94D33821E833E241E08C
:1049100062E08BEC95E20E94883820915E2730910E
:104920005F2747E062E08BEC95E20E94D33827E8EE
:1049300033E241E063E08BEC95E20E9488382091FD
:1049400060273091612747E063E08BEC95E20E949D
:10495000D3382DE833E241E064E08BEC95E20E942D
:104960008838209162273091632747E064E08BEC20
:1049700095E20E94D33823E933E24BE061E08BEC0F
:1049800095E20E948838209164273091652741E1A3
:1049900061E08BEC95E20E94D33829E933E24BE0E9
:1049A00062E08BEC95E20E94883820916627309176
:1049B000672741E162E08BEC95E20E94D3382FE952
:1049C00033E24BE063E08BEC95E20E948838209163
:1049D00068273091692741E163E08BEC95E20E9402
:1049E000D33825EA33E24BE064E08BEC95E20E9499
:1049F000883820916A2730916B2741E164E08BEC85
:104A000095E20E94D338FDC42BEA33E241E061E035
:104A10008BEC95E20E9488382091542730915527DD
:104A20004CE061E08BEC95E20E94D33828EB33E256
:104A300041E062E08BEC95E20E9488382091562795
:104A4000309157274CE062E08BEC95E20E94D3381E
:104A500025EC33E241E063E08BEC95E20E9488387C
:104A600020915A2730915B274CE063E08BEC95E274
:104A70000E94D33822ED33E241E064E08BEC95E212
:104A80000E94883820915827309159274CE064E0E3
:104A90008BEC95E20E94D3382FED33E241E161E0E7
:104AA0008BEC95E20E94883820914A2730914B2761
:104AB00041E162E08BEC95E20E94D33824EE33E2D0
:104AC00041E163E08BEC95E20E94883820914C270D
:104AD00030E041E164E08BEC95E20E94D33891C470
:104AE00029EE33E241E061E08BEC95E20E948838E8
:104AF00027EF33E241E062E08BEC95E20E948838D8
:104B000025E034E241E063E08BEC95E20E948838D6
:104B100020914D2730E04FE061E08BEC95E20E9460
:104B2000D33820914E2730914F274FE062E08BEC35
:104B300095E20E94D33820911C2730E04FE063E0DB
:104B40008BEC95E20E94D338C0EED6E02885217028
:104B500030E041E064E08BEC95E20E94D338288598
:104B6000229526952695237081E02827217030E034
:104B700045E064E08BEC95E20E94D338E0E2F7E098
:104B800020852695217030E049E064E08BEC95E2C9
:104B90000E94D33828852295217030E04DE064E0F2
:104BA0008BEC95E20E94D338288522FB222720F93E
:104BB00030E041E164E08BEC95E20E94D33821C4FF
:104BC00023E134E241E062E08BEC95E20E94883818
:104BD00020912C2730912D274BE062E08BEC95E261
:104BE0000E94D3382EE134E241E063E08BEC95E2A1
:104BF0000E94883820912E2730912F274BE063E0C8
:104C00008BEC95E20E94D33829E234E241E064E083
:104C10008BEC95E20E948838209130273091312723
:104C20004BE064E08BEC95E20E94D33823E334E25E
:104C30004FE061E08BEC95E20E948838209175216D
:104C4000309176214FE062E08BEC95E20E94D33800
:104C500029E334E24FE063E08BEC95E20E94883870
:104C600020917721309178214FE064E08BEC95E240
:104C70000E94D338C6C32FE334E241E061E08BECFD
:104C800095E20E9488382BE434E241E062E08BEC4C
:104C900095E20E94883827E534E241E063E08BEC3E
:104CA00095E20E94883824E634E241E064E08BEC2F
:104CB00095E20E94883820912727309128274EE0DE
:104CC00061E08BEC95E20E94D33820912927309146
:104CD0002A274EE062E08BEC95E20E94D3382091C7
:104CE0007521309176214EE063E08BEC95E20E94D5
:104CF000D33820917721309178214EE064E08BEC1D
:104D000095E20E94D3387DC341E061E08BEC95E2EF
:104D10000E944C3960915F25605D8BEC95E20E94AA
:104D2000723960916025605D8BEC95E20E9472396A
:104D300060916125605D8BEC95E20E947239609113
:104D40006225605D8BEC95E20E947239609163256B
:104D5000605D8BEC95E20E94723960916425605D24
:104D60008BEC95E20E94723960916525605D8BEC59
:104D700095E20E94723960914625605D8BEC95E268
:104D80000E94723960914725605D8BEC95E20E942C
:104D9000723960914825605D8BEC95E20E94723912
:104DA00060914925605D8BEC95E20E9472396091BB
:104DB0004A25605D8BEC95E20E94723960914B252B
:104DC000605D8BEC95E20E94723960914C25605DCC
:104DD0008BEC95E20E94723920915E2530E041E033
:104DE00062E08BEC95E20E94D33820914D2530E0B3
:104DF0004EE062E08BEC95E20E94D33820915D2575
:104E000030E041E063E08BEC95E20E94D3382091E2
:104E10004E2530E04EE063E08BEC95E20E94D33803
:104E200041E064E08BEC95E20E944C3960915C2596
:104E3000605D8BEC95E20E94723960915B25605D4C
:104E40008BEC95E20E94723960915A25605D8BEC83
:104E500095E20E94723960915925605D8BEC95E274
:104E60000E94723960915825605D8BEC95E20E943A
:104E7000723960915725605D8BEC95E20E94723922
:104E800060915625605D8BEC95E20E9472396091CD
:104E90005525605D8BEC95E20E9472396091542536
:104EA000605D8BEC95E20E94723960915325605DE4
:104EB0008BEC95E20E94723960915225605D8BEC1B
:104EC00095E20E94723960915125605D8BEC95E20C
:104ED0000E94723960915025605D8BEC95E20E94D2
:104EE000723960914F25605D8BEC95E20E947239BA
:104EF00021E734E240E161E08BEC95E20E948838E2
:104F00002091422530E040E162E08BEC95E20E9486
:104F1000D33824E633E240E163E08BEC95E20E9473
:104F20008838209144253091452540E164E08BECA0
:104F300095E20E94D33865C224E633E241E061E0A5
:104F40008BEC95E20E94883820919D2730919E2716
:104F500048E061E08BEC95E20E94D33827E734E229
:104F600041E062E08BEC95E20E9488382EE734E263
:104F700041E063E08BEC95E20E948838E091C8271D
:104F8000F091C9272481358148E063E08BEC95E2FC
:104F90000E94D33824E834E241E064E08BEC95E2EF
:104FA0000E9488382091B9273091BA2748E064E000
:104FB0008BEC95E20E94D33824C22AE834E241E027
:104FC00061E08BEC95E20E9488382091B9273091FE
:104FD000BA2747E061E08BEC95E20E94D33825E9DF
:104FE00034E241E062E08BEC95E20E948838209147
:104FF000AA273091AB2747E062E08BEC95E20E9454
:10500000D3382BE934E241E063E08BEC95E20E9477
:1050100088388BEB95E20E949C379C0147E063E067
:105020008BEC95E20E94D33822EA34E24BE061E057
:105030008BEC95E20E9488388BEB95E20E94FC3560
:105040009C0141E161E08BEC95E20E94D33828EAB3
:1050500034E24BE062E08BEC95E20E9488388BEB07
:1050600095E20E944A369C0141E162E08BEC95E2B8
:105070000E94D3382EEA34E24BE063E08BEC95E2F9
:105080000E94883820919F273091A0274FE063E04D
:105090008BEC95E20E94D338B4C123EB34E241E0BB
:1050A00061E08BEC95E20E94883828EB36E248E01C
:1050B00061E08BEC95E20E94D3382AEB34E241E0C8
:1050C00062E08BEC95E20E94883820EB36E247E004
:1050D00062E08BEC95E20E94D3382FEB34E241E0A2
:1050E00063E08BEC95E20E94883828EA36E247E0DC
:1050F00063E08BEC95E20E94D33883C128EC34E264
:1051000041E061E08BEC95E20E9488382091A22674
:105110003091A32648E061E08BEC95E20E94D33801
:1051200070C12EEC34E241E061E08BEC95E20E942C
:1051300088382CEB32E24FE061E08BEC95E20E9484
:10514000883822ED34E241E062E08BEC95E20E9487
:10515000883827ED34E24DE062E08BEC95E20E9466
:1051600088382CED34E241E063E08BEC95E20E945C
:10517000883825EE34E24DE063E08BEC95E20E9446
:1051800088382AEE34E241E064E08BEC95E20E943C
:10519000883820913C2530E045E061E08BEC95E2D9
:1051A0000E94D33820913E2530913F2546E062E0B1
:1051B0008BEC95E20E94D33820914425309145250F
:1051C00042E162E08BEC95E20E94D338209101200D
:1051D000332727FD30954AE063E08BEC95E20E948F
:1051E000D338209100202F3F39F08AE52802900122
:1051F0001124235D3F4F02C02FEF3FEF42E163E0F8
:105200008BEC95E20E94D33820913D2530E048E0B8
:1052100064E08BEC95E20E94D338F3C021EF34E2D6
:1052200041E061E08BEC95E20E94883820913627BE
:105230003091372747E061E08BEC95E20E94D3384C
:105240002DE433E241E062E08BEC95E20E94883885
:10525000209138273091392747E062E08BEC95E2C6
:105260000E94D33826E533E241E063E08BEC95E21F
:105270000E94883820913A2730913B2747E063E02D
:105280008BEC95E20E94D3382FE533E241E064E0F5
:105290008BEC95E20E94883820913C2730913D2785
:1052A00047E064E08BEC95E20E94D33826E933E2D4
:1052B0004CE061E08BEC95E20E94883820913E271B
:1052C00030913F2741E161E08BEC95E20E94D338B9
:1052D0002CE933E24CE062E08BEC95E20E948838E6
:1052E000209140273091412741E162E08BEC95E22B
:1052F0000E94D33822EA33E24CE063E08BEC95E283
:105300000E948838209142273091432741E163E091
:105310008BEC95E20E94D33828EA33E24CE064E05B
:105320008BEC95E20E9488382091442730914527E4
:1053300041E164E08BEC95E20E94D33862C028EF33
:1053400034E241E061E08BEC95E20E9488382091E4
:105350003427309135274CE061E08BEC95E20E94D8
:10536000D33825E035E241E062E08BEC95E20E9423
:10537000883820913227309133274CE062E08BEC63
:1053800095E20E94D3383DC022E135E241E061E080
:105390008BEC95E20E94883820911B2730E041E099
:1053A00062E08BEC95E20E94D3382BC020911B2742
:1053B000215020931B2720911B272A3110F00C9499
:1053C000AB210C94AE2120911B272F5F20931B272C
:1053D00020911B272A3110F00C94BC21D1E0C0E0B1
:1053E00061E070E0FC01E095F095A0E0B1E014E62A
:1053F0000C94C221DA3010F00C94DB210D2F0C94A8
:10540000DC21DF91CF911F910F91FF90EF900895D4
:105410008F929F92AF92BF92CF92DF92EF92FF92C4
:105420000F931F93CF93DF9380919D25882309F4D9
:1054300091C180915A2790915B27893B9B4008F44A
:1054400089C1809156279091572799235CF48091C8
:1054500056279091572791958195910944970CF47F
:1054600070C178C1809156279091572744970CF4CA
:1054700068C170C180917521909176218E36910519
:105480000CF497C172C18091B9279091BA27919578
:105490008195910921E00A9754F020E008C080919D
:1054A000B9279091BA2721E00A970CF020E021114A
:1054B0000E94860F40E050E862EA74E480E090E0E9
:1054C0000E94490A1092B7271092B8271092A42779
:1054D0001092A5279BC18091B7279091B827209162
:1054E000B9273091BA27821B930B21E00A9784F0E9
:1054F00020E00EC08091B9279091BA272091B7275C
:105500003091B827821B930B21E00A970CF020E022
:10551000222309F47BC10E94860F78C1809156270F
:1055200090915727992364F480915627909157279B
:10553000919581959109873891050CF442C108C075
:105540008091562790915727873891050CF439C1DF
:1055500080915A2790915B27893B9B4008F035C189
:1055600080915A2790915B27813F9A4008F435C17A
:10557000809156279091572799235CF48091562764
:10558000909157279195819591098D970CF41DC1A4
:1055900024C180915627909157278D970CF415C1FF
:1055A0001CC1809156279091572740E050E066E952
:1055B00074E4815391400E94490A1092B7271092D7
:1055C000B82724C18091562790915727843C9F4F3C
:1055D0008CF4809156279091572740E050E066E97F
:1055E00074E48F5C9E4F0E94490A1092B727109274
:1055F000B8270CC16091562770915727882777FDEF
:105600008095982F0E948D3C2DEC3CEC4CEC5FE398
:105610000E94573E0E945A3CDC01CB0140E050E022
:105620006FE274E40E94490A8091542790915527B3
:10563000992364F4809154279091552791958195F1
:10564000910921E04D9754F020E008C08091542743
:105650009091552721E04D970CF020E0222361F036
:105660008091542790915527919581959109809328
:10567000B7279093B827CAC0809154279091552797
:105680008091542790915527873891050CF0BAC026
:10569000809143258111AAC0B5C0E0ECF7E0808578
:1056A00080FD07C068E270E08AE590E00E94D50BBB
:1056B00006C06EE170E08AE590E00E94D50B109282
:1056C000B7271092B827A2C080915A2790915B27E4
:1056D00004E911E1E801C81BD90BC0905227D09012
:1056E0005327E0905627F0905727BE0180E090E0C6
:1056F0000E948B3C2AE939E949E15FE30E94573E69
:105700004B015C010C191D09BE01601B710B80E08F
:1057100090E00E948B3C20E030E040E85EE30E9495
:10572000573E9B01AC01C501B4010E94153BAB0182
:10573000BC01C7010E94490A1092B7271092B827EE
:1057400065C08091752190917621873491050CF088
:1057500091CE0BC01092A02680915A2790915B2782
:10576000813D974008F0DACEF3CE81E08093A02609
:105770001092A4271092A52740E050E862EA74E452
:1057800080E090E00E94490A80919D2790919E2799
:105790008093B7279093B8278091B7279091B82727
:1057A0002091B9273091BA27821B930B0AF093CE30
:1057B000A1CE8091B9279091BA2799230CF06FCE92
:1057C00062CE81E08093A026C3CE8091562790912F
:1057D0005727CD970CF4F6CEE4CE80915A279091BE
:1057E0005B278837910508F458CF6ECF80915427F6
:1057F000909155279195819591098093B727909322
:10580000B82704C01092B7271092B827DF91CF9124
:105810001F910F91FF90EF90DF90CF90BF90AF90CE
:105820009F908F9008958F929F92AF92BF92CF9248
:10583000DF92EF92FF920F931F93CF93DF938091AC
:105840009D25882309F45EC280915A2790915B2799
:10585000893B9B4008F456C2809156279091572768
:1058600099235CF4809156279091572791958195C3
:10587000910944970CF457C245C2809156279091E4
:10588000572744970CF44FC23DC28091A327882329
:1058900009F4C9C08091A32781110DC08091002017
:1058A000882349F0833039F080910120813019F04C
:1058B000833009F0B5C081E08093A02640E050E03D
:1058C000BA0180E090E00E94490A8091A3278111EB
:1058D00010C080910020813021F080910120813022
:1058E00021F482E08093A32774C281E08093A327F0
:1058F00070C28091A327813021F08091A32782304C
:1059000091F58091A327813019F48AE19FEF02C0BD
:1059100086EE90E08093A4279093A52780919F27FF
:105920009091A02799236CF480919F279091A027B4
:1059300091958195910921E08B3A91055CF420E0E5
:1059400009C080919F279091A02721E08B3A910573
:105950000CF420E0222309F43CC28091A3278E5F3F
:105960008093A32736C28091A327833029F08091AA
:10597000A327843009F02DC28091A327833019F426
:1059800084E29AEF02C08CED95E08093A427909377
:10599000A52780919F279091A02799236CF480914F
:1059A0009F279091A02791958195910921E08035BD
:1059B00091055CF020E009C080919F279091A0277D
:1059C00021E0803591050CF020E021110E94860F26
:1059D00080919F279091A027992364F480919F271D
:1059E0009091A02791958195910921E00A9754F013
:1059F00020E008C080919F279091A02721E00A977E
:105A00000CF020E0222309F4E4C11092A3271092A5
:105A1000A4271092A5271092B7271092B827D9C1B2
:105A20001092A026D6C1809175219091762187345D
:105A300091050CF47DC180917521909176218E366F
:105A400091050CF499C174C18091B9279091BA273E
:105A500091958195910921E00A9754F020E008C0C2
:105A60008091B9279091BA2721E00A970CF020E0A5
:105A700021110E94860F40E050E862EA74E480E061
:105A800090E00E94490A1092B7271092B82710920E
:105A9000A4271092A5279DC18091B7279091B82780
:105AA0002091B9273091BA27821B930B21E00A97E6
:105AB00084F020E00EC08091B9279091BA27209100
:105AC000B7273091B827821B930B21E00A970CF07F
:105AD00020E0222309F47DC10E94860F7AC18091C3
