:100000000C942B010C945D1E0C945F010C945F0109
:100010000C945F010C945F010C945F010C945F01E0
:100020000C945F010C945F010C945F010C945F01D0
:100030000C945F010C949A1B0C945F010C945F016B
:100040000C945F010C945F010C945F010C945F01B0
:100050000C9430110C945F010C945F010C945F01BF
:100060000C945F010C94DD0F0C945F010C945F0104
:100070000C945F010C945F010C945F010C945F0180
:100080000C945F010C945F010C94E51C0C94431DCF
:100090000C945F010C945F010C945F010C94980721
:1000A0000C945F010C945F010C945F010C94A11DF2
:1000B0000C94FF1D0C945F010C945F010C945F0184
:1000C0000C945F010C945F010C945F010C945F0130
:1000D0000C945F010C945F010C945F010C945F0120
:1000E0000C945F010C945F010C945F010C945F0110
:1000F0000C945F010C9497030C94DA060C945F0146
:100100000C945F010C945F010C945F010C945F01EF
:100110000C945F010C945F010C945F010C943F07F9
:100120000C945F010C945F010C945F010C945F01CF
:100130000C94CF1B0C94391C0C945F010C945F0140
:100140000C945F010C945F010C945F010C94641C8F
:100150000C945F010C945F010C945F010C945F019F
:100160000C94791B0C94441B0C945F010C945F015C
:100170000C945F010C945F010C945F010C945F017F
:100180000C945F010C945F010C945F010C945F016F
:100190000C945F010C945F010C945F010C945F015F
:1001A0000C945F010C945F010C945F010C94041C8F
:1001B0000C948F1C0C945F010C945F010C945F01F4
:1001C0000C945F010C945F010C94BA1C0C945F01B9
:1001D0000C945F010C945F010C945F010C945F011F
:1001E0000C945F010C945F010C945F010C940F1B45
:1001F0000C945F01301F5A1F7B1F9C1FBD1FC61F21
:10020000C61FC61FC61FC61FEE1F4020CA205B2187
:10021000EC215E22D0222B2374238C249524F424F9
:1002200025253825084AD73B3BCE016E84BCBFFD4F
:10023000C12F3D6C74319ABD56833DDA3D00C77FB6
:1002400011BED9E4BB4C3E916BAAAABE000000804F
:100250003F00B62FBD2F11241FBECFEFDFE2DEBF60
:10026000CDBF18BE19BE1ABE1BBE14E2A0E0B0E29C
:10027000ECE0F4E700E00BBF02C007900D92A23F54
:10028000B107D9F71BBE27E2A2EFB4E201C01D926D
:10029000A33EB207E1F712E0C4E5D2E000E006C0F9
:1002A00022970109FE010BBF0E944239C235D107D6
:1002B00080E00807A9F70E94B1290C94F4390C9446
:1002C0000000FC01608371834863DB0111964C934D
:1002D000A081B18115962C930190F081E02D81E0F1
:1002E000848308950F93213208F051C0013408F03F
:1002F00050C0FC01E959FF4F308131114CC0FC0165
:10030000E959FF4F31E03083FC01E859FF4F10827B
:10031000222371F0E42FF52F40E050E03191DC0111
:10032000A40FB51F13963C934F5F5F4F4217B0F376
:10033000DC0112966C931297FC01ED59FF4F20835C
:10034000AC59BF4F0C93DC01AB59BF4F1C92DC0181
:10035000AA59BF4F1C922081222349F0FC0122811F
:100360002E7F0190F081E02D268381E017C0FC01F3
:10037000EC59FF4F2081222381F0DC0112962C9151
:1003800012972160ED91FC91268381E007C080E007
:1003900005C080E003C080E001C081E00F910895B6
:1003A000FC01E959FF4F2081211125C0FC01E959C9
:1003B000FF4F21E02083FC01E859FF4F1082DC0150
:1003C00012966C93FC01ED59FF4F1082FC01EC5921
:1003D000FF4F1082FC01EB59FF4F1082FC01EA59DC
:1003E000FF4F1082FC0122812E7F0190F081E02DD1
:1003F000268381E0089580E00895DC01ED91FC9171
:100400001197248122FF05C0A859BF4F34E03C93C7
:1004100005C0DC01A859BF4F33E03C93286024831A
:10042000FC01E959FF4F10820895FC01E859FF4F84
:100430006083FC01E959FF4F10820895CF93DF9349
:10044000EC01FC01EA59FF4F8081803480F4E8819F
:10045000F9818781FE01EA59FF4F9081DE01A90FE2
:10046000B11D93968C9380818F5F808308C0E88153
:10047000F98183E0838362E0CE010E941502FE01D0
:10048000EC59FF4F9081FE01EA59FF4F8081891797
:1004900028F4E881F98182E0838308C0E881F9814A
:1004A00087E0838361E0CE010E941502DF91CF9146
:1004B0000895CF93DF93FC01ED59FF4F3081FC018C
:1004C000EC59FF4F4081DC01ED91FC91248124FF28
:1004D0000CC023E02383FC01E859FF4F25E0208373
:1004E000FC01E959FF4F108224C0DC01AB59BF4F1A
:1004F0002C91231768F4DC01AB59BF4F2C91EC0110
:10050000C20FD11D8B8187838C918F5F8C9311C01B
:10051000DC01AA59BF4F2C91241730F4DC0112964C
:100520008C918160868305C023E0238361E00E9473
:100530001502DF91CF910895DC01ED91FC912481AA
:10054000322F3C7019F00E94FD01089526FF03C070
:100550000E945902089522231CF40E941E0208954D
:1005600066E00E9415020895EF920F93CF93DF93F8
:10057000FC01DB01EE2009F457C0603A88E07807FF
:1005800039F4C0E4D6E088E0898384E08A834CC0F3
:10059000603B88E0780739F4C0E4D6E080E88983DE
:1005A00080E48A8341C0603A89E0780739F4C0E684
:1005B000D6E088E0898384E08A8336C0603B89E0A6
:1005C000780739F4C0E6D6E080E8898380E48A833E
:1005D0002BC0603A8AE0780739F4C0E8D6E088E0BA
:1005E000898384E08A8320C0603B8AE0780739F4FD
:1005F000C0E8D6E080E8898380E48A8315C0603A49
:100600008BE0780739F4C0EAD6E088E0898384E09B
:100610008A830AC0603B8BE0780731F4C0EAD6E0F9
:1006200080E8898380E48A83A083B183228315A232
:1006300016A213A214A211A612A617A210A683E056
:1006400015968C931597007313960C931397552357
:1006500074F414968C911497846014968C93149768
:100660005F7716964C93169717965C9305C016966F
:100670004C93169717965C93A081B18114968C9138
:100680001497806114968C930190F081E02D848101
:1006900088608483DF91CF910F91EF900895FC01E2
:1006A00087A190A521A532A58F5F982F9F7081E02B
:1006B000921301C080E08823C1F027A130A5332721
:1006C000DF01A20FB31F53966C932F5F3F4F2F7024
:1006D000332727A330A7A081B18113969C9113974C
:1006E0009C7F2281922B13969C930895FC0181A5F7
:1006F00092A527A130A599272817390739F4019029
:10070000F081E02D83818C7F83830895A1A5B2A51C
:10071000AE0FBF1F53968C91A081B1818C9381A5A0
:1007200092A501968F70992781A792A708951F928D
:100730000F920FB60F92112408B60F9218BE09B689
:100740000F9219BE0AB60F921ABE0BB60F921BBEBD
:100750001F932F933F934F935F936F937F938F9349
:100760009F93AF93BF93CF93DF93EF93FF93E0916A
:100770001D25F0911E2540818091F7248230D1F112
:1007800030F4882359F0813009F075C01DC08330E2
:1007900009F446C0843009F06EC058C080E090E093
:1007A000642F70E09B01082E02C0359527950A94AE
:1007B000E2F721703327FC01E350FB4D20830196C3
:1007C0008630910579F757C080E090E0642F70E0A3
:1007D0009B01082E02C0359527950A94E2F72170F7
:1007E0003327FC01ED5FFA4D208301968730910598
:1007F00079F741C080E090E0642F70E09B01082E03
:1008000002C0359527950A94E2F721703327FC0141
:10081000E65FFA4D208301968630910579F72BC06B
:1008200080E090E0642F70E09B01082E02C03595B7
:1008300027950A94E2F721703327FC01E05FFA4D17
:10084000208301968730910579F715C080E090E00C
:10085000642F70E09B01082E02C0359527950A94FD
:10086000E2F721703327FC01E95EFA4D20830196FF
:100870008630910579F78091F72481110DC0842F7E
:1008800090E0082E892F000C881F990B000C881F00
:10089000991F029709F072C28091F724843009F001
:1008A00048C2842F90E0082E892F000C881F990BD6
:1008B000000C881F991F039709F060C23AC210927A
:1008C000F72480E090E0A0E0FC01E350FB4D2081A4
:1008D000222311F0A16001C0A2600196803291052F
:1008E00099F7A13009F43DC2A23009F43CC2A3300B
:1008F00019F0A11102C038C2A1E061E070E020E06F
:1009000030E0D0E010E0C22FF901E350FB4D8081D0
:10091000811129C0F9013197EF71FF27E350FB4D99
:10092000808181110FC21FC0FB01EF71FF27E350CF
:10093000FB4D8081882351F0B1E011C0EF71F0E0F0
:10094000E350FB4D8081882311F009C0B1E0BF5F07
:10095000EC2FEB0F8E2F90E0841795077CF3DB17BD
:1009600010F4DB2F1C2F2F5F3F4F6F5F7F4F203224
:10097000310549F62D2F210F21502F71211710F02D
:10098000812F02C0822F212F30E090E0A901481B67
:10099000590B4131510544F0820F931F959587956E
:1009A000805F482F4F71D7C1820F931F9595879510
:1009B000482FD1C128E631E0429FC001439F900DEE
:1009C00011248C549F4F959587959595879595956E
:1009D0008795959587959595879591958195910999
:1009E0008093FB249093FC248091FB249091FC2421
:1009F0008C349F4F54F48091FB249091FC248859AF
:100A00009E4F8093FB249093FC2482E08093FA24F1
:100A10002091FB243091FC248091A7279091A82756
:100A2000820F931F853B91051CF08856914006C0AC
:100A30008C344FEF940714F488599E4FAC019C01FD
:100A4000245D3F4F2935310518F41092F82419C060
:100A50008D978B35910520F483E08093F82411C0A5
:100A6000CA0189579F4F8F3051E0950720F082E0EF
:100A70008093F82406C08B35910518F481E08093AB
:100A8000F8248091F8248093F92445C19091FA24A8
:100A9000943019F4A1116EC102C0A1110CC0809153
:100AA000FA24823029F41092FA241092F82403C018
:100AB00084E08093FA249091FA24992309F42BC1BD
:100AC0008091FA24843009F058C04091F82428E637
:100AD00031E0429FC001439F900D11249595879569
:100AE000959587959195819591098093FB24909395
:100AF000FC248091FB249091FC248C349F4F54F46F
:100B00008091FB249091FC2488599E4F8093FB2474
:100B10009093FC242091A7273091A8278091FB2453
:100B20009091FC24821B930B8093FB249093FC24D4
:100B30008091FB249091FC248C349F4F5CF4809135
:100B4000FB249091FC2488599E4F8093FB24909322
:100B5000FC24E1C08091FB249091FC24853B91050D
:100B60000CF4D9C08091FB249091FC2488569140CC
:100B70008093FB249093FC24CEC088E691E0489FAC
:100B80009001499F300D11242C543F4F35952795E6
:100B9000359527953595279535952795359527953D
:100BA00088279927821B930B8C345FEF950724F4D9
:100BB00088E691E0821B930B2091A7273091A8270C
:100BC000280F391F2C344FEF34071CF428593E4F9F
:100BD00005C0253B310514F028563140B901A90163
:100BE000445D5F4F4935510590F02D5231092B3549
:100BF000310578F09B0129573F4F2F3051E03507E1
:100C000050F461E02B35310538F060E005C060E05C
:100C100003C063E001C062E0262F30E02E5F3F4F4B
:100C2000237033274091F82450E02417350731F022
:100C30004091F92450E024173507D9F48C549F4F84
:100C40008093FB249093FC248091FB249091FC24BE
:100C5000853B910554F08091FB249091FC248856AB
:100C600091408093FB249093FC2483E08093FA24AA
:100C700052C022E02093FA242091F824621709F44C
:100C800046C02091FB243091FC24281B390B62F0D4
:100C90002091FB243091FC24281B390B41E02B359B
:100CA00031057CF440E00DC02091FB243091FC2400
:100CB000AC01421B530B9A0141E02B3531050CF47A
:100CC00040E04423E9F08C549F4F8093FB249093A1
:100CD000FC248091FB249091FC24853B910554F0E9
:100CE0008091FB249091FC24885691408093FB24B2
:100CF0009093FC24862F8E5F83708093F8240BC022
:100D00008093FB249093FC246093F82404C0809388
:100D1000FB249093FC248091F6248F5F8093F6242B
:100D200085FF2CC088ED84BF81E0E8E7F0E0818397
:100D300025C08091F7248F5F8093F724853008F0D9
:100D4000BECD1CC0A901405E5F4F641775070CF44F
:100D5000EBCDB1E004CE8091FA24882309F42ACEA9
:100D600095CEA0E001C0A0E08091FA24882399F2FA
:100D700040E08CCE83E08093FA249DCEFF91EF91EA
:100D8000DF91CF91BF91AF919F918F917F916F91A3
:100D90005F914F913F912F911F910F900BBE0F903C
:100DA0000ABE0F9009BE0F9008BE0F900FBE0F90A5
:100DB0001F9018951F920F920FB60F92112408B62C
:100DC0000F9218BE09B60F9219BE0BB60F921BBE3A
:100DD0002F933F934F935F936F937F938F939F9343
:100DE000AF93BF93EF93FF938DE195E20E9476035B
:100DF000FF91EF91BF91AF919F918F917F916F91F3
:100E00005F914F913F912F910F900BBE0F9009BEB4
:100E10000F9008BE0F900FBE0F901F901895EF9285
:100E20000F93EE24E39400E322E049E150E060EB0D
:100E30007AE08DE195E20E94B4020F91EF9008955F
:100E4000811108C060E08DE195E20E944F0310928D
:100E500048250895909148259F5F909348259630A6
:100E600068F0813031F46AEA8DE195E20E944F0327
:100E7000089565E58DE195E20E944F0308951F9264
:100E80000F920FB60F92112408B60F9218BE09B632
:100E90000F9219BE0AB60F921ABE0BB60F921BBE66
:100EA0002F933F938F939F93AF93BF93CF93DF93F2
:100EB000EF93FF93A0919027B0E0E0E0F2E084A1EF
:100EC00095A1C0919027D0E0CC0FDD1FC058D84D20
:100ED00028813981821B930BAA0FBB1FA059B84DE3
:100EE0008D939C93809190278F5F8770809390273C
:100EF00080919027880F880F880F81A380A1806838
:100F000080A3FF91EF91DF91CF91BF91AF919F911E
:100F10008F913F912F910F900BBE0F900ABE0F90B3
:100F200009BE0F9008BE0F900FBE0F901F9018952E
:100F30001F920F920FB60F92112408B60F9218BE8F
:100F40000F9008BE0F900FBE0F901F901895AAEC3F
:100F5000B1E022E02C93FC0184911C9290E0089572
:100F6000CF93DF9380E290E00E94A707C0E0D2E039
:100F70008C8781E290E00E94A7078D8780E290E055
:100F80000E94A7078C8781E290E00E94A7078D87C7
:100F900081E088A319A2198296E09C8390E39A834A
:100FA0001B829FE09E838AA3888388A1806888A390
:100FB000DF91CF910895AB01772324F4442755277F
:100FC000461B570B242F352F2D3D95E0390710F088
:100FD0002CED35E01616170694F440E150E0082E8B
:100FE00002C0440F551F0A94E2F7E0E2F7E04583A0
:100FF0004CED55E0BA01621B730B9B010BC040E145
:1010000050E0082E02C0440F551F0A94E2F7E0E2B8
:10101000F7E04683811105C0E0E0FAE020A731A7A0
:101020000895813029F4E0E0FAE022A733A708957B
:10103000823029F4E0E0FAE024A735A70895E0E043
:10104000FAE026A737A708952F923F924F925F921A
:101050006F927F928F929F92AF92BF92CF92DF92C8
:10106000EF92FF920F931F93CF93DF93CDB7DEB72D
:10107000A697CDBFDEBF1C0180E1E5EAF1E2DE010B
:10108000519601900D928A95E1F780E1E5EBF1E24E
:10109000DE01119601900D928A95E1F7CE014196FD
:1010A0008BA39CA3FE013196E9A3FAA300E010E014
:1010B0002DA23EA25101FAE5AF0EB11C2A013B015F
:1010C00004C18DA19EA188599E4FEAF3893621E083
:1010D000920734F0885691408936E1E09E07D4F7B4
:1010E0008A35910564F4FC01EE0FFF1FEE0FFF1F20
:1010F000E85FFF4D208131814281538136C0843BBE
:1011000091057CF4E4EBF0E0E81BF90BEE0FFF1F18
:10111000EE0FFF1FE85FFF4D208131814281538137
:1011200024C08E30F1E09F077CF4FC01EE0FFF1F1E
:10113000EE0FFF1FE85CF24E80819181A281B381A6
:101140009C01AD01505811C0E8E6F1E0E81BF90B35
:10115000EE0FFF1FEE0FFF1FE85FFF4D80819181B3
:10116000A281B3819C01AD0150587801E9A1FAA197
:101170006191719181919191E9A3FAA30E945138F3
:10118000A30192010E945138862E972EC82ED92E87
:10119000C501BB201CF488599E4FEAF38936F1E063
:1011A0009F0734F088569140893621E09207D4F7A2
:1011B0008A35910564F4FC01EE0FFF1FEE0FFF1F4F
:1011C000E85FFF4D208131814281538136C0843BED
:1011D00091057CF4E4EBF0E0E81BF90BEE0FFF1F48
:1011E000EE0FFF1FE85FFF4D208131814281538167
:1011F00024C08E30E1E09E077CF4FC01EE0FFF1F5F
:10120000EE0FFF1FE85CF24E80819181A281B381D5
:101210009C01AD01505811C0E8E6F1E0E81BF90B64
:10122000EE0FFF1FEE0FFF1FE85FFF4D80819181E2
:10123000A281B3819C01AD015058EBA1FCA1619149
:10124000719181919191EBA3FCA30E945138A3016C
:1012500092010E9451389B01AC01682D792D8C2D93
:101260009D2D0E940F35862E972EC82ED92E20E058
:1012700030E0A9010E94AF3718166CF420E030E08E
:1012800040E05FE3682D792D8C2D9D2D0E940F3558
:101290000E94C2360CC020E030E040E05FE3682DE1
:1012A000792D8C2D9D2D0E940E350E94D5350E94E2
:1012B0005436F701EE0FFF1FE555F84D608371833B
:1012C0000F5F1F4F0430110531F033200CF4F9CEBD
:1012D0008DA19EA1FBCEA696CDBFDEBFDF91CF91A3
:1012E0001F910F91FF90EF90DF90CF90BF90AF9044
:1012F0009F908F907F906F905F904F903F902F9036
:1013000008952F923F924F925F926F927F928F92A9
:101310009F92AF92BF92CF92DF92EF92FF920F9384
:101320001F93CF93DF93CDB7DEB7A697CDBFDEBFB8
:101330008C016A017B0180E1E5EAF1E2DE01519670
:1013400001900D928A95E1F780E1E5EBF1E2DE0193
:10135000119601900D928A95E1F7053B11052CF04D
:1013600008561140053B1105DCF70C342FEF12072E
:101370000CF013C108591E4F0C348FEF1807D4F32B
:101380000CC18DA19EA188599E4FEAF38936E1E0F8
:101390009E0734F0885691408936F1E09F07D4F7D4
:1013A0008A35910564F4FC01EE0FFF1FEE0FFF1F5D
:1013B000E85FFF4D208131814281538136C0843BFB
:1013C00091057CF4E4EBF0E0E81BF90BEE0FFF1F56
:1013D000EE0FFF1FE85FFF4D208131814281538175
:1013E00024C08E3021E092077CF4FC01EE0FFF1F39
:1013F000EE0FFF1FE85CF24E80819181A281B381E4
:101400009C01AD01505811C0E8E6F1E0E81BF90B72
:10141000EE0FFF1FEE0FFF1FE85FFF4D80819181F0
:10142000A281B3819C01AD0150587501E9A1FAA1D7
:101430006191719181919191E9A3FAA30E94513830
:10144000A30192010E945138862E972EC82ED92EC4
:10145000C10133201CF488599E4FEAF38936F1E02C
:101460009F0734F088569140893621E09207D4F7DF
:101470008A35910564F4FC01EE0FFF1FEE0FFF1F8C
:10148000E85FFF4D208131814281538136C0843B2A
:1014900091057CF4E4EBF0E0E81BF90BEE0FFF1F85
:1014A000EE0FFF1FE85FFF4D2081318142815381A4
:1014B00024C08E30E1E09E077CF4FC01EE0FFF1F9C
:1014C000EE0FFF1FE85CF24E80819181A281B38113
:1014D0009C01AD01505811C0E8E6F1E0E81BF90BA2
:1014E000EE0FFF1FEE0FFF1FE85FFF4D8081918120
:1014F000A281B3819C01AD015058EBA1FCA1619187
:10150000719181919191EBA3FCA30E945138A301A9
:1015100092010E9451389B01AC01682D792D8C2DD0
:101520009D2D0E940F35862E972EC82ED92E20E095
:1015300030E0A9010E94AF3718166CF420E030E0CB
:1015400040E05FE3682D792D8C2D9D2D0E940F3595
:101550000E94C2360CC020E030E040E05FE3682D1E
:10156000792D8C2D9D2D0E940E350E94D5350E941F
:101570005436F701EE0FFF1FE555F84D6083718378
:10158000FFEFAF1ABF0A24E0A216B104C9F011237D
:101590000CF4F7CE8DA19EA1F9CECE0141968BA37E
:1015A0009CA3FE013196E9A3FAA3A12CB12C0DA3B3
:1015B0001EA31801FAE52F0E311C26013701E7CFD3
:1015C000A696CDBFDEBFDF91CF911F910F91FF9007
:1015D000EF90DF90CF90BF90AF909F908F907F90D3
:1015E0006F905F904F903F902F9008952F923F9271
:1015F0004F925F926F927F928F929F92AF92BF9223
:10160000CF92DF92EF92FF920F931F93CF93DF93CE
:10161000CDB7DEB7A897CDBFDEBF5C016B0180E11F
:10162000E5ECF1E2DE01519601900D928A95E1F729
:1016300080E1E5EBF1E2DE01119601900D928A95D1
:10164000E1F7E0907421F0907521EA18FB08009111
:10165000762110917721061B170B8091B32790916B
:101660004925981709F445C160917421709175213D
:101670006A197B09882777FD8095982F0E94873605
:101680002DEC3CEC4CE45BE30E94513820914A2560
:1016900030914B2540914C2550914D250E940F359E
:1016A000662E772E882E992E20E030E048EC52E40A
:1016B0000E94AF3718166CF480E090E0A8ECB2E41A
:1016C00080934A2590934B25A0934C25B0934D25AC
:1016D00025C020E030E048EC52EC662D772D882DB7
:1016E000992D0E94E83588236CF0862D972DA82D22
:1016F000B92D80934A2590934B25A0934C25B09308
:101700004D250CC080E090E0A8ECB2EC80934A2517
:1017100090934B25A0934C25B0934D256091742157
:10172000709175216A197B09882777FD8095982F1C
:101730000E94873620914A2530914B2540914C25B7
:1017400050914D250E94513820E030E0A9010E94BF
:10175000E835181644F010924A2510924B25109245
:101760004C2510924D2560917621709177216C194E
:101770007D09882777FD8095982F0E9487362DEC6C
:101780003CEC4CE45BE30E94513820914E253091B3
:101790004F2540915025509151250E940F35862E9E
:1017A000972EA82EB92E20E030E048EC52E40E949B
:1017B000AF3718166CF480E090E0A8ECB2E48093A8
:1017C0004E2590934F25A0935025B093512525C0C9
:1017D00020E030E048EC52EC682D792D8A2D9B2DCD
:1017E0000E94E83588236CF0882D992DAA2DBB2DF9
:1017F00080934E2590934F25A0935025B09351256B
:101800000CC080E090E0A8ECB2EC80934E25909361
:101810004F25A0935025B09351256091762170916A
:1018200077216C197D09882777FD8095982F0E9474
:10183000873620914E2530914F254091502550916B
:1018400051250E94513820E030E0A9010E94E8357E
:10185000181644F010924E2510924F2510925025E4
:10186000109251258091022090910320B701681BAE
:10187000790B882777FD8095982F0E94873620E086
:1018800030E040E852E40E94513820E030E040EA85
:1018900050E40E945138462E572E882E992E809162
:1018A000042090910520B801681B790B882777FDEB
:1018B0008095982F0E94873620E030E040E852E47F
:1018C0000E94513820E030E040EA50E40E94513854
:1018D000662E772EA82EB92EE0920220F0920320D9
:1018E00000930420109305208091B327809349250D
:1018F00008C0612C712CA12CB12C412C512C812CB5
:10190000912CB701882777FD8095982F0E94873604
:1019100020E030E040E451E40E9451386B017C014A
:1019200020E030E040E850E460914A2570914B257A
:1019300080914C2590914D250E9451389B01AC011E
:10194000C701B6010E940F356B017C012DEC3CEC08
:101950004CE45EE3642D752D882D992D0E9451383D
:101960009B01AC01C701B6010E940F35262E372E10
:10197000882E992EB801882777FD8095982F0E9490
:10198000873620E030E040E451E40E9451386B019A
:101990007C0120E030E040E850E460914E257091F9
:1019A0004F2580915025909151250E9451389B01DF
:1019B000AC01C701B6010E940F356B017C012DEC13
:1019C0003CEC4CE45EE3662D772D8A2D9B2D0E9426
:1019D00051389B01AC01C701B6010E940F356DA3C0
:1019E0007EA38FA398A7CE0101968BA39CA3FE0193
:1019F0007196E9A3FAA300E010E05801EBA1FCA165
:101A00002191319141915191EBA3FCA3E9A1FAA15C
:101A10004190519061907190E9A3FAA3622D732DCA
:101A2000882D992D0E9451386B017C01A3019201F0
:101A3000BDA1AEA1FFA1E8A56B2F7A2F8F2F9E2FFE
:101A40000E9451389B01AC01C701B6010E940F35BD
:101A5000C62ED72EE82EF92E20E030E0A9010E94F4
:101A6000AF3718166CF420E030E040E05FE36C2DF7
:101A70007D2D8E2D9F2D0E940F350E94C2360CC0E9
:101A800020E030E040E05FE36C2D7D2D8E2D9F2D1A
:101A90000E940E350E94D5350E945436F501EE0F96
:101AA000FF1FE555F84D608371830F5F1F4F0430B2
:101AB000110509F0A2CF80E090E060E070E09C01A9
:101AC000FC01EE0FFF1FE555F84D40815181552374
:101AD00044F0FC01EE0FFF1FE555F84D40815181A8
:101AE0000AC0FC01EE0FFF1FE555F84D4081518102
:101AF00051954195510964177507DCF4F901EE0F12
:101B0000FF1FE555F84D40815181552344F0F901FF
:101B1000EE0FFF1FE555F84D608171810AC0F90194
:101B2000EE0FFF1FE555F84D60817181719561954C
:101B3000710901968430910511F6613BF4E07F074D
:101B40000CF45BC0882777FD8095982F0E9487361C
:101B50009B01AC0160E070E086E994E40E94EC3502
:101B6000A62EB72EC82ED92E00E010E07801F8017D
:101B7000EE0FFF1FE555F84D60817181882777FDD5
:101B80008095982F0E9487362A2D3B2D4C2D5D2D58
:101B90000E945138662E772E882E992E20E030E054
:101BA000A9010E94AF3718166CF420E030E040E045
:101BB0005FE3662D772D882D992D0E940F350E94A9
:101BC000C2360CC020E030E040E05FE3662D772DA8
:101BD000882D992D0E940E350E94D5350E945436CD
:101BE000F701EE0FFF1FE555F84D608371830F5F1E
:101BF0001F4F0430110509F0B9CFA896CDBFDEBF45
:101C0000DF91CF911F910F91FF90EF90DF90CF90D8
:101C1000BF90AF909F908F907F906F905F904F900C
:101C20003F902F9008958F929F92AF92BF920F9303
:101C30001F93CF93DF93BC01A8958730910558F08F
:101C400020E43CE9C9010197F1F766507109A895B4
:101C500067307105B8F780E090E00E9485364B014F
:101C60005C0120E030E04AEF55E40E945138062F35
:101C7000172FD82FC92F20E030E040E85FE30E9403
:101C8000E83588234CF120E03FEF4FE757E4602F21
:101C9000712F8D2F9C2F0E94AF371816B4F420E0BF
:101CA00030E040E251E4C501B4010E9451380E9485
:101CB000593661157105A9F020E233E0C901019799
:101CC000F1F761507109D1F70CC0602F712F8D2F82
:101CD0009C2F0E94593602C061E070E0CB01019751
:101CE000F1F7A895DF91CF911F910F91BF90AF9021
:101CF0009F908F9008959091572591111BC081114D
:101D00000FC08091542581110BC014C084EF91E065
:101D1000E0E0F8E080A791A781E080930720089594
:101D200088EE93E0E0E0F8E080A791A787E0809359
:101D300007200895809107208150809307208823F1
:101D400029F308951F93CF93DF9380910620882372
:101D500031F181E08093572540E050E06AE774E478
:101D600080E090E00E94240884E690E00E94130E38
:101D7000C0E2D7E014E01D8384E690E00E94130ED9
:101D80001E8310925225109253258EEF9FEF809361
:101D90005427909355271092062010925725DF91D3
:101DA000CF911F9108951F93CF93DF9380910620C9
:101DB000882379F0C0E2D7E014E01D838FE090E043
:101DC0000E94130E1E8310925225109253251092DA
:101DD0000620DF91CF911F910895809106208111F7
:101DE00013C08091552590915625019680935525D5
:101DF000909356258F3F910538F0109255251092FB
:101E0000562581E0809306200895E0E2F7E0808582
:101E100081FD2FC080915225909153250B97C8F0DA
:101E200081E08093542588E0E0E0F7E085838091AD
:101E30005225909153258436910508F046C0809133
:101E400052259091532501968093522590935325C6
:101E500008951092542588E0E0E0F7E086838091B1
:101E600052259091532501968093522590935325A6
:101E7000089580915225909153250B9788F081E029
:101E80008093542588E0E0E0F7E085838091522537
:101E9000909153250197809352259093532508954F
:101EA0001092542588E0E0E0F7E086838091522587
:101EB00090915325892B49F080915225909153257B
:101EC0000197809352259093532508958130910571
:101ED000E9F56F3F7F4F09F05EC046EC63E875E2BD
:101EE00080E895E20E948E3242EE63E875E284E774
:101EF00095E20E94453444EE63E875E288E795E296
:101F00000E94453446EE63E875E28CE795E20E9454
:101F1000453440E56CEE75E280E795E20E94C42FFF
:101F20004EEC63E875E28CE695E20E94EA3348EAFB
:101F300063E875E28CE595E20E943F3440EC6CEE7C
:101F400075E288E595E20E9487320895892B19F59C
:101F50006F3F7F4F01F588E595E20E948D328CE559
:101F600095E20E9444348CE695E20E94F03380E7CB
:101F700095E20E94CA2F8CE795E20E944B3488E7D5
:101F800095E20E944B3484E795E20E944B3480E84E
:101F900095E20E9493320895EF920F93EE24E3941A
:101FA00000E221E04FEC50E060EA78E087EB97E256
:101FB0000E94B4020F91EF9008951F920F920FB6F6
:101FC0000F92112408B60F9218BE09B60F9219BECF
:101FD0000AB60F921ABE0BB60F921BBE2F933F93F9
:101FE0004F935F936F937F938F939F93AF93BF9321
:101FF000CF93DF93EF93FF93E091B727F091B8274A
:1020000040818091B627873009F462C068F483303C
:1020100039F120F4813021F148F51CC0853009F4F4
:1020200042C008F04DC036C08B3009F47BC030F49C
:10203000893009F462C008F06DC057C08D3009F4D2
:1020400086C008F47CC08E3009F48EC08F3009F051
:10205000E7C092C0453509F4E3C01092B627E5C049
:102060004A3A09F4DDC01092B627DFC0453531F495
:10207000E091B427F091B52712860CC0463539F4AB
:10208000E091B427F091B52781E0828703C01092D8
:10209000B627CBC0E091B427F091B527842F90E00C
:1020A00083879487BDC0E091B427F091B52723853D
:1020B0003485942F80E0822B932B83879487B0C044
:1020C000E091B427F091B52750E040875187A8C030
:1020D000E091B427F091B52720853185942F80E0D9
:1020E000822B932B808791879BC0E091B427F0913E
:1020F000B52750E04483558393C0E091B427F09115
:10210000B52724813581942F80E0822B932B848303
:10211000958386C0E091B427F091B52750E04683BF
:1021200057837EC0E091B427F091B527268137818F
:10213000942F80E0822B932B8683978371C0E0914C
:10214000B427F091B52750E04083518369C0E091F6
:10215000B427F091B52720813181942F80E0822B24
:10216000932B808391835CC0E091B427F091B527D5
:1021700050E04283538354C0E091B427F091B527D7
:1021800022813381942F80E0822B932B828393834F
:1021900020813181C281D381A481B581668177811B
:1021A00040855185838594852C0F3D1F2A0F3B1F49
:1021B000260F371F240F351F2817390769F581E0CF
:1021C0008587248135818091A7279091A827409108
:1021D000912750919227205A310912F42D5F3F4FD9
:1021E0003595279535952795820F931F9A01220FD4
:1021F000331F220F331F220F331F420F531F840F31
:10220000951F6AE070E00E940039609391277093F7
:1022100092271092E22701C015861092B62705C0BA
:102220008091B6278F5F8093B627FF91EF91DF9162
:10223000CF91BF91AF919F918F917F916F915F915E
:102240004F913F912F910F900BBE0F900ABE0F90B0
:1022500009BE0F9008BE0F900FBE0F901F901895EB
:102260001F920F920FB60F92112408B60F9218BE4C
:1022700009B60F9219BE0AB60F921ABE0BB60F928C
:102280001BBE2F923F924F925F926F927F928F92DE
:102290009F92AF92BF92CF92DF92EF92FF920F93F5
:1022A0001F932F933F934F935F936F937F938F93DE
:1022B0009F93AF93BF93EF93FF93CF93DF93CDB7EC
:1022C000DEB72897CDBFDEBF8091B3278931C8F133
:1022D0001092B327E0EEF6E0808580FD37C0808560
:1022E00086FD17C08091A4218823B1F080E795E294
:1022F0000E94F2308093A2279093A3276091A22797
:102300007091A32780E590E00E94AC391092A4213F
:1023100003C081E08093A421109253271092542788
:1023200010925527E0EEF6E0808580FD06C080859E
:10233000829581700E94200709C080E00E942007DA
:1023400005C08091B3278F5F8093B327E0EEF6E05E
:10235000808580FF06C08091D8268F5F8093D82625
:1023600004C01092D8261092FA248091A727909149
:10237000A827853B91055CF08091A7279091A8271D
:10238000885691408093A7279093A82711C08091E9
:10239000A7279091A8278C349F4F54F48091A727AA
:1023A0009091A82788599E4F8093A7279093A8279C
:1023B0008091A7279091A827919581959109809365
:1023C000A7279093A8278091DA269091DB269C017D
:1023D0002F5F3F4F2093DA263093DB268D3D9540CB
:1023E00008F440C080915E2790915F27813F9A401A
:1023F00048F180915A2790915B27992364F480914A
:102400005A2790915B279195819591098B3491057D
:102410004CF080E01EC080915A2790915B278B344E
:10242000910594F4E0EEF6E0808580FD0FC0809188
:102430003A27833069F090913A2781E0913049F052
:1024400080E007C080E005C080E003C081E001C0FB
:1024500081E00E947B0E80E496E08093DA269093E0
:10246000DB2630C08091DA269091DB269C012F5F1D
:102470003F4F2093DA263093DB26893E934038F095
:1024800084EF91E0E0E0F8E080A791A71BC0809185
:10249000DA269091DB269C012F5F3F4F2093DA26AE
:1024A0003093DB26853F914038F088EE93E0E0E002
:1024B000F8E080A791A706C084EF91E0E0E0F8E0A3
:1024C00080A791A78091A4278F5F8093A427843051
:1024D00008F45FC01092A42780919E2790919F27B7
:1024E0008093A0279093A12780E795E20E94453230
:1024F000853009F045C080E4E0E0F7E0868380E7BE
:1025000095E20E94F2302091A2273091A327821BEE
:10251000930B8093A7279093A8278091A72790914A
:10252000A827853B91055CF08091A7279091A8276B
:10253000885691408093A7279093A82711C0809137
:10254000A7279091A8278C349F4F54F48091A727F8
:102550009091A82788599E4F8093A7279093A827EA
:1025600080E795E20E940332833F28F080E8E0E0B4
:10257000F7E08683DBC780E8E0E0F7E08583D6C735
:1025800080E795E20E94CB2F80E4E0E0F7E08583CE
:10259000CDC7813009F0D8C2E0EEF6E0808585FF36
:1025A00003C08CE291E002C080ED97E0209170279B
:1025B000309171272817390790F5209172273091B3
:1025C00073272817390758F52091742730917527FC
:1025D0002817390720F5209176273091772728177B
:1025E0003907E8F42091782730917927281739079F
:1025F000B0F420917A2730917B272817390778F497
:1026000020917C2730917D272817390740F42091AD
:102610007E2730917F272817390708F4AEC70F2E81
:10262000F2EECF2EF4E2DF2EF02DE12CF12C212C56
:10263000312C412C512C612C712C812C912C570167
:10264000F701EE0FFF1FE059F84D6081718180E0C6
:1026500090E00E948536F60130812181F2E0CF0EB4
:10266000D11C032F122F11232CF4980128593E4F0F
:10267000EAF301C09801293641E0340734F02856C6
:1026800031402936E1E03E07D4F72A35310564F4BC
:10269000F901EE0FFF1FEE0FFF1FE85FFF4D2081D6
:1026A00031814281538132C0243B31057CF4E4EB1B
:1026B000F0E0E21BF30BEE0FFF1FEE0FFF1FE85FD2
:1026C000FF4D208131814281538120C02E30F1E0C5
:1026D0003F076CF4F901EE0FFF1FEE0FFF1FE85CE0
:1026E000F24E208131814281538150580FC0E8E67B
:1026F000F1E0E21BF30BEE0FFF1FEE0FFF1FE85F91
:10270000FF4D208131814281538150580E945138C0
:102710009B01AC01662D772D882D992D0E940F35D8
:10272000662E772E882E992EF501EE0FFF1FE059A9
:10273000F84D6081718180E090E00E948536065AF4
:102740001F4F1AF408591E4FEAF3093621E0120709
:1027500034F008561140093631E01307D4F70A3532
:10276000110564F4F801EE0FFF1FEE0FFF1FE85F85
:10277000FF4D208131814281538136C0043B1105D8
:102780007CF4E4EBF0E0E01BF10BEE0FFF1FEE0F2B
:10279000FF1FE85FFF4D208131814281538124C0BA
:1027A0000E3041E014077CF4F801EE0FFF1FEE0F2E
:1027B000FF1FE85CF24E0081118122813381A90163
:1027C0009801505811C0E8E6F1E0E01BF10BEE0F64
:1027D000FF1FEE0FFF1FE85FFF4D00811181228177
:1027E0003381A901980150580E9451389B01AC01D6
:1027F000622D732D842D952D0E940F35262E372E98
:10280000482E592E8FEFE81AF80AE8E0EE16F10488
:1028100009F015CF262D372D482D592D622D732DFA
:10282000842D952D0E94823520E030E044E353E46E
:102830000E9451382BED3FE049E450E40E94EC3512
:102840000E94543660935A2770935B27E0ECF7E0C0
:10285000808580FD0AC080915A2790915B270A9657
:1028600080935A2790935B2719C080915A279091A3
:102870005B27489680935A2790935B2780915A272D
:1028800090915B27181619064CF480915A27909165
:102890005B270A9780935A2790935B2780915A274A
:1028A00090915B278D349F4F5CF480915A279091D3
:1028B0005B2788599E4F80935A2790935B2711C0BE
:1028C00080915A2790915B27853B910554F0809128
:1028D0005A2790915B278856914080935A2790936E
:1028E0005B27222D332D442D552D662D772D882DD8
:1028F000992D0E94BC376B017C0120E030E0A901DA
:102900000E94AF3718165CF420E030E040E05FE34F
:10291000C701B6010E940F350E94C2360AC020E0EE
:1029200030E040E05FE3C701B6010E940E350E942F
:10293000D5350E94593660935E2770935F270091CA
:102940005A2710915B2760915E2770915F2780E086
:1029500090E00E9485366B017C01000F111F000F73
:10296000111F065A1F4F1AF408591E4FEAF3093671
:1029700021E0120734F008561140093631E0130700
:10298000D4F70A35110564F4F801EE0FFF1FEE0FBE
:10299000FF1FE85FFF4D208131814281538136C0A6
:1029A000043B11057CF4E4EBF0E0E01BF10BEE0FCF
:1029B000FF1FEE0FFF1FE85FFF4D20813181428135
:1029C000538124C00E3041E014077CF4F801EE0F6F
:1029D000FF1FEE0FFF1FE85CF24E80819181A28104
:1029E000B3819C01AD01505811C0E8E6F1E0E01B55
:1029F000F10BEE0FFF1FEE0FFF1FE85FFF4D808111
:102A00009181A281B3819C01AD01505860E070E0DA
:102A100080E191E40E940E359B01AC01C701B60133
:102A20000E94513820E030E040E05EE30E945138DF
:102A3000E62EF72E082F192F20E030E0A9010E9482
:102A4000AF3718166CF420E030E040E05FE36E2D05
:102A50007F2D802F912F0E940F350E94C2360CC00F
:102A600020E030E040E05FE36E2D7F2D802F912F3E
:102A70000E940E350E94D5350E94593660935C271E
:102A800070935D2780915427909155279C012F5F6B
:102A90003F4F20935427309355278034914008F0BE
:102AA00041C080915E2790915F278039914008F462
:102AB00073C5209158273091592780915E279091B6
:102AC0005F27205931402817390708F065C5209144
:102AD00058273091592780915E2790915F27205782
:102AE0003E4F8217930708F057C520915627309123
:102AF000572780915A2790915B2725503109281735
:102B000039070CF049C520915627309157278091FD
:102B10005A2790915B272B5F3F4F821793070CF446
:102B200005C53AC580915427909155278138924028
:102B300020F481E080935327F9C410925327109218
:102B4000542710925527F2C4823009F038C380917F
:102B5000A5279091A6272091A7273091A827821B0F
:102B6000930B853B91053CF08856914080939E27BE
:102B700090939F270FC08C343FEF93072CF08093E6
:102B80009E2790939F2706C088599E4F80939E272B
:102B900090939F2700919E2710919F27B801882727
:102BA00077FD8095982F0E9487364B015C0120E0CD
:102BB00030E040E85CE30E94513820919A27309140
:102BC0009B2740919C2750919D270E940F35462EB0
:102BD000572E682E792E20E030E048E453E40E941E
:102BE000AF3718166CF480E090E0A8E4B3E480936B
:102BF0009A2790939B27A0939C27B0939D2725C04D
:102C000020E030E048E453EC642D752D862D972D9F
:102C10000E94E83588236CF0842D952DA62DB72DC4
:102C200080939A2790939B27A0939C27B0939D27EE
:102C30000CC080E090E0A8E4B3EC80939A279093D6
:102C40009B27A0939C27B0939D272091A02730918C
:102C5000A127029FC001039F900D129F900D112488
:102C600018161906B4F020E030E040E05FE3609110
:102C70009A2770919B2780919C2790919D270E9475
:102C8000513860939A2770939B2780939C27909349
:102C90009D27C0909A27D0909B27E0909C27F0908A
:102CA0009D27A7019601C501B4010E94513820E07B
:102CB00030E0A9010E94E835181684F024EA30E7D4
:102CC0004DE75FE3C701B6010E94513860939A2730
:102CD00070939B2780939C2790939D2780E795E294
:102CE0000E94A43080939827909399278091732510
:102CF000882321F010929827109299270091982705
:102D00001091992760919E2770919F27882777FDC2
:102D10008095982F0E94873620E030E04AE751E402
:102D20000E9451386B017C0120E030E040E051E42A
:102D300060919A2770919B2780919C2790919D2765
:102D40000E9451389B01AC01C701B6010E940F35AA
:102D50006B017C01B801882777FD8095982F0E9430
:102D6000873620E030E040E85DE30E9451389B0167
:102D7000AC01C701B6010E940F35E62EF72E082FD1
:102D8000192FA62EB72EC82ED92E982F4E2D5F2D77
:102D9000692F712F4093942750939527609396271E
:102DA0007093972720E030E04AE754E46E2D7F2DA2
:102DB000802F912F0E94AF371816BCF480E090E06E
:102DC000AAE7B4E48093942790939527A09396273D
:102DD000B0939727A12CB12C0F2EFAE7CF2EF02D10
:102DE0000F2EF4E4DF2EF02D2EC020E030E04AE775
:102DF00054EC6E2D7F2D802F912F0E94E835882373
:102E0000BCF480E090E0AAE7B4EC80939427909320
:102E10009527A0939627B0939727A12CB12C0F2E1E
:102E2000FAE7CF2EF02D0F2EF4ECDF2EF02D18C088
:102E300020E030E0A9016E2D7F2D802F912F0E9480
:102E4000AF3718166CF420E030E040E05FE36A2D05
:102E50007B2D8C2D9D2D0E940F350E94C2360CC0FB
:102E600020E030E040E05FE36A2D7B2D8C2D9D2D2E
:102E70000E940E350E94D5350E9454366093A927D2
:102E80007093AA2780919327882331F088E097E0F8
:102E90008093A9279093AA27A090AB27B090AC2746
:102EA0008091A9279091AA27A80EB91EC090AD279E
:102EB000D090AE278091A9279091AA27C80ED91E3D
:102EC000E090AF27F090B0278091A9279091AA2792
:102ED000E80EF91E0091B1271091B2278091A92721
:102EE0009091AA27080F191F8CE695E20E94F133F2
:102EF0008093BE269093BF26BC0180E090E00E94A4
:102F000085369B01AC0160E070EE84E496E40E949B
:102F1000EC35662E772E882E992EB501882777FD01
:102F20008095982F0E948736262D372D482D592DB4
:102F30000E9451380E94543669837A83B6018827EB
:102F400077FD8095982F0E948736262D372D482DA6
:102F5000592D0E9451380E9454366B837C83B701EF
:102F6000882777FD8095982F0E948736262D372D4C
:102F7000482D592D0E9451380E9454366D837E830E
:102F8000B801882777FD8095982F0E948736262DD7
:102F9000372D482D592D0E9451380E9454366F8389
:102FA000788780E795E20E944D3199233CF080E7D5
:102FB00095E20E944D310B9754F422C080E795E2D0
:102FC0000E944D319195819591090B97CCF080E746
:102FD00095E20E94083099234CF080E795E20E9428
:102FE0000830813293400CF03FC00AC080E795E280
:102FF0000E94083091958195910981329340A4F502
:1030000080E795E20E94A83199233CF080E795E2A1
:103010000E94A8310B9754F433C080E795E20E94D8
:10302000A8319195819591090B9754F180E795E22C
:103030000E940830992354F080E795E20E940830FE
:1030400021E08132934074F420E00CC080E795E2E7
:103050000E94083091958195910921E08132934039
:103060000CF420E0222361F08091A9279091AA27F7
:103070008F8398878D839E838B839C8389839A8398
:103080008E010F5F1F4F7E0149E0E40EF11CF80135
:1030900060E070E0308121813296832F922F992356
:1030A0001CF4919581959109681779070CF4BC017E
:1030B000EE15FF0579F76D3D85E078070CF450C0FB
:1030C000882777FD8095982F0E9487369B01AC0159
:1030D00060E070E88BEB94E40E94EC35462E572EAE
:1030E000682E792E6801F80160817181882777FD4B
:1030F0008095982F0E948736242D352D462D572DEB
:103100000E945138862E972EA82EB92E20E030E04E
:10311000A9010E94AF3718166CF420E030E040E0BF
:103120005FE3682D792D8A2D9B2D0E940F350E941B
:10313000C2360CC020E030E040E05FE3682D792D1E
:103140008A2D9B2D0E940E350E94D5350E94543643
:10315000F601608371830E5F1F4F0E151F0511F678
:10316000E0EEF6E0808580FF15C069817A8180E01D
:103170000E94DB076B817C8181E00E94DB076D810F
:103180007E8182E00E94DB076F81788583E00E9468
:10319000DB07CCC160E070E080E00E94DB0760E00C
:1031A00070E081E00E94DB0760E070E082E00E9456
:1031B000DB0760E070E083E00E94DB07B7C183308B
:1031C00009F0B4C18091492781115EC084E795E27E
:1031D0000E94ED34882309F47FC08CE795E20E94B9
:1031E000ED34882309F478C084E795E20E949F3487
:1031F0000AE417E2F801808391838CE795E20E944C
:103200009F3480934E2790934F27F80180819181BE
:10321000892BF1F480914E2790914F27892B59F4F7
:1032200080E590E080934A2790934B2780934E2728
:1032300090934F271FC020914E2730914F2782EA4D
:1032400090E0821B930B80934A2790934B2712C0E8
:1032500080914E2790914F27892B61F420914A2726
:1032600030914B2782EA90E0821B930B80934E278C
:1032700090934F2788E795E20E94943480914927E4
:103280008F5F8093492728C080914927813021F59D
:1032900088E795E20E94ED348823F1F088E795E213
:1032A0000E949F340CE417E2F8018083918384E745
:1032B00095E20E949434F80180819181892B31F448
:1032C00084E690E080934C2790934D278CE795E21D
:1032D0000E9494341092492780914E2790914F2755
:1032E00020914A2730914B278A549F4F821B930B82
:1032F00096958795E5E4F7E28083918380819181BB
:103300008130944024F010924527109246278091F6
:103310004C2790914D270596E7E4F7E2808391834F
:1033200080819181809376219093772180914A27A3
:1033300090914B2720914E2730914F27820F931F5A
:103340008739910520F1EAE4F7E280819181809349
:103350007E2190937F21AEE4B7E28D919C911197ED
:10336000809378219093792110923C2710923B27EB
:103370008D919C91208131818A549F4F821B930BA8
:10338000969587958093742190937521CFC0209155
:103390004A2730914B2740913C27E42FF0E0EE0F75
:1033A000FF1FE258FE4D808191812C5E3F4F8217B6
:1033B000930708F14F5F433018F440933C2703C054
:1033C00082E080933C2780913C2790E0FC01EE0F47
:1033D000FF1FE15CF84DDC01AA0FBB1FA258BE4DD8
:1033E00080917E2190917F212D913C91821B930BA6
:1033F0008083918310C020914A2730914B274496B7
:103400002817390740F0442321F0415040933C27CE
:1034100002C010923C2760913C27262F30E080911B
:103420004A2790914B27F901EE0FFF1FE258FE4DFE
:103430008083918340914E2750914F2770913B2775
:10344000E72FF0E0EE0FFF1FE858FE4D80819181DD
:103450004C5E5F4F8417950708F17F5F733018F457
:1034600070933B2703C082E080933B2780913B27EA
:1034700090E0FC01EE0FFF1FE55CF84DDC01AA0FA8
:10348000BB1FA858BE4D80917821909179214D9114
:103490005C91841B950B8083918310C040914E27D3
:1034A00050914F2744964817590740F0772321F051
:1034B000715070933B2702C010923B2770913B27BD
:1034C000472F50E080914E2790914F27FA01EE0F41
:1034D000FF1FE858FE4D8083918380914A27909189
:1034E0004B27662349F0F901EE0FFF1FE15CF84D11
:1034F00020813181820F931F20914E2730914F27D9
:10350000772349F0FA01EE0FFF1FE55CF84D40818B
:103510005181240F351F281B390B2A543F4FC901F5
:103520009695879580937421909375210E94050F3D
:103530000E94ED0E1092F624E0EEF6E0808582FF08
:103540000BC0809134278F5F80933427823320F023
:103550000E947E1E109234278091BE269091BF2635
:10356000883F9A4228F480E2E0E0F7E0858329C0B2
:1035700080E2E0E0F7E0868324C085E090E080937D
:103580005E2790935F2780935C2790935D2710922E
:103590005A2710925B2776CA80915E2790915F2709
:1035A000809358279093592780915A2790915B27B1
:1035B000809356279093572710925427109255279F
:1035C000B5CF2896CDBFDEBFDF91CF91FF91EF91B0
:1035D000BF91AF919F918F917F916F915F914F912B
:1035E0003F912F911F910F91FF90EF90DF90CF901F
:1035F000BF90AF909F908F907F906F905F904F9013
:103600003F902F900F900BBE0F900ABE0F9009BEF7
:103610000F9008BE0F900FBE0F901F9018951F922D
:103620000F920FB60F92112408B60F9218BE09B66A
:103630000F9219BE0BB60F921BBE2F933F934F9361
:103640005F936F937F938F939F93AF93BF93EF930A
:10365000FF9389E097E20E947603FF91EF91BF917B
:10366000AF919F918F917F916F915F914F913F911A
:103670002F910F900BBE0F9009BE0F9008BE0F90B8
:103680000FBE0F901F9018951F920F920FB60F92BA
:10369000112408B60F9218BE09B60F9219BE0BB6C8
:1036A0000F921BBE2F933F934F935F936F937F9324
:1036B0008F939F93AF93BF93EF93FF938DED96E21C
:1036C0000E947603FF91EF91BF91AF919F918F91EF
:1036D0007F916F915F914F913F912F910F900BBE12
:1036E0000F9009BE0F9008BE0F900FBE0F901F9055
:1036F00018951F920F920FB60F92112408B60F92D1
:1037000018BE0BB60F921BBE8F93EF93FF93E09101
:103710000927F0910A2780818093DC26FF91EF91A1
:103720008F910F900BBE0F9008BE0F900FBE0F90A1
:103730001F9018951F920F920FB60F92112408B682
:103740000F9218BE09B60F9219BE0BB60F921BBE90
:103750002F933F934F935F936F937F938F939F9399
:10376000AF93BF93EF93FF9385E596E20E949C028F
:10377000FF91EF91BF91AF919F918F917F916F9149
:103780005F914F913F912F910F900BBE0F9009BE0B
:103790000F9008BE0F900FBE0F901F9018951F92AC
:1037A0000F920FB60F92112408B60F9218BE09B6E9
:1037B0000F9219BE0BB60F921BBE2F933F934F93E0
:1037C0005F936F937F938F939F93AF93BF93EF9389
:1037D000FF938CEE95E20E949C02FF91EF91BF91C6
:1037E000AF919F918F917F916F915F914F913F9199
:1037F0002F910F900BBE0F9009BE0F9008BE0F9037
:103800000FBE0F901F9018951F920F920FB60F9238
:10381000112408B60F9218BE09B60F9219BE0BB646
:103820000F921BBE2F933F934F935F936F937F93A2
:103830008F939F93AF93BF93EF93FF9383E895E2AA
:103840000E949C02FF91EF91BF91AF919F918F9148
:103850007F916F915F914F913F912F910F900BBE90
:103860000F9009BE0F9008BE0F900FBE0F901F90D3
:1038700018951F920F920FB60F92112408B60F924F
:1038800018BE0BB60F921BBE8F939F93EF93FF93BF
:103890001092CC261092CD26E0ECF6E28081982F93
:1038A0009F5F908388301CF088E08093C026FF9152
:1038B000EF919F918F910F900BBE0F9008BE0F90CC
:1038C0000FBE0F901F9018951F920F920FB60F9278
:1038D000112408B60F9218BE0BB60F921BBE8F9321
:1038E0009F93EF93FF931092CE261092CF26E1EC98
:1038F000F6E28081982F9F5F908388301CF088E0EB
:103900008093C126FF91EF919F918F910F900BBEF5
:103910000F9008BE0F900FBE0F901F9018951F922A
:103920000F920FB60F92112408B60F9218BE0BB665
:103930000F921BBE8F939F93EF93FF931092D0260D
:103940001092D126E2ECF6E28081982F9F5F90835F
:1039500088301CF088E08093C226FF91EF919F9100
:103960008F910F900BBE0F9008BE0F900FBE0F905F
:103970001F9018951F920F920FB60F92112408B640
:103980000F9218BE0BB60F921BBE8F939F93EF93AF
:10399000FF931092D2261092D326E3ECF6E28081B8
:1039A000982F9F5F908388301CF088E08093C32617
:1039B000FF91EF919F918F910F900BBE0F9008BEDA
:1039C0000F900FBE0F901F9018951F920F920FB679
:1039D0000F92112408B60F9218BE09B60F9219BEA5
:1039E0000AB60F921ABE0BB60F921BBE2F933F93CF
:1039F0004F935F936F937F938F939F93AF93BF93F7
:103A0000CF93DF93EF93FF938091C026181634F481
:103A1000E0E0F9E010A211A21092C026E4EDF6E277
:103A20008081982F9F5F908380FD12C0C0E0D9E015
:103A300028A139A140E050E064E57AEE8AE290E006
:103A40000E9414392093CC263093CD2618A219A2B7
:103A5000FF91EF91DF91CF91BF91AF919F918F91A6
:103A60007F916F915F914F913F912F910F900BBE7E
:103A70000F900ABE0F9009BE0F9008BE0F900FBEA8
:103A80000F901F9018951F920F920FB60F9211244E
:103A900008B60F9218BE09B60F9219BE0AB60F9259
:103AA0001ABE0BB60F921BBE2F933F934F935F939B
:103AB0006F937F938F939F93AF93BF93CF93DF9336
:103AC000EF93FF938091C126181634F4E0E4F9E0F7
:103AD00010A211A21092C126E5EDF6E28081982F86
:103AE0009F5F908380FD12C0C0E4D9E028A139A176
:103AF00040E050E064E57AEE8AE290E00E941439FA
:103B00002093CE263093CF2618A219A2FF91EF91D1
:103B1000DF91CF91BF91AF919F918F917F916F91E5
:103B20005F914F913F912F910F900BBE0F900ABE66
:103B30000F9009BE0F9008BE0F900FBE0F901F9000
:103B400018951F920F920FB60F92112408B60F927C
:103B500018BE09B60F9219BE0AB60F921ABE0BB65E
:103B60000F921BBE2F933F934F935F936F937F935F
:103B70008F939F93AF93BF93CF93DF93EF93FF9375
:103B80008091C226181634F4E0E0FBE010A211A2E6
:103B90001092C226E6EDF6E28081982F9F5F908317
:103BA00080FD12C0C0E0DBE028A139A140E050E078
:103BB00064E57AEE8AE290E00E9414392093D026E0
:103BC0003093D12618A219A2FF91EF91DF91CF91E6
:103BD000BF91AF919F918F917F916F915F914F9125
:103BE0003F912F910F900BBE0F900ABE0F9009BE10
:103BF0000F9008BE0F900FBE0F901F9018951F9248
:103C00000F920FB60F92112408B60F9218BE09B684
:103C10000F9219BE0AB60F921ABE0BB60F921BBEB8
:103C20002F933F934F935F936F937F938F939F93C4
:103C3000AF93BF93CF93DF93EF93FF938091C3260E
:103C4000181634F4E0E4FBE010A211A21092C3268F
:103C5000E7EDF6E28081982F9F5F908380FD12C090
:103C6000C0E4DBE028A139A140E050E064E57AEE51
:103C70008AE290E00E9414392093D2263093D32612
:103C800018A219A2FF91EF91DF91CF91BF91AF914F
:103C90009F918F917F916F915F914F913F912F9164
:103CA0000F900BBE0F900ABE0F9009BE0F9008BE7A
:103CB0000F900FBE0F901F9018951F920F920FB686
:103CC0000F92112408B60F9218BEE0ECF7E06FE0F7
:103CD00050E420E43FE1A8956583452FA895C901EC
:103CE0000197F1F74150D1F7A8956683452FA89524
:103CF000C9010197F1F74150D1F7EDCFEF92FF9253
:103D00000F931F93CF93DF9380E895E20E94A03337
:103D100020913727309138278217930709F491C0F3
:103D2000209137273091382731FF06C091FF2FC7E8
:103D300003C027E120933927209137273091382776
:103D400033FF3AC793FF2EC737C71092392734C7BE
:103D5000CF5FDF5FC930E1F39B010C2E02C0220F61
:103D6000331F0A94E2F740913727509138274223B6
:103D70005323452B09F45EC02E233F23232B09F048
:103D800026C758C000E020913527309136272115ED
:103D9000324070F04091352750913627202F30E087
:103DA0003460240F351F209335273093362731C0D8
:103DB00020913527309136272F3F3105C1F0B8F0DB
:103DC000E0903527F0903627402F50E0440F551FE4
:103DD0009A01220F331F220F331F420F531F5260CD
:103DE0004E0D5F1D409335275093362712C04091EA
:103DF000352750913627452B61F4033028F4109F66
:103E000090011124316001C09D012093352730932A
:103E1000362720913527309136272115344050F030
:103E20002091352730913627209339271092352756
:103E300010923627DB3008F48BCF8093372790938E
:103E4000382780E895E20E940F33E0913927F0E0AF
:103E5000E831F10508F089C6E650FF4F0C9430397F
:103E600025ED31E241E061E080E895E20E94943284
:103E7000E0ECF7E060856170605D80E895E20E94AB
:103E80007E3329EE31E241E062E080E895E20E9473
:103E900094322EEF31E241E063E080E895E20E9447
:103EA000943220E132E241E064E080E895E20E9451
:103EB000943292C622E232E241E061E080E895E28B
:103EC0000E94943224E332E241E062E080E895E22D
:103ED0000E94943224E432E241E063E080E895E21B
:103EE0000E94943222E532E241E064E080E895E20B
:103EF0000E94943271C623E632E241E061E080E83C
:103F000095E20E94943224E732E241E062E080E8E8
:103F100095E20E94943224E832E241E063E080E8D6
:103F200095E20E94943228E932E241E064E080E8C0
:103F300095E20E94943250C62DEA32E241E061E0FF
:103F400080E895E20E94943227EB32E241E062E0A1
:103F500080E895E20E94943220EC32E241E063E096
:103F600080E895E20E94943228EC32E241E064E07D
:103F700080E895E20E9494322FC62AED32E241E0B9
:103F800061E080E895E20E94943226C62DEE32E28E
:103F900041E061E080E895E20E94943229EE31E24E
:103FA00041E062E080E895E20E94943221E033E251
:103FB00041E063E080E895E20E9494322DE033E234
:103FC00044E064E080E895E20E94943260913927F1
:103FD000605D80E895E20E947E33FEC52EE133E20B
:103FE00041E061E080E895E20E9494322091AB27A5
:103FF0003091AC274AE061E080E895E20E94DF3230
:1040000027E233E241E062E080E895E20E949432E8
:104010002091AD273091AE274AE062E080E895E23A
:104020000E94DF3220E333E241E063E080E895E282
:104030000E9494322091AF273091B0274AE063E08C
:1040400080E895E20E94DF3229E333E241E064E058
:1040500080E895E20E9494322091B1273091B227F6
:104060004AE064E080E895E20E94DF322091D826A1
:1040700030E041E164E080E895E20E94DF32ACC5C7
:104080002091AB273091AC278091A9279091AA2746
:10409000280F391F41E061E080E895E20E94DF329D
:1040A0002091AD273091AE278091A9279091AA2722
:1040B000280F391F41E062E080E895E20E94DF327C
:1040C0002091AF273091B0278091A9279091AA27FE
:1040D000280F391F41E063E080E895E20E94DF325B
:1040E0002091B1273091B2278091A9279091AA27DA
:1040F000280F391F41E064E080E895E20E94DF323A
:1041000022E433E249E061E080E895E20E949432E3
:104110002091A5273091A62741E161E080E895E252
:104120000E94DF3229E433E249E062E080E895E270
:104130000E9494322091A7273091A82741E162E0A4
:1041400080E895E20E94DF3220E533E249E063E057
:1041500080E895E20E94943280E795E20E94F23076
:104160009C0141E163E080E895E20E94DF3226E5B0
:1041700033E249E064E080E895E20E9494322091C5
:10418000A2273091A32741E164E080E895E20E94F4
:10419000DF3222C52BE533E241E061E080E895E2C1
:1041A0000E949432209170273091712747E061E09E
:1041B00080E895E20E94DF3221E633E241E062E0EE
:1041C00080E895E20E949432209172273091732703
:1041D00047E062E080E895E20E94DF3227E633E2C2
:1041E00041E063E080E895E20E94943220917427D8
:1041F0003091752747E063E080E895E20E94DF3266
:104200002DE633E241E064E080E895E20E949432DA
:10421000209176273091772747E064E080E895E2A7
:104220000E94DF3223E733E24BE061E080E895E271
:104230000E949432209178273091792741E161E002
:1042400080E895E20E94DF3229E733E24BE062E04A
:1042500080E895E20E94943220917A2730917B2762
:1042600041E162E080E895E20E94DF322FE733E22D
:104270004BE063E080E895E20E94943220917C2735
:1042800030917D2741E163E080E895E20E94DF32D2
:1042900025E833E24BE064E080E895E20E94943246
:1042A00020917E2730917F2741E164E080E895E20C
:1042B0000E94DF3291C42BE533E241E061E080E807
:1042C00095E20E949432209160273091612747E067
:1042D00061E080E895E20E94DF3221E633E241E0CE
:1042E00062E080E895E20E9494322091622730914A
:1042F000632747E062E080E895E20E94DF3227E62C
:1043000033E241E063E080E895E20E94943220913C
:1043100064273091652747E063E080E895E20E94DA
:10432000DF322DE633E241E064E080E895E20E946E
:104330009432209166273091672747E064E080E857
:1043400095E20E94DF3223E733E24BE061E080E850
:1043500095E20E949432209168273091692741E1CB
:1043600061E080E895E20E94DF3229E733E24BE02A
:1043700062E080E895E20E94943220916A273091B1
:104380006B2741E162E080E895E20E94DF322FE78F
:1043900033E24BE063E080E895E20E9494322091A2
:1043A0006C2730916D2741E163E080E895E20E943F
:1043B000DF3225E833E24BE064E080E895E20E94DA
:1043C000943220916E2730916F2741E164E080E8BC
:1043D00095E20E94DF3200C42BE833E241E061E065
:1043E00080E895E20E94943220915A2730915B2711
:1043F0008091A7279091A827280F391F4CE061E0F2
:1044000080E895E20E94DF3228E933E241E062E091
:1044100080E895E20E94943220915A2730915B27E0
:104420004CE062E080E895E20E94DF3225EA33E268
:1044300041E063E080E895E20E94943220915E279B
:1044400030915F274CE063E080E895E20E94DF3224
:1044500022EB33E241E064E080E895E20E9494328E
:1044600020915C2730915D274CE064E080E895E284
:104470000E94DF322FEB33E241E161E080E895E218
:104480000E949432209150273091512741E162E0FF
:1044900080E895E20E94DF3224EC33E241E163E000
:1044A00080E895E20E9494322091522730E041E169
:1044B00064E080E895E20E94DF328EC329EC33E2AB
:1044C00041E061E080E895E20E94943227ED33E21A
:1044D00041E062E080E895E20E94943225EE33E20A
:1044E00041E063E080E895E20E94943220915327F6
:1044F00030E04FE061E080E895E20E94DF322091F9
:104500005427309155274FE062E080E895E20E9401
:10451000DF3220913A2730E04FE063E080E895E217
:104520000E94DF32C0EED6E02885217030E041E005
:1045300064E080E895E20E94DF3228852295269586
:104540002695237011E02127217030E045E064E0DA
:1045500080E895E20E94DF32E0E2F7E020852695D0
:104560001227212F217030E049E064E080E895E2D5
:104570000E94DF3228852295217030E04DE064E012
:1045800080E895E20E94DF32288522FB222720F96D
:1045900030E041E164E080E895E20E94DF321CC334
:1045A00023EF33E241E062E080E895E20E9494323A
:1045B00020914A2730914B274BE062E080E895E25A
:1045C0000E94DF322EEF33E241E063E080E895E2C3
:1045D0000E94943220914C2730914D274BE063E0AC
:1045E00080E895E20E94DF3229E034E241E064E0B5
:1045F00080E895E20E94943220914E2730914F2717
:104600004BE064E080E895E20E94DF3223E134E28F
:104610004FE061E080E895E20E949432209174219D
:10462000309175214FE062E080E895E20E94DF3230
:1046300029E134E24FE063E080E895E20E949432A1
:1046400020917621309177214FE064E080E895E277
:104650000E94DF32C1C22FE134E241E061E080E834
:1046600095E20E9494322BE234E241E062E080E87D
:1046700095E20E94943227E334E241E063E080E86F
:1046800095E20E94943224E434E241E064E080E860
:1046900095E20E94943220914527309146274EE0C2
:1046A00061E080E895E20E94DF3220914727309157
:1046B00048274EE062E080E895E20E94DF322091D8
:1046C0007421309175214EE063E080E895E20E940C
:1046D000DF3220917621309177214EE064E080E84E
:1046E00095E20E94DF3278C241E061E080E895E225
:1046F0000E94583360911625605D80E895E20E9423
:104700007E3360911725605D80E895E20E947E33DC
:1047100060911825605D80E895E20E947E3360918B
:104720001925605D80E895E20E947E3360911A252C
:10473000605D80E895E20E947E3360911B25605D9C
:1047400080E895E20E947E3360911C25605D80E8E0
:1047500095E20E947E336091FD24605D80E895E2E1
:104760000E947E336091FE24605D80E895E20E94A5
:104770007E336091FF24605D80E895E20E947E3385
:1047800060910025605D80E895E20E947E33609133
:104790000125605D80E895E20E947E3360910225EC
:1047A000605D80E895E20E947E3360910325605D44
:1047B00080E895E20E947E332091152530E041E0AB
:1047C00062E080E895E20E94DF322091042530E02B
:1047D0004EE062E080E895E20E94DF3220911425ED
:1047E00030E041E063E080E895E20E94DF32209112
:1047F000052530E04EE063E080E895E20E94DF327C
:1048000041E064E080E895E20E945833609113250E
:10481000605D80E895E20E947E3360911225605DC4
:1048200080E895E20E947E3360911125605D80E80A
:1048300095E20E947E3360911025605D80E895E2EC
:104840000E947E3360910F25605D80E895E20E94B2
:104850007E3360910E25605D80E895E20E947E3394
:1048600060910D25605D80E895E20E947E33609145
:104870000C25605D80E895E20E947E3360910B25F7
:10488000605D80E895E20E947E3360910A25605D5C
:1048900080E895E20E947E3360910925605D80E8A2
:1048A00095E20E947E3360910825605D80E895E284
:1048B0000E947E3360910725605D80E895E20E944A
:1048C0007E3360910625605D80E895E20E947E332C
:1048D00021E534E240E161E080E895E20E94943213
:1048E0002091F82430E040E162E080E895E20E9407
:1048F000DF3224E433E240E163E080E895E20E94A5
:1049000094322091FB243091FC2440E164E080E863
:1049100095E20E94DF3260C127E534E241E061E0C8
:1049200080E895E20E94943257C12EE634E241E0DD
:1049300061E080E895E20E9494322091A7273091AF
:10494000A82747E061E080E895E20E94DF3229E78E
:1049500034E241E062E080E895E20E94943280E730
:1049600095E20E94A4309C0148E062E080E895E274
:104970000E94DF322FE734E241E063E080E895E215
:104980000E94943280E795E20E94A8319C0148E0A1
:1049900063E080E895E20E94DF3226E834E24BE0F3
:1049A00061E080E895E20E94943280E795E20E94FF
:1049B00008309C0141E161E080E895E20E94DF322D
:1049C0002CE834E24BE062E080E895E20E94943209
:1049D00080E795E20E9456309C0141E162E080E868
:1049E00095E20E94DF32F8C022E934E241E061E062
:1049F00080E895E20E94943224ED36E248E061E0DE
:104A000080E895E20E94DF3229E934E241E062E089
:104A100080E895E20E9494322CEC36E247E062E0B6
:104A200080E895E20E94DF322EE934E241E063E063
:104A300080E895E20E94943224EC36E247E063E09D
:104A400080E895E20E94DF32C7C027EA34E241E005
:104A500061E080E895E20E9494322091BE26309178
:104A6000BF2648E061E080E895E20E94DF32B4C0F2
:104A70002DEA34E241E061E080E895E20E94943260
:104A800021EB32E24FE061E080E895E20E9494324F
:104A900021EB34E241E062E080E895E20E9494324A
:104AA00026EB34E24DE062E080E895E20E94943229
:104AB0002BEB34E241E063E080E895E20E9494321F
:104AC00024EC34E24DE063E080E895E20E94943209
:104AD00029EC34E241E064E080E895E20E949432FF
:104AE0002091F22430E045E061E080E895E20E9408
:104AF000DF322091F4243091F52446E062E080E832
:104B000095E20E94DF322091FB243091FC2442E1A7
:104B100062E080E895E20E94DF3220910120332795
:104B200027FD30954AE063E080E895E20E94DF329D
:104B3000209100202F3F39F08AE5280290011124AE
:104B4000235D3F4F02C02FEF3FEF42E163E080E87B
:104B500095E20E94DF322091F32430E048E064E0E7
:104B600080E895E20E94DF3237C020ED34E241E078
:104B700061E080E895E20E9494322091392730E08C
:104B800041E062E080E895E20E94DF3225C020919A
:104B9000392721502093392720913927283108F0CF
:104BA000C8C8CAC8209139272F5F20933927209180
:104BB0003927283108F0C9C8D1E0C0E061E070E0D1
:104BC000FC01E095F095A0E0B1E014E6C3C8DA304E
:104BD00008F0D8C80D2FD7C8DF91CF911F910F9142
:104BE000FF90EF900895CF92DF92EF92FF92CF93D4
:104BF000DF93E0E2F7E0808581FD5DC180915E2773
:104C000090915F27813A9F4008F455C180915A27BF
:104C100090915B2799235CF480915A2790915B27B0
:104C20009195819591094E970CF44BC144C18091A7
:104C30005A2790915B274E970CF443C13CC1809159
:104C4000A7279091A82791958195910921E080351A
:104C500091055CF020E009C08091A7279091A827DA
:104C600021E0803591050CF020E021110E94A20E78
:104C700040E050E862EA74E480E090E00E9481093C
:104C80001092A5271092A62736C18AEC8093D826C9
:104C900084E0E0E0F7E0858340E050E86BEB74E40B
:104CA00080E090E00E94810926C184E0E0E0F7E026
:104CB000868380915E2790915F27893B9B4008F017
:104CC00011C180915E2790915F27813F9A4008F43F
:104CD00000C180915A2790915B2799235CF48091C1
:104CE0005A2790915B279195819591098D970CF4A6
:104CF000F9C0EFC080915A2790915B278D970CF4F3
:104D0000F1C0E7C080915A2790915B2740E050E0C6
:104D100066E974E48C5291400E9481091092A527A3
:104D20001092A627E8C080915A2790915B27883B74
:104D30009F4F8CF480915A2790915B2740E050E080
:104D400066E974E4845D9E4F0E9481091092A52754
:104D50001092A627D0C080915A2790915B27992363
:104D600064F480915A2790915B27919581959109E0
:104D700021E0409754F420E008C080915A27909198
:104D80005B2721E040970CF420E0222309F43FC088
:104D9000E0ECF7E0808580FF1BC060915A2770919E
:104DA0005B27882777FD8095982F0E94873626E617
:104DB00036E646EE5FE30E9451380E945436DC012D
:104DC000CB0140E050E061E674E40E9481091AC022
:104DD00060915A2770915B27882777FD8095982FDF
:104DE0000E94873626E636E646EE5FE30E9451389B
:104DF0000E945436DC01CB0140E050E061E674E4EF
:104E00000E9481091092A5271092A62774C0809154
:104E10005A2790915B2740E050E061E674E40E94DD
:104E2000810969C0E0ECF7E0808580FD07C068E299
:104E300070E08AE590E00E94F60A06C06EE170E03C
:104E40008AE590E00E94F60A1092A5271092A62704
:104E500052C080915E2790915F27C0915A27D091D0
:104E60005B2764E971E1681B790B80E090E00E94A8
:104E700085362DEC3CEC4CEC5EE30E9451386B0126
:104E80007C01BE01882777FD8095982F0E94873688
:104E90002DEC3CEC4CE85FE30E9451380E94543604
:104EA000DC01CB01B701A6010E9481091092A52760
:104EB0001092A62720C08091D826883C08F0F5CE15
:104EC000E4CE8091A7279091A82799230CF0C4CE17
:104ED000B6CE80915E2790915F278837910508F4C0
:104EE000A1CFB7CF80915A2790915B278934910544
:104EF0000CF419CF07CFDF91CF91FF90EF90DF90A7
:104F0000CF900895CF92DF92EF92FF92CF93DF93ED
:104F100080915425882309F455C180915E27909192
:104F20005F27813A9F4008F44DC180915A279091A4
:104F30005B2799235CF480915A2790915B27919588
:104F400081959109CC970CF445C13CC180915A27B9
:104F500090915B27CC970CF43DC134C18091A72779
:104F60009091A82791958195910921E0803591052F
:104F70005CF020E009C08091A7279091A82721E04C
:104F8000803591050CF020E0222309F442C140E075
:104F900050E862EA74E480E090E00E9481090E9497
:104FA000A20E37C180915E2790915F27813F9A4082
:104FB00008F426C180915A2790915B2799235CF4CD
:104FC00080915A2790915B279195819591098D97B2
:104FD0000CF40DC115C180915A2790915B278D97D4
:104FE0000CF405C10DC180915A2790915B2740E0D8
:104FF00050E066E974E48C5291400E94810910925D
:10500000A5271092A62705C180915A2790915B276A
:10501000883B9F4F8CF480915A2790915B2740E00A
:1050200050E066E974E4845D9E4F0E94810910920D
:10503000A5271092A627EDC080915A2790915B2753
:10504000992364F480915A2790915B2791958195DB
:10505000910921E0409754F420E008C080915A273C
:1050600090915B2721E040970CF420E0222309F483
:1050700055C0E0ECF7E0808580FF1BC060915A27A7
:1050800070915B27882777FD8095982F0E9487363F
:1050900026E636E646EE5FE30E9451380E9454361B
:1050A000DC01CB0140E050E061E674E40E9481093C
:1050B0001AC060915A2770915B27882777FD8095E9
:1050C000982F0E94873626E636E646EE5FE30E947A
:1050D00051380E945436DC01CB0140E050E061E6DB
:1050E00074E40E94810980914A2790914B27CC97C4
:1050F00038F48CEE9FEF8093A5279093A62789C064
:1051000080914E2790914F27CC9708F082C084E180
:1051100090E08093A5279093A6277BC080915A2783
:1051200090915B2740E050E061E674E40E948109C1
:1051300070C0E0ECF7E0808580FD07C068E270E0B9
:105140008AE590E00E94F60A06C06EE170E08AE50A
:1051500090E00E94F60A1092A5271092A62759C047
:1051600080915E2790915F27C0915A27D0915B274D
:1051700064E971E1681B790B80E090E00E9485365C
:105180002DEC3CEC4CEC5EE30E9451386B017C0151
:10519000BE01882777FD8095982F0E9487362DECD9
:1051A0003CEC4CE85FE30E9451380E945436DC012D
:1051B000CB01B701A6010E9481091092A527109288
:1051C000A62727C080915E2790915F27893B9B404F
:1051D00070F4E8CE8091D9268F5F8093D926809194
:1051E000A7279091A82799230CF0C5CEB7CE809120
:1051F0005A2790915B27893491050CF405CFF3CEA3
:1052000080915E2790915F278837910508F491CFB0
:10521000A7CFDF91CF91FF90EF90DF90CF900895CF
:1052200080915E2790915F27843C994058F46EE10D
:1052300070E08AE590E00E94F60A1092A52710928D
:10524000A62708958091742190917521CD970CF433
:1052500075C08091742190917521883791050CF06B
:105260006DC08091762190917721803591050CF465
:105270005DC064C080915A2790915B27919581957C
:10528000910921E08A3591055CF020E009C0809108
:105290005A2790915B2721E08A3591050CF020E098
:1052A0002223D9F060915A2770915B27882777FDD8
:1052B0008095982F0E9487362AE939E949E95FE30A
:1052C0000E9451380E945436DC01CB0140E050E08E
:1052D00066E974E40E948109089580915A279091AB
:1052E0005B27181619068CF480915A2790915B273A
:1052F00040E050E066E974E48C5291400E948109DC
:105300001092A5271092A627089580915A27909170
:105310005B2740E050E066E974E4845D9E4F0E94A4
:1053200081091092A5271092A627089580915A27E7
:1053300090915B2799230CF0AACF9CCF6EE170E08F
:105340008AE590E00E94F60A08951092A52710922F
:10535000A62740E050E0BA0180E090E00E94810979
:105360000895A89597E188ED0FB6F894A8958093D5
:105370003400909380000FBEE0E5F0E083EC828380
:1053800080818860808382EC8583818183FFFDCF6B
:10539000E0E5F0E080818061808388ED84BFE0E417
:1053A000F0E01182E0E5F0E0818184FFFDCF88ED3F
:1053B00084BF84E0809340002BE940EC60E974E016
:1053C0008CEE95E20E9461012BE940EC60EB74E009
:1053D00083E895E20E94610110922006A0E4B6E005
:1053E0008BED8C938BE8809360068FE8809380062A
:1053F0008BE98093A00680EE96E0FC0110822FEFEF
:1054000020930007C0E2D7E02CEF2883E0ECF7E020
:10541000108228E1208B218B228B238BFC01268B91
:1054200088E08D83E0E0FAE081E0808383EF818390
:105430008CED95E086A397A3E0E0F8E085E080831B
:1054400083E1818380E197E286A397A384EF91E0D3
:1054500080A791A782E015968C938091780083FFB6
:1054600008C081E0E0E0F7E0858388E08093780081
:1054700031C08091780082FF08C082E0E0E0F7E070
:10548000858384E08093780025C08091780085FF33
:105490000AC0E0E0F7E081E0858382E0858380E276
:1054A0008093780017C08091780084FF04C080E169
:1054B000809378000FC08091780081FF04C082E063
:1054C0008093780007C08091780080FF03C081E05E
:1054D00080937800E0E4F8E037E03083118284E6DE
:1054E00090E086A397A310A211A221E02683E0E01A
:1054F000F9E0308311828FEF9FEF86A397A310A26C
:1055000011A22683E0E4F9E03083118286A397A3F9
:1055100010A211A22683E0E0FBE03083118286A373
:1055200097A310A211A22683E0E4FBE0308311824E
:1055300086A397A310A211A2268380E090E00E9488
:10554000A739282F392F2093A2273093A32780E54E
:1055500090E00E94A739282F392F2093A22730935B
:10556000A3278091A2279091A32781319E4024F008
:105570001092A2271092A3270E940F07EE24E39413
:1055800000E021E043E350E060EB7BE089E097E25C
:105590000E94B40200E121E043E350E060EA79E0D8
:1055A0008DED96E20E94B4020E94CC0FF89487E041
:1055B000E0EAF0E082837894E0EEF6E0808582FF16
:1055C00005C061E080E895E20E94313384E795E20E
:1055D0000E944C3488E795E20E944C348CE795E2B7
:1055E0000E944C3480E895E20E944C3484E795E2B6
:1055F0000E9472348CE795E20E947234E0ECF7E08E
:10560000808580FD41C08091942190919521809367
:105610008027909381278091962190919721809364
:10562000822790938327809198219091992180934C
:1056300084279093852780919A2190919B21809334
:1056400086279093872780919C2190919D2180931C
:1056500088279093892780919E2190919F21809304
:105660008A2790938B278091A0219091A1218093EC
:105670008C2790938D278091A2219091A3218093D4
:105680008E2790938F2740C080918421909185210F
:105690008093802790938127809186219091872104
:1056A00080938227909383278091882190918921EC
:1056B000809384279093852780918A2190918B21D4
:1056C000809386279093872780918C2190918D21BC
:1056D000809388279093892780918E2190918F21A4
:1056E00080938A2790938B2780919021909191218C
:1056F00080938C2790938D27809192219091932174
:1057000080938E2790938F270E94B0071092A52731
:105710001092A62740E050E0BA0180E090E00E949D
:1057200024081092FA24C0EED6E0BB24B3940F2EC6
:10573000FAE6AF2EF02D0F2EFBEACF2EF7E2DF2E8A
:10574000F02D0F2EFDEA8F2EF7E29F2EF02D0F2E5B
:10575000FFEA6F2EF7E27F2EF02D0F2EF1EB4F2E8A
:10576000F7E25F2EF02D0F2EF0E22F2EF7E03F2E06
:10577000F02DA895888583FF03C0B0923A2702C018
:1057800010923A27888581FF05C080913A278E5F65
:1057900080933A2780915327882329F080913A27D4
:1057A000813009F4CAC3888580FF1092D826809181
:1057B000FA24823068F08091FB249091FC2440E030
:1057C00050E86BEB74E48C549F4F0E94240822C075
:1057D00080913A27811103C00E94F3251BC080915C
:1057E0003A27813019F40E94102914C080913A2779
:1057F000823019F40E9482270DC00E94A529888555
:1058000080FD05C08091542581110E94D30E8A2D00
:105810008A95F1F7888582FFACCF888580FF90C399
:10582000A8CFE12CF12CF701EE0FFF1FE059F84D46
:10583000008111816CE789E097E20E944F036E2D91
:10584000605689E097E20E944F03B8017295629515
:105850006F7067277F70672789E097E20E944F0388
:1058600066E289E097E20E944F038AE090E00E949E
:10587000130E2FEFE21AF20A88E0E816F10499F607
:1058800078CF00919827109199276CE789E097E2EB
:105890000E944F0361EB89E097E20E944F03C80129
:1058A000992314F481509F4F692F772767FD7A95CC
:1058B00089E097E20E944F0366E289E097E20E9446
:1058C0004F038AE090E00E94130EEAE4F7E20081C1
:1058D00011816CE789E097E20E944F0363EB89E056
:1058E00097E20E944F03B8017695679589E097E2A9
:1058F0000E944F0366E289E097E20E944F038AE02C
:1059000090E00E94130EECE4F7E2008111816CE755
:1059100089E097E20E944F0364EB89E097E20E94DE
:105920004F03B8017695679589E097E20E944F038F
:1059300066E289E097E20E944F038AE090E00E94CD
:10594000130EEEE4F7E2008111816CE789E097E243
:105950000E944F0365EB89E097E20E944F03B80174
:105960007695679589E097E20E944F0366E289E0A9
:1059700097E20E944F038AE090E00E94130EF9CE56
:1059800000915A2710915B276CE789E097E20E940B
:105990004F0360EC89E097E20E944F03C80199230E
:1059A0000CF40196BC017595679589E097E20E9419
:1059B0004F0366E289E097E20E944F038AE090E09D
:1059C0000E94130EE4E7F1E2008111816CE789E0A7
:1059D00097E20E944F0362EC89E097E20E944F0336
:1059E000602F89E097E20E944F0366E289E097E228
:1059F0000E944F038AE090E00E94130EE6E7F1E276
:105A0000008111816CE789E097E20E944F0363EC0B
:105A100089E097E20E944F03602F89E097E20E949D
:105A20004F0366E289E097E20E944F038AE090E02C
:105A30000E94130E0091A5271091A6276CE789E01C
:105A400097E20E944F0364EC89E097E20E944F03C3
:105A5000C80199230CF40196BC017595679589E0FE
:105A600097E20E944F0366E289E097E20E944F03AB
:105A70008AE090E00E94130E0091A7271091A827BA
:105A80006CE789E097E20E944F0365EC89E097E2BA
:105A90000E944F03C80199230CF40196BC0175952F
:105AA000679589E097E20E944F0366E289E097E2FA
:105AB0000E944F038AE090E00E94130E10913A2753
:105AC0006CE789E097E20E944F0366EC89E097E279
:105AD0000E944F03612F89E097E20E944F0366E224
