S00F00004174584D6567612E737265638E
S11300000C942B010C94D61E0C945F010C945F018C
S11300100C945F010C945F010C945F010C945F01DC
S11300200C945F010C945F010C945F010C945F01CC
S11300300C945F010C94131C0C945F010C945F01ED
S11300400C945F010C945F010C945F010C945F01AC
S11300500C94E5110C945F010C945F010C945F0106
S11300600C945F010C9492100C945F010C945F014A
S11300700C945F010C945F010C945F010C945F017C
S11300800C945F010C945F010C945E1D0C94BC1DD8
S11300900C945F010C945F010C945F010C94520862
S11300A00C945F010C945F010C945F010C941A1E74
S11300B00C94781E0C945F010C945F010C945F0106
S11300C00C945F010C945F010C945F010C945F012C
S11300D00C945F010C945F010C945F010C945F011C
S11300E00C945F010C945F010C945F010C945F010C
S11300F00C945F010C9497030C9494070C945F0187
S11301000C945F010C945F010C945F010C945F01EB
S11301100C945F010C945F010C945F010C94F9073B
S11301200C945F010C945F010C945F010C945F01CB
S11301300C94481C0C94B21C0C945F010C945F0149
S11301400C945F010C945F010C945F010C94DD1C12
S11301500C945F010C945F010C945F010C945F019B
S11301600C94F21B0C94BD1B0C945F010C945F0166
S11301700C945F010C945F010C945F010C945F017B
S11301800C945F010C945F010C945F010C945F016B
S11301900C945F010C945F010C945F010C945F015B
S11301A00C945F010C945F010C945F010C947D1C12
S11301B00C94081D0C945F010C945F010C945F0176
S11301C00C945F010C945F010C94331D0C945F013B
S11301D00C945F010C945F010C945F010C945F011B
S11301E00C945F010C945F010C945F010C94881BC8
S11301F00C945F01A91FD31FF41F152036203F2044
S11302003F203F203F203F206720B9204321D421B5
S11302106522D7224923A423ED2305250E256D2528
S11302209E25B125084AD73B3BCE016E84BCBFFD59
S1130230C12F3D6C74319ABD56833DDA3D00C77FB2
S113024011BED9E4BB4C3E916BAAAABE000000804B
S11302503F0013301A3011241FBECFEFDFE2DEBFA0
S1130260CDBF18BE19BE1ABE1BBE14E2A0E0B0E298
S1130270EAE2F5E700E00BBF02C007900D92A43F4D
S1130280B107D9F71BBE27E2A4EFB4E201C01D9267
S1130290A63EB207E1F712E0C4E5D2E000E006C0F2
S11302A022970109FE010BBF0E94D139C235D10743
S11302B080E00807A9F70E94102A0C94833A0C9452
S11302C00000FC01608371834863DB0111964C9349
S11302D0A081B18115962C930190F081E02D81E0ED
S11302E0848308950F93213208F051C0013408F03B
S11302F050C0FC01E959FF4F308131114CC0FC0161
S1130300E959FF4F31E03083FC01E859FF4F108277
S1130310222371F0E42FF52F40E050E03191DC010D
S1130320A40FB51F13963C934F5F5F4F4217B0F372
S1130330DC0112966C931297FC01ED59FF4F208358
S1130340AC59BF4F0C93DC01AB59BF4F1C92DC017D
S1130350AA59BF4F1C922081222349F0FC0122811B
S11303602E7F0190F081E02D268381E017C0FC01EF
S1130370EC59FF4F2081222381F0DC0112962C914D
S113038012972160ED91FC91268381E007C080E003
S113039005C080E003C080E001C081E00F910895B2
S11303A0FC01E959FF4F2081211125C0FC01E959C5
S11303B0FF4F21E02083FC01E859FF4F1082DC014C
S11303C012966C93FC01ED59FF4F1082FC01EC591D
S11303D0FF4F1082FC01EB59FF4F1082FC01EA59D8
S11303E0FF4F1082FC0122812E7F0190F081E02DCD
S11303F0268381E0089580E00895DC01ED91FC916D
S11304001197248122FF05C0A859BF4F34E03C93C3
S113041005C0DC01A859BF4F33E03C932860248316
S1130420FC01E959FF4F10820895FC01E859FF4F80
S11304306083FC01E959FF4F10820895CF93DF9345
S1130440EC01FC01EA59FF4F8081803480F4E8819B
S1130450F9818781FE01EA59FF4F9081DE01A90FDE
S1130460B11D93968C9380818F5F808308C0E8814F
S1130470F98183E0838362E0CE010E941502FE01CC
S1130480EC59FF4F9081FE01EA59FF4F8081891793
S113049028F4E881F98182E0838308C0E881F98146
S11304A087E0838361E0CE010E941502DF91CF9142
S11304B00895CF93DF93FC01ED59FF4F3081FC0188
S11304C0EC59FF4F4081DC01ED91FC91248124FF24
S11304D00CC023E02383FC01E859FF4F25E020836F
S11304E0FC01E959FF4F108224C0DC01AB59BF4F16
S11304F02C91231768F4DC01AB59BF4F2C91EC010C
S1130500C20FD11D8B8187838C918F5F8C9311C017
S1130510DC01AA59BF4F2C91241730F4DC01129648
S11305208C918160868305C023E0238361E00E946F
S11305301502DF91CF910895DC01ED91FC912481A6
S1130540322F3C7019F00E94FD01089526FF03C06C
S11305500E945902089522231CF40E941E02089549
S113056066E00E9415020895EF920F93CF93DF93F4
S1130570FC01DB01EE2009F457C0603A88E07807FB
S113058039F4C0E4D6E088E0898384E08A834CC0EF
S1130590603B88E0780739F4C0E4D6E080E88983DA
S11305A080E48A8341C0603A89E0780739F4C0E680
S11305B0D6E088E0898384E08A8336C0603B89E0A2
S11305C0780739F4C0E6D6E080E8898380E48A833A
S11305D02BC0603A8AE0780739F4C0E8D6E088E0B6
S11305E0898384E08A8320C0603B8AE0780739F4F9
S11305F0C0E8D6E080E8898380E48A8315C0603A45
S11306008BE0780739F4C0EAD6E088E0898384E097
S11306108A830AC0603B8BE0780731F4C0EAD6E0F5
S113062080E8898380E48A83A083B183228315A22E
S113063016A213A214A211A612A617A210A683E052
S113064015968C931597007313960C931397552353
S113065074F414968C911497846014968C93149764
S11306605F7716964C93169717965C9305C016966B
S11306704C93169717965C93A081B18114968C9134
S11306801497806114968C930190F081E02D8481FD
S113069088608483DF91CF910F91EF900895FC01DE
S11306A087A190A521A532A58F5F982F9F7081E027
S11306B0921301C080E08823C1F027A130A533271D
S11306C0DF01A20FB31F53966C932F5F3F4F2F7020
S11306D0332727A330A7A081B18113969C91139748
S11306E09C7F2281922B13969C930895FC0181A5F3
S11306F092A527A130A599272817390739F4019025
S1130700F081E02D83818C7F83830895A1A5B2A518
S1130710AE0FBF1F53968C91A081B1818C9381A59C
S113072092A501968F70992781A792A708951F9289
S11307300F920FB60F92112408B60F9218BE09B685
S11307400F9219BE0AB60F921ABE0BB60F921BBEB9
S1130750CF92DF92EF92FF920F931F932F933F93C9
S11307604F935F936F937F938F939F93AF93BF93B5
S1130770EF93FF93CF93DF93CDB7DEB7C054D10986
S1130780CDBFDEBFE0911E25F0911F2540818091F1
S1130790F9248230D1F130F4882359F0813009F002
S11307A075C01DC0833009F446C0843009F06EC0A2
S11307B058C080E090E0642F70E09B01082E02C0D6
S11307C0359527950A94E2F721703327FC01E2500E
S11307D0FB4D208301968630910579F757C080E060
S11307E090E0642F70E09B01082E02C03595279598
S11307F00A94E2F721703327FC01EC5FFA4D208361
S113080001968730910579F741C080E090E0642F2C
S113081070E09B01082E02C0359527950A94E2F7F3
S113082021703327FC01E55FFA4D20830196863061
S1130830910579F72BC080E090E0642F70E09B0174
S1130840082E02C0359527950A94E2F721703327C4
S1130850FC01EF5EFA4D208301968730910579F70C
S113086015C080E090E0642F70E09B01082E02C068
S1130870359527950A94E2F721703327FC01E85E49
S1130880FA4D208301968630910579F78091F924F9
S113089081110DC0842F90E0082E892F000C881F31
S11308A0990B000C881F991F029709F018C38091B7
S11308B0F924843009F0E3C2842F90E0082E892FB4
S11308C0000C881F990B000C881F991F039709F0CF
S11308D006C3D5C21092F924FE01319680E4DF01EB
S11308E01D928A95E9F7CE2EDF2E7F0100E010E0FD
S11308F0B801882777FD8095982F0E94F63620E06E
S113090030E044E351E40E94C03820E030E044EB9E
S113091050E40E947E350E94C336F70161937193BF
S11309207F010F5F1F4F0032110511F7EC2DFD2DD4
S113093080E090E06FEF7FEFDC01A250BB4D2C9183
S1130940222331F020813181621773070CF4B9013D
S1130950019632968032910579F76F3FFFEF7F075A
S113096009F055C085E28093F424A6C0DC01A250AE
S1130970BB4D2C91222351F1F1100BC02081318108
S1130980DB01A21BB30B9D0172F431952195310952
S11309900AC020813181D801A21BB30B9D011AF436
S11309A0319521953109243B31051CF0BE2DB21B34
S11309B02B2F30E0421753074CF4F11004C0008190
S11309C01181A90103C060817181A9010196329648
S11309D08032910559F60F3FEFEF1E0799F48827EF
S11309E077FD8095982F0E94F6362DEC3CEC4CEC6C
S11309F05DE30E94C0380E9423390E94C836609388
S1130A00F4245AC0F394F2E0FF120AC041C2F12C5C
S1130A1040E050E00FEF1FEF0F2EF8E6EF2EF02D21
S1130A20EC2DFD2D80E090E0A1CF962F872FB8010B
S1130A30092F182FCB01801B910B853B9105BCF02E
S1130A4028E631E08901081B190BC80195958795A3
S1130A50680F791F882777FD8095982F0E94F636B6
S1130A602DEC3CEC4CEC5DE30E94C03810C0959535
S1130A708795681B790B882777FD8095982F0E94AE
S1130A80F6362DEC3CEC4CEC5DE30E94C0380E9441
S1130A9023390E94C8366093F4249091F42489E3A6
S1130AA0989F812D112486958695869514E2819FC1
S1130AB0901911249093F4248091F424853209F040
S1130AC04CC08091F5248823F1F1809100208F3F60
S1130AD0A9F02091AA273091AB274AE58402C001EE
S1130AE011248F519F4F68E671E00E948F39821B59
S1130AF0930B8093FC249093FD2416C02091AA2785
S1130B003091AB27809101205AE58502C001112460
S1130B108C549F4F68E671E00E948F39821B930BBF
S1130B208093FC249093FD248091FC249091FD24D7
S1130B309195819591098093FC249093FD2484E000
S1130B408093FB24CCC18FEF8093012080930220FB
S1130B50809300201092FB24C2C12091F424409180
S1130B60AA275091AB27822F90E09C01220F331FBC
S1130B70C901880F991F880F991F820F931F840F33
S1130B80951F99232CF08093F6249093F72406C0A4
S1130B9088599E4F8093F6249093F7248091F624ED
S1130BA09091F72468E671E00E948F39482F592FFD
S1130BB08093F6249093F724809102208F3FD9F4F8
S1130BC0842F9C012D5231092A35310568F09C018E
S1130BD0275831092A35310548F0815E91098A3553
S1130BE0910530F483E005C081E003C082E001C0D8
S1130BF080E080930220809100208F3F49F5842F6C
S1130C00952F9C012E5131092E31310508F44BC129
S1130C109C01225D31092E31310508F444C19C0147
S1130C20285731092E31310508F437C18C529140CF
S1130C304E9708F432C18FEF09C0833011F081E080
S1130C4005C083E003C083E001C082E080930020FC
S1130C50A09101208A2F992787FD9095242F352F65
S1130C60F901BD97EA35F10508F42EC1A9014758E9
S1130C7051094A35510508F41EC1B901615E710973
S1130C806A35710508F019C163E018C1A901475814
S1130C9051094A35510540F0A901415E51094A35CF
S1130CA0510520F443E005C042E003C040E001C028
S1130CB041E0BC01641B710962307105C1F414C0C8
S1130CC04A35510540F0A901415E51094A355105A3
S1130CD020F443E003C042E001C040E050E0481B80
S1130CE0590B4230510519F4AF3F09F0F4C0EA350D
S1130CF0F10570F0A901475851094A35510550F0E2
S1130D00A901415E51094A35510530F443E005C05B
S1130D1041E003C042E001C040E050E08417950781
S1130D2011F41092F524409100204F3F79F1EA35F7
S1130D30F10570F0C901875891098A35910550F081
S1130D40C901815E91098A35910530F483E005C0BB
S1130D5081E003C082E001C080E0582F481769F0A9
S1130D60992787FD9095841B910947FD93950197D9
S1130D7021F0433031F4511104C01092F52440E0C5
S1130D8033C081E08093F52441E004C04091F52410
S1130D90442351F15091F424852F90E0880F991F3A
S1130DA0BC01660F771F660F771F860F971FEA3502
S1130DB0F10568F0B901675871096A35710548F0A1
S1130DC0215E31092A35310530F423E005C021E0E4
S1130DD003C022E001C020E030E02E5F3F4F2370CB
S1130DE03078209301202AC05091F424852F90E07C
S1130DF0880F991FBC01660F771F660F771F860F38
S1130E00971F8C549F4F68E671E00E948F39EA3532
S1130E10F10568F0B901675871096A35710548F040
S1130E20215E31092A35310530F423E005C021E083
S1130E3003C022E001C020E020930120853B9105FE
S1130E4014F0885691409195819591098093FC24E2
S1130E509093FD24442311F083E001C082E0809349
S1130E60FB248091F8248F5F8093F82485FF37C09A
S1130E7088ED84BF81E0E8E7F0E0818330C08091B1
S1130E80F9248F5F8093F924853008F023CD27C09F
S1130E90601771070CF4C9CDCDCD80910220882351
S1130EA009F4D1CECACE809102208250823008F457
S1130EB0CCCE80E0CBCE62E001C060E08C01061BAA
S1130EC011090AF0E3CEFCCEAC01415051090AF0FD
S1130ED0EFCE41E003CF41E04093F52408CFC05C5E
S1130EE0DF4FCDBFDEBFDF91CF91FF91EF91BF9177
S1130EF0AF919F918F917F916F915F914F913F91AE
S1130F002F911F910F91FF90EF90DF90CF900F9052
S1130F100BBE0F900ABE0F9009BE0F9008BE0F9033
S1130F200FBE0F901F9018951F920F920FB60F923D
S1130F30112408B60F9218BE09B60F9219BE0BB64B
S1130F400F921BBE2F933F934F935F936F937F93A7
S1130F508F939F93AF93BF93EF93FF938EE195E2AB
S1130F600E947603FF91EF91BF91AF919F918F9172
S1130F707F916F915F914F913F912F910F900BBE95
S1130F800F9009BE0F9008BE0F900FBE0F901F90D8
S1130F901895EF920F93EE24E39400E322E049E1E5
S1130FA050E060EB7AE08EE195E20E94B4020F918A
S1130FB0EF900895811108C060E08EE195E20E94EF
S1130FC04F03109249250895909149259F5F90936E
S1130FD04925963068F0813031F46AEA8EE195E271
S1130FE00E944F03089565E58EE195E20E944F0348
S1130FF008951F920F920FB60F92112408B60F9204
S113100018BE09B60F9219BE0AB60F921ABE0BB6D5
S11310100F921BBE2F933F938F939F93AF93BF93D6
S1131020CF93DF93EF93FF93A0919327B0E0E0E099
S1131030F2E084A195A1C0919327D0E0CC0FDD1FED
S1131040CD57D84D28813981821B930BAA0FBB1F22
S1131050AD58B84D8D939C93809193278F5F877083
S11310608093932780919327880F880F880F81A3FB
S113107080A1806880A3FF91EF91DF91CF91BF9110
S1131080AF919F918F913F912F910F900BBE0F9035
S11310900ABE0F9009BE0F9008BE0F900FBE0F90AE
S11310A01F9018951F920F920FB60F92112408B635
S11310B00F9218BE0F9008BE0F900FBE0F901F9096
S11310C01895AAECB1E022E02C93FC0184911C92C7
S11310D090E00895CF93DF9380E290E00E9461084E
S11310E0C0E0D2E08C8781E290E00E9461088D87A5
S11310F080E290E00E9461088C8781E290E00E9487
S113110061088D8781E088A319A2198296E09C83E7
S113111090E39A831B829FE09E838AA3888388A19D
S1131120806888A3DF91CF910895AB01772324F4DD
S113113044275527461B570B242F352F2D3D95E06B
S1131140390710F02CED35E01616170694F440E13B
S113115050E0082E02C0440F551F0A94E2F7E0E263
S1131160F7E045834CED55E0BA01621B730B9B011C
S11311700BC040E150E0082E02C0440F551F0A94F2
S1131180E2F7E0E2F7E04683811105C0E0E0FAE02F
S113119020A731A70895813029F4E0E0FAE022A7DE
S11311A033A70895823029F4E0E0FAE024A735A7B4
S11311B00895E0E0FAE026A737A708952F923F921A
S11311C04F925F926F927F928F929F92AF92BF9253
S11311D0CF92DF92EF92FF920F931F93CF93DF93FF
S11311E0CDB7DEB7A697CDBFDEBF1C0180E1E6EA2E
S11311F0F1E2DE01519601900D928A95E1F780E1CA
S1131200E6EBF1E2DE01119601900D928A95E1F789
S1131210CE0141968BA39CA3FE013196E9A3FAA3C8
S113122000E010E02DA23EA25101FAE5AF0EB11C80
S11312302A013B0104C18DA19EA188599E4FEAF366
S1131240893621E0920734F0885691408936E1E0EE
S11312509E07D4F78A35910564F4FC01EE0FFF1F55
S1131260EE0FFF1FE75FFF4D2081318142815381E3
S113127036C0843B91057CF4E4EBF0E0E81BF90B09
S1131280EE0FFF1FEE0FFF1FE75FFF4D208131813F
S11312904281538124C08E30F1E09F077CF4FC012D
S11312A0EE0FFF1FEE0FFF1FE75CF24E808191816E
S11312B0A281B3819C01AD01505811C0E8E6F1E070
S11312C0E81BF90BEE0FFF1FEE0FFF1FE75FFF4D4B
S11312D080819181A281B3819C01AD015058780134
S11312E0E9A1FAA16191719181919191E9A3FAA384
S11312F00E94C038A30192010E94C038862E972E06
S1131300C82ED92EC501BB201CF488599E4FEAF380
S11313108936F1E09F0734F088569140893621E000
S11313209207D4F78A35910564F4FC01EE0FFF1F90
S1131330EE0FFF1FE75FFF4D208131814281538112
S113134036C0843B91057CF4E4EBF0E0E81BF90B38
S1131350EE0FFF1FEE0FFF1FE75FFF4D208131816E
S11313604281538124C08E30E1E09E077CF4FC016D
S1131370EE0FFF1FEE0FFF1FE75CF24E808191819D
S1131380A281B3819C01AD01505811C0E8E6F1E09F
S1131390E81BF90BEE0FFF1FEE0FFF1FE75FFF4D7A
S11313A080819181A281B3819C01AD015058EBA150
S11313B0FCA16191719181919191EBA3FCA30E9495
S11313C0C038A30192010E94C0389B01AC01682D72
S11313D0792D8C2D9D2D0E947E35862E972EC82E1C
S11313E0D92E20E030E0A9010E941E3818166CF4B2
S11313F020E030E040E05FE3682D792D8C2D9D2DB9
S11314000E947E350E9431370CC020E030E040E07D
S11314105FE3682D792D8C2D9D2D0E947D350E94D2
S113142044360E94C336F701EE0FFF1FE255F84D14
S1131430608371830F5F1F4F0430110531F0332037
S11314400CF4F9CE8DA19EA1FBCEA696CDBFDEBF36
S1131450DF91CF911F910F91FF90EF90DF90CF908C
S1131460BF90AF909F908F907F906F905F904F90C0
S11314703F902F9008952F923F924F925F926F92D8
S11314807F928F929F92AF92BF92CF92DF92EF9210
S1131490FF920F931F93CF93DF93CDB7DEB7A69739
S11314A0CDBFDEBF8C016A017B0180E1E6EAF1E297
S11314B0DE01519601900D928A95E1F780E1E6EB09
S11314C0F1E2DE01119601900D928A95E1F7053B58
S11314D011052CF008561140053B1105DCF70C34BE
S11314E02FEF12070CF013C108591E4F0C348FEF65
S11314F01807D4F30CC18DA19EA188599E4FEAF31D
S11315008936E1E09E0734F0885691408936F1E04F
S11315109F07D4F78A35910564F4FC01EE0FFF1F91
S1131520EE0FFF1FE75FFF4D208131814281538120
S113153036C0843B91057CF4E4EBF0E0E81BF90B46
S1131540EE0FFF1FEE0FFF1FE75FFF4D208131817C
S11315504281538124C08E3021E092077CF4FC0147
S1131560EE0FFF1FEE0FFF1FE75CF24E80819181AB
S1131570A281B3819C01AD01505811C0E8E6F1E0AD
S1131580E81BF90BEE0FFF1FEE0FFF1FE75FFF4D88
S113159080819181A281B3819C01AD015058750174
S11315A0E9A1FAA16191719181919191E9A3FAA3C1
S11315B00E94C038A30192010E94C038862E972E43
S11315C0C82ED92EC10133201CF488599E4FEAF34A
S11315D08936F1E09F0734F088569140893621E03E
S11315E09207D4F78A35910564F4FC01EE0FFF1FCE
S11315F0EE0FFF1FE75FFF4D208131814281538150
S113160036C0843B91057CF4E4EBF0E0E81BF90B75
S1131610EE0FFF1FEE0FFF1FE75FFF4D20813181AB
S11316204281538124C08E30E1E09E077CF4FC01AA
S1131630EE0FFF1FEE0FFF1FE75CF24E80819181DA
S1131640A281B3819C01AD01505811C0E8E6F1E0DC
S1131650E81BF90BEE0FFF1FEE0FFF1FE75FFF4DB7
S113166080819181A281B3819C01AD015058EBA18D
S1131670FCA16191719181919191EBA3FCA30E94D2
S1131680C038A30192010E94C0389B01AC01682DAF
S1131690792D8C2D9D2D0E947E35862E972EC82E59
S11316A0D92E20E030E0A9010E941E3818166CF4EF
S11316B020E030E040E05FE3682D792D8C2D9D2DF6
S11316C00E947E350E9431370CC020E030E040E0BB
S11316D05FE3682D792D8C2D9D2D0E947D350E9410
S11316E044360E94C336F701EE0FFF1FE255F84D52
S11316F060837183FFEFAF1ABF0A24E0A216B1041E
S1131700C9F011230CF4F7CE8DA19EA1F9CECE0120
S113171041968BA39CA3FE013196E9A3FAA3A12CC5
S1131720B12C0DA31EA31801FAE52F0E311C2601BE
S11317303701E7CFA696CDBFDEBFDF91CF911F91D2
S11317400F91FF90EF90DF90CF90BF90AF909F905C
S11317508F907F906F905F904F903F902F9008955F
S11317602F923F924F925F926F927F928F929F92AD
S1131770AF92BF92CF92DF92EF92FF920F931F939B
S1131780CF93DF93CDB7DEB7A897CDBFDEBF5C01A3
S11317906B0180E1E6ECF1E2DE01519601900D92DD
S11317A08A95E1F780E1E6EBF1E2DE011196019022
S11317B00D928A95E1F7E0907521F0907621EA1870
S11317C0FB080091772110917821061B170B80915B
S11317D0B62790914A25981709F445C1609175215F
S11317E0709176216A197B09882777FD8095982F57
S11317F00E94F6362DEC3CEC4CE45BE30E94C038CE
S113180020914B2530914C2540914D2550914E25EA
S11318100E947E35662E772E882E992E20E030E0A9
S113182048EC52E40E941E3818166CF480E090E0F4
S1131830A8ECB2E480934B2590934C25A0934D25BE
S1131840B0934E2525C020E030E048EC52EC662DE4
S1131850772D882D992D0E94573688236CF0862D7C
S1131860972DA82DB92D80934B2590934C25A093AB
S11318704D25B0934E250CC080E090E0A8ECB2EC6E
S113188080934B2590934C25A0934D25B0934E25E2
S113189060917521709176216A197B09882777FDFB
S11318A08095982F0E94F63620914B2530914C2537
S11318B040914D2550914E250E94C03820E030E0E3
S11318C0A9010E945736181644F010924B25109225
S11318D04C2510924D2510924E25609177217091E0
S11318E078216C197D09882777FD8095982F0E94AF
S11318F0F6362DEC3CEC4CE45BE30E94C0382091BE
S11319004F253091502540915125509152250E94E8
S11319107E35862E972EA82EB92E20E030E048EC96
S113192052E40E941E3818166CF480E090E0A8EC93
S1131930B2E480934F2590935025A0935125B09302
S1131940522525C020E030E048EC52EC682D792D7A
S11319508A2D9B2D0E94573688236CF0882D992D53
S1131960AA2DBB2D80934F2590935025A0935125EC
S1131970B09352250CC080E090E0A8ECB2EC8093C8
S11319804F2590935025A0935125B09352256091F3
S11319907721709178216C197D09882777FD8095CE
S11319A0982F0E94F63620914F2530915025409172
S11319B05125509152250E94C03820E030E0A90101
S11319C00E945736181644F010924F251092502555
S11319D01092512510925225809103209091042059
S11319E0B701681B790B882777FD8095982F0E9493
S11319F0F63620E030E040E852E40E94C03820E0AF
S1131A0030E040EA50E40E94C038462E572E882E1B
S1131A10992E8091052090910620B801681B790BBE
S1131A20882777FD8095982F0E94F63620E030E0D5
S1131A3040E852E40E94C03820E030E040EA50E43C
S1131A400E94C038662E772EA82EB92EE09203206D
S1131A50F092042000930520109306208091B6276D
S1131A6080934A2508C0612C712CA12CB12C412CE7
S1131A70512C812C912CB701882777FD8095982FC4
S1131A800E94F63620E030E040E451E40E94C03881
S1131A906B017C0120E030E040E850E460914B258C
S1131AA070914C2580914D2590914E250E94C0380F
S1131AB09B01AC01C701B6010E947E356B017C011C
S1131AC02DEC3CEC4CE45EE3642D752D882D992DB2
S1131AD00E94C0389B01AC01C701B6010E947E354B
S1131AE0262E372E882E992EB801882777FD8095CB
S1131AF0982F0E94F63620E030E040E451E40E9442
S1131B00C0386B017C0120E030E040E850E4609193
S1131B104F257091502580915125909152250E9416
S1131B20C0389B01AC01C701B6010E947E356B0130
S1131B307C012DEC3CEC4CE45EE3662D772D8A2D84
S1131B409B2D0E94C0389B01AC01C701B6010E94C5
S1131B507E356DA37EA38FA398A7CE0101968BA398
S1131B609CA3FE017196E9A3FAA300E010E05801DA
S1131B70EBA1FCA12191319141915191EBA3FCA3E3
S1131B80E9A1FAA14190519061907190E9A3FAA35F
S1131B90622D732D882D992D0E94C0386B017C0114
S1131BA0A3019201BDA1AEA1FFA1E8A56B2F7A2FDD
S1131BB08F2F9E2F0E94C0389B01AC01C701B60134
S1131BC00E947E35C62ED72EE82EF92E20E030E076
S1131BD0A9010E941E3818166CF420E030E040E0A1
S1131BE05FE36C2D7D2D8E2D9F2D0E947E350E94EE
S1131BF031370CC020E030E040E05FE36C2D7D2DF8
S1131C008E2D9F2D0E947D350E9444360E94C3363E
S1131C10F501EE0FFF1FE255F84D608371830F5FEE
S1131C201F4F0430110509F0A2CF80E090E060E07E
S1131C3070E09C01FC01EE0FFF1FE255F84D40815E
S1131C405181552344F0FC01EE0FFF1FE255F84D7E
S1131C50408151810AC0FC01EE0FFF1FE255F84D8F
S1131C604081518151954195510964177507DCF400
S1131C70F901EE0FFF1FE255F84D408151815523C4
S1131C8044F0F901EE0FFF1FE255F84D60817181B8
S1131C900AC0F901EE0FFF1FE255F84D6081718112
S1131CA071956195710901968430910511F6613B36
S1131CB0F4E07F070CF45BC0882777FD8095982FAC
S1131CC00E94F6369B01AC0160E070E086E994E482
S1131CD00E945B36A62EB72EC82ED92E00E010E047
S1131CE07801F801EE0FFF1FE255F84D6081718114
S1131CF0882777FD8095982F0E94F6362A2D3B2D54
S1131D004C2D5D2D0E94C038662E772E882E992E7C
S1131D1020E030E0A9010E941E3818166CF420E07F
S1131D2030E040E05FE3662D772D882D992D0E94E9
S1131D307E350E9431370CC020E030E040E05FE3A4
S1131D40662D772D882D992D0E947D350E9444366D
S1131D500E94C336F701EE0FFF1FE255F84D608372
S1131D6071830F5F1F4F0430110509F0B9CFA89696
S1131D70CDBFDEBFDF91CF911F910F91FF90EF9008
S1131D80DF90CF90BF90AF909F908F907F906F9097
S1131D905F904F903F902F9008958F929F92AF92B3
S1131DA0BF920F931F93CF93DF93BC01A895873005
S1131DB0910558F020E43CE9C9010197F1F7665018
S1131DC07109A89567307105B8F780E090E00E942A
S1131DD0F4364B015C0120E030E04AEF55E40E9408
S1131DE0C038062F172FD82FC92F20E030E040E845
S1131DF05FE30E94573688234CF120E03FEF4FE722
S1131E0057E4602F712F8D2F9C2F0E941E381816B7
S1131E10B4F420E030E040E251E4C501B4010E9492
S1131E20C0380E94C83661157105A9F020E233E07C
S1131E30C9010197F1F761507109D1F70CC0602F06
S1131E40712F8D2F9C2F0E94C83602C061E070E074
S1131E50CB010197F1F7A895DF91CF911F910F91D5
S1131E60BF90AF909F908F90089590915A259111B3
S1131E700DC0811113C00AC084EF91E0E0E0F8E0E6
S1131E8080A791A781E0809308200895809108207D
S1131E90815080930820882379F3089588EE93E095
S1131EA0E0E0F8E080A791A787E0809308200895F8
S1131EB0809107208823B9F081E080935A2584E635
S1131EC090E08093562590935725109253251092B5
S1131ED054258EEF9FEF80935727909358271092A5
S1131EE0072010925A25089580910720882361F0D5
S1131EF08FE090E0809356259093572510925325B8
S1131F001092542510920720089580910720811182
S1131F1018C0809158259091592501968093582591
S1131F20909359258F3F910560F084E0E0E2F7E05B
S1131F308683109258251092592581E080930720BA
S1131F4008958091562590915725892B71F08091A1
S1131F5056259091572501978093562590935725A0
S1131F6084E0E0E2F7E08583089584E0E0E2F7E0CE
S1131F7086830895E0E2F7E0808581FD2FC080919B
S1131F805325909154250B97C8F081E080935525F3
S1131F9088E0E0E0F7E08583809153259091542513
S1131FA08436910508F046C08091532590915425BC
S1131FB001968093532590935425089510925525A6
S1131FC088E0E0E0F7E086838091532590915425E2
S1131FD00196809353259093542508958091532519
S1131FE0909154250B9788F081E08093552588E0E3
S1131FF0E0E0F7E085838091532590915425019783
S1132000809353259093542508951092552588E084
S1132010E0E0F7E086838091532590915425892B45
S113202049F080915325909154250197809353252D
S113203090935425089581309105E9F56F3F7F4FC2
S113204009F05EC046EC66E875E283E895E20E941A
S1132050EB3242EE66E875E287E795E20E94B4341B
S113206044EE66E875E28BE795E20E94B43446EEEE
S113207066E875E28FE795E20E94B43440E56FEEBE
S113208075E283E795E20E9421304EEC66E875E242
S11320908FE695E20E94473448EA66E875E28FE5E8
S11320A095E20E94AE3440EC6FEE75E28BE595E26A
S11320B00E94E4320895892B19F56F3F7F4F01F593
S11320C08BE595E20E94EA328FE595E20E94B334F3
S11320D08FE695E20E944D3483E795E20E94273013
S11320E08FE795E20E94BA348BE795E20E94BA34F6
S11320F087E795E20E94BA3483E895E20E94F032C1
S11321000895EF920F93EE24E39400E221E04FEC64
S113211050E060EA78E08AEB97E20E94B4020F9103
S1132120EF9008951F920F920FB60F92112408B6E4
S11321300F9218BE09B60F9219BE0AB60F921ABEB4
S11321400BB60F921BBE2F933F934F935F936F93E6
S11321507F938F939F93AF93BF93CF93DF93EF932B
S1132160FF93E091BA27F091BB2740818091B92772
S1132170873009F462C068F4833039F120F4813087
S113218021F148F51CC0853009F442C008F04DC067
S113219036C08B3009F47BC030F4893009F462C056
S11321A008F06DC057C08D3009F486C008F47CC0B7
S11321B08E3009F48EC08F3009F0E7C092C04535E7
S11321C009F4E3C01092B927E5C04A3A09F4DDC026
S11321D01092B927DFC0453531F4E091B727F0916B
S11321E0B82712860CC0463539F4E091B727F09130
S11321F0B82781E0828703C01092B927CBC0E09151
S1132200B727F091B827842F90E083879487BDC0C7
S1132210E091B727F091B82723853485942F80E087
S1132220822B932B83879487B0C0E091B727F091DA
S1132230B82750E040875187A8C0E091B727F091B4
S1132240B82720853185942F80E0822B932B8087BB
S113225091879BC0E091B727F091B82750E0448361
S1132260558393C0E091B727F091B8272481358135
S1132270942F80E0822B932B8483958386C0E091F6
S1132280B727F091B82750E0468357837EC0E0918A
S1132290B727F091B82726813781942F80E0822BCD
S11322A0932B8683978371C0E091B727F091B82769
S11322B050E04083518369C0E091B727F091B8277B
S11322C020813181942F80E0822B932B8083918312
S11322D05CC0E091B727F091B82750E04283538364
S11322E054C0E091B727F091B82722813381942F0D
S11322F080E0822B932B8283938320813181C2815E
S1132300D381A481B5816681778140855185838598
S113231094852C0F3D1F2A0F3B1F260F371F240FB8
S1132320351F2817390769F581E0858724813581B0
S11323308091AA279091AB2740919427509195279B
S1132340205A310912F42D5F3F4F35952795359565
S11323502795820F931F9A01220F331F220F331FD9
S1132360220F331F420F531F840F951F6AE070E042
S11323700E948F3960939427709395271092E527D4
S113238001C015861092B92705C08091B9278F5FC7
S11323908093B927FF91EF91DF91CF91BF91AF91D6
S11323A09F918F917F916F915F914F913F912F9169
S11323B00F900BBE0F900ABE0F9009BE0F9008BE7F
S11323C00F900FBE0F901F9018951F920F920FB68B
S11323D00F92112408B60F9218BE09B60F9219BEB7
S11323E00AB60F921ABE0BB60F921BBE2F923F92E3
S11323F04F925F926F927F928F929F92AF92BF9211
S1132400CF92DF92EF92FF920F931F932F933F93FC
S11324104F935F936F937F938F939F93AF93BF93E8
S1132420EF93FF93CF93DF93CDB7DEB72A97CDBF5A
S1132430DEBF8091B6278931C8F11092B627E0EE4D
S1132440F6E0808580FD37C0808586FD17C08091C9
S1132450A5218823B1F083E795E20E944F31809350
S1132460A5279093A6276091A5277091A62780E5BC
S113247090E00E943B3A1092A52103C081E0809332
S1132480A521109256271092572710925827E0EE54
S1132490F6E0808580FD06C08085829581700E946B
S11324A0DA0709C080E00E94DA0705C08091B627E8
S11324B08F5F8093B627E0EEF6E0808580FF06C04C
S11324C08091DB268F5F8093DB2606C01092DB268B
S11324D01092FB241092F5248091DD269091DE2643
S11324E09C012F5F3F4F2093DD263093DE268D3DE8
S11324F09540D0F18091612790916227813F9A4065
S113250028F180915D2790915E27992364F480914E
S11325105D2790915E279195819591098B34910562
S11325204CF080E018C080915D2790915E278B3439
S1132530910574F4E0EEF6E0808580FD0BC0909187
S11325403D2781E0933039F480E005C080E003C08A
S113255080E001C081E00E94350F80E496E0809322
S1132560DD269093DE2630C08091DD269091DE2614
S11325709C012F5F3F4F2093DD263093DE26893E5A
S1132580934038F084EF91E0E0E0F8E080A791A771
S11325901BC08091DD269091DE269C012F5F3F4F6A
S11325A02093DD263093DE26853F914038F088EE77
S11325B093E0E0E0F8E080A791A706C084EF91E003
S11325C0E0E0F8E080A791A78091A7278F5F809330
S11325D0A727843008F456C01092A7278091A1271A
S11325E09091A2278093A3279093A42783E795E251
S11325F00E94A2328530E9F580E4E0E0F7E08683CA
S113260083E795E20E944F312091A5273091A627B8
S1132610821B930B89879A8789859A85853B9105C7
S11326203CF089859A858856914089879A870BC0A2
S113263089859A858C349F4F34F489859A85885985
S11326409E4F89879A8789859A858093AA27909334
S1132650AB2783E795E20E946032833F28F080E84D
S1132660E0E0F7E08683DBC780E8E0E0F7E085831D
S1132670D6C783E795E20E94283080E4E0E0F7E0E3
S11326808583CDC7813009F0D8C2E0EEF6E08085BD
S113269085FF03C08CE291E002C080ED97E02091B9
S11326A07327309174272817390790F520917527DF
S11326B0309176272817390758F5209177273091DC
S11326C078272817390720F52091792730917A2720
S11326D028173907E8F420917B2730917C272817A5
S11326E03907B0F420917D2730917E2728173907C8
S11326F078F420917F27309180272817390740F4F8
S113270020918127309182272817390708F4AEC712
S11327100F2EF3EECF2EF4E2DF2EF02DE12CF12C70
S1132720212C312C412C512C612C712C812C912C7D
S11327305701F701EE0FFF1FED58F84D60817181CD
S113274080E090E00E94F436F60130812181F2E0CD
S1132750CF0ED11C032F122F11232CF498012859CA
S11327603E4FEAF301C09801293641E0340734F0C2
S1132770285631402936E1E03E07D4F72A353105A1
S113278064F4F901EE0FFF1FEE0FFF1FE75FFF4D2B
S1132790208131814281538132C0243B31057CF454
S11327A0E4EBF0E0E21BF30BEE0FFF1FEE0FFF1F55
S11327B0E75FFF4D208131814281538120C02E305B
S11327C0F1E03F076CF4F901EE0FFF1FEE0FFF1F5E
S11327D0E75CF24E208131814281538150580FC011
S11327E0E8E6F1E0E21BF30BEE0FFF1FEE0FFF1F15
S11327F0E75FFF4D208131814281538150580E940F
S1132800C0389B01AC01662D772D882D992D0E942F
S11328107E35662E772E882E992EF501EE0FFF1F3A
S1132820ED58F84D6081718180E090E00E94F436AB
S1132830065A1F4F1AF408591E4FEAF3093621E0CD
S1132840120734F008561140093631E01307D4F763
S11328500A35110564F4F801EE0FFF1FEE0FFF1F98
S1132860E75FFF4D208131814281538136C0043BB3
S113287011057CF4E4EBF0E0E01BF10BEE0FFF1F1D
S1132880EE0FFF1FE75FFF4D2081318142815381AD
S113289024C00E3041E014077CF4F801EE0FFF1F52
S11328A0EE0FFF1FE75CF24E00811181228133811C
S11328B0A9019801505811C0E8E6F1E0E01BF10BC2
S11328C0EE0FFF1FEE0FFF1FE75FFF4D0081118129
S11328D022813381A901980150580E94C0389B017C
S11328E0AC01622D732D842D952D0E947E35262EEC
S11328F0372E482E592E8FEFE81AF80AE8E0EE1624
S1132900F10409F015CF262D372D482D592D622DB0
S1132910732D842D952D0E94F13520E030E044E3A1
S113292053E40E94C0382BED3FE049E450E40E9498
S11329305B360E94C33660935D2770935E27E0EC9C
S1132940F7E0808580FD0AC080915D2790915E2725
S11329500A9680935D2790935E2719C080915D2726
S113296090915E27489680935D2790935E2780918F
S11329705D2790915E27181619064CF480915D2707
S113298090915E270A9780935D2790935E278091AC
S11329905D2790915E278D349F4F5CF480915D2775
S11329A090915E2788599E4F80935D2790935E2770
S11329B011C080915D2790915E27853B910554F06D
S11329C080915D2790915E278856914080935D2782
S11329D090935E27222D332D442D552D662D772D72
S11329E0882D992D0E942B386B017C0120E030E06A
S11329F0A9010E941E3818165CF420E030E040E083
S1132A005FE3C701B6010E947E350E9431370AC0D8
S1132A1020E030E040E05FE3C701B6010E947D356D
S1132A200E9444360E94C8366093612770936227DF
S1132A3000915D2710915E27609161277091622754
S1132A4080E090E00E94F4366B017C01000F111FBE
S1132A50000F111F065A1F4F1AF408591E4FEAF3AC
S1132A60093621E0120734F008561140093631E0E6
S1132A701307D4F70A35110564F4F801EE0FFF1FAC
S1132A80EE0FFF1FE75FFF4D2081318142815381AB
S1132A9036C0043B11057CF4E4EBF0E0E01BF10BE1
S1132AA0EE0FFF1FEE0FFF1FE75FFF4D2081318107
S1132AB04281538124C00E3041E014077CF4F801B4
S1132AC0EE0FFF1FEE0FFF1FE75CF24E8081918136
S1132AD0A281B3819C01AD01505811C0E8E6F1E038
S1132AE0E01BF10BEE0FFF1FEE0FFF1FE75FFF4D23
S1132AF080819181A281B3819C01AD01505860E035
S1132B0070E080E191E40E947D359B01AC01C70136
S1132B10B6010E94C03820E030E040E05EE30E944D
S1132B20C038E62EF72E082F192F20E030E0A90137
S1132B300E941E3818166CF420E030E040E05FE399
S1132B406E2D7F2D802F912F0E947E350E9431376C
S1132B500CC020E030E040E05FE36E2D7F2D802F3D
S1132B60912F0E947D350E9444360E94C83660939E
S1132B705F277093602780915727909158279C0175
S1132B802F5F3F4F2093572730935827803491402D
S1132B9008F041C08091612790916227803991406B
S1132BA008F473C520915B2730915C2780916127DD
S1132BB090916227205931402817390708F065C5DC
S1132BC020915B2730915C27809161279091622747
S1132BD020573E4F8217930708F057C52091592775
S1132BE030915A2780915D2790915E2725503109B5
S1132BF0281739070CF049C52091592730915A27D5
S1132C0080915D2790915E272B5F3F4F821793073A
S1132C100CF405C53AC580915727909158278138FF
S1132C20924020F481E080935627F9C410925627ED
S1132C301092572710925827F2C4823009F038C3F3
S1132C408091A8279091A9272091AA273091AB279A
S1132C50821B930B853B91053CF0885691408093F1
S1132C60A1279093A2270FC08C343FEF93072CF039
S1132C708093A1279093A22706C088599E4F8093E2
S1132C80A1279093A2270091A1271091A227B80110
S1132C90882777FD8095982F0E94F6364B015C01BA
S1132CA020E030E040E85CE30E94C03820919D279A
S1132CB030919E2740919F275091A0270E947E35F6
S1132CC0462E572E682E792E20E030E048E453E457
S1132CD00E941E3818166CF480E090E0A8E4B3E477
S1132CE080939D2790939E27A0939F27B093A0271E
S1132CF025C020E030E048E453EC642D752D862D8A
S1132D00972D0E94573688236CF0842D952DA62D7F
S1132D10B72D80939D2790939E27A0939F27B093D0
S1132D20A0270CC080E090E0A8E4B3EC80939D273A
S1132D3090939E27A0939F27B093A0272091A32729
S1132D403091A427029FC001039F900D129F900D04
S1132D50112418161906B4F020E030E040E05FE3D7
S1132D6060919D2770919E2780919F279091A02725
S1132D700E94C03860939D2770939E2780939F275D
S1132D809093A027C0909D27D0909E27E0909F27E6
S1132D90F090A027A7019601C501B4010E94C03894
S1132DA020E030E0A9010E945736181684F024EA86
S1132DB030E74DE75FE3C701B6010E94C038609376
S1132DC09D2770939E2780939F279093A02783E746
S1132DD095E20E94013180939B2790939C278091D8
S1132DE07625882321F010929B2710929C2700912E
S1132DF09B2710919C276091A1277091A227882777
S1132E0077FD8095982F0E94F63620E030E04AE75F
S1132E1051E40E94C0386B017C0120E030E040E0C6
S1132E2051E460919D2770919E2780919F279091F6
S1132E30A0270E94C0389B01AC01C701B6010E94C3
S1132E407E356B017C01B801882777FD8095982F2A
S1132E500E94F63620E030E040E85DE30E94C0388E
S1132E609B01AC01C701B6010E947E35E62EF72E08
S1132E70082F192FA62EB72EC82ED92E982F4E2DD7
S1132E805F2D692F712F4093972750939827609354
S1132E90992770939A2720E030E04AE754E46E2D96
S1132EA07F2D802F912F0E941E381816BCF480E0CD
S1132EB090E0AAE7B4E48093972790939827A0938F
S1132EC09927B0939A27A12CB12C0F2EFAE7CF2E75
S1132ED0F02D0F2EF4E4DF2EF02D2EC020E030E094
S1132EE04AE754EC6E2D7F2D802F912F0E94573688
S1132EF08823BCF480E090E0AAE7B4EC80939727A1
S1132F0090939827A0939927B0939A27A12CB12C3A
S1132F100F2EFAE7CF2EF02D0F2EF4ECDF2EF02D2E
S1132F2018C020E030E0A9016E2D7F2D802F912F55
S1132F300E941E3818166CF420E030E040E05FE395
S1132F406A2D7B2D8C2D9D2D0E947E350E9431375C
S1132F500CC020E030E040E05FE36A2D7B2D8C2D37
S1132F609D2D0E947D350E9444360E94C336609395
S1132F70AC277093AD2780919627882331F088E0A1
S1132F8097E08093AC279093AD27A090AE27B090A4
S1132F90AF278091AC279091AD27A80EB91EC090A1
S1132FA0B027D090B1278091AC279091AD27C80E5F
S1132FB0D91EE090B227F090B3278091AC2790916E
S1132FC0AD27E80EF91E0091B4271091B527809122
S1132FD0AC279091AD27080F191F8FE695E20E9448
S1132FE04E348093C1269093C226BC0180E090E0C9
S1132FF00E94F4369B01AC0160E070EE84E496E438
S11330000E945B36662E772E882E992EB50188276E
S113301077FD8095982F0E94F636262D372D482D62
S1133020592D0E94C0380E94C33669837A83B60141
S1133030882777FD8095982F0E94F636262D372D08
S1133040482D592D0E94C0380E94C3366B837C835F
S1133050B701882777FD8095982F0E94F636262D94
S1133060372D482D592D0E94C0380E94C3366D83D8
S11330707E83B801882777FD8095982F0E94F636C5
S1133080262D372D482D592D0E94C0380E94C33655
S11330906F83788783E795E20E94AA3199233CF0F5
S11330A083E795E20E94AA310B9754F422C083E788
S11330B095E20E94AA319195819591090B97CCF0E4
S11330C083E795E20E94653099234CF083E795E20B
S11330D00E946530813293400CF03FC00AC083E700
S11330E095E20E94653091958195910981329340D2
S11330F0A4F583E795E20E94053299233CF083E727
S113310095E20E9405320B9754F433C083E795E2AD
S11331100E9405329195819591090B9754F183E7AB
S113312095E20E946530992354F083E795E20E946A
S1133130653021E08132934074F420E00CC083E7D1
S113314095E20E94653091958195910921E0813243
S113315093400CF420E0222361F08091AC279091FD
S1133160AD278F8398878D839E838B839C838983EC
S11331709A838E010F5F1F4F7E0149E0E40EF11C1C
S1133180F80160E070E0308121813296832F922F24
S113319099231CF4919581959109681779070CF48A
S11331A0BC01EE15FF0579F76D3D85E078070CF459
S11331B050C0882777FD8095982F0E94F6369B0192
S11331C0AC0160E070E88BEB94E40E945B36462E21
S11331D0572E682E792E6801F80160817181882745
S11331E077FD8095982F0E94F636242D352D462D97
S11331F0572D0E94C038862E972EA82EB92E20E077
S113320030E0A9010E941E3818166CF420E030E06A
S113321040E05FE3682D792D8A2D9B2D0E947E3539
S11332200E9431370CC020E030E040E05FE3682DBD
S1133230792D8A2D9B2D0E947D350E9444360E9453
S1133240C336F601608371830E5F1F4F0E151F0591
S113325011F6E0EEF6E0808580FF15C069817A8181
S113326080E00E9495086B817C8181E00E94950832
S11332706D817E8182E00E9495086F81788583E06C
S11332800E949508CCC160E070E080E00E9495083F
S113329060E070E081E00E94950860E070E082E008
S11332A00E94950860E070E083E00E949508B7C131
S11332B0833009F0B4C180914C2781115EC087E747
S11332C095E20E945C35882309F47FC08FE795E27C
S11332D00E945C35882309F478C087E795E20E9450
S11332E00E350DE417E2F801808391838FE795E2B0
S11332F00E940E358093512790935227F8018081C4
S11333009181892BF1F48091512790915227892B37
S113331059F480E590E080934D2790934E27809355
S11333205127909352271FC0209151273091522743
S113333082EA90E0821B930B80934D2790934E2753
S113334012C08091512790915227892B61F42091CA
S11333504D2730914E2782EA90E0821B930B809395
S11333605127909352278BE795E20E940335809171
S11333704C278F5F80934C2728C080914C27813045
S113338021F58BE795E20E945C358823F1F08BE709
S113339095E20E940E350FE417E2F80180839183D1
S11333A087E795E20E940335F80180819181892B9A
S11333B031F484E690E080934F27909350278FE771
S11333C095E20E94033510924C27809151279091E9
S11333D0522720914D2730914E278A549F4F821BAC
S11333E0930B96958795E8E4F7E280839183808137
S11333F091818130944024F01092482710924927FB
S113340080914F27909150270596EAE4F7E2808354
S11334109183808191818093772190937821809109
S11334204D2790914E272091512730915227820F9A
S1133430931F8739910520F1EDE4F7E280819181B2
S113344080937F2190938021A1E5B7E28D919C9197
S113345011978093792190937A2110923F271092AB
S11334603E278D919C91208131818A549F4F821BEC
S1133470930B969587958093752190937621CFC071
S113348020914D2730914E2740913F27E42FF0E0C3
S1133490EE0FFF1FE158FE4D808191812C5E3F4F5E
S11334A08217930708F14F5F433018F440933F2786
S11334B003C082E080933F2780913F2790E0FC0186
S11334C0EE0FFF1FEE5BF84DDC01AA0FBB1FA158E6
S11334D0BE4D80917F21909180212D913C91821B42
S11334E0930B8083918310C020914D2730914E27F8
S11334F044962817390740F0442321F04150409363
S11335003F2702C010923F2760913F27262F30E0CB
S113351080914D2790914E27F901EE0FFF1FE1583E
S1133520FE4D808391834091512750915227709191
S11335303E27E72FF0E0EE0FFF1FE758FE4D808196
S113354091814C5E5F4F8417950708F17F5F73305C
S113355018F470933E2703C082E080933E27809145
S11335603E2790E0FC01EE0FFF1FE25CF84DDC010A
S1133570AA0FBB1FA758BE4D8091792190917A2143
S11335804D915C91841B950B8083918310C0409175
S113359051275091522744964817590740F07723F2
S11335A021F0715070933E2702C010923E27709113
S11335B03E27472F50E08091512790915227FA01DE
S11335C0EE0FFF1FE758FE4D8083918380914D27B6
S11335D090914E27662349F0F901EE0FFF1FEE5B31
S11335E0F84D20813181820F931F20915127309112
S11335F05227772349F0FA01EE0FFF1FE25CF84DE2
S113360040815181240F351F281B390B2A543F4F09
S1133610C9019695879580937521909376210E9490
S1133620BA0F0E94850F1092F824E0EEF6E0808530
S113363082FF0BC0809137278F5F809337278233B7
S113364020F00E94F71E109237278091C126909196
S1133650C226883F9A4228F480E2E0E0F7E08583BE
S113366029C080E2E0E0F7E0868324C085E090E0B2
S1133670809361279093622780935F2790936027BC
S113368010925D2710925E2776CA809161279091EF
S1133690622780935B2790935C2780915D279091AC
S11336A05E278093592790935A2710925727109298
S11336B05827B5CF2A96CDBFDEBFDF91CF91FF91BA
S11336C0EF91BF91AF919F918F917F916F915F9196
S11336D04F913F912F911F910F91FF90EF90DF90A9
S11336E0CF90BF90AF909F908F907F906F905F909E
S11336F04F903F902F900F900BBE0F900ABE0F90EB
S113370009BE0F9008BE0F900FBE0F901F90189522
S11337101F920F920FB60F92112408B60F9218BE83
S113372009B60F9219BE0BB60F921BBE2F933F938F
S11337304F935F936F937F938F939F93AF93BF93B5
S1133740EF93FF938CE097E20E947603FF91EF9151
S1133750BF91AF919F918F917F916F915F914F91A5
S11337603F912F910F900BBE0F9009BE0F9008BE92
S11337700F900FBE0F901F9018951F920F920FB6C7
S11337800F92112408B60F9218BE09B60F9219BEF3
S11337900BB60F921BBE2F933F934F935F936F9380
S11337A07F938F939F93AF93BF93EF93FF9380EE99
S11337B096E20E947603FF91EF91BF91AF919F91A2
S11337C08F917F916F915F914F913F912F910F90C6
S11337D00BBE0F9009BE0F9008BE0F900FBE0F9046
S11337E01F9018951F920F920FB60F92112408B6CE
S11337F00F9218BE0BB60F921BBE8F93EF93FF93DD
S1133800E0910C27F0910D2780818093DF26FF91B2
S1133810EF918F910F900BBE0F9008BE0F900FBECB
S11338200F901F9018951F920F920FB60F921124AC
S113383008B60F9218BE09B60F9219BE0BB60F92B6
S11338401BBE2F933F934F935F936F937F938F93FD
S11338509F93AF93BF93EF93FF9388E596E20E9403
S11338609C02FF91EF91BF91AF919F918F917F91B6
S11338706F915F914F913F912F910F900BBE0F90DD
S113388009BE0F9008BE0F900FBE0F901F901895A1
S11338901F920F920FB60F92112408B60F9218BE02
S11338A009B60F9219BE0BB60F921BBE2F933F930E
S11338B04F935F936F937F938F939F93AF93BF9334
S11338C0EF93FF938FEE95E20E949C02FF91EF919C
S11338D0BF91AF919F918F917F916F915F914F9124
S11338E03F912F910F900BBE0F9009BE0F9008BE11
S11338F00F900FBE0F901F9018951F920F920FB646
S11339000F92112408B60F9218BE09B60F9219BE71
S11339100BB60F921BBE2F933F934F935F936F93FE
S11339207F938F939F93AF93BF93EF93FF9386E817
S113393095E20E949C02FF91EF91BF91AF919F91FC
S11339408F917F916F915F914F913F912F910F9044
S11339500BBE0F9009BE0F9008BE0F900FBE0F90C4
S11339601F9018951F920F920FB60F92112408B64C
S11339700F9218BE0BB60F921BBE8F939F93EF93BB
S1133980FF931092CF261092D026E3ECF6E28081CA
S1133990982F9F5F908388301CF088E08093C32623
S11339A0FF91EF919F918F910F900BBE0F9008BEE6
S11339B00F900FBE0F901F9018951F920F920FB685
S11339C00F92112408B60F9218BE0BB60F921BBEAD
S11339D08F939F93EF93FF931092D1261092D22648
S11339E0E4ECF6E28081982F9F5F908388301CF08E
S11339F088E08093C426FF91EF919F918F910F905F
S1133A000BBE0F9008BE0F900FBE0F901F9018951D
S1133A101F920F920FB60F92112408B60F9218BE80
S1133A200BB60F921BBE8F939F93EF93FF9310924D
S1133A30D3261092D426E5ECF6E28081982F9F5F7E
S1133A40908388301CF088E08093C526FF91EF9125
S1133A509F918F910F900BBE0F9008BE0F900FBED9
S1133A600F901F9018951F920F920FB60F9211246A
S1133A7008B60F9218BE0BB60F921BBE8F939F937E
S1133A80EF93FF931092D5261092D626E6ECF6E239
S1133A908081982F9F5F908388301CF088E080930A
S1133AA0C626FF91EF919F918F910F900BBE0F90BF
S1133AB008BE0F900FBE0F901F9018951F920F9283
S1133AC00FB60F92112408B60F9218BE09B60F92C2
S1133AD019BE0AB60F921ABE0BB60F921BBE2F93D5
S1133AE03F934F935F936F937F938F939F93AF9382
S1133AF0BF93CF93DF93EF93FF938091C326181660
S1133B0034F4E0E0F9E010A211A21092C326E7ED2C
S1133B10F6E28081982F9F5F908380FD12C0C0E001
S1133B20D9E028A139A140E050E064E57AEE8AE2C8
S1133B3090E00E94A3392093CF263093D02618A278
S1133B4019A2FF91EF91DF91CF91BF91AF919F9116
S1133B508F917F916F915F914F913F912F910F9032
S1133B600BBE0F900ABE0F9009BE0F9008BE0F90B7
S1133B700FBE0F901F9018951F920F920FB60F92C1
S1133B80112408B60F9218BE09B60F9219BE0AB6D0
S1133B900F921ABE0BB60F921BBE2F933F934F93F7
S1133BA05F936F937F938F939F93AF93BF93CF93C1
S1133BB0DF93EF93FF938091C426181634F4E0E466
S1133BC0F9E010A211A21092C426E8EDF6E2808179
S1133BD0982F9F5F908380FD12C0C0E4D9E028A194
S1133BE039A140E050E064E57AEE8AE290E00E9478
S1133BF0A3392093D1263093D22618A219A2FF917B
S1133C00EF91DF91CF91BF91AF919F918F917F9170
S1133C106F915F914F913F912F910F900BBE0F9039
S1133C200ABE0F9009BE0F9008BE0F900FBE0F90F2
S1133C301F9018951F920F920FB60F92112408B679
S1133C400F9218BE09B60F9219BE0AB60F921ABE89
S1133C500BB60F921BBE2F933F934F935F936F93BB
S1133C607F938F939F93AF93BF93CF93DF93EF9300
S1133C70FF938091C526181634F4E0E0FBE010A20F
S1133C8011A21092C526E9EDF6E28081982F9F5F7C
S1133C90908380FD12C0C0E0DBE028A139A140E0A0
S1133CA050E064E57AEE8AE290E00E94A339209322
S1133CB0D3263093D42618A219A2FF91EF91DF9155
S1133CC0CF91BF91AF919F918F917F916F915F91B0
S1133CD04F913F912F910F900BBE0F900ABE0F9002
S1133CE009BE0F9008BE0F900FBE0F901F9018953D
S1133CF01F920F920FB60F92112408B60F9218BE9E
S1133D0009B60F9219BE0AB60F921ABE0BB60F92DD
S1133D101BBE2F933F934F935F936F937F938F9328
S1133D209F93AF93BF93CF93DF93EF93FF938091D0
S1133D30C626181634F4E0E4FBE010A211A2109297
S1133D40C626EAEDF6E28081982F9F5F908380FD7E
S1133D5012C0C0E4DBE028A139A140E050E064E5F2
S1133D607AEE8AE290E00E94A3392093D52630931C
S1133D70D62618A219A2FF91EF91DF91CF91BF919E
S1133D80AF919F918F917F916F915F914F913F91EF
S1133D902F910F900BBE0F900ABE0F9009BE0F908B
S1133DA008BE0F900FBE0F901F9018951F920F9290
S1133DB00FB60F92112408B60F9218BEE0ECF7E08C
S1133DC06FE050E420E43FE1A8956583452FA89572
S1133DD0C9010197F1F74150D1F7A8956683452FA2
S1133DE0A895C9010197F1F74150D1F7EDCFEF92B2
S1133DF0FF920F931F93CF93DF9383E895E20E9482
S1133E00FD3320913A2730913B278217930709F419
S1133E1091C020913A2730913B2731FF06C091FF92
S1133E202FC703C027E120933C2720913A273091E4
S1133E303B2733FF3AC793FF2EC737C710923C275F
S1133E4034C7CF5FDF5FC930E1F39B010C2E02C0A2
S1133E50220F331F0A94E2F740913A2750913B27EF
S1133E6042235323452B09F45EC02E233F23232BE7
S1133E7009F026C758C000E020913827309139272F
S1133E802115324070F04091382750913927202F66
S1133E9030E03460240F351F2093382730933927BE
S1133EA031C020913827309139272F3F3105C1F097
S1133EB0B8F0E0903827F0903927402F50E0440FB5
S1133EC0551F9A01220F331F220F331F420F531F16
S1133ED052604E0D5F1D409338275093392712C00E
S1133EE04091382750913927452B61F4033028F449
S1133EF0109F90011124316001C09D012093382747
S1133F0030933927209138273091392721153440AF
S1133F1050F0209138273091392720933C27109274
S1133F20382710923927DB3008F48BCF80933A2757
S1133F3090933B2783E895E20E946C33E0913C2701
S1133F40F0E0E831F10508F089C6E650FF4F0C9423
S1133F50BF3926ED31E241E061E083E895E20E9459
S1133F60F132E0ECF7E060856170605D83E895E232
S1133F700E94DB332AEE31E241E062E083E895E21D
S1133F800E94F1322FEF31E241E063E083E895E2F1
S1133F900E94F13221E132E241E064E083E895E2FB
S1133FA00E94F13292C623E232E241E061E083E80A
S1133FB095E20E94F13225E332E241E062E083E8D7
S1133FC095E20E94F13225E432E241E063E083E8C5
S1133FD095E20E94F13223E532E241E064E083E8B5
S1133FE095E20E94F13271C624E632E241E061E0DA
S1133FF083E895E20E94F13225E732E241E062E093
S113400083E895E20E94F13225E832E241E063E080
S113401083E895E20E94F13229E932E241E064E06A
S113402083E895E20E94F13250C62EEA32E241E082
S113403061E083E895E20E94F13228EB32E241E04C
S113404062E083E895E20E94F13221EC32E241E041
S113405063E083E895E20E94F13229EC32E241E028
S113406064E083E895E20E94F1322FC62BED32E240
S113407041E061E083E895E20E94F13226C62EEE2B
S113408032E241E061E083E895E20E94F1322AEEF7
S113409031E241E062E083E895E20E94F13222E0FD
S11340A033E241E063E083E895E20E94F1322EE0DE
S11340B033E244E064E083E895E20E94F1326091E7
S11340C03C27605D83E895E20E94DB33FEC52FE167
S11340D033E241E061E083E895E20E94F13220910D
S11340E0AE273091AF274AE061E083E895E20E9471
S11340F03C3328E233E241E062E083E895E20E9447
S1134100F1322091B0273091B1274AE062E083E890
S113411095E20E943C3321E333E241E063E083E82B
S113412095E20E94F1322091B2273091B3274AE000
S113413063E083E895E20E943C332AE333E241E002
S113414064E083E895E20E94F1322091B427309133
S1134150B5274AE064E083E895E20E943C3320916D
S1134160DB2630E041E164E083E895E20E943C33E1
S1134170ACC52091AE273091AF278091AC279091A8
S1134180AD27280F391F41E061E083E895E20E94E2
S11341903C332091B0273091B1278091AC27909186
S11341A0AD27280F391F41E062E083E895E20E94C1
S11341B03C332091B2273091B3278091AC27909162
S11341C0AD27280F391F41E063E083E895E20E94A0
S11341D03C332091B4273091B5278091AC2790913E
S11341E0AD27280F391F41E064E083E895E20E947F
S11341F03C3323E433E249E061E083E895E20E9442
S1134200F1322091A8273091A92741E161E083E8A8
S113421095E20E943C332AE433E249E062E083E819
S113422095E20E94F1322091AA273091AB2741E117
S113423062E083E895E20E943C3321E533E249E001
S113424063E083E895E20E94F13283E795E20E94FD
S11342504F319C0141E163E083E895E20E943C33E5
S113426027E533E249E064E083E895E20E94F13215
S11342702091A5273091A62741E164E083E895E2E7
S11342800E943C3322C52CE533E241E061E083E83F
S113429095E20E94F132209173273091742747E010
S11342A061E083E895E20E943C3322E633E241E098
S11342B062E083E895E20E94F13220917527309103
S11342C0762747E062E083E895E20E943C3328E6E3
S11342D033E241E063E083E895E20E94F132209109
S11342E077273091782747E063E083E895E20E94DE
S11342F03C332EE633E241E064E083E895E20E9439
S1134300F1322091792730917A2747E064E083E8FD
S113431095E20E943C3324E733E24BE061E083E81A
S113432095E20E94F13220917B2730917C2741E174
S113433061E083E895E20E943C332AE733E24BE0F4
S113434062E083E895E20E94F13220917D2730916A
S11343507E2741E162E083E895E20E943C3320E855
S113436033E24BE063E083E895E20E94F13220916E
S11343707F273091802741E163E083E895E20E9442
S11343803C3326E833E24BE064E083E895E20E94A4
S1134390F132209181273091822741E164E083E862
S11343A095E20E943C3391C42CE533E241E061E0A4
S11343B083E895E20E94F1322091632730916427CB
S11343C047E061E083E895E20E943C3322E633E271
S11343D041E062E083E895E20E94F1322091652792
S11343E03091662747E062E083E895E20E943C331F
S11343F028E633E241E063E083E895E20E94F1328B
S1134400209167273091682747E063E083E895E2CD
S11344100E943C332EE633E241E064E083E895E217
S11344200E94F1322091692730916A2747E064E0C5
S113443083E895E20E943C3324E733E24BE061E0F9
S113444083E895E20E94F13220916B2730916C272A
S113445041E161E083E895E20E943C332AE733E2DC
S11344604BE062E083E895E20E94F13220916D27EF
S113447030916E2741E162E083E895E20E943C338B
S113448020E833E24BE063E083E895E20E94F132F6
S113449020916F273091702741E163E083E895E232
S11344A00E943C3326E833E24BE064E083E895E283
S11344B00E94F132209171273091722741E164E02A
S11344C083E895E20E943C3300C42CE833E241E0E7
S11344D061E083E895E20E94F13220915D273091FA
S11344E05E278091AA279091AB27280F391F4CE0B3
S11344F061E083E895E20E943C3329E933E241E03C
S113450062E083E895E20E94F13220915D273091C8
S11345105E274CE062E083E895E20E943C3326EAA1
S113452033E241E063E083E895E20E94F1322091B6
S11345306127309162274CE063E083E895E20E94B2
S11345403C3323EB33E241E064E083E895E20E94EC
S1134550F13220915F27309160274CE064E083E8DA
S113456095E20E943C3320EC33E241E161E083E8D0
S113457095E20E94F132209153273091542741E172
S113458062E083E895E20E943C3325EC33E241E1AA
S113459063E083E895E20E94F1322091552730E0F0
S11345A041E164E083E895E20E943C338EC32AEC47
S11345B033E241E061E083E895E20E94F13228EDC4
S11345C033E241E062E083E895E20E94F13226EEB4
S11345D033E241E063E083E895E20E94F132209106
S11345E0562730E04FE061E083E895E20E943C33D7
S11345F020915727309158274FE062E083E895E2F5
S11346000E943C3320913D2730E04FE063E083E893
S113461095E20E943C33C0EED6E02885217030E05C
S113462041E064E083E895E20E943C3328852295CA
S113463026952695237011E02127217030E045E06E
S113464064E083E895E20E943C33E0E2F7E02085F1
S113465026951227212F217030E049E064E083E899
S113466095E20E943C3328852295217030E04DE08C
S113467064E083E895E20E943C33288522FB2227EC
S113468020F930E041E164E083E895E20E943C33A4
S11346901CC324EF33E241E062E083E895E20E9428
S11346A0F13220914D2730914E274BE062E083E8B0
S11346B095E20E943C332FEF33E241E063E083E86C
S11346C095E20E94F13220914F27309150274BE020
S11346D063E083E895E20E943C332AE034E241E05F
S11346E064E083E895E20E94F132209151273091F1
S11346F052274BE064E083E895E20E943C3324E1D6
S113470034E24FE061E083E895E20E94F1322091C7
S11347107521309176214FE062E083E895E20E94B2
S11347203C332AE134E24FE063E083E895E20E94FF
S1134730F13220917721309178214FE064E083E8D1
S113474095E20E943C33C1C220E234E241E061E0E0
S113475083E895E20E94F1322CE234E241E062E027
S113476083E895E20E94F13228E334E241E063E019
S113477083E895E20E94F13225E434E241E064E00A
S113478083E895E20E94F13220914827309149272D
S11347904EE061E083E895E20E943C3320914A2791
S11347A030914B274EE062E083E895E20E943C336F
S11347B020917521309176214EE063E083E895E203
S11347C00E943C3320917721309178214EE064E0BF
S11347D083E895E20E943C3378C241E061E083E8DB
S11347E095E20E94B53360911725605D83E895E2F8
S11347F00E94DB3360911825605D83E895E20E9496
S1134800DB3360911925605D83E895E20E94DB3318
S113481060911A25605D83E895E20E94DB33609124
S11348201B25605D83E895E20E94DB3360911C25C3
S1134830605D83E895E20E94DB3360911D25605D35
S113484083E895E20E94DB336091FE24605D83E897
S113485095E20E94DB336091FF24605D83E895E27A
S11348600E94DB3360910025605D83E895E20E943D
S1134870DB3360910125605D83E895E20E94DB33C0
S113488060910225605D83E895E20E94DB336091CC
S11348900325605D83E895E20E94DB336091042583
S11348A0605D83E895E20E94DB332091162530E0B9
S11348B041E062E083E895E20E943C3320910525C3
S11348C030E04EE062E083E895E20E943C332091C0
S11348D0152530E041E063E083E895E20E943C3333
S11348E02091062530E04EE063E083E895E20E94E3
S11348F03C3341E064E083E895E20E94B533609183
S11349001425605D83E895E20E94DB3360911325F2
S1134910605D83E895E20E94DB3360911225605D5F
S113492083E895E20E94DB3360911125605D83E8A2
S113493095E20E94DB3360911025605D83E895E287
S11349400E94DB3360910F25605D83E895E20E944D
S1134950DB3360910E25605D83E895E20E94DB33D2
S113496060910D25605D83E895E20E94DB336091E0
S11349700C25605D83E895E20E94DB3360910B2592
S1134980605D83E895E20E94DB3360910A25605DF7
S113499083E895E20E94DB3360910925605D83E83A
S11349A095E20E94DB3360910825605D83E895E21F
S11349B00E94DB3360910725605D83E895E20E94E5
S11349C0DB3322E534E240E161E083E895E20E94D2
S11349D0F1322091FA2430E040E162E083E895E28C
S11349E00E943C3325E433E240E163E083E895E24E
S11349F00E94F1322091FC243091FD2440E164E0D6
S1134A0083E895E20E943C3360C128E534E241E04A
S1134A1061E083E895E20E94F13257C12FE634E267
S1134A2041E061E083E895E20E94F1322091AA27F7
S1134A303091AB2747E061E083E895E20E943C3384
S1134A402AE734E241E062E083E895E20E94F13231
S1134A5083E795E20E9401319C0148E062E083E82B
S1134A6095E20E943C3320E834E241E063E083E8CD
S1134A7095E20E94F13283E795E20E9405329C019F
S1134A8048E063E083E895E20E943C3327E834E29F
S1134A904BE061E083E895E20E94F13283E795E21E
S1134AA00E9465309C0141E161E083E895E20E9447
S1134AB03C332DE834E24BE062E083E895E20E9467
S1134AC0F13283E795E20E94B3309C0141E162E058
S1134AD083E895E20E943C33F8C023E934E241E0E4
S1134AE061E083E895E20E94F13227ED36E248E086
S1134AF061E083E895E20E943C332AE934E241E034
S1134B0062E083E895E20E94F1322FEC36E247E05E
S1134B1062E083E895E20E943C332FE934E241E00D
S1134B2063E083E895E20E94F13227EC36E247E045
S1134B3063E083E895E20E943C33C7C028EA34E28C
S1134B4041E061E083E895E20E94F1322091C126C0
S1134B503091C22648E061E083E895E20E943C334C
S1134B60B4C02EEA34E241E061E083E895E20E94B9
S1134B70F13222EB32E24FE061E083E895E20E94F9
S1134B80F13222EB34E241E062E083E895E20E94F4
S1134B90F13227EB34E24DE062E083E895E20E94D3
S1134BA0F1322CEB34E241E063E083E895E20E94C9
S1134BB0F13225EC34E24DE063E083E895E20E94B3
S1134BC0F1322AEC34E241E064E083E895E20E94A9
S1134BD0F1322091F42430E045E061E083E895E28D
S1134BE00E943C332091F6243091F72446E062E0A1
S1134BF083E895E20E943C332091FC243091FD240B
S1134C0042E162E083E895E20E943C332091012076
S1134C10332727FD30954AE063E083E895E20E945C
S1134C203C33209100202F3F39F08AE5280290017F
S1134C301124235D3F4F02C02FEF3FEF42E163E0B9
S1134C4083E895E20E943C332091F52430E048E06B
S1134C5064E083E895E20E943C3337C021ED34E2FE
S1134C6041E061E083E895E20E94F13220913C2723
S1134C7030E041E062E083E895E20E943C3325C0E5
S1134C8020913C27215020933C2720913C27283118
S1134C9008F0C8C8CAC820913C272F5F20933C273E
S1134CA020913C27283108F0C9C8D1E0C0E061E078
S1134CB070E0FC01E095F095A0E0B1E014E6C3C813
S1134CC0DA3008F0D8C80D2FD7C8DF91CF911F91E3
S1134CD00F91FF90EF900895CF92DF92EF92FF92A1
S1134CE0CF93DF93E0E2F7E0808581FD41C18091BD
S1134CF0612790916227813A9F4008F439C18091DD
S1134D005D2790915E2799235CF480915D279091B3
S1134D105E279195819591094E970CF431C128C174
S1134D2080915D2790915E274E970CF429C120C194
S1134D308091AA279091AB2791958195910921E0C3
S1134D40803591055CF020E009C08091AA279091FC
S1134D50AB2721E0803591050CF020E021110E9461
S1134D60580F40E050E862EA74E480E090E00E946A
S1134D703B0A1092A8271092A9271CC18091612791
S1134D8090916227813F9A4008F402C180915D2787
S1134D9090915E2799235CF480915D2790915E2722
S1134DA09195819591098D970CF4FBC0F1C0809188
S1134DB05D2790915E278D970CF4F3C0E9C0809134
S1134DC05D2790915E2740E050E066E974E48C52E0
S1134DD091400E943B0A1092A8271092A927EAC08A
S1134DE080915D2790915E27883B9F4F8CF4809142
S1134DF05D2790915E2740E050E066E974E4845DAD
S1134E009E4F0E943B0A1092A8271092A927D2C055
S1134E1080915D2790915E27992364F480915D27AA
S1134E2090915E2791958195910921E0409754F4E2
S1134E3020E008C080915D2790915E2721E0409793
S1134E400CF420E0222309F43FC0E0ECF7E0808575
S1134E5080FF1BC060915D2770915E27882777FDD6
S1134E608095982F0E94F63626E636E646EE5FE3F6
S1134E700E94C0380E94C336DC01CB0140E050E000
S1134E8061E674E40E943B0A1AC060915D27709148
S1134E905E27882777FD8095982F0E94F63626E6B0
S1134EA036E646EE5FE30E94C0380E94C336DC015A
S1134EB0CB0140E050E061E674E40E943B0A1092AA
S1134EC0A8271092A92776C080915D2790915E272C
S1134ED040E050E061E674E40E943B0A6BC0E0EC01
S1134EE0F7E0808580FD07C068E270E08AE590E025
S1134EF00E94B00B06C06EE170E08AE590E00E946B
S1134F00B00B1092A8271092A92754C08091612752
S1134F1090916227C0915D27D0915E2764E971E189
S1134F20681B790B80E090E00E94F4362DEC3CEC99
S1134F304CEC5EE30E94C0386B017C01BE01882703
S1134F4077FD8095982F0E94F6362DEC3CEC4CE8CA
S1134F505FE30E94C0380E94C336DC01CB01B70175
S1134F60A6010E943B0A1092A8271092A92722C0EA
S1134F708091612790916227893B9B4090F4FECEFB
S1134F808091AA279091AB2799230CF0DECED0CE46
S1134F9080916127909162278837910508F49FCF0B
S1134FA0B5CF80915D2790915E27893491050CF4EB
S1134FB017CF05CFDF91CF91FF90EF90DF90CF9087
S1134FC00895CF92DF92EF92FF92CF93DF93809177
S1134FD05525882309F455C1809161279091622752
S1134FE0813A9F4008F44DC180915D2790915E27DE
S1134FF099235CF480915D2790915E27919581952A
S11350009109CC970CF445C13CC180915D279091E6
S11350105E27CC970CF43DC134C18091AA279091AE
S1135020AB2791958195910921E0803591055CF03C
S113503020E009C08091AA279091AB2721E0803518
S113504091050CF020E0222309F442C140E050E82D
S113505062EA74E480E090E00E943B0A0E94580FE8
S113506037C18091612790916227813F9A4008F46B
S113507026C180915D2790915E2799235CF48091ED
S11350805D2790915E279195819591098D970CF4F8
S11350900DC115C180915D2790915E278D970CF409
S11350A005C10DC180915D2790915E2740E050E0DD
S11350B066E974E48C5291400E943B0A1092A8273E
S11350C01092A92705C180915D2790915E27883BA6
S11350D09F4F8CF480915D2790915E2740E050E0D3
S11350E066E974E4845D9E4F0E943B0A1092A827EF
S11350F01092A927EDC080915D2790915E27992396
S113510064F480915D2790915E2791958195910932
S113511021E0409754F420E008C080915D279091ED
S11351205E2721E040970CF420E0222309F455C0C7
S1135130E0ECF7E0808580FF1BC060915D277091F3
S11351405E27882777FD8095982F0E94F63626E6FD
S113515036E646EE5FE30E94C0380E94C336DC01A7
S1135160CB0140E050E061E674E40E943B0A1AC0BF
S113517060915D2770915E27882777FD8095982F31
S11351800E94F63626E636E646EE5FE30E94C03815
S11351900E94C336DC01CB0140E050E061E674E4D8
S11351A00E943B0A80914D2790914E27CC9738F46A
S11351B08CEE9FEF8093A8279093A92789C08091B4
S11351C0512790915227CC9708F082C084E190E057
S11351D08093A8279093A9277BC080915D27909105
S11351E05E2740E050E061E674E40E943B0A70C030
S11351F0E0ECF7E0808580FD07C068E270E08AE5B6
S113520090E00E94B00B06C06EE170E08AE590E089
S11352100E94B00B1092A8271092A92759C0809120
S1135220612790916227C0915D27D0915E2764E940
S113523071E1681B790B80E090E00E94F4362DEC5C
S11352403CEC4CEC5EE30E94C0386B017C01BE0177
S1135250882777FD8095982F0E94F6362DEC3CEC3C
S11352604CE85FE30E94C0380E94C336DC01CB01E6
S1135270B701A6010E943B0A1092A8271092A92701
S113528027C08091612790916227893B9B4070F4ED
S1135290E8CE8091DC268F5F8093DC268091AA275C
S11352A09091AB2799230CF0C5CEB7CE80915D27A2
S11352B090915E27893491050CF405CFF3CE80914B
S11352C06127909162278837910508F491CFA7CF81
S11352D0DF91CF91FF90EF90DF90CF900895809170
S11352E0612790916227843C994058F46EE170E004
S11352F08AE590E00E94B00B1092A8271092A9278B
S113530008958091752190917621CD970CF475C004
S11353108091752190917621883791050CF06DC0AC
S11353208091772190917821803591050CF45DC0AE
S113533064C080915D2790915E2791958195910934
S113534021E08A3591055CF020E009C080915D2759
S113535090915E2721E08A3591050CF020E022230C
S1135360D9F060915D2770915E27882777FD80953D
S1135370982F0E94F6362AE939E949E95FE30E9449
S1135380C0380E94C336DC01CB0140E050E066E93E
S113539074E40E943B0A089580915D2790915E27F2
S11353A0181619068CF480915D2790915E2740E0D1
S11353B050E066E974E48C5291400E943B0A1092DA
S11353C0A8271092A927089580915D2790915E27C0
S11353D040E050E066E974E4845D9E4F0E943B0A1D
S11353E01092A8271092A927089580915D27909183
S11353F05E2799230CF0AACF9CCF6EE170E08AE57A
S113540090E00E94B00B08951092A8271092A9274B
S113541040E050E0BA0180E090E00E943B0A089529
S1135420A89597E188ED0FB6F894A8958093340079
S1135430909380000FBEE0E5F0E083EC82838081EE
S11354408860808382EC8583818183FFFDCFE0E5E2
S1135450F0E080818061808388ED84BFE0E4F0E047
S11354601182E0E5F0E0818184FFFDCF88ED84BF07
S113547084E0809340002BE940EC60E974E08FEE17
S113548095E20E9461012BE940EC60EB74E086E850
S113549095E20E94610110922006A0E4B6E08BED33
S11354A08C938BE8809360068FE8809380068BE969
S11354B08093A00680EE96E0FC0110822FEF2093EB
S11354C00007C0E2D7E02CEF2883E0ECF7E010827D
S11354D028E1208B218B228B238BFC01268B88E0F7
S11354E08D83E0E0FAE081E0808383EF81838CEDBB
S11354F095E086A397A3E0E0F8E085E0808383E16C
S1135500818380E197E286A397A384EF91E080A74B
S113551091A782E015968C938091780083FF08C050
S113552081E0E0E0F7E0858388E08093780031C093
S11355308091780082FF08C082E0E0E0F7E0858394
S113554084E08093780025C08091780085FF0AC0AC
S1135550E0E0F7E081E0858382E0858380E2809368
S1135560780017C08091780084FF04C080E18093A4
S113557078000FC08091780081FF04C082E080939E
S1135580780007C08091780080FF03C081E0809399
S11355907800E0E4F8E037E03083118284E690E0BC
S11355A086A397A310A211A221E02683E0E0F9E0EC
S11355B0308311828FEF9FEF86A397A310A211A2CD
S11355C02683E0E4F9E03083118286A397A310A236
S11355D011A22683E0E0FBE03083118286A397A327
S11355E010A211A22683E0E4FBE03083118286A39B
S11355F097A310A211A2268380E090E00E94363A7D
S1135600282F392F2093A5273093A62780E590E0F3
S11356100E94363A282F392F2093A5273093A627A6
S11356208091A5279091A62781319E4024F0109265
S1135630A5271092A6270E94C907EE24E39400E050
S113564021E043E350E060EB7BE08CE097E20E94D2
S1135650B40200E121E043E350E060EA79E080EE47
S113566096E20E94B4020E948110F89487E0E0EA76
S1135670F0E082837894E0EEF6E0808582FF05C056
S113568061E083E895E20E948E3387E795E20E9409
S1135690BB348BE795E20E94BB348FE795E20E940E
S11356A0BB3483E895E20E94BB3487E795E20E940D
S11356B0E1348FE795E20E94E134E0ECF7E0808585
S11356C080FD41C0809195219091962180938327FC
S11356D09093842780919721909198218093852796
S11356E0909386278091992190919A21809387277E
S11356F09093882780919B2190919C218093892766
S113570090938A2780919D2190919E2180938B274D
S113571090938C2780919F219091A02180938D2735
S113572090938E278091A1219091A22180938F271D
S1135730909390278091A3219091A4218093912705
S11357409093922740C080918521909186218093E7
S11357508327909384278091872190918821809337
S11357608527909386278091892190918A2180931F
S113577087279093882780918B2190918C21809307
S1135780892790938A2780918D2190918E218093EF
S11357908B2790938C2780918F21909190218093D7
S11357A08D2790938E2780919121909192218093BF
S11357B08F279093902780919321909194218093A7
S11357C09127909392270E946A081092A82710921A
S11357D0A92740E050E0BA0180E090E00E94DE0892
S11357E01092FB24C0EED6E0BB24B3940F2EFAE64D
S11357F0AF2EF02D0F2EFEEACF2EF7E2DF2EF02D86
S11358000F2EF0EB8F2EF7E29F2EF02D0F2EF2EBE2
S11358106F2EF7E27F2EF02D0F2EF4EB4F2EF7E2D2
S11358205F2EF02D0F2EF0E22F2EF7E03F2EF02DFD
S1135830A895888583FF03C0B0923D2702C01092CB
S11358403D27888581FF05C080913D278E5F809329
S11358503D2780915627882329F080913D27813068
S113586009F4C8C3888580FF1092DB268091FB244D
S1135870882359F08091FC249091FD2440E050E865
S11358806BEB74E40E94DE0822C080913D278111F5
S113589003C00E946C261BC080913D27813019F4FF
S11358A00E946F2914C080913D27823019F40E9410
S11358B0E1270DC00E94042A888580FD05C08091DF
S11358C0552581110E94740F8A2D8A95F1F78885D8
S11358D082FFAECF888580FF90C3AACFE12CF12C44
S11358E0F701EE0FFF1FED58F84D008111816CE7B1
S11358F08CE097E20E944F036E2D60568CE097E295
S11359000E944F03B801729562956F7067277F708C
S113591067278CE097E20E944F0366E28CE097E2EF
S11359200E944F038AE090E00E94CD0E2FEFE21A0E
S1135930F20A88E0E816F10499F67ACF00919B27E1
S113594010919C276CE78CE097E20E944F0361EB77
S11359508CE097E20E944F03C801992314F481500C
S11359609F4F692F772767FD7A958CE097E20E9415
S11359704F0366E28CE097E20E944F038AE090E0D6
S11359800E94CD0EEDE4F7E2008111816CE78CE01A
S113599097E20E944F0363EB8CE097E20E944F036F
S11359A0B801769567958CE097E20E944F0366E212
S11359B08CE097E20E944F038AE090E00E94CD0EB3
S11359C0EFE4F7E2008111816CE78CE097E20E943A
S11359D04F0364EB8CE097E20E944F03B801769585
S11359E067958CE097E20E944F0366E28CE097E2B1
S11359F00E944F038AE090E00E94CD0EE1E5F7E2B9
S1135A00008111816CE78CE097E20E944F0365EB03
S1135A108CE097E20E944F03B801769567958CE07D
S1135A2097E20E944F0366E28CE097E20E944F03E4
S1135A308AE090E00E94CD0EFBCE00915D2710918C
S1135A405E276CE78CE097E20E944F0360EC8CE0E9
S1135A5097E20E944F03C80199230CF40196BC01FC
S1135A60759567958CE097E20E944F0366E28CE09F
S1135A7097E20E944F038AE090E00E94CD0EE5E792
S1135A80F1E2008111816CE78CE097E20E944F0300
S1135A9062EC8CE097E20E944F03602F8CE097E267
S1135AA00E944F0366E28CE097E20E944F038AE073
S1135AB090E00E94CD0EE7E7F1E2008111816CE7EE
S1135AC08CE097E20E944F0363EC8CE097E20E9423
S1135AD04F03602F8CE097E20E944F0366E28CE054
S1135AE097E20E944F038AE090E00E94CD0E00915D
S1135AF0A8271091A9276CE78CE097E20E944F0336
S1135B0064EC8CE097E20E944F03C80199230CF4E3
S1135B100196BC01759567958CE097E20E944F034E
S1135B2066E28CE097E20E944F038AE090E00E94D4
S1135B30CD0E0091AA271091AB276CE78CE097E279
S1135B400E944F0365EC8CE097E20E944F03C8016A
S1135B5099230CF40196BC01759567958CE097E246
S1135B600E944F0366E28CE097E20E944F038AE0B2
S1135B7090E00E94CD0E10913D276CE78CE097E2F7
S1135B800E944F0366EC8CE097E20E944F03612F62
S1135B908CE097E20E944F0366E28CE097E20E9459
S1135BA04F038AE090E00E94CD0E0091942710915B
S1135BB095276CE78CE097E20E944F0367EC8CE03A
S1135BC097E20E944F03602F8CE097E20E944F03FC
S1135BD066E28CE097E20E944F038AE090E00E9424
S1135BE0CD0E00916127109162276CE78CE097E25B
S1135BF00E944F0368EC8CE097E20E944F039801E7
S1135C00ABEABAEA0E94C539BC01729562956F701D
S1135C1067277F7067278CE097E20E944F0366E254
S1135C208CE097E20E944F038AE090E00E94CD0E40
S1135C30109155256CE78CE097E20E944F0369ECC4
S1135C408CE097E20E944F03612F8CE097E20E9460
S1135C504F0366E28CE097E20E944F038AE090E0F3
S1135C600E94CD0EE5CD18856CE78CE097E20E948A
S1135C704F0360ED8CE097E20E944F03612F617047
S1135C808CE097E20E944F0366E28CE097E20E9468
S1135C904F038AE090E00E94CD0E18856CE78CE0FB
S1135CA097E20E944F0361ED8CE097E20E944F035C
S1135CB012FB662760F98CE097E20E944F0366E2CC
S1135CC08CE097E20E944F038AE090E00E94CD0EA0
S1135CD018856CE78CE097E20E944F0362ED8CE03C
S1135CE097E20E944F0314FB662760F98CE097E269
