:100000000C942E010C9435220C9462010C94620124
:100010000C9462010C9462010C9462010C946201D4
:100020000C9462010C9462010C9462010C946201C4
:100030000C9462010C9462010C9462010C946201B4
:100040000C9462010C9462010C9462010C946201A4
:100050000C9416130C9462010C9462010C946201CE
:100060000C949C1F0C9446100C9462010C94620139
:100070000C9462010C9462010C9462010C94620174
:100080000C9462010C9462010C94BD200C941B2111
:100090000C9462010C9462010C9462010C9461084E
:1000A0000C9462010C9462010C9462010C9479210D
:1000B0000C94D7210C9462010C9462010C9462019F
:1000C0000C9462010C9462010C9462010C94620124
:1000D0000C9462010C9462010C9462010C94620114
:1000E0000C9462010C9462010C9462010C94620104
:1000F0000C9462010C949A030C94A3070C94620173
:100100000C9462010C9462010C9462010C946201E3
:100110000C9462010C9462010C9462010C94080826
:100120000C9462010C9462010C9462010C946201C3
:100130000C94321F0C9411200C9462010C946201F7
:100140000C9462010C9462010C9462010C943C20AA
:100150000C9462010C9462010C9462010C94620193
:100160000C94111F0C94DC1E0C9462010C949F11D2
:100170000C9462010C9462010C9462010C94620173
:100180000C9462010C9462010C9462010C94620163
:100190000C9462010C9462010C9462010C94620153
:1001A0000C9462010C9462010C9462010C94671F20
:1001B0000C9467200C9462010C9462010C9462010F
:1001C0000C9462010C9462010C9492200C946201D4
:1001D0000C9462010C9462010C9462010C94620113
:1001E0000C9462010C9462010C9462010C94A71EA1
:1001F0000C9462011123432364238523A623AF2398
:10020000AF23AF23AF23AF23D7232024AA243B253A
:10021000CC253826A82603274C276428A52815298D
:1002200046295929D629672A8C2A084AD73B3BCE2A
:10023000016E84BCBFFDC12F3D6C74319ABD5683E5
:100240003DDA3D00C77F11BED9E4BB4C3E916BAA9D
:10025000AABE000000803F0023392A3911241FBEA6
:10026000CFEFDFE2DEBFCDBF18BE19BE1ABE1BBE88
:1002700015E2A0E0B0E2EAE8F6E800E00BBF02C059
:1002800007900D92A435B107D9F71BBE28E2A4E56B
:10029000B5E201C01D92A133B207E1F712E0CAE551
:1002A000D2E000E006C022970109FE010BBF0E94C8
:1002B0008142C835D10780E00807A9F70E942A3794
:1002C0000C9433430C940000FC01608371834863F9
:1002D000DB0111964C93A081B18115962C9301906E
:1002E000F081E02D81E0848308950F93213208F09E
:1002F00051C0013408F050C0FC01E959FF4F308172
:1003000031114CC0FC01E959FF4F31E03083FC0151
:10031000E859FF4F1082222371F0E42FF52F40E0BF
:1003200050E03191DC01A40FB51F13963C934F5F51
:100330005F4F4217B0F3DC0112966C931297FC01E9
:10034000ED59FF4F2083AC59BF4F0C93DC01AB59E3
:10035000BF4F1C92DC01AA59BF4F1C92208122235F
:1003600049F0FC0122812E7F0190F081E02D26834F
:1003700081E017C0FC01EC59FF4F2081222381F05E
:10038000DC0112962C9112972160ED91FC9126834D
:1003900081E007C080E005C080E003C080E001C0CC
:1003A00081E00F910895FC01E959FF4F208121114F
:1003B00025C0FC01E959FF4F21E02083FC01E859E9
:1003C000FF4F1082DC0112966C93FC01ED59FF4F38
:1003D0001082FC01EC59FF4F1082FC01EB59FF4FDA
:1003E0001082FC01EA59FF4F1082FC0122812E7F0E
:1003F0000190F081E02D268381E0089580E008954A
:10040000DC01ED91FC911197248122FF05C0A859D0
:10041000BF4F34E03C9305C0DC01A859BF4F33E027
:100420003C9328602483FC01E959FF4F1082089512
:10043000FC01E859FF4F6083FC01E959FF4F10822E
:100440000895CF93DF93EC01FC01EA59FF4F8081BF
:10045000803480F4E881F9818781FE01EA59FF4FF9
:100460009081DE01A90FB11D93968C9380818F5FDF
:10047000808308C0E881F98183E0838362E0CE0154
:100480000E941802FE01EC59FF4F9081FE01EA59CB
:10049000FF4F8081891728F4E881F98182E0838306
:1004A00008C0E881F98187E0838361E0CE010E9482
:1004B0001802DF91CF910895CF93DF93FC01ED599E
:1004C000FF4F3081FC01EC59FF4F4081DC01ED9181
:1004D000FC91248124FF0CC023E02383FC01E85914
:1004E000FF4F25E02083FC01E959FF4F108224C013
:1004F000DC01AB59BF4F2C91231768F4DC01AB59D9
:10050000BF4F2C91EC01C20FD11D8B8187838C9141
:100510008F5F8C9311C0DC01AA59BF4F2C91241717
:1005200030F4DC0112968C918160868305C023E053
:10053000238361E00E941802DF91CF910895DC01CE
:10054000ED91FC912481322F3C7019F00E94000241
:10055000089526FF03C00E945C02089522231CF424
:100560000E942102089566E00E9418020895EF9209
:100570000F93CF93DF93FC01DB01EE2009F457C00A
:10058000603A88E0780739F4C0E4D6E088E08983EF
:1005900084E08A834CC0603B88E0780739F4C0E48B
:1005A000D6E080E8898380E48A8341C0603A89E0AC
:1005B000780739F4C0E6D6E088E0898384E08A834E
:1005C00036C0603B89E0780739F4C0E6D6E080E8C1
:1005D000898380E48A832BC0603A8AE0780739F403
:1005E000C0E8D6E088E0898384E08A8320C0603B4D
:1005F0008AE0780739F4C0E8D6E080E8898380E4AF
:100600008A8315C0603A8BE0780739F4C0EAD6E0F7
:1006100088E0898384E08A830AC0603B8BE07807A6
:1006200031F4C0EAD6E080E8898380E48A83A0833D
:10063000B183228315A216A213A214A211A612A698
:1006400017A210A683E015968C9315970073139646
:100650000C931397552374F414968C91149784601B
:1006600014968C9314975F7716964C93169717965B
:100670005C9305C016964C93169717965C93A081D1
:10068000B18114968C911497806114968C9301908B
:10069000F081E02D848188608483DF91CF910F9178
:1006A000EF900895FC0187A190A521A532A58F5F49
:1006B000982F9F7081E0921301C080E08823C1F0E1
:1006C00027A130A53327DF01A20FB31F53966C93E8
:1006D0002F5F3F4F2F70332727A330A7A081B18111
:1006E00013969C9113979C7F2281922B13969C9337
:1006F0000895FC0181A592A527A130A59927281767
:10070000390739F40190F081E02D83818C7F838358
:100710000895A1A5B2A5AE0FBF1F53968C91A081DD
:10072000B1818C9381A592A501968F70992781A79D
:1007300092A708951F920F920FB60F92112408B638
:100740000F9218BE09B60F9219BE0AB60F921ABEC2
:100750000BB60F921BBECF92DF92EF92FF920F93D8
:100760001F932F933F934F935F936F937F938F9339
:100770009F93AF93BF93EF93FF93CF93DF93CDB747
:10078000DEB7C054D109CDBFDEBFE0917E25F09128
:100790007F254081809159258230D1F130F4882322
:1007A00059F0813009F075C01DC0833009F446C08E
:1007B000843009F06EC058C080E090E0642F70E093
:1007C0009B01082E02C0359527950A94E2F7217007
:1007D0003327FC01E25AFA4D2083019686309105B9
:1007E00079F757C080E090E0642F70E09B01082EFD
:1007F00002C0359527950A94E2F721703327FC0152
:10080000EC59FA4D208301968730910579F741C064
:1008100080E090E0642F70E09B01082E02C03595C7
:1008200027950A94E2F721703327FC01E559FA4D28
:10083000208301968630910579F72BC080E090E007
:10084000642F70E09B01082E02C0359527950A940D
:10085000E2F721703327FC01EF58FA4D208301960F
:100860008730910579F715C080E090E0642F70E043
:100870009B01082E02C0359527950A94E2F7217056
:100880003327FC01E858FA4D208301968630910504
:1008900079F78091592581110DC0842F90E0082EA1
:1008A000892F000C881F990B000C881F991F029735
:1008B00009F024C380915925843009F0EFC2842FB8
:1008C00090E0082E892F000C881F990B000C881FC0
:1008D000991F039709F012C3E1C210925925FE0136
:1008E000319680E4DF011D928A95E9F7CE2EDF2E46
:1008F0007F0100E010E0B801882777FD8095982FF0
:100900000E94A63F20E030E044E351E40E947041A1
:1009100020E030E044EB50E40E942E3E0E94733F02
:10092000F701619371937F010F5F1F4F0032110533
:1009300011F7EC2DFD2D80E090E06FEF7FEFDC01F3
:10094000A25ABA4D2C91222331F0208131816217B5
:1009500073070CF4B901019632968032910579F74C
:100960006F3FFFEF7F0709F055C085E28093542564
:10097000A6C0DC01A25ABA4D2C91222351F1F110EC
:100980000BC020813181DB01A21BB30B9D0172F4EE
:100990003195219531090AC020813181D801A21BEE
:1009A000B30B9D011AF4319521953109243B310592
:1009B0001CF0BE2DB21B2B2F30E0421753074CF416
:1009C000F11004C000811181A90103C0608171810F
:1009D000A901019632968032910559F60F3FEFEF4B
:1009E0001E0799F4882777FD8095982F0E94A63FCF
:1009F0002DEC3CEC4CEC5DE30E9470410E94D34135
:100A00000E94783F609354255AC0F394F2E0FF129D
:100A10000AC04DC2F12C40E050E00FEF1FEF0F2E47
:100A2000F8E6EF2EF02DEC2DFD2D80E090E0A1CF2B
:100A3000962F872FB801092F182FCB01801B910B00
:100A4000853B9105BCF028E631E08901081B190BB4
:100A5000C80195958795680F791F882777FD809540
:100A6000982F0E94A63F2DEC3CEC4CEC5DE30E94DD
:100A7000704110C095958795681B790B882777FD85
:100A80008095982F0E94A63F2DEC3CEC4CEC5DE34A
:100A90000E9470410E94D3410E94783F6093542588
:100AA0009091542589E3989F812D112486958695F0
:100AB000869514E2819F901911249093542580917A
:100AC0005425853209F054C080915525882309F4B6
:100AD00041C0809100208F3FA9F02091C427309120
:100AE000C5274AE58402C00111248F519F4F68E653
:100AF00071E00E943F42821B930B80935C25909390
:100B00005D2516C02091C4273091C5278091012012
:100B10005AE58502C00111248C549F4F68E671E0AC
:100B20000E943F42821B930B80935C2590935D252E
:100B300080915C2590915D25919581959109809397
:100B40005C2590935D2584E080935B25E0E0F7E0F1
:100B50008583D4C18FEF80930120809302208093FE
:100B6000002010925B2584E0E0E0F7E08683C6C1B8
:100B700084E0E0E0F7E08583209154254091C4278C
:100B80005091C527822F90E09C01220F331FC9018D
:100B9000880F991F880F991F820F931F840F951F2D
:100BA00099232CF0809356259093572506C0885999
:100BB0009E4F80935625909357258091562590916E
:100BC000572568E671E00E943F42482F592F8093D5
:100BD000562590935725809102208F3FD9F4842F7A
:100BE0009C012D5231092A35310568F09C012758A6
:100BF00031092A35310548F0815E91098A35910520
:100C000030F483E005C081E003C082E001C080E0F1
:100C100080930220809100208F3F49F5842F952FEB
:100C20009C012E5131092E31310508F44BC19C0134
:100C3000225D31092E31310508F444C19C01285749
:100C400031092E31310508F437C18C5291404E974D
:100C500008F432C18FEF09C0833011F081E005C084
:100C600083E003C083E001C082E080930020A09174
:100C700001208A2F992787FD9095242F352FF90180
:100C8000BD97EA35F10508F42EC1A901475851096D
:100C90004A35510508F41EC1B901615E71096A3512
:100CA000710508F019C163E018C1A901475851093D
:100CB0004A35510540F0A901415E51094A355105B7
:100CC00020F443E005C042E003C040E001C041E041
:100CD000BC01641B710962307105C1F414C04A354E
:100CE000510540F0A901415E51094A35510520F4F2
:100CF00043E003C042E001C040E050E0481B590B14
:100D00004230510519F4AF3F09F0F4C0EA35F1055E
:100D100070F0A901475851094A35510550F0A90111
:100D2000415E51094A35510530F443E005C041E0C8
:100D300003C042E001C040E050E08417950711F481
:100D400010925525409100204F3F79F1EA35F10589
:100D500070F0C901875891098A35910550F0C90191
:100D6000815E91098A35910530F483E005C081E008
:100D700003C082E001C080E0582F481769F099272E
:100D800087FD9095841B910947FD9395019721F06C
:100D9000433031F4511104C01092552540E033C066
:100DA00081E08093552541E004C0409155254423BE
:100DB00051F150915425852F90E0880F991FBC0167
:100DC000660F771F660F771F860F971FEA35F105AD
:100DD00068F0B901675871096A35710548F0215EFC
:100DE00031092A35310530F423E005C021E003C084
:100DF00022E001C020E030E02E5F3F4F23703078CA
:100E0000209301202AC050915425852F90E0880F0F
:100E1000991FBC01660F771F660F771F860F971FFC
:100E20008C549F4F68E671E00E943F42EA35F1051D
:100E300068F0B901675871096A35710548F0215E9B
:100E400031092A35310530F423E005C021E003C023
:100E500022E001C020E020930120853B910514F0A1
:100E60008856914091958195910980935C25909346
:100E70005D25442311F083E001C082E080935B256F
:100E8000809158258F5F8093582585FF37C088ED66
:100E900084BF81E0E8E7F0E0818330C0809159258C
:100EA0008F5F80935925853008F017CD27C06017D4
:100EB00071070CF4BDCDC1CD80910220882309F4C7
:100EC000D1CECACE809102208250823008F4CCCE9E
:100ED00080E0CBCE62E001C060E08C01061B11090E
:100EE0000AF0E3CEFCCEAC01415051090AF0EFCE3E
:100EF00041E003CF41E04093552508CFC05CDF4F70
:100F0000CDBFDEBFDF91CF91FF91EF91BF91AF9148
:100F10009F918F917F916F915F914F913F912F9111
:100F20001F910F91FF90EF90DF90CF900F900BBE2D
:100F30000F900ABE0F9009BE0F9008BE0F900FBE13
:100F40000F901F9018951F920F920FB60F921124B9
:100F500008B60F9218BE09B60F9219BE0BB60F92C3
:100F60001BBE2F933F934F935F936F937F938F930A
:100F70009F93AF93BF93EF93FF938EE795E20E9409
:100F80007903FF91EF91BF91AF919F918F917F91E5
:100F90006F915F914F913F912F910F900BBE0F90EA
:100FA00009BE0F9008BE0F900FBE0F901F901895AE
:100FB000EF920F93EE24E39400E322E049E150E046
:100FC00060EB7AE08EE795E20E94B7020F91EF9016
:100FD0000895811108C060E08EE795E20E945203F7
:100FE0001092A92508959091A9259F5F9093A92516
:100FF000963068F0813031F46AEA8EE795E20E941B
:101000005203089565E58EE795E20E945203089524
:101010001F920F920FB60F92112408B60F9218BEAE
:1010200009B60F9219BE0AB60F921ABE0BB60F92EE
:101030001BBE2F933F938F939F93AF93BF93CF93F9
:10104000DF93EF93FF93A091A527B0E0E0E0F2E0FB
:1010500084A195A1C091A527D0E0CC0FDD1FCB5670
:10106000D84D28813981821B930BAA0FBB1FAB5728
:10107000B84D8D939C938091A5278F5F8770809347
:10108000A5278091A527880F880F880F81A380A1AD
:10109000806880A3FF91EF91DF91CF91BF91AF91D5
:1010A0009F918F913F912F910F900BBE0F900ABE91
:1010B0000F9009BE0F9008BE0F900FBE0F901F90AB
:1010C00018951F920F920FB60F92112408B60F9227
:1010D00018BE0F9008BE0F900FBE0F901F9018956E
:1010E000AAECB1E022E02C93FC0184911C9290E0E8
:1010F0000895CF93DF9380E290E00E947008C0E0F3
:10110000D2E08C8781E290E00E9470088D8780E2B7
:1011100090E00E9470088C8781E290E00E94700845
:101120008D8781E088A319A2198296E09C8390E3C1
:101130009A831B829FE09E838AA3888388A180680C
:1011400088A3DF91CF910895AB01772324F444273E
:101150005527461B570B242F352F2D3D95E039077A
:1011600010F02CED35E01616170694F440E150E02F
:10117000082E02C0440F551F0A94E2F7E0E2F7E0A0
:1011800045834CED55E0BA01621B730B9B010BC00C
:1011900040E150E0082E02C0440F551F0A94E2F7C8
:1011A000E0E2F7E04683811105C0E0E0FAE020A725
:1011B00031A70895813029F4E0E0FAE022A733A7AF
:1011C0000895823029F4E0E0FAE024A735A70895D5
:1011D000E0E0FAE026A737A708952F923F924F92BA
:1011E0005F926F927F928F929F92AF92BF92CF92B7
:1011F000DF92EF92FF920F931F93CF93DF93CDB7C0
:10120000DEB7A697CDBFDEBF1C0180E1E0EBF1E2C7
:10121000DE01519601900D928A95E1F780E1E0ECB4
:10122000F1E2DE01119601900D928A95E1F7CE016F
:1012300041968BA39CA3FE013196E9A3FAA300E09B
:1012400010E02DA23EA25101FAE5AF0EB11C2A0119
:101250003B0104C18DA19EA188599E4FEAF38936B6
:1012600021E0920734F0885691408936E1E09E07EC
:10127000D4F78A35910564F4FC01EE0FFF1FEE0FE1
:10128000FF1FE75FFF4D208131814281538136C0CE
:10129000843B91057CF4E4EBF0E0E81BF90BEE0FE6
:1012A000FF1FEE0FFF1FE75FFF4D2081318142815D
:1012B000538124C08E30F1E09F077CF4FC01EE0FD7
:1012C000FF1FEE0FFF1FE75CF24E80819181A2812C
:1012D000B3819C01AD01505811C0E8E6F1E0E81B74
:1012E000F90BEE0FFF1FEE0FFF1FE75FFF4D808131
:1012F0009181A281B3819C01AD0150587801E9A18F
:10130000FAA16191719181919191E9A3FAA30E944F
:101310007041A30192010E947041862E972EC82E23
:10132000D92EC501BB201CF488599E4FEAF389369B
:10133000F1E09F0734F088569140893621E092070A
:10134000D4F78A35910564F4FC01EE0FFF1FEE0F10
:10135000FF1FE75FFF4D208131814281538136C0FD
:10136000843B91057CF4E4EBF0E0E81BF90BEE0F15
:10137000FF1FEE0FFF1FE75FFF4D2081318142818C
:10138000538124C08E30E1E09E077CF4FC01EE0F17
:10139000FF1FEE0FFF1FE75CF24E80819181A2815B
:1013A000B3819C01AD01505811C0E8E6F1E0E81BA3
:1013B000F90BEE0FFF1FEE0FFF1FE75FFF4D808160
:1013C0009181A281B3819C01AD015058EBA1FCA198
:1013D0006191719181919191EBA3FCA30E94704165
:1013E000A30192010E9470419B01AC01682D792DEF
:1013F0008C2D9D2D0E942E3E862E972EC82ED92EE6
:1014000020E030E0A9010E94CE4018166CF420E0E4
:1014100030E040E05FE3682D792D8C2D9D2D0E94FA
:101420002E3E0E94E13F0CC020E030E040E05FE350
:10143000682D792D8C2D9D2D0E942D3E0E94F43E0D
:101440000E94733FF701EE0FFF1FE853F84D6083D2
:1014500071830F5F1F4F0430110531F033200CF4FE
:10146000F9CE8DA19EA1FBCEA696CDBFDEBFDF91AA
:10147000CF911F910F91FF90EF90DF90CF90BF9091
:10148000AF909F908F907F906F905F904F903F9024
:101490002F9008952F923F924F925F926F927F927A
:1014A0008F929F92AF92BF92CF92DF92EF92FF9274
:1014B0000F931F93CF93DF93CDB7DEB7A697CDBF22
:1014C000DEBF8C016A017B0180E1E0EBF1E2DE012D
:1014D000519601900D928A95E1F780E1E0ECF1E2FE
:1014E000DE01119601900D928A95E1F7053B1105F9
:1014F0002CF008561140053B1105DCF70C342FEF9A
:1015000012070CF02AC108591E4F0C348FEF180730
:10151000D4F323C18DA19EA188599E4FEAF3893649
:10152000E1E09E0734F0885691408936F1E09F074C
:10153000D4F78A35910564F4FC01EE0FFF1FEE0F1E
:10154000FF1FE75FFF4D208131814281538136C00B
:10155000843B91057CF4E4EBF0E0E81BF90BEE0F23
:10156000FF1FEE0FFF1FE75FFF4D2081318142819A
:10157000538124C08E3021E092077CF4FC01EE0FF1
:10158000FF1FEE0FFF1FE75CF24E80819181A28169
:10159000B3819C01AD01505811C0E8E6F1E0E81BB1
:1015A000F90BEE0FFF1FEE0FFF1FE75FFF4D80816E
:1015B0009181A281B3819C01AD0150587501E9A1CF
:1015C000FAA16191719181919191E9A3FAA30E948D
:1015D0007041A30192010E947041862E972EC82E61
:1015E000D92EC10133201CF488599E4FEAF3893665
:1015F000F1E09F0734F088569140893621E0920748
:10160000D4F78A35910564F4FC01EE0FFF1FEE0F4D
:10161000FF1FE75FFF4D208131814281538136C03A
:10162000843B91057CF4E4EBF0E0E81BF90BEE0F52
:10163000FF1FEE0FFF1FE75FFF4D208131814281C9
:10164000538124C08E30E1E09E077CF4FC01EE0F54
:10165000FF1FEE0FFF1FE75CF24E80819181A28198
:10166000B3819C01AD01505811C0E8E6F1E0E81BE0
:10167000F90BEE0FFF1FEE0FFF1FE75FFF4D80819D
:101680009181A281B3819C01AD015058EBA1FCA1D5
:101690006191719181919191EBA3FCA30E947041A2
:1016A000A30192010E9470419B01AC01682D792D2C
:1016B0008C2D9D2D0E942E3E862E972EC82ED92E23
:1016C00020E030E0A9010E94CE4018166CF420E022
:1016D00030E040E05FE3682D792D8C2D9D2D0E9438
:1016E0002E3E0E94E13F0CC020E030E040E05FE38E
:1016F000682D792D8C2D9D2D0E942D3E0E94F43E4B
:101700000E94733FF701EE0FFF1FE853F84D60830F
:10171000718380915B25882399F0F701EE0FFF1FFD
:10172000E853F84D8081918199230CF401969595A9
:101730008795F701EE0FFF1FE853F84D80839183E3
:10174000FFEFAF1ABF0A24E0A216B104C9F01123BB
:101750000CF4E0CE8DA19EA1E2CECE0141968BA3EA
:101760009CA3FE013196E9A3FAA3A12CB12C0DA3F1
:101770001EA31801FAE52F0E311C26013701E7CF11
:10178000A696CDBFDEBFDF91CF911F910F91FF9045
:10179000EF90DF90CF90BF90AF909F908F907F9011
:1017A0006F905F904F903F902F9008952F923F92AF
:1017B0004F925F926F927F928F929F92AF92BF9261
:1017C000CF92DF92EF92FF920F931F93CF93DF930D
:1017D000CDB7DEB7A897CDBFDEBF5C016B0180E15E
:1017E000E0EDF1E2DE01519601900D928A95E1F76C
:1017F00080E1E0ECF1E2DE01119601900D928A9514
:10180000E1F7E0907521F0907621EA18FB0800914D
:10181000772110917821061B170B8091D02790918A
:10182000AA25981709F445C1609175217091762118
:101830006A197B09882777FD8095982F0E94A63F1B
:101840002DEC3CEC4CE45BE30E9470412091AB2515
:101850003091AC254091AD255091AE250E942E3E91
:10186000662E772E882E992E20E030E048EC52E448
:101870000E94CE4018166CF480E090E0A8ECB2E430
:101880008093AB259093AC25A093AD25B093AE2566
:1018900025C020E030E048EC52EC662D772D882DF5
:1018A000992D0E94073F88236CF0862D972DA82D37
:1018B000B92D8093AB259093AC25A093AD25B09323
:1018C000AE250CC080E090E0A8ECB2EC8093AB2594
:1018D0009093AC25A093AD25B093AE256091752172
:1018E000709176216A197B09882777FD8095982F5A
:1018F0000E94A63F2091AB253091AC254091AD25AB
:101900005091AE250E94704120E030E0A9010E9474
:10191000073F181644F01092AB251092AC25109298
:10192000AD251092AE2560917721709178216C19C8
:101930007D09882777FD8095982F0E94A63F2DEC82
:101940003CEC4CE45BE30E9470412091AF25309168
:10195000B0254091B1255091B2250E942E3E862E91
:10196000972EA82EB92E20E030E048EC52E40E94D9
:10197000CE4018166CF480E090E0A8ECB2E48093BE
:10198000AF259093B025A093B125B093B22525C083
:1019900020E030E048EC52EC682D792D8A2D9B2D0B
:1019A0000E94073F88236CF0882D992DAA2DBB2D0E
:1019B0008093AF259093B025A093B125B093B22525
:1019C0000CC080E090E0A8ECB2EC8093AF2590933F
:1019D000B025A093B125B093B22560917721709185
:1019E00078216C197D09882777FD8095982F0E94B2
:1019F000A63F2091AF253091B0254091B12550915F
:101A0000B2250E94704120E030E0A9010E94073F0A
:101A1000181644F01092AF251092B0251092B125FF
:101A20001092B2258091032090910420B701681B89
:101A3000790B882777FD8095982F0E94A63F20E09C
:101A400030E040E852E40E94704120E030E040EA9B
:101A500050E40E947041462E572E882E992E809178
:101A6000052090910620B801681B790B882777FD27
:101A70008095982F0E94A63F20E030E040E852E495
:101A80000E94704120E030E040EA50E40E94704142
:101A9000662E772EA82EB92EE0920320F092042015
:101AA00000930520109306208091D0278093AA25CB
:101AB00008C0612C712CA12CB12C412C512C812CF3
:101AC000912CB701882777FD8095982F0E94A63F1B
:101AD00020E030E040E451E40E9470416B017C0161
:101AE00020E030E040EA50E46091AB257091AC25F5
:101AF0008091AD259091AE250E9470419B01AC0173
:101B0000C701B6010E942E3E6B017C012DEC3CEC1E
:101B10004CEC5EE3642D752D882D992D0E9470414B
:101B20009B01AC01C701B6010E942E3E262E372E26
:101B3000882E992EB801882777FD8095982F0E94CE
:101B4000A63F20E030E040E451E40E9470416B0188
:101B50007C0120E030E040EA50E46091AF257091D4
:101B6000B0258091B1259091B2250E9470419B01D2
:101B7000AC01C701B6010E942E3E6B017C012DEC29
:101B80003CEC4CEC5EE3662D772D8A2D9B2D0E945C
:101B900070419B01AC01C701B6010E942E3E6DA3AE
:101BA0007EA38FA398A7CE0101968BA39CA3FE01D1
:101BB0007196E9A3FAA300E010E05801EBA1FCA1A3
:101BC0002191319141915191EBA3FCA3E9A1FAA19B
:101BD0004190519061907190E9A3FAA3622D732D09
:101BE000882D992D0E9470416B017C01A301920107
:101BF000BDA1AEA1FFA1E8A56B2F7A2F8F2F9E2F3D
:101C00000E9470419B01AC01C701B6010E942E3EAB
:101C1000C62ED72EE82EF92E20E030E0A9010E9432
:101C2000CE4018166CF420E030E040E05FE36C2D0D
:101C30007D2D8E2D9F2D0E942E3E0E94E13F0CC0D7
:101C400020E030E040E05FE36C2D7D2D8E2D9F2D58
:101C50000E942D3E0E94F43E0E94733FF501EE0F5C
:101C6000FF1FE853F84D608371830F5F1F4F0430EF
:101C7000110509F0A2CF80E090E060E070E09C01E7
:101C8000FC01EE0FFF1FE853F84D408151815523B1
:101C900044F0FC01EE0FFF1FE853F84D40815181E5
:101CA0000AC0FC01EE0FFF1FE853F84D408151813F
:101CB00051954195510964177507DCF4F901EE0F50
:101CC000FF1FE853F84D40815181552344F0F9013D
:101CD000EE0FFF1FE853F84D608171810AC0F901D2
:101CE000EE0FFF1FE853F84D60817181719561958A
:101CF000710901968430910511F6613BF4E07F078C
:101D00000CF45BC0882777FD8095982F0E94A63F32
:101D10009B01AC0160E070E086E994E40E940B3F17
:101D2000A62EB72EC82ED92E00E010E07801F801BB
:101D3000EE0FFF1FE853F84D60817181882777FD12
:101D40008095982F0E94A63F2A2D3B2D4C2D5D2D6E
:101D50000E947041662E772E882E992E20E030E06A
:101D6000A9010E94CE4018166CF420E030E040E05B
:101D70005FE3662D772D882D992D0E942E3E0E94BF
:101D8000E13F0CC020E030E040E05FE3662D772DBE
:101D9000882D992D0E942D3E0E94F43E0E94733F93
:101DA000F701EE0FFF1FE853F84D608371830F5F5B
:101DB0001F4F0430110509F0B9CFA896CDBFDEBF83
:101DC000DF91CF911F910F91FF90EF90DF90CF9017
:101DD000BF90AF909F908F907F906F905F904F904B
:101DE0003F902F9008959091BA2591110DC08111C7
:101DF00013C00AC084EF91E0E0E0F8E080A791A76B
:101E000081E080930820089580910820815080937C
:101E10000820882379F3089588EE93E0E0E0F8E065
:101E200080A791A710920820089580910720882309
:101E3000B9F081E08093BA2584E690E08093B625DE
:101E40009093B7251092B3251092B4258EEF9FEF93
:101E50008093672790936827109207201092BA25E5
:101E6000089580910720811118C08091B825909124
:101E7000B92501968093B8259093B9258F3F910598
:101E800060F084E0E0E2F7E086831092B8251092DB
:101E9000B92581E08093072008958091B62590911F
:101EA000B725892B71F08091B6259091B7250197C0
:101EB0008093B6259093B72584E0E0E2F7E0858330
:101EC000089584E0E0E2F7E086830895E0E2F7E039
:101ED000808581FF2EC08091B3259091B42506970F
:101EE000C0F081E08093B52588E0E0E0F7E08583ED
:101EF0008091B3259091B425499708F046C0809110
:101F0000B3259091B42501968093B3259093B42581
:101F100008951092B52588E0E0E0F7E0868380918F
:101F2000B3259091B42501968093B3259093B42561
:101F300008958091B3259091B425069788F081E0AB
:101F40008093B52588E0E0E0F7E085838091B325B4
:101F50009091B42501978093B3259093B42508956B
:101F60001092B52588E0E0E0F7E086838091B32504
:101F70009091B425892B49F08091B3259091B42597
:101F800001978093B3259093B425089581309105EE
:101F9000E9F56F3F7F4F09F05EC046EC66EE75E2F3
:101FA00083EE95E20E94FB3B42EE66EE75E287ED22
:101FB00095E20E94643D44EE66EE75E28BED95E29B
:101FC0000E94643D46EE66EE75E28FED95E20E945A
:101FD000643D40E56FE476E283ED95E20E9431399D
:101FE0004EEC66EE75E28FEC95E20E94573D48EAB2
:101FF00066EE75E28FEB95E20E945E3D40EC6FE489
:1020000076E28BEB95E20E94F43B0895892B19F55B
:102010006F3F7F4F01F58BEB95E20E94FA3B8FEB10
:1020200095E20E94633D8FEC95E20E945D3D83ED59
:1020300095E20E9437398FED95E20E946A3D8BED63
:1020400095E20E946A3D87ED95E20E946A3D83EE2B
:1020500095E20E94003C0895EF920F93EE24E394E2
:1020600000E221E04FEC50E060EA78E086E098E2A0
:102070000E94B70221E04FEC50E060EB79E08BED7D
:1020800097E20E94B7020F91EF9008951F920F926E
:102090000FB60F92112408B60F9218BE09B60F9210
:1020A00019BE0AB60F921ABE0BB60F921BBE2F9323
:1020B0003F934F935F936F937F938F939F93AF93D0
:1020C000BF93CF93DF93EF93FF93E0910628F091B6
:1020D000072840818091DA27873009F461C068F4CD
:1020E000833039F120F4813021F148F51CC085306E
:1020F00009F441C008F04CC036C08B3009F47AC0F6
:1021000030F4893009F461C008F06CC056C08D30DD
:1021100009F485C008F47BC08E3009F48DC08F307F
:1021200009F0EDC092C0453509F4E9C01092DA27F4
:10213000EBC04A3A09F4E3C01092DA27E5C045350E
:1021400031F4E091D527F091D6271286D8C04635D4
:1021500039F4E091D527F091D62781E08287CFC06E
:102160001092DA27D1C0E091D527F091D62750E020
:1021700043875487C4C0E091D527F091D6272385A3
:102180003485942F80E0822B932B83879487B7C06C
:10219000E091D527F091D62750E040875187AFC016
:1021A000E091D527F091D62720853185942F80E0C6
:1021B000822B932B80879187A2C0E091D527F09145
:1021C000D62750E0448355839AC0E091D527F091FB
:1021D000D62724813581942F80E0822B932B848312
:1021E00095838DC0E091D527F091D62750E04683A6
:1021F000578385C0E091D527F091D6272681378176
:10220000942F80E0822B932B8683978378C0E09174
:10221000D527F091D62750E04083518370C0E091DC
:10222000D527F091D62720813181942F80E0822B11
:10223000932B8083918363C0E091D527F091D627BB
:10224000842F90E0828393835AC0E091D527F09148
:10225000D62722813381942F80E0822B932B828397
:10226000938320813181C281D381A481B58166812C
:10227000778140855185838594852C0F3D1F2A0FDA
:102280003B1F260F371F240F351F2817390799F5D5
:1022900081E0858724813581E093D727F093D82783
:1022A0008091C4279091C5274091A8275091A927D4
:1022B000205A310912F42D5F3F4F359527953595FA
:1022C0002795820F931F9A01220F331F220F331F6E
:1022D000220F331F420F531F840F951F6AE070E0D7
:1022E0000E943F426093A8277093A9271092D1279C
:1022F0001092D22701C015861092DA2705C080916E
:10230000DA278F5F8093DA27FF91EF91DF91CF91EA
:10231000BF91AF919F918F917F916F915F914F91FD
:102320003F912F910F900BBE0F900ABE0F9009BEE8
:102330000F9008BE0F900FBE0F901F9018951F9220
:102340000F920FB60F92112408B60F9218BE09B65D
:102350000F9219BE0AB60F921ABE0BB60F921BBE91
:102360002F933F934F935F936F937F938F939F939D
:10237000AF93BF93CF93DF93EF93FF93E091DB276E
:10238000F091DC2740818091D927873009F461C022
:1023900068F4833039F120F4813021F148F51CC014
:1023A000853009F441C008F04CC036C08B3009F4C8
:1023B0007AC030F4893009F461C008F06CC056C0AE
:1023C0008D3009F485C008F47BC08E3009F48DC0CF
:1023D0008F3009F00BC192C0453509F407C1109246
:1023E000D92709C14A3A09F401C11092D92703C17A
:1023F000453531F4E091D327F091D4271286F6C009
:10240000463539F4E091D327F091D42781E08287D3
:10241000EDC01092D927EFC0E091D327F091D427D7
:1024200050E043875487E2C0E091D327F091D4274E
:1024300023853485942F80E0822B932B8387948788
:10244000D5C0E091D327F091D42750E04087518741
:10245000CDC0E091D327F091D42720853185942FEA
:1024600080E0822B932B80879187C0C0E091D32797
:10247000F091D42750E044835583B8C0E091D3272E
:10248000F091D42724813581942F80E0822B932BE7
:1024900084839583ABC0E091D327F091D42750E09B
:1024A00046835783A3C0E091D327F091D427268198
:1024B0003781942F80E0822B932B8683978396C05D
:1024C000E091D327F091D42750E0408351838EC010
:1024D000E091D327F091D42720813181942F80E09F
:1024E000822B932B8083918381C0E091D327F0913D
:1024F000D427842F90E08283938378C0E091D32700
:10250000F091D42722813381942F80E0822B932B6A
:102510008283938320813181C281D381A481B5815B
:102520006681778140855185838594852C0F3D1F79
:102530002A0F3B1F260F371F240F351F2817390777
:1025400009F050C081E08587248135818091C427BE
:102550009091C5274091A8275091A927205A310969
:1025600012F42D5F3F4F3595279535952795820FAE
:10257000931F8C549F4F9A01220F331F220F331F3A
:10258000220F331F420F531F840F951F6AE070E024
:102590000E943F426093A6277093A7278091A627A9
:1025A0009091A727853B91055CF08091A62790919B
:1025B000A727885691408093A6279093A72713C0FA
:1025C0008091A6279091A7278C349F4F64F4809127
:1025D000A6279091A72788599E4F8093A62790936E
:1025E000A72701C015861092D92705C08091D92749
:1025F0008F5F8093D927FF91EF91DF91CF91BF91AA
:10260000AF919F918F917F916F915F914F913F918A
:102610002F910F900BBE0F900ABE0F9009BE0F9026
:1026200008BE0F900FBE0F901F9018951F920F922B
:102630000FB60F92112408B60F9218BE09B60F926A
:1026400019BE0AB60F921ABE0BB60F921BBE2F927E
:102650003F924F925F926F927F928F929F92AF9232
:10266000BF92CF92DF92EF92FF920F931F932F931F
:102670003F934F935F936F937F938F939F93AF930A
:10268000BF93EF93FF93CF93DF93CDB7DEB72A9736
:10269000CDBFDEBF8091D0278931E8F11092D027DD
:1026A000E0EEF6E0808580FD3BC0808586FD1BC0A6
:1026B0008091AF218823D1F01092AC271092AD27E2
:1026C00083ED95E20E945F3A8093BF279093C027E5
:1026D0006091BF277091C02780EA90E00E94EB4292
:1026E0001092AF2103C081E08093AF211092662742
:1026F0001092672710926827E0EEF6E0808580FD53
:1027000006C08085829581700E94E90709C080E03B
:102710000E94E90705C08091D0278F5F8093D02762
:10272000E0EEF6E0808580FD04C010925B251092FB
:1027300055258091D3269091D4269C012F5F3F4F41
:102740002093D3263093D426893B9B40F0F180918F
:10275000732790917427893B9B4010F40C941A1EA8
:1027600080916F2790917027992364F480916F274F
:10277000909170279195819591098B3491055CF02A
:102780000C941A1E80916F27909170278B349105BD
:1027900014F00C941A1EE0EEF6E0808580FD06C071
:1027A00080913427833011F40C941A1E8091622793
:1027B000882311F40C94151E0C941A1E89EB9BE0CF
:1027C0008093D3269093D42630C08091D3269091C5
:1027D000D4269C012F5F3F4F2093D3263093D426DD
:1027E000813D974038F084EF91E0E0E0F8E080A789
:1027F00091A71BC08091D3269091D4269C012F5F76
:102800003F4F2093D3263093D426893E934038F00F
:1028100088EE93E0E0E0F8E080A791A706C084EF9F
:1028200091E0E0E0F8E080A791A78091C1278F5F59
:102830008093C127843008F45AC01092C127809138
:10284000BB279091BC278093BD279093BE2783ED33
:1028500095E20E94B23B853009F03FC080E4E0E0A1
:10286000F7E0868383ED95E20E945F3A2091BF27CF
:102870003091C027821B930B89879A8789859A8517
:10288000853B91053CF089859A85885691408987DA
:102890009A870BC089859A858C349F4F34F489853B
:1028A0009A8588599E4F89879A8789859A858093CA
:1028B000C4279093C52783ED95E20E94703B833F28
:1028C00030F080E8E0E0F7E086830C94DC1D80E8DF
:1028D000E0E0F7E085830C94DC1D83ED95E20E9437
:1028E000383980E4E0E0F7E085830C94DC1D81302A
:1028F00009F0F1C3E0EEF6E0808585FF03C080E4D7
:1029000091E002C088E097E02091852730918627EA
:102910002817390798F5209187273091882728179D
:10292000390760F52091892730918A2728173907C0
:1029300028F520918B2730918C2728173907F0F440
:1029400020918D2730918E2728173907B8F42091D0
:102950008F27309190272817390780F420919127ED
:10296000309192272817390748F420919327309106
:1029700094272817390710F40C941F1E0F2EFBE321
:10298000CF2EF5E2DF2EF02DE12CF12C212C312C75
:10299000412C512C612C712C812C912C5701F70169
:1029A000EE0FFF1FEB57F84D6081718180E090E0E2
:1029B0000E94A43FF60130812181F2E0CF0ED11CAC
:1029C000032F122F11232CF4980128593E4FEAF3BC
:1029D00001C09801293641E0340734F028563140CF
:1029E0002936E1E03E07D4F72A35310564F4F901D0
:1029F000EE0FFF1FEE0FFF1FE75FFF4D20813181BC
:102A00004281538132C0243B31057CF4E4EBF0E099
:102A1000E21BF30BEE0FFF1FEE0FFF1FE75FFF4DF3
:102A2000208131814281538120C02E30F1E03F0767
:102A30006CF4F901EE0FFF1FEE0FFF1FE75CF24E83
:102A4000208131814281538150580FC0E8E6F1E086
:102A5000E21BF30BEE0FFF1FEE0FFF1FE75FFF4DB3
:102A6000208131814281538150580E9470419B01E5
:102A7000AC01662D772D882D992D0E942E3E662E55
:102A8000772E882E992EF501EE0FFF1FEB57F84D8C
:102A90006081718180E090E00E94A43F065A1F4F40
:102AA0001AF408591E4FEAF3093621E0120734F0F0
:102AB00008561140093631E01307D4F70A351105DD
:102AC00064F4F801EE0FFF1FEE0FFF1FE75FFF4DED
:102AD000208131814281538136C0043B11057CF451
:102AE000E4EBF0E0E01BF10BEE0FFF1FEE0FFF1F1A
:102AF000E75FFF4D208131814281538124C00E3038
:102B000041E014077CF4F801EE0FFF1FEE0FFF1FEA
:102B1000E75CF24E0081118122813381A901980185
:102B2000505811C0E8E6F1E0E01BF10BEE0FFF1F7B
:102B3000EE0FFF1FE75FFF4D00811181228133817E
:102B4000A901980150580E9470419B01AC01622D6F
:102B5000732D842D952D0E942E3E262E372E482E25
:102B6000592E8FEFE81AF80AE8E0EE16F10409F0A2
:102B700015CF262D372D482D592D622D732D842DDF
:102B8000952D0E94A13E20E030E044E353E40E94F2
:102B900070412BED3FE049E450E40E940B3F0E945E
:102BA000733F60936F2770937027E0ECF7E08085A8
:102BB00080916F27909170272091C4273091C5276D
:102BC000821B930B80936D2790936E2780916F27C4
:102BD000909170278D349F4F5CF480916F27909176
:102BE000702788599E4F80936F279093702711C04C
:102BF00080916F2790917027853B910554F08091CB
:102C00006F27909170278856914080936F279093FB
:102C10007027222D332D442D552D662D772D882D8F
:102C2000992D0E94DB406B017C0120E030E0A9017E
:102C30000E94CE4018165CF420E030E040E05FE3F4
:102C4000C701B6010E942E3E0E94E13F0AC020E06B
:102C500030E040E05FE3C701B6010E942D3E0E94D4
:102C6000F43E0E94783F609373277093742700911D
:102C70006F2710917027609173277091742780E0FF
:102C800090E00E94A43F6B017C01000F111F000F18
:102C9000111F065A1F4F1AF408591E4FEAF309363E
:102CA00021E0120734F008561140093631E01307CD
:102CB000D4F70A35110564F4F801EE0FFF1FEE0F8B
:102CC000FF1FE75FFF4D208131814281538136C074
:102CD000043B11057CF4E4EBF0E0E01BF10BEE0F9C
:102CE000FF1FEE0FFF1FE75FFF4D20813181428103
:102CF000538124C00E3041E014077CF4F801EE0F3C
:102D0000FF1FEE0FFF1FE75CF24E80819181A281D1
:102D1000B3819C01AD01505811C0E8E6F1E0E01B21
:102D2000F10BEE0FFF1FEE0FFF1FE75FFF4D8081DE
:102D30009181A281B3819C01AD01505860E070E0A7
:102D400080E191E40E942D3E9B01AC01C701B601D8
:102D50000E94704120E030E040E05EE30E9470415C
:102D6000E62EF72E082F192F20E030E0A9010E944F
:102D7000CE4018166CF420E030E040E05FE36E2DAA
:102D80007F2D802F912F0E942E3E0E94E13F0CC08C
:102D900020E030E040E05FE36E2D7F2D802F912F0B
:102DA0000E942D3E0E94F43E0E94783F609371275E
:102DB0007093722760E080E090E070E0FC01EE0F1D
:102DC000FF1FE25BF84D40815181E72FF0E0EE0FED
:102DD000FF1FE25BF84D208131812417350708F48D
:102DE000782F01968830910549F7E72FF0E02DE222
:102DF000729FC00111248758910980934C279093AA
:102E00004D2780914C2790914D278D349F4F5CF436
:102E100080914C2790914D2788599E4F80934C2745
:102E200090934D2711C080914C2790914D27853B61
:102E3000910554F080914C2790914D2788569140F0
:102E400080934C2790934D2780914E2790914F2748
:102E50008C32914008F008C78091502790915127FB
:102E60008C32914008F000C78091522790915327EF
:102E70008C32914008F0F8C68091542790915527E4
:102E80008C32914008F0F0C68091562790915727D8
:102E90008C32914008F0E8C68091582790915927CC
:102EA0008C32914008F0E0C680915A2790915B27C0
:102EB0008C32914008F0D8C680915C2790915D27B4
:102EC0008C32914008F4CBC6CFC6E0EEF6E08085A8
:102ED00080FD05C01092D6261092D72694C080910E
:102EE000B525882309F4D2C6809173279091742761
:102EF000893B9B4008F4CAC680916F279091702748
:102F000099235CF480916F2790917027919581951A
:102F1000910944970CF4B3C6B9C680916F2790917C
:102F2000702744970CF4ABC6B1C680914A279091A4
:102F30004B27892B21F080914A2790914B2781E0E4
:102F400090E08093D6269093D7265DC0209173277A
:102F500030917427A9E8B8E80E947542FC01F69503
:102F6000E795F295E295EF70EF27FF70EF278091DC
:102F70006F279091702799235CF480916F2790912F
:102F80007027845D9E4F68E770E00E943F420CC04E
:102F900020916F27309170278CE291E0821B930B78
:102FA00068E770E00E943F426E9F90016F9F300D76
:102FB0007E9F300D11242093D6263093D726809102
:102FC0006F279091702799236CF480916F279091CF
:102FD000702791958195910941E08B3591055CF4BD
:102FE00040E009C080916F279091702741E08B35B8
:102FF00091050CF440E0442331F036952795209359
:10300000D6263093D7266091D62688ED96E20E9488
:10301000520380916727909168279C012F5F3F4F53
:1030200020936727309368278034914008F041C08F
:1030300080917327909174278039914008F429C6B4
:1030400020916B2730916C27809173279091742782
:10305000205931402817390708F01BC620916B27EB
:1030600030916C27809173279091742720573E4FA1
:103070008217930708F00DC62091692730916A27BF
:1030800080916F27909170272550310928173907B3
:103090000CF0FFC52091692730916A2780916F2736
:1030A000909170272B5F3F4F821793070CF484C5D4
:1030B000F0C580916727909168278138924020F46D
:1030C00081E08093662778C5109266271092672763
:1030D0001092682771C5823009F065C38091C227BC
:1030E0009091C3272091C4273091C527821B930B51
:1030F000853B91053CF0885691408093BB27909387
:10310000BC270FC08C342FEF92072CF08093BB2785
:103110009093BC2706C088599E4F8093BB279093FD
:10312000BC270091BB271091BC27B801882777FDE9
:103130008095982F0E94A63F4B015C0120E030E073
:1031400040E85CE30E9470412091B7273091B82796
:103150004091B9275091BA270E942E3E462E572EF5
:10316000682E792E20E030E048E453E40E94CE40FF
:1031700018166CF480E090E0A8E4B3E48093B727DD
:103180009093B827A093B927B093BA2725C020E021
:1031900030E048E453EC642D752D862D972D0E9468
:1031A000073F88236CF0842D952DA62DB72D809395
:1031B000B7279093B827A093B927B093BA270CC02C
:1031C00080E090E0A8E4B3EC8093B7279093B82711
:1031D000A093B927B093BA272091BD273091BE277D
:1031E000029FC001039F900D129F900D112418168D
:1031F0001906B4F020E030E040E05FE36091B727CB
:103200007091B8278091B9279091BA270E94704198
:103210006093B7277093B8278093B9279093BA2704
:10322000C090B727D090B827E090B927F090BA2780
:10323000A7019601C501B4010E94704120E030E071
:10324000A9010E94073F181684F024EA30E74DE7F1
:103250005FE3C701B6010E9470416093B727709386
:10326000B8278093B9279093BA2783ED95E20E94FF
:10327000113A8093B5279093B6278091D62588235D
:1032800021F01092B5271092B6276091B527709162
:10329000B6270091AC271091AD27882777FD809540
:1032A000982F0E94A63F20E030E040E85CE30E94B7
:1032B00070410E94733F600F711F6093AC27709341
:1032C000AD278091AC279091AD2760E876E10E9410
:1032D0003F428093AC279093AD278091AC2790918B
:1032E000AD2799230CF40F9695958795959587951D
:1032F00095958795959587958093AA279093AB2769
:103300008091AA279091AB27853B91055CF0809135
:10331000AA279091AB27885691408093AA27909333
:10332000AB2711C08091AA279091AB278C349F4F77
:1033300054F48091AA279091AB2788599E4F80938F
:10334000AA279093AB270091B5271091B6276091DB
:10335000BB277091BC27882777FD8095982F0E9406
:10336000A63F20E030E04AE751E40E9470416B0143
:103370007C0120E030E040E051E46091B72770919B
:10338000B8278091B9279091BA270E9470419B017C
:10339000AC01C701B6010E942E3E6B017C01B80151
:1033A000882777FD8095982F0E94A63F20E030E087
:1033B00040E85DE30E9470419B01AC01C701B6018A
:1033C0000E942E3EE62EF72E082F192FA62EB72E7E
:1033D000C82ED92E982F4E2D5F2D692F712F409317
:1033E000B1275093B2276093B3277093B42780918D
:1033F000B525882399F120E030E041EE53E46E2DAD
:103400007F2D802F912F0E94CE4018166CF480E003
:1034100090E0A1EEB3E48093B1279093B227A093FC
:10342000B327B093B4274AC420E030E041EE53EC18
:103430006E2D7F2D802F912F0E94073F88230CF047
:103440003FC080E090E0A1EEB3EC8093B127909371
:10345000B227A093B327B093B42739C420E030E05B
:103460004AE754E46E2D7F2D802F912F0E94CE408D
:1034700018166CF480E090E0AAE7B4E48093B127DA
:103480009093B227A093B327B093B42717C420E03A
:1034900030E04AE754EC6E2D7F2D802F912F0E9453
:1034A000073F88236CF480E090E0AAE7B4EC8093B7
:1034B000B1279093B227A093B327B093B42707C442
:1034C00020E030E0A9016E2D7F2D802F912F0E94EA
:1034D000CE4018166CF420E030E040E05FE36A2D47
:1034E0007B2D8C2D9D2D0E942E3E0E94E13F0CC015
:1034F00020E030E040E05FE36A2D7B2D8C2D9D2D98
:103500000E942D3E0E94F43E0E94733F6093C627A6
:103510007093C7278091AF279091B027892B29F00E
:1035200080915B25833008F4DBC32091C82730915C
:10353000C9278091C6279091C727820F931F89833F
:103540009A832091CA273091CB278091C6279091EA
:10355000C727820F931F8B839C832091CC273091A8
:10356000CD278091C6279091C727820F931F8D8307
:103570009E832091CE273091CF278091C6279091AE
:10358000C727820F931F8F83988783ED95E20E9450
:10359000BA3A99233CF083ED95E20E94BA3A099732
:1035A00054F422C083ED95E20E94BA3A9195819538
:1035B00091090997CCF083ED95E20E947539992322
:1035C0004CF083ED95E20E947539813293400CF006
:1035D0003FC00AC083ED95E20E94753991958195AF
:1035E000910981329340A4F583ED95E20E94153B49
:1035F00099233CF083ED95E20E94153B099754F422
:1036000033C083ED95E20E94153B91958195910918
:10361000099754F183ED95E20E947539992354F08E
:1036200083ED95E20E94753921E08132934074F474
:1036300020E00CC083ED95E20E947539919581954B
:10364000910921E0813293400CF420E0222361F0C3
:103650008091C6279091C7278F8398878D839E83FB
:103660008B839C8389839A838E010F5F1F4F7E011A
:1036700049E0E40EF11CF80160E070E03081218146
:103680003296832F922F99231CF49195819591095D
:10369000681779070CF4BC01EE15FF0579F76D3D4D
:1036A00085E078070CF450C0882777FD8095982F27
:1036B0000E94A63F9B01AC0160E070E88BEB94E4B4
:1036C0000E940B3F462E572E682E792E6801F80176
:1036D00060817181882777FD8095982F0E94A63F91
:1036E000242D352D462D572D0E947041862E972E64
:1036F000A82EB92E20E030E0A9010E94CE40181675
:103700006CF420E030E040E05FE3682D792D8A2DF5
:103710009B2D0E942E3E0E94E13F0CC020E030E035
:1037200040E05FE3682D792D8A2D9B2D0E942D3E70
:103730000E94F43E0E94733FF601608371830E5F26
:103740001F4FE016F10611F6E0EEF6E0808580FFEF
:1037500015C069817A8180E00E94A4086B817C8118
:1037600081E00E94A4086D817E8182E00E94A4080D
:103770006F81788583E00E94A4081EC260E070E03B
:1037800080E00E94A40860E070E081E00E94A4084C
:1037900060E070E082E00E94A40860E070E083E0F6
:1037A0000E94A40809C2833009F006C28091432711
:1037B00081115EC087ED95E20E940C3E882309F4DA
:1037C0007FC08FED95E20E940C3E882309F478C0FB
:1037D00087ED95E20E94BE3D04E417E2F801808384
:1037E00091838FED95E20E94BE3D80934827909390
:1037F0004927F80180819181892BF1F48091482734
:1038000090914927892B59F480E590E080934427D3
:103810009093452780934827909349271FC0209174
:1038200048273091492782EA90E0821B930B8093CE
:1038300044279093452712C08091482790914927AB
:10384000892B61F4209144273091452782EA90E04A
:10385000821B930B80934827909349278BED95E229
:103860000E94B33D809143278F5F8093432728C0F8
:1038700080914327813021F58BED95E20E940C3E2B
:103880008823F1F08BED95E20E94BE3D06E417E23D
:10389000F8018083918387ED95E20E94B33DF801A2
:1038A00080819181892B31F484E690E080934627D2
:1038B000909347278FED95E20E94B33D10924327E6
:1038C000809148279091492720914427309145279E
:1038D0008A549F4F821B930B96958795EFE3F7E2EF
:1038E00080839183808191818130944024F0109273
:1038F0003F271092402780914627909147270596B1
:10390000E1E4F7E280839183808191818093772144
:1039100090937821809144279091452720914827C2
:1039200030914927820F931F8739910520F1E4E4F4
:10393000F7E28081918180937F2190938021A8E498
:10394000B7E28D919C9111978093792190937A2180
:1039500010923627109235278D919C9120813181CC
:103960008A549F4F821B930B969587958093752160
:1039700090937621CFC020914427309145274091E4
:103980003627E42FF0E0EE0FFF1FE158FE4D808157
:1039900091812C5E3F4F8217930708F14F5F4330B0
:1039A00018F44093362703C082E080933627809135
:1039B000362790E0FC01EE0FFF1FE75CF84DDC01BD
:1039C000AA0FBB1FA158BE4D80917F2190918021ED
:1039D0002D913C91821B930B8083918310C0209189
:1039E00044273091452744962817390740F044234F
:1039F00021F041504093362702C010923627609143
:103A00003627262F30E08091442790914527F901F1
:103A1000EE0FFF1FE158FE4D8083918340914827B0
:103A20005091492770913527E72FF0E0EE0FFF1FE7
:103A3000E758FE4D808191814C5E5F4F841795075A
:103A400008F17F5F733018F47093352703C082E06C
:103A5000809335278091352790E0FC01EE0FFF1F02
:103A6000EB5CF84DDC01AA0FBB1FA758BE4D80913F
:103A7000792190917A214D915C91841B950B8083E3
:103A8000918310C040914827509149274496481788
:103A9000590740F0772321F071507093352702C009
:103AA0001092352770913527472F50E08091482795
:103AB00090914927FA01EE0FFF1FE758FE4D8083D2
:103AC00091838091442790914527662349F0F9011D
:103AD000EE0FFF1FE75CF84D20813181820F931FAD
:103AE0002091482730914927772349F0FA01EE0FBA
:103AF000FF1FEB5CF84D40815181240F351F281BBF
:103B0000390B2A543F4FC9019695879580937521AB
:103B10009093762180915B25882309F44DC0809194
:103B200001208130E1F01CF4882339F045C0823057
:103B300041F1833009F040C032C0E0915B25F0E0F4
:103B4000EE0FFF1FEB57FE4D2081318180EF90E09B
:103B5000821B930B80937721909378212DC0E09165
:103B60005B25F0E0EE0FFF1FEB57FE4D208131810A
:103B700084EB90E0821B930B8093752190937621C8
:103B80001BC0E0915B25F0E0EE0FFF1FEB57FE4DF1
:103B90008081918180937721909378210DC0E0916D
:103BA0005B25F0E0EE0FFF1FEB57FE4D808191810A
:103BB00080937521909376210E94660F0E94310FA9
:103BC00010925825E0EEF6E0808582FF0CC08091CF
:103BD0002E278F5F80932E27823328F00E94562253
:103BE00010922E2706C0E0EEF6E0808582FF10924C
:103BF00033278EEFE0ECF8E083838091D12790911A
:103C0000D22701968093D1279093D2278091D127F4
:103C10009091D2278536910508F46BC085E690E037
:103C20008093D1279093D22764C081E00E94F30E45
:103C30000C94DE1380E00E94F30E0C94DE1385E0FA
:103C400090E08093732790937427809371279093CB
:103C5000722710926F271092702761E0ACC8109203
:103C60004A2710924B2731C9EE0FFF1FE25BF84D38
:103C70008081918180934A2790934B2726C98FEFAB
:103C800090E08093D6269093D726BDC961114DC987
:103C90005DC9809173279091742780936B279093CF
:103CA0006C2780916F27909170278093692790935C
:103CB0006A2710926727109268277ECFA090B127BD
:103CC000B090B227C090B327D090B42704CCA09076
:103CD000B127B090B227C090B327D090B42708CCBA
:103CE0008091AF279091B0278093C6279093C727E4
:103CF0001CCC2A96CDBFDEBFDF91CF91FF91EF9113
:103D0000BF91AF919F918F917F916F915F914F91F3
:103D10003F912F911F910F91FF90EF90DF90CF90E7
:103D2000BF90AF909F908F907F906F905F904F90DB
:103D30003F902F900F900BBE0F900ABE0F9009BEC0
:103D40000F9008BE0F900FBE0F901F9018951F92F6
:103D50000F920FB60F92112408B60F9218BE09B633
:103D60000F9219BE0BB60F921BBE2F933F934F932A
:103D70005F936F937F938F939F93AF93BF93EF93D3
:103D8000FF9383E097E20E947903FF91EF91BF9147
:103D9000AF919F918F917F916F915F914F913F91E3
:103DA0002F910F900BBE0F9009BE0F9008BE0F9081
:103DB0000FBE0F901F9018951F920F920FB60F9283
:103DC000112408B60F9218BE09B60F9219BE0BB691
:103DD0000F921BBE2F933F934F935F936F937F93ED
:103DE0008F939F93AF93BF93EF93FF9388ED96E2EA
:103DF0000E947903FF91EF91BF91AF919F918F91B5
:103E00007F916F915F914F913F912F910F900BBEDA
:103E10000F9009BE0F9008BE0F900FBE0F901F901D
:103E200018951F920F920FB60F92112408B60F9299
:103E300018BE0BB60F921BBE8F93EF93FF93E091CA
:103E4000D826F091D92680818093D526FF91EF91D5
:103E50008F910F900BBE0F9008BE0F900FBE0F906A
:103E60001F9018951F920F920FB60F92112408B64B
:103E70000F9218BE09B60F9219BE0BB60F921BBE59
:103E80002F933F934F935F936F937F938F939F9362
:103E9000AF93BF93EF93FF938FE496E20E949F024C
:103EA000FF91EF91BF91AF919F918F917F916F9112
:103EB0005F914F913F912F910F900BBE0F9009BED4
:103EC0000F9008BE0F900FBE0F901F9018951F9275
:103ED0000F920FB60F92112408B60F9218BE09B6B2
:103EE0000F9219BE0BB60F921BBE2F933F934F93A9
:103EF0005F936F937F938F939F93AF93BF93EF9352
:103F0000FF9386EE95E20E949F02FF91EF91BF9191
:103F1000AF919F918F917F916F915F914F913F9161
:103F20002F910F900BBE0F9009BE0F9008BE0F90FF
:103F30000FBE0F901F9018951F920F920FB60F9201
:103F4000112408B60F9218BE0BB60F921BBE2F930A
:103F50003F938F939F93EF93FF93809161278F5FA0
:103F60008093612780916127813049F4E0E6F6E093
:103F7000808585FFFDCFE0ECF8E0138243C080919F
:103F80006127823059F4E0ECF8E02381922F80E041
:103F900080935E2790935F27138234C0E0ECF8E0B3
:103FA000238180915E2790915F27822B80935E27EB
:103FB00090935F27E0916027F0E020915E27309199
:103FC0005F2788E893E1821B930BEE0FFF1FE25BF4
:103FD000F84D8083918310926127809160278F5FD5
:103FE0008093602780916027883018F010926027B6
:103FF00009C0E0916027F0E0E55BFA4D8081E0ECDC
:10400000F8E08383FF91EF919F918F913F912F91E2
:104010000F900BBE0F9008BE0F900FBE0F901F9019
:1040200018951F920F920FB60F92112408B60F9297
:1040300018BE0BB60F921BBE8F939F93EF93FF9307
:104040001092C7261092C826EBEBF6E28081982FDB
:104050009F5F908388301CF088E08093BB26FF919F
:10406000EF919F918F910F900BBE0F9008BE0F9014
:104070000FBE0F901F9018951F920F920FB60F92C0
:10408000112408B60F9218BE0BB60F921BBE8F9369
:104090009F93EF93FF931092C9261092CA26ECEBE0
:1040A000F6E28081982F9F5F908388301CF088E033
:1040B0008093BC26FF91EF919F918F910F900BBE43
:1040C0000F9008BE0F900FBE0F901F9018951F9273
:1040D0000F920FB60F92112408B60F9218BE0BB6AE
:1040E0000F921BBE8F939F93EF93FF931092CB265B
:1040F0001092CC26EDEBF6E28081982F9F5F9083A3
:1041000088301CF088E08093BD26FF91EF919F914D
:104110008F910F900BBE0F9008BE0F900FBE0F90A7
:104120001F9018951F920F920FB60F92112408B688
:104130000F9218BE0BB60F921BBE8F939F93EF93F7
:10414000FF931092CD261092CE26EEEBF6E2808100
:10415000982F9F5F908388301CF088E08093BE2664
:10416000FF91EF919F918F910F900BBE0F9008BE22
:104170000F900FBE0F901F9018951F920F920FB6C1
:104180000F92112408B60F9218BE09B60F9219BEED
:104190000AB60F921ABE0BB60F921BBE2F933F9317
:1041A0004F935F936F937F938F939F93AF93BF933F
:1041B000CF93DF93EF93FF938091BB26181634F4CF
:1041C000E0E0F9E010A211A21092BB26EFECF6E2BB
:1041D0008081982F9F5F908380FD12C0C0E0D9E05E
:1041E00028A139A140E050E064E57AEE8AE290E04F
:1041F0000E9453422093C7263093C82618A219A2C2
:10420000FF91EF91DF91CF91BF91AF919F918F91EE
:104210007F916F915F914F913F912F910F900BBEC6
:104220000F900ABE0F9009BE0F9008BE0F900FBEF0
:104230000F901F9018951F920F920FB60F92112496
:1042400008B60F9218BE09B60F9219BE0AB60F92A1
:104250001ABE0BB60F921BBE2F933F934F935F93E3
:104260006F937F938F939F93AF93BF93CF93DF937E
:10427000EF93FF938091BC26181634F4E0E4F9E044
:1042800010A211A21092BC26E0EDF6E28081982FD8
:104290009F5F908380FD12C0C0E4D9E028A139A1BE
:1042A00040E050E064E57AEE8AE290E00E945342FA
:1042B0002093C9263093CA2618A219A2FF91EF9124
:1042C000DF91CF91BF91AF919F918F917F916F912E
:1042D0005F914F913F912F910F900BBE0F900ABEAF
:1042E0000F9009BE0F9008BE0F900FBE0F901F9049
:1042F00018951F920F920FB60F92112408B60F92C5
:1043000018BE09B60F9219BE0AB60F921ABE0BB6A6
:104310000F921BBE2F933F934F935F936F937F93A7
:104320008F939F93AF93BF93CF93DF93EF93FF93BD
:104330008091BD26181634F4E0E0FBE010A211A233
:104340001092BD26E1EDF6E28081982F9F5F908369
:1043500080FD12C0C0E0DBE028A139A140E050E0C0
:1043600064E57AEE8AE290E00E9453422093CB26E5
:104370003093CC2618A219A2FF91EF91DF91CF9133
:10438000BF91AF919F918F917F916F915F914F916D
:104390003F912F910F900BBE0F900ABE0F9009BE58
:1043A0000F9008BE0F900FBE0F901F9018951F9290
:1043B0000F920FB60F92112408B60F9218BE09B6CD
:1043C0000F9219BE0AB60F921ABE0BB60F921BBE01
:1043D0002F933F934F935F936F937F938F939F930D
:1043E000AF93BF93CF93DF93EF93FF938091BE265C
:1043F000181634F4E0E4FBE010A211A21092BE26DD
:10440000E2EDF6E28081982F9F5F908380FD12C0DD
:10441000C0E4DBE028A139A140E050E064E57AEE99
:104420008AE290E00E9453422093CD263093CE261C
:1044300018A219A2FF91EF91DF91CF91BF91AF9197
:104440009F918F917F916F915F914F913F912F91AC
:104450000F900BBE0F900ABE0F9009BE0F9008BEC2
:104460000F900FBE0F901F9018951F920F920FB6CE
:104470000F92112408B60F9218BEE0ECF7E06FE03F
:1044800050E420E43FE1A8956583452FA895C90134
:104490000197F1F74150D1F7A8956683452FA8956C
:1044A000C9010197F1F74150D1F7EDCFEF92FF929B
:1044B0000F931F93CF93DF9383EE95E20E940D3D00
:1044C00020913127309132278217930709F49AC03F
:1044D000209131273091322731FF08C091FD02C071
:1044E0000C94D72A03C02AE1209333272091312747
:1044F0003091322733FD02C00C94EF2A93FD02C0A5
:104500000C94E42A0C94EF2A109233270C94EF2A8F
:10451000CF5FDF5FC930E1F39B010C2E02C0220F99
:10452000331F0A94E2F740913127509132274223FA
:104530005323452B09F45FC02E233F23232B11F077
:104540000C94FB2A58C000E020912F27309130278F
:104550002115324070F040912F2750913027202FA5
:1045600030E03460240F351F20932F2730933027FD
:1045700031C020912F27309130272F3F3105C1F0D6
:10458000B8F0E0902F27F0903027402F50E0440FF4
:10459000551F9A01220F331F220F331F420F531F43
:1045A00052604E0D5F1D40932F275093302712C04D
:1045B00040912F2750913027452B61F4033028F488
:1045C000109F90011124316001C09D0120932F277D
:1045D0003093302720912F273091302721153440F8
:1045E00050F020912F2730913027209333271092BD
:1045F0002F2710923027DB3008F48ACF80933127A1
:104600009093322783EE95E20E947C3CE091332721
:10461000F0E0EB31F10508F0B8C7E650FF4F0C941D
:104620006F422DEE31E241E061E083EE95E20E94BF
:10463000013CE0ECF7E060856170605D83EE95E23F
:104640000E94EB3C21E032E241E062E083EE95E241
:104650000E94013C2DE032E24DE062E083EE95E203
:104660000E94013C26E132E241E063E083EE95E204
:104670000E94013C28E232E241E064E083EE95E2F0
:104680000E94013CBFC72AE332E241E061E083EED1
:1046900095E20E94013C2CE432E241E062E083EECC
:1046A00095E20E94013C2CE532E241E063E083EEBA
:1046B00095E20E94013C2AE632E241E064E083EEAA
:1046C00095E20E94013C9EC72BE732E241E061E0A7
:1046D00083EE95E20E94013C2CE832E241E062E088
:1046E00083EE95E20E94013C2CE932E241E063E076
:1046F00083EE95E20E94013C20EB32E241E064E06F
:1047000083EE95E20E94013C7DC725EC32E241E058
:1047100061E083EE95E20E94013C2FEC32E241E041
:1047200062E083EE95E20E94013C28ED32E241E036
:1047300063E083EE95E20E94013C20EE32E241E02C
:1047400064E083EE95E20E94013C5CC722EF32E216
:1047500041E061E083EE95E20E94013C53C725E011
:1047600033E241E061E083EE95E20E94013C29E101
:1047700033E241E062E083EE95E20E94013C2EE2EA
:1047800033E241E063E083EE95E20E94013C2AE3DC
:1047900033E244E064E083EE95E20E94013C6091E4
:1047A0003327605D83EE95E20E94EB3C2BC72BE440
:1047B00033E241E061E083EE95E20E94013C20910A
:1047C000C8273091C9274AE061E083EE95E20E9454
:1047D0004C3C24E533E241E062E083EE95E20E9446
:1047E000013C2091CA273091CB274AE062E083EE5A
:1047F00095E20E944C3C2DE533E241E063E083EE1C
:1048000095E20E94013C2091CC273091CD274AE0CF
:1048100063E083EE95E20E944C3C26E633E241E001
:1048200064E083EE95E20E94013C2091CE27309116
:10483000CF274AE064E083EE95E20E944C3CE2C65A
:104840002091C8273091C9278091C6279091C7270A
:10485000280F391F41E061E083EE95E20E944C3C55
:104860002091CA273091CB278091C6279091C727E6
:10487000280F391F41E062E083EE95E20E944C3C34
:104880002091CC273091CD278091C6279091C727C2
:10489000280F391F41E063E083EE95E20E944C3C13
:1048A0002091CE273091CF278091C6279091C7279E
:1048B000280F391F41E064E083EE95E20E944C3CF2
:1048C0002FE633E249E061E083EE95E20E94013C8D
:1048D0002091C2273091C32741E161E083EE95E248
:1048E0000E944C3C26E733E249E062E083EE95E229
:1048F0000E94013C2091C4273091C52741E162E02C
:1049000083EE95E20E944C3C2DE733E249E063E000
:1049100083EE95E20E94013C83ED95E20E945F3AAE
:104920009C0141E163E083EE95E20E944C3C23E868
:1049300033E249E064E083EE95E20E94013C20917D
:10494000BF273091C02741E164E083EE95E20E94E9
:104950004C3C58C628E833E241E061E083EE95E242
:104960000E94013C209185273091862747E061E035
:1049700083EE95E20E944C3C2EE833E241E062E097
:1049800083EE95E20E94013C209187273091882791
:1049900047E062E083EE95E20E944C3C24E933E27A
:1049A00041E063E083EE95E20E94013C209189277B
:1049B00030918A2747E063E083EE95E20E944C3C09
:1049C0002AE933E241E064E083EE95E20E94013C93
:1049D00020918B2730918C2747E064E083EE95E2AD
:1049E0000E944C3C20EA33E24BE061E083EE95E22A
:1049F0000E94013C20918D2730918E2741E161E09A
:104A000083EE95E20E944C3C26EA33E24BE062E002
:104A100083EE95E20E94013C20918F2730919027F0
:104A200041E162E083EE95E20E944C3C2CEA33E2E5
:104A30004BE063E083EE95E20E94013C20919127D8
:104A40003091922741E163E083EE95E20E944C3C75
:104A500022EB33E24BE064E083EE95E20E94013CFE
:104A6000209193273091942741E164E083EE95E211
:104A70000E944C3CC7C528E833E241E061E083EE88
:104A800095E20E94013C209175273091762747E0FE
:104A900061E083EE95E20E944C3C2EE833E241E077
:104AA00062E083EE95E20E94013C209177273091ED
:104AB000782747E062E083EE95E20E944C3C24E9CF
:104AC00033E241E063E083EE95E20E94013C2091F5
:104AD000792730917A2747E063E083EE95E20E94E0
:104AE0004C3C2AE933E241E064E083EE95E20E9427
:104AF000013C20917B2730917C2747E064E083EEE6
:104B000095E20E944C3C20EA33E24BE061E083EE08
:104B100095E20E94013C20917D2730917E2741E162
:104B200061E083EE95E20E944C3C26EA33E24BE0E2
:104B300062E083EE95E20E94013C20917F27309154
:104B4000802741E162E083EE95E20E944C3C2CEA32
:104B500033E24BE063E083EE95E20E94013C20915A
:104B600081273091822741E163E083EE95E20E9444
:104B70004C3C22EB33E24BE064E083EE95E20E9492
:104B8000013C209183273091842741E164E083EE4A
:104B900095E20E944C3C36C528EB33E241E061E0EF
:104BA00083EE95E20E94013C20916D2730916E27A3
:104BB0004CE061E083EE95E20E944C3C25EC33E250
:104BC00041E062E083EE95E20E94013C20916F2774
:104BD000309170274CE062E083EE95E20E944C3CFD
:104BE00022ED33E241E063E083EE95E20E94013C76
:104BF00020917327309174274CE063E083EE95E2B7
:104C00000E944C3C2FED33E241E064E083EE95E2FC
:104C10000E94013C20917127309172274CE064E0A2
:104C200083EE95E20E944C3C2CEE33E241E161E0E0
:104C300083EE95E20E94013C209163273091642726
:104C400041E162E083EE95E20E944C3C21EF33E2C9
:104C500041E163E083EE95E20E94013C20916527EB
:104C600030E041E164E083EE95E20E944C3CCAC42E
:104C700026EF33E241E061E083EE95E20E94013CE1
:104C800024E034E241E062E083EE95E20E94013CE0
:104C900022E134E241E063E083EE95E20E94013CD0
:104CA0002091662730E04FE061E083EE95E20E94BC
:104CB0004C3C20916727309168274FE062E083EEFB
:104CC00095E20E944C3C2091342730E04FE063E0B5
:104CD00083EE95E20E944C3CC0EED6E02885217020
:104CE00030E041E064E083EE95E20E944C3C288590
:104CF000229526952695237081E02827217030E0A3
:104D000045E064E083EE95E20E944C3CE0E2F7E08F
:104D100020852695217030E049E064E083EE95E23D
:104D20000E944C3C28852295217030E04DE064E0E3
:104D300083EE95E20E944C3C288522FB222720F935
:104D400030E041E164E083EE95E20E944C3C5AC4BD
:104D500020E234E241E062E083EE95E20E94013C11
:104D600020914427309145274BE062E083EE95E2A5
:104D70000E944C3C2BE234E241E063E083EE95E29A
:104D80000E94013C20914627309147274BE063E089
:104D900083EE95E20E944C3C26E334E241E064E07D
:104DA00083EE95E20E94013C2091482730914927EB
:104DB0004BE064E083EE95E20E944C3C20E434E258
:104DC0004FE061E083EE95E20E94013C2091752165
:104DD000309176214FE062E083EE95E20E944C3CF8
:104DE00026E434E24FE063E083EE95E20E94013C6A
:104DF00020917721309178214FE064E083EE95E2B5
:104E00000E944C3CFFC32CE434E241E061E083EEBD
:104E100095E20E94013C28E534E241E062E083EE45
:104E200095E20E94013C24E634E241E063E083EE37
:104E300095E20E94013C21E734E241E064E083EE28
:104E400095E20E94013C20913F27309140274EE09F
:104E500061E083EE95E20E944C3C20914127309125
:104E600042274EE062E083EE95E20E944C3C2091A6
:104E70007521309176214EE063E083EE95E20E9449
:104E80004C3C20917721309178214EE064E083EE14
:104E900095E20E944C3CB6C341E061E083EE95E2AE
:104EA0000E94C53C60917725605D83EE95E20E948B
:104EB000EB3C60917825605D83EE95E20E94EB3CCF
:104EC00060917925605D83EE95E20E94EB3C6091F4
:104ED0007A25605D83EE95E20E94EB3C60917B2534
:104EE000605D83EE95E20E94EB3C60917C25605D05
:104EF00083EE95E20E94EB3C60917D25605D83EE40
:104F000095E20E94EB3C60915E25605D83EE95E248
:104F10000E94EB3C60915F25605D83EE95E20E940C
:104F2000EB3C60916025605D83EE95E20E94EB3C76
:104F300060916125605D83EE95E20E94EB3C60919B
:104F40006225605D83EE95E20E94EB3C60916325F3
:104F5000605D83EE95E20E94EB3C60916425605DAC
:104F600083EE95E20E94EB3C2091762530E041E013
:104F700062E083EE95E20E944C3C2091652530E092
:104F80004EE062E083EE95E20E944C3C2091752554
:104F900030E041E063E083EE95E20E944C3C2091DA
:104FA000662530E04EE063E083EE95E20E944C3CE3
:104FB00041E064E083EE95E20E94C53C6091742577
:104FC000605D83EE95E20E94EB3C60917325605D2D
:104FD00083EE95E20E94EB3C60917225605D83EE6A
:104FE00095E20E94EB3C60917125605D83EE95E255
:104FF0000E94EB3C60917025605D83EE95E20E941B
:10500000EB3C60916F25605D83EE95E20E94EB3C86
:1050100060916E25605D83EE95E20E94EB3C6091AD
:105020006D25605D83EE95E20E94EB3C60916C25FE
:10503000605D83EE95E20E94EB3C60916B25605DC4
:1050400083EE95E20E94EB3C60916A25605D83EE01
:1050500095E20E94EB3C60916925605D83EE95E2EC
:105060000E94EB3C60916825605D83EE95E20E94B2
:10507000EB3C60916725605D83EE95E20E94EB3C1E
:105080002EE734E240E161E083EE95E20E94013CCC
:1050900020915A2530E040E162E083EE95E20E94E3
:1050A0004C3C21E733E240E163E083EE95E20E946D
:1050B000013C20915C2530915D2540E164E083EE68
:1050C00095E20E944C3C9EC221E733E241E061E060
:1050D00083EE95E20E94013C2091A8273091A927F8
:1050E00048E061E083EE95E20E944C3C24E834E223
:1050F00041E062E083EE95E20E94013C2BE834E25D
:1051000041E063E083EE95E20E94013CE091D72705
:10511000F091D8272481358148E063E083EE95E261
:105120000E944C3C21E934E241E064E083EE95E2E8
:105130000E94013C2091C4273091C52748E064E0DB
:1051400083EE95E20E944C3C5DC227E934E241E0E7
:1051500061E083EE95E20E94013C2091C4273091EA
:10516000C52747E061E083EE95E20E944C3C22EACD
:1051700034E241E062E083EE95E20E94013C20913E
:10518000B5273091B62747E062E083EE95E20E94B2
:105190004C3C28EA34E241E063E083EE95E20E9471
:1051A000013C83ED95E20E94153B9C0147E063E0E2
:1051B00083EE95E20E944C3C2FEA34E24BE061E042
:1051C00083EE95E20E94013C83ED95E20E947539E1
:1051D0009C0141E161E083EE95E20E944C3C25EBAD
:1051E00034E24BE062E083EE95E20E94013C83ED05
:1051F00095E20E94C3399C0141E162E083EE95E2B1
:105200000E944C3C2BEB34E24BE063E083EE95E2F2
:105210000E94013C2091AA273091AB274FE063E028
:1052200083EE95E20E944C3CEDC120EC34E241E07B
:1052300061E083EE95E20E94013C2FEC36E248E00B
:1052400061E083EE95E20E944C3C27EC34E241E0C1
:1052500062E083EE95E20E94013C27EC36E247E0F3
:1052600062E083EE95E20E944C3C2CEC34E241E09B
:1052700063E083EE95E20E94013C2FEB36E247E0CB
:1052800063E083EE95E20E944C3CBCC125ED34E224
:1052900041E061E083EE95E20E94013C2091B92655
:1052A0003091BA2648E061E083EE95E20E944C3CE2
:1052B000A9C12BED34E241E061E083EE95E20E946A
:1052C000013C29EC32E24FE061E083EE95E20E947E
:1052D000013C2FED34E241E062E083EE95E20E9472
:1052E000013C24EE34E24DE062E083EE95E20E9460
:1052F000013C29EE34E241E063E083EE95E20E9456
:10530000013C22EF34E24DE063E083EE95E20E943F
:10531000013C27EF34E241E064E083EE95E20E9435
:10532000013C2091542530E045E061E083EE95E2B8
:105330000E944C3C209156253091572546E062E072
:1053400083EE95E20E944C3C20915C2530915D25D6
:1053500042E162E083EE95E20E944C3C2091012004
:10536000332727FD30954AE063E083EE95E20E9403
:105370004C3C209100202F3F39F08AE52802900113
:105380001124235D3F4F02C02FEF3FEF42E163E066
:1053900083EE95E20E944C3C2091552530E048E098
:1053A00064E083EE95E20E944C3C2CC12EEF34E287
:1053B00041E061E083EE95E20E94013C20914E279E
:1053C00030914F2747E061E083EE95E20E944C3C2C
:1053D0002AE533E241E062E083EE95E20E94013C7F
:1053E000209150273091512747E062E083EE95E20B
:1053F0000E944C3C23E633E241E063E083EE95E219
:105400000E94013C209152273091532747E063E0EE
:1054100083EE95E20E944C3C2CE633E241E064E0EE
:1054200083EE95E20E94013C20915427309155274C
:1054300047E064E083EE95E20E944C3C23EA33E2CD
:105440004CE061E083EE95E20E94013C20915627FA
:105450003091572741E161E083EE95E20E944C3C98
:1054600029EA33E24CE062E083EE95E20E94013CDF
:10547000209158273091592741E162E083EE95E26F
:105480000E944C3C2FEA33E24CE063E083EE95E26D
:105490000E94013C20915A2730915B2741E163E053
:1054A00083EE95E20E944C3C25EB33E24CE064E055
:1054B00083EE95E20E94013C20915C2730915D27AC
:1054C00041E164E083EE95E20E944C3C9BC025E004
:1054D00035E241E061E083EE95E20E94013C2091DB
:1054E0004C2730914D274CE061E083EE95E20E941D
:1054F0004C3C22E135E241E062E083EE95E20E941D
:10550000013C20914A2730914B274CE062E083EE2A
:1055100095E20E944C3C76C02FE135E241E061E02B
:1055200083EE95E20E94013C2091D6263091D72649
:105530004CE061E083EE95E20E944C3C25E235E2CE
:1055400041E062E083EE95E20E94013C2091D52685
:1055500030E04CE062E083EE95E20E944C3C20910A
:10556000D52630E08091D6269091D72682179307D2
:1055700018F420EE31E202C027EE31E241E063E0B0
:1055800083EE95E20E94013C3DC029E235E241E014
:1055900061E083EE95E20E94013C2091332730E0E8
:1055A00041E062E083EE95E20E944C3C2BC02091EA
:1055B0003327215020933327209133272B3110F0AC
:1055C0000C9473220C947622209133272F5F209322
:1055D0003327209133272B3110F00C948422D1E013
:1055E000C0E061E070E0FC01E095F095A0E0B1E082
:1055F00014E60C948A22DA3010F00C94A3220D2FBA
:105600000C94A422DF91CF911F910F91FF90EF9006
:10561000089580916F2790917027863A9F4F8CF460
:1056200080916F279091702740E050E066E974E424
:10563000825F9E4F0E944A0A1092C2271092C3278F
:10564000089580916F27909170278B3591058CF08C
:1056500080916F279091702740E050E066E974E4F4
:105660008E5091400E944A0A1092C2271092C3277E
:1056700008958091462790914727C297B0F4809172
:105680004427909145278D9720F580914827909148
:1056900049278A359105A0F01CC08091442790913C
:1056A00045278A359105E0F024C06AE270E08AE57A
:1056B00090E00E94D60B1092C2271092C327089543
:1056C00040E050E066E974E480E090E00E944A0A1D
:1056D000F2CF80914827909149278D97F0F209C029
:1056E00040E050E066E974E480E090E00E944A0AFD
:1056F000E2CF6AE270E08AE590E00E94D60BDBCF51
:105700008F929F92AF92BF92CF92DF92EF92FF92D1
:105710000F931F93CF93DF938091732790917427FA
:10572000853C994008F4ECC1809146279091472729
:105730004E9708F4E8C1E4C180916F2790917027DB
:1057400091958195910921E0CC9754F020E008C013
:1057500080916F279091702721E0CC970CF020E08A
:10576000222359F080916F279091702740E050E8F4
:105770006BEB74E40E944A0ADFC180917327909119
:105780007427893B9B4008F0C6C180917327909194
:105790007427813F9A4008F4C6C180916F27909189
:1057A000702799235CF480916F27909170279195D1
:1057B000819591098D970CF4AEC1B5C180916F2789
:1057C000909170278D970CF4A6C1ADC180916F2781
:1057D0009091702740E050E066E974E48C5291406B
:1057E0000E944A0A80917721909178218B3591050A
:1057F000ACF060917521709176216A557109882706
:1058000077FD8095982F0E94A63F2DEC3CEC4CE450
:105810005FEB0E9470410E94733F14C0609175213C
:10582000709176216A557109882777FD8095982FA8
:105830000E94A63F2DEC3CEC4CEC5EEB0E947041CC
:105840000E94733F6093C2277093C32775C18091F4
:105850006F2790917027843C9F4F0CF041C080913E
:105860006F279091702740E050E066E974E4845D12
:105870009E4F0E944A0A80917721909178218B3522
:105880009105ACF060917521709176216A5571098E
:10589000882777FD8095982F0E94A63F2DEC3CEC41
:1058A0004CE45FEB0E9470410E94733F14C0609112
:1058B0007521709176216A557109882777FD809549
:1058C000982F0E94A63F2DEC3CEC4CEC5EEB0E9426
:1058D00070410E94733F6093C2277093C3272CC10D
:1058E00080916F2790917027992364F480916F279E
:1058F0009091702791958195910921E0069754F434
:1059000020E008C080916F279091702721E00697D2
:105910000CF420E0222309F44FC060916F277091AE
:105920007027882777FD8095982F0E94A63F23E354
:1059300033E343EF5FE30E9470410E94733FDC0159
:10594000CB0140E050E862E274E40E944A0A809190
:105950007721909178218B359105ACF0609175217C
:10596000709176216A557109882777FD8095982F67
:105970000E94A63F2DEC3CEC4CE45FEB0E94704192
:105980000E94733F14C060917521709176216A5511
:105990007109882777FD8095982F0E94A63F2DECEE
:1059A0003CEC4CEC5EEB0E9470410E94733F6093B4
:1059B000C2277093C327C0C020916F2730917027F2
:1059C000C0916F27D09170274CE94203B001439FEB
:1059D000700D112464527A4F882777FD8095982F97
:1059E0000E94A63FAB01BC01CE010E944A0A8091F1
:1059F0007721909178218B359105ACF060917521DC
:105A0000709176216A557109882777FD8095982FC6
:105A10000E94A63F2DEC3CEC4CE45FEB0E947041F1
:105A20000E94733F14C060917521709176216A5570
:105A30007109882777FD8095982F0E94A63F2DEC4D
:105A40003CEC4CEC5EEB0E9470410E94733F609313
:105A5000C2277093C32770C0E0ECF7E0808580FD1B
:105A600007C068E270E08AE590E00E94D60B06C0AD
:105A70006EE170E08AE590E00E94D60B1092C2279A
:105A80001092C32759C0809173279091742704E91D
:105A900011E1E801C81BD90BC0906B27D0906C278F
:105AA000E0906F27F0907027BE0180E090E00E94A8
:105AB000A43F2AE939E949E15FE30E9470414B01C3
:105AC0005C010C191D09BE01601B710B80E090E0A8
:105AD0000E94A43F20E030E040E05FE30E9470417C
