S00F00004174584D6567612E737265638E
S11300000C942D010C94E9200C9461010C94610171
S11300100C9461010C9461010C9461010C946101D4
S11300200C9461010C9461010C9461010C946101C4
S11300300C9461010C9461010C9461010C946101B4
S11300400C9461010C9461010C9461010C946101A4
S11300500C9412120C9461010C9461010C946101D2
S11300600C94561E0C94BF100C9461010C94610105
S11300700C9461010C9461010C9461010C94610174
S11300800C9461010C9461010C94711F0C94CF1FAA
S11300900C9461010C9461010C9461010C9460084E
S11300A00C9461010C9461010C9461010C942D2059
S11300B00C948B200C9461010C9461010C946101EB
S11300C00C9461010C9461010C9461010C94610124
S11300D00C9461010C9461010C9461010C94610114
S11300E00C9461010C9461010C9461010C94610104
S11300F00C9461010C9499030C94A2070C94610173
S11301000C9461010C9461010C9461010C946101E3
S11301100C9461010C9461010C9461010C94070826
S11301200C9461010C9461010C9461010C946101C3
S11301300C94EC1D0C94C51E0C9461010C9461018B
S11301400C9461010C9461010C9461010C94F01EF7
S11301500C9461010C9461010C9461010C94610193
S11301600C94CB1D0C94961D0C9461010C946101AC
S11301700C9461010C9461010C9461010C94610173
S11301800C9461010C9461010C9461010C94610163
S11301900C9461010C9461010C9461010C94610153
S11301A00C9461010C9461010C9461010C94211E66
S11301B00C941B1F0C9461010C9461010C9461015B
S11301C00C9461010C9461010C94461F0C94610120
S11301D00C9461010C9461010C9461010C94610113
S11301E00C9461010C9461010C9461010C94611DE7
S11301F00C946101BC21E6210722282249225222C3
S113020052225222522252227A22C3224D23DE2328
S11302106F24DB244B25A625EF25072710278027ED
S1130220B127C4274128D228084AD73B3BCE016EC8
S113023084BCBFFDC12F3D6C74319ABD56833DDA39
S11302403D00C77F11BED9E4BB4C3E916BAAAABE48
S1130250000000803F00B934C03411241FBECFEF2A
S1130260DFE2DEBFCDBF18BE19BE1ABE1BBE15E24B
S1130270A0E0B0E2E6E7FEE700E00BBF02C00790B3
S11302800D92AC32B107D9F71BBE27E2ACE2B5E25E
S113029001C01D92A53EB207E1F712E0C8E5D2E025
S11302A000E006C022970109FE010BBF0E94773EC1
S11302B0C635D10780E00807A9F70E949A2E0C944E
S11302C0293F0C940000FC01608371834863DB01C7
S11302D011964C93A081B18115962C930190F081D5
S11302E0E02D81E0848308950F93213208F051C0FA
S11302F0013408F050C0FC01E959FF4F308131113D
S11303004CC0FC01E959FF4F31E03083FC01E8594E
S1130310FF4F1082222371F0E42FF52F40E050E0CC
S11303203191DC01A40FB51F13963C934F5F5F4FCF
S11303304217B0F3DC0112966C931297FC01ED594D
S1130340FF4F2083AC59BF4F0C93DC01AB59BF4F17
S11303501C92DC01AA59BF4F1C922081222349F030
S1130360FC0122812E7F0190F081E02D268381E023
S113037017C0FC01EC59FF4F2081222381F0DC01DE
S113038012962C9112972160ED91FC91268381E0C5
S113039007C080E005C080E003C080E001C081E0C8
S11303A00F910895FC01E959FF4F2081211125C0C7
S11303B0FC01E959FF4F21E02083FC01E859FF4F7C
S11303C01082DC0112966C93FC01ED59FF4F1082F0
S11303D0FC01EC59FF4F1082FC01EB59FF4F1082D6
S11303E0FC01EA59FF4F1082FC0122812E7F01900B
S11303F0F081E02D268381E0089580E00895DC01FA
S1130400ED91FC911197248122FF05C0A859BF4F9B
S113041034E03C9305C0DC01A859BF4F33E03C9362
S113042028602483FC01E959FF4F10820895FC01E0
S1130430E859FF4F6083FC01E959FF4F108208958A
S1130440CF93DF93EC01FC01EA59FF4F80818034A4
S113045080F4E881F9818781FE01EA59FF4F908198
S1130460DE01A90FB11D93968C9380818F5F8083E9
S113047008C0E881F98183E0838362E0CE010E94B1
S11304801702FE01EC59FF4F9081FE01EA59FF4F1C
S11304908081891728F4E881F98182E0838308C088
S11304A0E881F98187E0838361E0CE010E9417022D
S11304B0DF91CF910895CF93DF93FC01ED59FF4F66
S11304C03081FC01EC59FF4F4081DC01ED91FC913E
S11304D0248124FF0CC023E02383FC01E859FF4F4F
S11304E025E02083FC01E959FF4F108224C0DC0180
S11304F0AB59BF4F2C91231768F4DC01AB59BF4FA4
S11305002C91EC01C20FD11D8B8187838C918F5F5D
S11305108C9311C0DC01AA59BF4F2C91241730F4DD
S1130520DC0112968C918160868305C023E02383CD
S113053061E00E941702DF91CF910895DC01ED91F3
S1130540FC912481322F3C7019F00E94FF01089520
S113055026FF03C00E945B02089522231CF40E941C
S11305602002089566E00E9417020895EF920F9307
S1130570CF93DF93FC01DB01EE2009F457C0603A0E
S113058088E0780739F4C0E4D6E088E0898384E021
S11305908A834CC0603B88E0780739F4C0E4D6E035
S11305A080E8898380E48A8341C0603A89E07807DF
S11305B039F4C0E6D6E088E0898384E08A8336C0D3
S11305C0603B89E0780739F4C0E6D6E080E88983A7
S11305D080E48A832BC0603A8AE0780739F4C0E863
S11305E0D6E088E0898384E08A8320C0603B8AE087
S11305F0780739F4C0E8D6E080E8898380E48A8308
S113060015C0603A8BE0780739F4C0EAD6E088E098
S1130610898384E08A830AC0603B8BE0780731F4E5
S1130620C0EAD6E080E8898380E48A83A083B1832A
S1130630228315A216A213A214A211A612A617A20F
S113064010A683E015968C931597007313960C935C
S11306501397552374F414968C911497846014960C
S11306608C9314975F7716964C93169717965C9312
S113067005C016964C93169717965C93A081B1818A
S113068014968C911497806114968C930190F08148
S1130690E02D848188608483DF91CF910F91EF9066
S11306A00895FC0187A190A521A532A58F5F982FFD
S11306B09F7081E0921301C080E08823C1F027A1DC
S11306C030A53327DF01A20FB31F53966C932F5F1E
S11306D03F4F2F70332727A330A7A081B1811396F2
S11306E09C9113979C7F2281922B13969C9308953F
S11306F0FC0181A592A527A130A5992728173907C0
S113070039F40190F081E02D83818C7F83830895F7
S1130710A1A5B2A5AE0FBF1F53968C91A081B18144
S11307208C9381A592A501968F70992781A792A792
S113073008951F920F920FB60F92112408B60F92CC
S113074018BE09B60F9219BE0AB60F921ABE0BB69E
S11307500F921BBECF92DF92EF92FF920F931F93E3
S11307602F933F934F935F936F937F938F939F93B5
S1130770AF93BF93EF93FF93CF93DF93CDB7DEB7E0
S1130780C054D109CDBFDEBFE0915625F091572565
S11307904081809131258230D1F130F4882359F0A1
S11307A0813009F075C01DC0833009F446C084301F
S11307B009F06EC058C080E090E0642F70E09B01A7
S11307C0082E02C0359527950A94E2F72170332745
S11307D0FC01EA5CFA4D208301968630910579F795
S11307E057C080E090E0642F70E09B01082E02C0A7
S11307F0359527950A94E2F721703327FC01E45CD0
S1130800FA4D208301968730910579F741C080E045
S113081090E0642F70E09B01082E02C03595279567
S11308200A94E2F721703327FC01ED5BFA4D208333
S113083001968630910579F72BC080E090E0642F13
S113084070E09B01082E02C0359527950A94E2F7C3
S113085021703327FC01E75BFA4D20830196873032
S1130860910579F715C080E090E0642F70E09B015A
S1130870082E02C0359527950A94E2F72170332794
S1130880FC01E05BFA4D208301968630910579F7EF
S11308908091312581110DC0842F90E0082E892F7D
S11308A0000C881F990B000C881F991F029709F0F0
S11308B024C380913125843009F0EFC2842F90E065
S11308C0082E892F000C881F990B000C881F991F74
S11308D0039709F012C3E1C210923125FE0131964B
S11308E080E4DF011D928A95E9F7CE2EDF2E7F0189
S11308F000E010E0B801882777FD8095982F0E94CA
S11309009C3B20E030E044E351E40E94663D20E05B
S113091030E044EB50E40E94243A0E94693BF70122
S1130920619371937F010F5F1F4F0032110511F71F
S1130930EC2DFD2D80E090E06FEF7FEFDC01AA5CF1
S1130940BA4D2C91222331F0208131816217730733
S11309500CF4B901019632968032910579F76F3F14
S1130960FFEF7F0709F055C085E280932C25A6C0D0
S1130970DC01AA5CBA4D2C91222351F1F1100BC079
S113098020813181DB01A21BB30B9D0172F43195EF
S1130990219531090AC020813181D801A21BB30BF2
S11309A09D011AF4319521953109243B31051CF040
S11309B0BE2DB21B2B2F30E0421753074CF4F1101D
S11309C004C000811181A90103C060817181A90162
S11309D0019632968032910559F60F3FEFEF1E07CC
S11309E099F4882777FD8095982F0E949C3B2DECE5
S11309F03CEC4CEC5DE30E94663D0E94C93D0E94C4
S1130A006E3B60932C255AC0F394F2E0FF120AC0A7
S1130A104DC2F12C40E050E00FEF1FEF0F2EF8E62F
S1130A20EF2EF02DEC2DFD2D80E090E0A1CF962F40
S1130A30872FB801092F182FCB01801B910B853B01
S1130A409105BCF028E631E08901081B190BC801A7
S1130A5095958795680F791F882777FD8095982F3E
S1130A600E949C3B2DEC3CEC4CEC5DE30E94663D0B
S1130A7010C095958795681B790B882777FD80951D
S1130A80982F0E949C3B2DEC3CEC4CEC5DE30E94C7
S1130A90663D0E94C93D0E946E3B60932C25909157
S1130AA02C2589E3989F812D11248695869586951A
S1130AB014E2819F9019112490932C2580912C2568
S1130AC0853209F054C080912D25882309F441C052
S1130AD0809100208F3FA9F02091A9273091AA2767
S1130AE04AE58402C00111248F519F4F68E671E0EA
S1130AF00E94353E821B930B8093342590933525B9
S1130B0016C02091A9273091AA27809101205AE587
S1130B108502C00111248C549F4F68E671E00E9445
S1130B20353E821B930B8093342590933525809119
S1130B30342590913525919581959109809334259B
S1130B409093352584E080933325E0E0F7E08583B6
S1130B50D4C18FEF809301208093022080930020E2
S1130B601092332584E0E0E0F7E08683C6C184E098
S1130B70E0E0F7E0858320912C254091A92750914E
S1130B80AA27822F90E09C01220F331FC901880FEE
S1130B90991F880F991F820F931F840F951F992304
S1130BA02CF080932E2590932F2506C088599E4FB4
S1130BB080932E2590932F2580912E2590912F257B
S1130BC068E671E00E94353E482F592F80932E2508
S1130BD090932F25809102208F3FD9F4842F9C017C
S1130BE02D5231092A35310568F09C012758310905
S1130BF02A35310548F0815E91098A35910530F432
S1130C0083E005C081E003C082E001C080E08093FE
S1130C100220809100208F3F49F5842F952F9C015D
S1130C202E5131092E31310508F44BC19C01225D4E
S1130C3031092E31310508F444C19C01285731098A
S1130C402E31310508F437C18C5291404E9708F487
S1130C5032C18FEF09C0833011F081E005C083E019
S1130C6003C083E001C082E080930020A0910120B2
S1130C708A2F992787FD9095242F352FF901BD9749
S1130C80EA35F10508F42EC1A901475851094A353E
S1130C90510508F41EC1B901615E71096A35710517
S1130CA008F019C163E018C1A901475851094A3530
S1130CB0510540F0A901415E51094A35510520F41E
S1130CC043E005C042E003C040E001C041E0BC0194
S1130CD0641B710962307105C1F414C04A355105B1
S1130CE040F0A901415E51094A35510520F443E021
S1130CF003C042E001C040E050E0481B590B4230C1
S1130D00510519F4AF3F09F0F4C0EA35F10570F06C
S1130D10A901475851094A35510550F0A901415ECE
S1130D2051094A35510530F443E005C041E003C0A0
S1130D3042E001C040E050E08417950711F410929E
S1130D402D25409100204F3F79F1EA35F10570F0EF
S1130D50C901875891098A35910550F0C901815E0E
S1130D6091098A35910530F483E005C081E003C020
S1130D7082E001C080E0582F481769F0992787FD69
S1130D809095841B910947FD9395019721F0433079
S1130D9031F4511104C010922D2540E033C081E09C
S1130DA080932D2541E004C040912D25442351F129
S1130DB050912C25852F90E0880F991FBC01660F58
S1130DC0771F660F771F860F971FEA35F10568F0C6
S1130DD0B901675871096A35710548F0215E310916
S1130DE02A35310530F423E005C021E003C022E0B8
S1130DF001C020E030E02E5F3F4F23703078209315
S1130E0001202AC050912C25852F90E0880F991F2E
S1130E10BC01660F771F660F771F860F971F8C54D0
S1130E209F4F68E671E00E94353EEA35F10568F0AF
S1130E30B901675871096A35710548F0215E3109B5
S1130E402A35310530F423E005C021E003C022E057
S1130E5001C020E020930120853B910514F08856C1
S1130E6091409195819591098093342590933525EE
S1130E70442311F083E001C082E080933325809104
S1130E8030258F5F8093302585FF37C088ED84BF80
S1130E9081E0E8E7F0E0818330C0809131258F5F05
S1130EA080933125853008F017CD27C0601771076E
S1130EB00CF4BDCDC1CD80910220882309F4D1CE9C
S1130EC0CACE809102208250823008F4CCCE80E0D9
S1130ED0CBCE62E001C060E08C01061B11090AF070
S1130EE0E3CEFCCEAC01415051090AF0EFCE41E013
S1130EF003CF41E040932D2508CFC05CDF4FCDBF29
S1130F00DEBFDF91CF91FF91EF91BF91AF919F91A0
S1130F108F917F916F915F914F913F912F911F918D
S1130F200F91FF90EF90DF90CF900F900BBE0F903A
S1130F300ABE0F9009BE0F9008BE0F900FBE0F900F
S1130F401F9018951F920F920FB60F92112408B696
S1130F500F9218BE09B60F9219BE0BB60F921BBEA4
S1130F602F933F934F935F936F937F938F939F93AD
S1130F70AF93BF93EF93FF9386E595E20E947803C6
S1130F80FF91EF91BF91AF919F918F917F916F915D
S1130F905F914F913F912F910F900BBE0F9009BE1F
S1130FA00F9008BE0F900FBE0F901F901895EF92F0
S1130FB00F93EE24E39400E322E049E150E060EB78
S1130FC07AE086E595E20E94B6020F91EF900895CB
S1130FD0811108C060E086E595E20E9451031092F9
S1130FE081250895909181259F5F90938125963066
S1130FF068F0813031F46AEA86E595E20E94510393
S1131000089565E586E595E20E94510308951F92CF
S11310100F920FB60F92112408B60F9218BE09B69C
S11310200F9219BE0AB60F921ABE0BB60F921BBED0
S11310302F933F938F939F93AF93BF93CF93DF935C
S1131040EF93FF93A0918C27B0E0E0E0F2E084A15D
S113105095A1C0918C27D0E0CC0FDD1FC459D84D89
S113106028813981821B930BAA0FBB1FA45AB84D48
S11310708D939C9380918C278F5F877080938C27AE
S113108080918C27880F880F880F81A380A18068A6
S113109080A3FF91EF91DF91CF91BF91AF919F9189
S11310A08F913F912F910F900BBE0F900ABE0F901E
S11310B009BE0F9008BE0F900FBE0F901F90189599
S11310C01F920F920FB60F92112408B60F9218BEFA
S11310D00F9008BE0F900FBE0F901F901895AAECAA
S11310E0B1E022E02C93FC0184911C9290E00895DD
S11310F0CF93DF9380E290E00E946F08C0E0D2E0DB
S11311008C8781E290E00E946F088D8780E290E0F6
S11311100E946F088C8781E290E00E946F088D879F
S113112081E088A319A2198296E09C8390E39A83B4
S11311301B829FE09E838AA3888388A1806888A3FA
S1131140DF91CF910895AB01772324F444275527E9
S1131150461B570B242F352F2D3D95E0390710F0F2
S11311602CED35E01616170694F440E150E0082EF5
S113117002C0440F551F0A94E2F7E0E2F7E045830A
S11311804CED55E0BA01621B730B9B010BC040E1AF
S113119050E0082E02C0440F551F0A94E2F7E0E223
S11311A0F7E04683811105C0E0E0FAE020A731A70B
S11311B00895813029F4E0E0FAE022A733A70895E6
S11311C0823029F4E0E0FAE024A735A70895E0E0AE
S11311D0FAE026A737A708952F923F924F925F9285
S11311E06F927F928F929F92AF92BF92CF92DF9233
S11311F0EF92FF920F931F93CF93DF93CDB7DEB798
S1131200A697CDBFDEBF1C0180E1E0EBF1E2DE0179
S1131210519601900D928A95E1F780E1E0ECF1E2BC
S1131220DE01119601900D928A95E1F7CE01419667
S11312308BA39CA3FE013196E9A3FAA300E010E07E
S11312402DA23EA25101FAE5AF0EB11C2A013B01C9
S113125004C18DA19EA188599E4FEAF3893621E0ED
S1131260920734F0885691408936E1E09E07D4F71E
S11312708A35910564F4FC01EE0FFF1FEE0FFF1F8A
S1131280E75FFF4D208131814281538136C0843B29
S113129091057CF4E4EBF0E0E81BF90BEE0FFF1F83
S11312A0EE0FFF1FE75FFF4D2081318142815381A3
S11312B024C08E30F1E09F077CF4FC01EE0FFF1F89
S11312C0EE0FFF1FE75CF24E80819181A281B38112
S11312D09C01AD01505811C0E8E6F1E0E81BF90BA0
S11312E0EE0FFF1FEE0FFF1FE75FFF4D808191811F
S11312F0A281B3819C01AD0150587801E9A1FAA102
S11313006191719181919191E9A3FAA30E94663D43
S1131310A30192010E94663D862E972EC82ED92ED7
S1131320C501BB201CF488599E4FEAF38936F1E0CD
S11313309F0734F088569140893621E09207D4F70C
S11313408A35910564F4FC01EE0FFF1FEE0FFF1FB9
S1131350E75FFF4D208131814281538136C0843B58
S113136091057CF4E4EBF0E0E81BF90BEE0FFF1FB2
S1131370EE0FFF1FE75FFF4D2081318142815381D2
S113138024C08E30E1E09E077CF4FC01EE0FFF1FC9
S1131390EE0FFF1FE75CF24E80819181A281B38141
S11313A09C01AD01505811C0E8E6F1E0E81BF90BCF
S11313B0EE0FFF1FEE0FFF1FE75FFF4D808191814E
S11313C0A281B3819C01AD015058EBA1FCA16191B4
S11313D0719181919191EBA3FCA30E94663DA301BD
S11313E092010E94663D9B01AC01682D792D8C2DE4
S11313F09D2D0E94243A862E972EC82ED92E20E0A9
S113140030E0A9010E94C43C18166CF420E030E0DE
S113141040E05FE3682D792D8C2D9D2D0E94243AA8
S11314200E94D73B0CC020E030E040E05FE3682D31
S1131430792D8C2D9D2D0E94233A0E94EA3A0E9418
S1131440693BF701EE0FFF1FE355F84D608371838D
S11314500F5F1F4F0430110531F033200CF4F9CE27
S11314608DA19EA1FBCEA696CDBFDEBFDF91CF910D
S11314701F910F91FF90EF90DF90CF90BF90AF90AE
S11314809F908F907F906F905F904F903F902F90A0
S113149008952F923F924F925F926F927F928F9214
S11314A09F92AF92BF92CF92DF92EF92FF920F93EF
S11314B01F93CF93DF93CDB7DEB7A697CDBFDEBF23
S11314C08C016A017B0180E1E0EBF1E2DE015196DF
S11314D001900D928A95E1F780E1E0ECF1E2DE0102
S11314E0119601900D928A95E1F7053B11052CF0B8
S11314F008561140053B1105DCF70C342FEF120799
S11315000CF02AC108591E4F0C348FEF1807D4F37E
S113151023C18DA19EA188599E4FEAF38936E1E04B
S11315209E0734F0885691408936F1E09F07D4F73E
S11315308A35910564F4FC01EE0FFF1FEE0FFF1FC7
S1131540E75FFF4D208131814281538136C0843B66
S113155091057CF4E4EBF0E0E81BF90BEE0FFF1FC0
S1131560EE0FFF1FE75FFF4D2081318142815381E0
S113157024C08E3021E092077CF4FC01EE0FFF1FA3
S1131580EE0FFF1FE75CF24E80819181A281B3814F
S11315909C01AD01505811C0E8E6F1E0E81BF90BDD
S11315A0EE0FFF1FEE0FFF1FE75FFF4D808191815C
S11315B0A281B3819C01AD0150587501E9A1FAA142
S11315C06191719181919191E9A3FAA30E94663D81
S11315D0A30192010E94663D862E972EC82ED92E15
S11315E0C10133201CF488599E4FEAF38936F1E097
S11315F09F0734F088569140893621E09207D4F74A
S11316008A35910564F4FC01EE0FFF1FEE0FFF1FF6
S1131610E75FFF4D208131814281538136C0843B95
S113162091057CF4E4EBF0E0E81BF90BEE0FFF1FEF
S1131630EE0FFF1FE75FFF4D20813181428153810F
S113164024C08E30E1E09E077CF4FC01EE0FFF1F06
S1131650EE0FFF1FE75CF24E80819181A281B3817E
S11316609C01AD01505811C0E8E6F1E0E81BF90B0C
S1131670EE0FFF1FEE0FFF1FE75FFF4D808191818B
S1131680A281B3819C01AD015058EBA1FCA16191F1
S1131690719181919191EBA3FCA30E94663DA301FA
S11316A092010E94663D9B01AC01682D792D8C2D21
S11316B09D2D0E94243A862E972EC82ED92E20E0E6
S11316C030E0A9010E94C43C18166CF420E030E01C
S11316D040E05FE3682D792D8C2D9D2D0E94243AE6
S11316E00E94D73B0CC020E030E040E05FE3682D6F
S11316F0792D8C2D9D2D0E94233A0E94EA3A0E9456
S1131700693BF701EE0FFF1FE355F84D60837183CA
S113171080913325882399F0F701EE0FFF1FE355DD
S1131720F84D8081918199230CF4019695958795C4
S1131730F701EE0FFF1FE355F84D80839183FFEF10
S1131740AF1ABF0A24E0A216B104C9F011230CF4A5
S1131750E0CE8DA19EA1E2CECE0141968BA39CA3A7
S1131760FE013196E9A3FAA3A12CB12C0DA31EA36B
S11317701801FAE52F0E311C26013701E7CFA69692
S1131780CDBFDEBFDF91CF911F910F91FF90EF90FE
S1131790DF90CF90BF90AF909F908F907F906F908D
S11317A05F904F903F902F9008952F923F924F92C9
S11317B05F926F927F928F929F92AF92BF92CF92DD
S11317C0DF92EF92FF920F931F93CF93DF93CDB7E6
S11317D0DEB7A897CDBFDEBF5C016B0180E1E0ED11
S11317E0F1E2DE01519601900D928A95E1F780E1D4
S11317F0E0ECF1E2DE01119601900D928A95E1F799
S1131800E0907521F0907621EA18FB080091772189
S113181010917821061B170B8091B5279091822592
S1131820981709F445C160917521709176216A1960
S11318307B09882777FD8095982F0E949C3B2DEC8F
S11318403CEC4CE45BE30E94663D2091832530919F
S1131850842540918525509186250E94243A662E40
S1131860772E882E992E20E030E048EC52E40E9436
S1131870C43C18166CF480E090E0A8ECB2E48093C9
S1131880832590938425A0938525B093862525C030
S113189020E030E048EC52EC662D772D882D992D10
S11318A00E94FD3A88236CF0862D972DA82DB92D22
S11318B08093832590938425A0938525B0938625D2
S11318C00CC080E090E0A8ECB2EC80938325909368
S11318D08425A0938525B093862560917521709108
S11318E076216A197B09882777FD8095982F0E94B5
S11318F09C3B2091832530918425409185255091EE
S113190086250E94663D20E030E0A9010E94FD3A50
S1131910181644F010928325109284251092852580
S11319201092862560917721709178216C197D0938
S1131930882777FD8095982F0E949C3B2DEC3CECEA
S11319404CE45BE30E94663D209187253091882515
S11319504091892550918A250E94243A862E972EFB
S1131960A82EB92E20E030E048EC52E40E94C43C9A
S113197018166CF480E090E0A8ECB2E4809387251C
S113198090938825A0938925B0938A2525C020E0CB
S113199030E048EC52EC682D792D8A2D9B2D0E9465
S11319A0FD3A88236CF0882D992DAA2DBB2D8093A8
S11319B0872590938825A0938925B0938A250CC008
S11319C080E090E0A8ECB2EC809387259093882582
S11319D0A0938925B0938A2560917721709178210D
S11319E06C197D09882777FD8095982F0E949C3B70
S11319F020918725309188254091892550918A2509
S1131A000E94663D20E030E0A9010E94FD3A1816CC
S1131A1044F01092872510928825109289251092FF
S1131A208A258091032090910420B701681B790BCB
S1131A30882777FD8095982F0E949C3B20E030E01A
S1131A4040E852E40E94663D20E030E040EA50E481
S1131A500E94663D462E572E882E992E8091052091
S1131A6090910620B801681B790B882777FD809533
S1131A70982F0E949C3B20E030E040E852E40E9412
S1131A80663D20E030E040EA50E40E94663D662E68
S1131A90772EA82EB92EE0920320F0920420009312
S1131AA00520109306208091B5278093822508C0D5
S1131AB0612C712CA12CB12C412C512C812C912CFA
S1131AC0B701882777FD8095982F0E949C3B20E0E2
S1131AD030E040E451E40E94663D6B017C0120E06B
S1131AE030E040E850E46091832570918425809132
S1131AF08525909186250E94663D9B01AC01C70116
S1131B00B6010E94243A6B017C012DEC3CEC4CE4C0
S1131B105EE3642D752D882D992D0E94663D9B01F1
S1131B20AC01C701B6010E94243A262E372E882E16
S1131B30992EB801882777FD8095982F0E949C3BA9
S1131B4020E030E040E451E40E94663D6B017C01FA
S1131B5020E030E040E850E46091872570918825CA
S1131B608091892590918A250E94663D9B01AC0154
S1131B70C701B6010E94243A6B017C012DEC3CECB8
S1131B804CE45EE3662D772D8A2D9B2D0E94663DE5
S1131B909B01AC01C701B6010E94243A6DA37EA348
S1131BA08FA398A7CE0101968BA39CA3FE017196E7
S1131BB0E9A3FAA300E010E05801EBA1FCA12191F4
S1131BC0319141915191EBA3FCA3E9A1FAA1419078
S1131BD0519061907190E9A3FAA3622D732D882D21
S1131BE0992D0E94663D6B017C01A3019201BDA168
S1131BF0AEA1FFA1E8A56B2F7A2F8F2F9E2F0E94F5
S1131C00663D9B01AC01C701B6010E94243AC62E71
S1131C10D72EE82EF92E20E030E0A9010E94C43C22
S1131C2018166CF420E030E040E05FE36C2D7D2D6D
S1131C308E2D9F2D0E94243A0E94D73B0CC020E099
S1131C4030E040E05FE36C2D7D2D8E2D9F2D0E94B2
S1131C50233A0E94EA3A0E94693BF501EE0FFF1F06
S1131C60E355F84D608371830F5F1F4F04301105F6
S1131C7009F0A2CF80E090E060E070E09C01FC01FC
S1131C80EE0FFF1FE355F84D40815181552344F079
S1131C90FC01EE0FFF1FE355F84D408151810AC04E
S1131CA0FC01EE0FFF1FE355F84D40815181519522
S1131CB04195510964177507DCF4F901EE0FFF1F14
S1131CC0E355F84D40815181552344F0F901EE0F5D
S1131CD0FF1FE355F84D608171810AC0F901EE0FD1
S1131CE0FF1FE355F84D608171817195619571090C
S1131CF001968430910511F6613BF4E07F070CF402
S1131D005BC0882777FD8095982F0E949C3B9B01A0
S1131D10AC0160E070E086E994E40E94013BA62EE9
S1131D20B72EC82ED92E00E010E07801F801EE0F8E
S1131D30FF1FE355F84D60817181882777FD8095F9
S1131D40982F0E949C3B2A2D3B2D4C2D5D2D0E94EB
S1131D50663D662E772E882E992E20E030E0A9016C
S1131D600E94C43C18166CF420E030E040E05FE3CD
S1131D70662D772D882D992D0E94243A0E94D73BF9
S1131D800CC020E030E040E05FE3662D772D882D25
S1131D90992D0E94233A0E94EA3A0E94693BF70176
S1131DA0EE0FFF1FE355F84D608371830F5F1F4FE4
S1131DB00430110509F0B9CFA896CDBFDEBFDF917D
S1131DC0CF911F910F91FF90EF90DF90CF90BF9034
S1131DD0AF909F908F907F906F905F904F903F90C7
S1131DE02F9008958F929F92AF92BF920F931F935B
S1131DF0CF93DF93BC01A8958730910558F020E478
S1131E003CE9C9010197F1F766507109A89567305B
S1131E107105B8F780E090E00E949A3B4B015C01A9
S1131E2020E030E04AEF55E40E94663D062F172F6C
S1131E30D82FC92F20E030E040E85FE30E94FD3A4C
S1131E4088234CF120E03FEF4FE757E4602F712FD8
S1131E508D2F9C2F0E94C43C1816B4F420E030E06F
S1131E6040E251E4C501B4010E94663D0E946E3B0C
S1131E7061157105A9F020E233E0C9010197F1F77A
S1131E8061507109D1F70CC0602F712F8D2F9C2FD9
S1131E900E946E3B02C061E070E0CB010197F1F754
S1131EA0A895DF91CF911F910F91BF90AF909F9014
S1131EB08F9008959091922591111DC0811123C096
S1131EC01AC088EE93E0E0E0F8E080A791A706C08E
S1131ED08AE892E0E0E0F8E080A791A71092082059
S1131EE0089584EF91E0E0E0F8E080A791A781E015
S1131EF080930820089580910820815080930820C1
S1131F00882379F30895823019F7DBCF8091072075
S1131F108823B9F081E08093922584E690E0809351
S1131F208E2590938F2510928B2510928C258EEF01
S1131F309FEF80933E2790933F27109207201092A3
S1131F409225089580910720882361F08FE090E026
S1131F5080938E2590938F2510928B2510928C253B
S1131F6010920720089580910720811118C0809154
S1131F709025909191250196809390259093912599
S1131F808F3F910560F084E0E0E2F7E086831092F1
S1131F9090251092912581E08093072008958091E7
S1131FA08E2590918F25892B71F080918E259091AB
S1131FB08F25019780938E2590938F2584E0E0E20E
S1131FC0F7E08583089584E0E0E2F7E086830895EE
S1131FD0E0E2F7E0808581FF2EC080918B2590910F
S1131FE08C250697C0F081E080938D2588E0E0E0A1
S1131FF0F7E0858380918B2590918C25499708F093
S113200046C080918B2590918C25019680938B25D9
S113201090938C25089510928D2588E0E0E0F7E0F8
S1132020868380918B2590918C25019680938B25B6
S113203090938C25089580918B2590918C250697FB
S113204088F081E080938D2588E0E0E0F7E08583E7
S113205080918B2590918C25019780938B2590936B
S11320608C25089510928D2588E0E0E0F7E08683C2
S113207080918B2590918C25892B49F080918B251B
S113208090918C25019780938B2590938C250895AE
S113209081309105E9F56F3F7F4F09F05EC046EC52
S11320A06EEB75E28BEB95E20E94913742EE6EEB9C
S11320B075E28FEA95E20E945A3944EE6EEB75E2BE
S11320C083EB95E20E945A3946EE6EEB75E287EB9C
S11320D095E20E945A3940E567E276E28BEA95E29E
S11320E00E94C7344EEC6EEB75E287EA95E20E94DB
S11320F0ED3848EA6EEB75E287E995E20E945439BF
S113210040EC67E276E283E995E20E948A3708951B
S1132110892B19F56F3F7F4F01F583E995E20E9402
S1132120903787E995E20E94593987EA95E20E943F
S1132130F3388BEA95E20E94CD3487EB95E20E9456
S1132140603983EB95E20E9460398FEA95E20E9440
S113215060398BEB95E20E9496370895EF920F93C6
S1132160EE24E39400E221E04FEC50E060EA78E0F2
S113217089EB97E20E94B6020F91EF9008951F92A7
S11321800F920FB60F92112408B60F9218BE09B61B
S11321900F9219BE0AB60F921ABE0BB60F921BBE4F
S11321A02F933F934F935F936F937F938F939F935B
S11321B0AF93BF93CF93DF93EF93FF93E091B9274E
S11321C0F091BA2740818091B827873009F462C022
S11321D068F4833039F120F4813021F148F51CC0D2
S11321E0853009F442C008F04DC036C08B3009F484
S11321F07BC030F4893009F462C008F06DC057C068
S11322008D3009F486C008F47CC08E3009F48EC089
S11322108F3009F0E7C092C0453509F4E3C010924D
S1132220B827E5C04A3A09F4DDC01092B827DFC0E8
S1132230453531F4E091B627F091B72712860CC0EA
S1132240463539F4E091B627F091B72781E08287CB
S113225003C01092B827CBC0E091B627F091B727FE
S1132260842F90E083879487BDC0E091B627F091D6
S1132270B72723853485942F80E0822B932B838783
S11322809487B0C0E091B627F091B72750E040871B
S11322905187A8C0E091B627F091B72720853185F2
S11322A0942F80E0822B932B808791879BC0E091B1
S11322B0B627F091B72750E04483558393C0E0914B
S11322C0B627F091B72724813581942F80E0822BA3
S11322D0932B8483958386C0E091B627F091B7272A
S11322E050E0468357837EC0E091B627F091B7272C
S11322F026813781942F80E0822B932B86839783CA
S113230071C0E091B627F091B72750E04083518324
S113231069C0E091B627F091B72720813181942FCD
S113232080E0822B932B808391835CC0E091B6275D
S1132330F091B72750E04283538354C0E091B6270D
S1132340F091B72722813381942F80E0822B932B45
S11323508283938320813181C281D381A481B58119
S11323606681778140855185838594852C0F3D1F37
S11323702A0F3B1F260F371F240F351F2817390735
S113238069F581E08587248135818091A927909121
S1132390AA2740918D2750918E27205A310912F493
S11323A02D5F3F4F3595279535952795820F931FC0
S11323B09A01220F331F220F331F220F331F420FA4
S11323C0531F840F951F6AE070E00E94353E6093AE
S11323D08D2770938E271092E42701C015861092E2
S11323E0B82705C08091B8278F5F8093B827FF91E5
S11323F0EF91DF91CF91BF91AF919F918F917F9199
S11324006F915F914F913F912F910F900BBE0F9061
S11324100ABE0F9009BE0F9008BE0F900FBE0F901A
S11324201F9018951F920F920FB60F92112408B6A1
S11324300F9218BE09B60F9219BE0AB60F921ABEB1
S11324400BB60F921BBE2F923F924F925F926F92E8
S11324507F928F929F92AF92BF92CF92DF92EF9230
S1132460FF920F931F932F933F934F935F936F9319
S11324707F938F939F93AF93BF93EF93FF93CF93E8
S1132480DF93CDB7DEB72A97CDBFDEBF8091B527E6
S11324908931E8F11092B527E0EEF6E0808580FD01
S11324A03BC0808586FD1BC08091AF218823D1F07D
S11324B08BEA95E20E94F5358093A4279093A52793
S11324C010929127109292276091A4277091A527CA
S11324D080E590E00E94E13E1092AF2103C081E0CC
S11324E08093AF2110923D2710923E2710923F27F0
S11324F0E0EEF6E0808580FD06C0808582958170DF
S11325000E94E80709C080E00E94E80705C08091A6
S1132510B5278F5F8093B527E0EEF6E0808580FDD8
S113252004C01092332510922D258091AC269091F1
S1132530AD269C012F5F3F4F2093AC263093AD26F0
S1132540893B9B4050F080E00E945A0F89EB9BE04E
S11325508093AC269093AD2630C08091AC269091A8
S1132560AD269C012F5F3F4F2093AC263093AD26C0
S1132570813D974038F084EF91E0E0E0F8E080A7F7
S113258091A71BC08091AC269091AD269C012F5F32
S11325903F4F2093AC263093AD26893E934038F0CC
S11325A088EE93E0E0E0F8E080A791A706C084EF0E
S11325B091E0E0E0F8E080A791A78091A6278F5FE3
S11325C08093A627843008F45AC01092A6278091DD
S11325D0A0279091A1278093A2279093A3278BEA09
S11325E095E20E944837853009F03FC080E4E0E07E
S11325F0F7E086838BEA95E20E94F5352091A427C3
S11326003091A527821B930B89879A8789859A85A0
S1132610853B91053CF089859A8588569140898748
S11326209A870BC089859A858C349F4F34F48985A9
S11326309A8588599E4F89879A8789859A85809338
S1132640A9279093AA278BEA95E20E940637833F35
S113265030F080E8E0E0F7E086830C94EB1C80E83F
S1132660E0E0F7E085830C94EB1C8BEA95E20E9492
S1132670CE3480E4E0E0F7E085830C94EB1C8130F9
S113268009F05BC487EA95E20E94F43880939226AD
S113269090939326883F9A4288F4809191268F5F85
S11326A0809391268531CCF090E2E0E0F7E09583C9
S11326B089329CF088E2809391260FC08091912604
S11326C0815080939126843144F490E2E0E0F7E075
S11326D09683882314F410929126E0EEF6E0808528
S11326E085FF03C08CE291E002C080ED97E0209169
S11326F05C2730915D272817390798F520915E27CC
S113270030915F272817390760F5209160273091B1
S113271061272817390728F520916227309163270C
S113272028173907F0F4209164273091652728177A
S11327303907B8F42091662730916727281739079D
S113274080F420916827309169272817390748F4C5
S113275020916A2730916B272817390710F40C94BD
S1132760061D0F2EF3E1CF2EF5E2DF2EF02DE12C26
S1132770F12C212C312C412C512C612C712C812CCD
S1132780912C5701F701EE0FFF1FE45AF84D6081B9
S1132790718180E090E00E949A3BF60130812181B2
S11327A0F2E0CF0ED11C032F122F11232CF4980129
S11327B028593E4FEAF301C09801293641E0340715
S11327C034F0285631402936E1E03E07D4F72A3563
S11327D0310564F4F901EE0FFF1FEE0FFF1FE75FF1
S11327E0FF4D208131814281538132C0243B310528
S11327F07CF4E4EBF0E0E21BF30BEE0FFF1FEE0FB3
S1132800FF1FE75FFF4D208131814281538120C04A
S11328102E30F1E03F076CF4F901EE0FFF1FEE0FCD
S1132820FF1FE75CF24E2081318142815381505871
S11328300FC0E8E6F1E0E21BF30BEE0FFF1FEE0F13
S1132840FF1FE75FFF4D2081318142815381505842
S11328500E94663D9B01AC01662D772D882D992D34
S11328600E94243A662E772E882E992EF501EE0FBB
S1132870FF1FE45AF84D6081718180E090E00E946E
S11328809A3B065A1F4F1AF408591E4FEAF30936A9
S113289021E0120734F008561140093631E01307DD
S11328A0D4F70A35110564F4F801EE0FFF1FEE0F9B
S11328B0FF1FE75FFF4D208131814281538136C084
S11328C0043B11057CF4E4EBF0E0E01BF10BEE0FAC
S11328D0FF1FEE0FFF1FE75FFF4D20813181428113
S11328E0538124C00E3041E014077CF4F801EE0F4C
S11328F0FF1FEE0FFF1FE75CF24E00811181228162
S11329003381A9019801505811C0E8E6F1E0E01BB9
S1132910F10BEE0FFF1FEE0FFF1FE75FFF4D00816E
S1132920118122813381A901980150580E94663D8A
S11329309B01AC01622D732D842D952D0E94243AA8
S1132940262E372E482E592E8FEFE81AF80AE8E083
S1132950EE16F10409F015CF262D372D482D592DEB
S1132960622D732D842D952D0E94973A20E030E03E
S113297044E353E40E94663D2BED3FE049E450E418
S11329800E94013B0E94693B60934627709347274E
S1132990E0ECF7E0808580FF09C0809146279091A4
S11329A0472705968093462790934727809146278B
S11329B0909147272091A9273091AA27821B930B36
S11329C080934427909345278091462790914727E9
S11329D08D349F4F5CF48091462790914727885906
S11329E09E4F809346279093472711C08091462796
S11329F090914727853B910554F08091462790910B
S1132A004727885691408093462790934727222D45
S1132A10332D442D552D662D772D882D992D0E940B
S1132A20D13C6B017C0120E030E0A9010E94C43C50
S1132A3018165CF420E030E040E05FE3C701B60123
S1132A400E94243A0E94D73B0AC020E030E040E0D4
S1132A505FE3C701B6010E94233A0E94EA3A0E944A
S1132A606E3B60934A2770934B2700914627109141
S1132A70472760914A2770914B2780E090E00E949D
S1132A809A3B6B017C01000F111F000F111F065AA6
S1132A901F4F1AF408591E4FEAF3093621E01207B2
S1132AA034F008561140093631E01307D4F70A35DB
S1132AB0110564F4F801EE0FFF1FEE0FFF1FE75F2F
S1132AC0FF4D208131814281538136C0043B110581
S1132AD07CF4E4EBF0E0E01BF10BEE0FFF1FEE0FD4
S1132AE0FF1FE75FFF4D208131814281538124C064
S1132AF00E3041E014077CF4F801EE0FFF1FEE0FD7
S1132B00FF1FE75CF24E80819181A281B3819C0119
S1132B10AD01505811C0E8E6F1E0E01BF10BEE0FF7
S1132B20FF1FEE0FFF1FE75FFF4D80819181A281A0
S1132B30B3819C01AD01505860E070E080E191E404
S1132B400E94233A9B01AC01C701B6010E94663D75
S1132B5020E030E040E05EE30E94663DE62EF72E82
S1132B60082F192F20E030E0A9010E94C43C181658
S1132B706CF420E030E040E05FE36E2D7F2D802F89
S1132B80912F0E94243A0E94D73B0CC020E030E0F1
S1132B9040E05FE36E2D7F2D802F912F0E94233A1A
S1132BA00E94EA3A0E946E3B60934827709349273B
S1132BB000E010E0412C512C612C712C812C912CC3
S1132BC0A12CB12C0F2EF4EB2F2E312CF02D7801EB
S1132BD06801CC0CDD1CF601EA5DF84D6081718161
S1132BE080E090E00E949A3BF601E157FE4D20817F
S1132BF0318133231CF428593E4FEAF32936E1E0AE
S1132C003E0734F0285631402936F1E03F07D4F727
S1132C102A35310564F4F901EE0FFF1FEE0FFF1F93
S1132C20E75FFF4D208131814281538131C0243BD4
S1132C30310574F4F101E21BF30BEE0FFF1FEE0FED
S1132C40FF1FE75FFF4D208131814281538120C006
S1132C502E3041E034076CF4F901EE0FFF1FEE0F44
S1132C60FF1FE75CF24E208131814281538150582D
S1132C700FC0E8E6F1E0E21BF30BEE0FFF1FEE0FCF
S1132C80FF1FE75FFF4D20813181428153815058FE
S1132C900E94663D9B01AC01682D792D8A2D9B2DE8
S1132CA00E94243A862E972EA82EB92EEE0CFF1CD5
S1132CB0F701EA5DF84D6081718180E090E00E9447
S1132CC09A3BF701E157FE4D20813181265A3F4F4F
S1132CD01AF428593E4FEAF32936E1E03E0734F06E
S1132CE0285631402936F1E03F07D4F72A3531051B
S1132CF064F4F901EE0FFF1FEE0FFF1FE75FFF4DB6
S1132D00208131814281538135C0243B310574F4E3
S1132D10F101E21BF30BEE0FFF1FEE0FFF1FE75F46
S1132D20FF4D208131814281538124C02E3041E006
S1132D3034077CF4F901EE0FFF1FEE0FFF1FE75C71
S1132D40F24EC080D180E280F380A70196015058F2
S1132D5011C0E8E6F1E0E21BF30BEE0FFF1FEE0FEC
S1132D60FF1FE75FFF4DC080D180E280F380A701A1
S1132D70960150580E94663D9B01AC01642D752D4F
S1132D80862D972D0E94243A462E572E682E792E92
S1132D900F5F1F4F0830110509F019CF282D392D69
S1132DA04A2D5B2D642D752D862D972D0E94973A03
S1132DB020E030E044E353E40E94663D2BED3FE025
S1132DC049E450E40E94013B0E94693B609324273C
S1132DD07093252780912427909125278D349F4F28
S1132DE05CF4809124279091252788599E4F8093E5
S1132DF024279093252711C080912427909125277B
S1132E00853B910554F0809124279091252788567D
S1132E1091408093242790932527242D352D462DEA
S1132E20572D682D792D8A2D9B2D0E94D13C6B0145
S1132E307C0120E030E0A9010E94C43C18165CF437
S1132E4020E030E040E05FE3C701B6010E94243A8D
S1132E500E94D73B0AC020E030E040E05FE3C701B6
S1132E60B6010E94233A0E94EA3A0E946E3B6093A4
S1132E7022277093232780913E2790913F279C011E
S1132E802F5F3F4F20933E2730933F27803491405C
S1132E9008F041C080914A2790914B278039914096
S1132EA008F4C3C5209142273091432780914A27D3
S1132EB090914B27205931402817390708F0B5C5A0
S1132EC0209142273091432780914A2790914B27A4
S1132ED020573E4F8217930708F0A7C5209140273B
S1132EE030914127809146279091472725503109F9
S1132EF0281739070CF099C52091402730914127B4
S1132F0080914627909147272B5F3F4F8217930765
S1132F100CF461C58AC580913E2790913F27813882
S1132F20924020F481E080933D2755C510923D27BF
S1132F3010923E2710923F274EC5823009F042C3BB
S1132F408091A7279091A8272091A9273091AA279B
S1132F50821B930B853B91053CF0885691408093EE
S1132F60A0279093A1270FC08C344FEF94072CF027
S1132F708093A0279093A12706C088599E4F8093E1
S1132F80A0279093A1270091A0271091A127B80111
S1132F90882777FD8095982F0E949C3B4B015C010C
S1132FA020E030E040E85CE30E94663D20919C27ED
S1132FB030919D2740919E2750919F270E94243A4B
S1132FC0462E572E682E792E20E030E048E453E454
S1132FD00E94C43C18166CF480E090E0A8E4B3E4CA
S1132FE080939C2790939D27A0939E27B0939F271F
S1132FF025C020E030E048E453EC642D752D862D87
S1133000972D0E94FD3A88236CF0842D952DA62DD2
S1133010B72D80939C2790939D27A0939E27B093D0
S11330209F270CC080E090E0A8E4B3EC80939C2739
S113303090939D27A0939E27B0939F272091A2272A
S11330403091A327029FC001039F900D129F900D02
S1133050112418161906B4F020E030E040E05FE3D4
S113306060919C2770919D2780919E2790919F2726
S11330700E94663D60939C2770939D2780939E27B2
S113308090939F27C0909C27D0909D27E0909E27E7
S1133090F0909F27A7019601C501B4010E94663DE7
S11330A020E030E0A9010E94FD3A181684F024EAD9
S11330B030E74DE75FE3C701B6010E94663D6093C8
S11330C09C2770939D2780939E2790939F278BEA3C
S11330D095E20E94A73580939A2790939B2780912D
S11330E0AE25882321F010929A2710929B27609195
S11330F09A2770919B2700919127109192278827F6
S113310077FD8095982F0E949C3B20E030E040E8BA
S11331105CE30E94663D0E94693B600F711F6093EF
S1133120912770939227809191279091922760E83C
S113313076E10E94353E8093912790939227809167
S113314091279091922799230CF40F969595879542
S113315095958795959587959595879580938F27D0
S11331609093902780918F2790919027853B91058C
S11331705CF080918F27909190278856914080939E
S11331808F279093902711C080918F27909190273B
S11331908C349F4F54F480918F27909190278859B5
S11331A09E4F80938F279093902700919A27109198
S11331B09B276091A0277091A127882777FD809590
S11331C0982F0E949C3B20E030E04AE751E40E94A3
S11331D0663D6B017C0120E030E040E051E4609109
S11331E09C2770919D2780919E2790919F270E94F4
S11331F0663D9B01AC01C701B6010E94243A6B01F4
S11332007C01B801882777FD8095982F0E949C3B0C
S113321020E030E040E85DE30E94663D9B01AC01A4
S1133220C701B6010E94243AE62EF72E082F192F63
S1133230A62EB72EC82ED92E982F4E2D5F2D692F6E
S1133240712F4093962750939727609398277093F4
S1133250992720E030E04AE754E46E2D7F2D802F3B
S1133260912F0E94C43C1816BCF480E090E0AAE7B9
S1133270B4E48093962790939727A0939827B093CC
S11332809927A12CB12C0F2EFAE7CF2EF02D0F2E5B
S1133290F4E4DF2EF02D2EC020E030E04AE754ECB9
S11332A06E2D7F2D802F912F0E94FD3A8823BCF430
S11332B080E090E0AAE7B4EC809396279093972758
S11332C0A0939827B0939927A12CB12C0F2EFAE73D
S11332D0CF2EF02D0F2EF4ECDF2EF02D18C020E0B1
S11332E030E0A9016E2D7F2D802F912F0E94C43CC8
S11332F018166CF420E030E040E05FE36A2D7B2D8B
S11333008C2D9D2D0E94243A0E94D73B0CC020E0B6
S113331030E040E05FE36A2D7B2D8C2D9D2D0E94D3
S1133320233A0E94EA3A0E94693B6093AB27709368
S1133330AC278091942790919527892B29F080912F
S11333403325833008F486C32091AD273091AE270E
S11333508091AB279091AC27820F931F89839A8326
S11333602091AF273091B0278091AB279091AC2763
S1133370820F931F8B839C832091B1273091B227B6
S11333808091AB279091AC27820F931F8D839E83EE
S11333902091B3273091B4278091AB279091AC272B
S11333A0820F931F8F8398878BEA95E20E94503691
S11333B099233CF08BEA95E20E945036099754F425
S11333C022C08BEA95E20E9450369195819591092D
S11333D00997CCF08BEA95E20E940B3599234CF0C7
S11333E08BEA95E20E940B35813293400CF03FC08A
S11333F00AC08BEA95E20E940B359195819591095B
S113340081329340A4F58BEA95E20E94AB3699236E
S11334103CF08BEA95E20E94AB36099754F433C032
S11334208BEA95E20E94AB369195819591090997B3
S113343054F18BEA95E20E940B35992354F08BEA00
S113344095E20E940B3521E08132934074F420E030
S11334500CC08BEA95E20E940B35919581959109F8
S113346021E0813293400CF420E0222361F080912A
S1133470AB279091AC278F8398878D839E838B8312
S11334809C8389839A838E010F5F1F4F7E0189E09D
S1133490E80EF11CF80160E070E030812181329681
S11334A0832F922F99231CF4919581959109681784
S11334B079070CF4BC01EE15FF0579F76D3DE5E0E5
S11334C07E070CF450C0882777FD8095982F0E94C2
S11334D09C3B9B01AC0160E070E88BEB94E40E94A0
S11334E0013B462E572E682E792E6801F801608123
S11334F07181882777FD8095982F0E949C3B242D0D
S1133500352D462D572D0E94663D862E972EA82ECA
S1133510B92E20E030E0A9010E94C43C18166CF4D6
S113352020E030E040E05FE3682D792D8A2D9B2D6B
S11335300E94243A0E94D73B0CC020E030E040E0D7
S11335405FE3682D792D8A2D9B2D0E94233A0E94DA
S1133550EA3A0E94693BF601608371830E5F1F4F54
S1133560E016F10611F6E0EEF6E0808580FF15C066
S113357069817A8180E00E94A3086B817C8181E06B
S11335800E94A3086D817E8182E00E94A3086F815E
S1133590788583E00E94A3081EC260E070E080E0AA
S11335A00E94A30860E070E081E00E94A30860E04C
S11335B070E082E00E94A30860E070E083E00E9473
S11335C0A30809C2833009F006C280911B27811128
S11335D05EC08FEA95E20E94023A882309F47FC014
S11335E087EB95E20E94023A882309F478C08FEAB7
S11335F095E20E94B4390CE117E2F80180839183CB
S113360087EB95E20E94B439809320279093212779
S1133610F80180819181892BF1F480912027909188
S11336202127892B59F480E590E080931C279093FF
S11336301D2780932027909321271FC020912027A6
S11336403091212782EA90E0821B930B80931C2700
S113365090931D2712C08091202790912127892BB8
S113366061F420911C2730911D2782EA90E0821B8F
S1133670930B809320279093212783EB95E20E945C
S1133680A93980911B278F5F80931B2728C08091C5
S11336901B27813021F583EB95E20E94023A8823AF
S11336A0F1F083EB95E20E94B4390EE117E2F801E0
S11336B0808391838FEA95E20E94A939F801808181
S11336C09181892B31F484E690E080931E279093B6
S11336D01F2787EB95E20E94A93910921B2780913E
S11336E020279091212720911C2730911D278A544F
S11336F09F4F821B930B96958795E7E1F7E28083B2
S11337009183808191818130944024F01092172715
S11337101092182780911E2790911F270596E9E1A2
S1133720F7E28083918380819181809377219093C4
S1133730782180911C2790911D272091202730917A
S11337402127820F931F8739910520F1ECE1F7E2DD
S11337508081918180937F2190938021A0E2B7E2C0
S11337608D919C9111978093792190937A21109255
S11337700E2710920D278D919C91208131818A54BE
S11337809F4F821B930B96958795809375219093F9
S11337907621CFC020911C2730911D2740910E2700
S11337A0E42FF0E0EE0FFF1FE158FE4D8081918180
S11337B02C5E3F4F8217930708F14F5F433018F494
S11337C040930E2703C082E080930E2780910E273A
S11337D090E0FC01EE0FFF1FEF5EF84DDC01AA0F35
S11337E0BB1FA158BE4D80917F21909180212D91C6
S11337F03C91821B930B8083918310C020911C27E2
S113380030911D2744962817390740F0442321F0AE
S1133810415040930E2702C010920E2760910E274C
S1133820262F30E080911C2790911D27F901EE0F7F
S1133830FF1FE158FE4D80839183409120275091D2
S1133840212770910D27E72FF0E0EE0FFF1FE758B7
S1133850FE4D808191814C5E5F4F8417950708F17E
S11338607F5F733018F470930D2703C082E0809358
S11338700D2780910D2790E0FC01EE0FFF1FE35F01
S1133880F84DDC01AA0FBB1FA758BE4D80917921CA
S113389090917A214D915C91841B950B8083918347
S11338A010C040912027509121274496481759076A
S11338B040F0772321F0715070930D2702C01092CD
S11338C00D2770910D27472F50E08091202790916C
S11338D02127FA01EE0FFF1FE758FE4D80839183E5
S11338E080911C2790911D27662349F0F901EE0F62
S11338F0FF1FEF5EF84D20813181820F931F2091CD
S1133900202730912127772349F0FA01EE0FFF1F7A
S1133910E35FF84D40815181240F351F281B390B7B
S11339202A543F4FC90196958795809375219093AA
S1133930762180913325882309F44DC0809101209C
S11339408130E1F01CF4882339F045C0823041F124
S1133950833009F040C032C0E0913325F0E0EE0F2F
S1133960FF1FEB57FE4D2081318180EF90E0821BD9
S1133970930B80937721909378212DC0E091332588
S1133980F0E0EE0FFF1FEB57FE4D2081318184EBF9
S113399090E0821B930B80937521909376211BC03A
S11339A0E0913325F0E0EE0FFF1FEB57FE4D8081D1
S11339B0918180937721909378210DC0E0913325F4
S11339C0F0E0EE0FFF1FEB57FE4D80819181809355
S11339D07521909376210E94E80F0E94B30F1092F4
S11339E03025E0EEF6E0808582FF0BC0809106274B
S11339F08F5F80930627823320F00E940A21109261
S1133A0006278EEFE0ECF8E083832DC085E090E09C
S1133A1080934A2790934B27809348279093492774
S1133A201092462710924727C3C880914A27909145
S1133A304B27809342279093432780914627909168
S1133A404727809340279093412710923E27109256
S1133A503F27C1CF80919427909195278093AB27DE
S1133A609093AC2771CC2A96CDBFDEBFDF91CF9166
S1133A70FF91EF91BF91AF919F918F917F916F9142
S1133A805F914F913F912F911F910F91FF90EF9074
S1133A90DF90CF90BF90AF909F908F907F906F906A
S1133AA05F904F903F902F900F900BBE0F900ABEE7
S1133AB00F9009BE0F9008BE0F900FBE0F901F907D
S1133AC018951F920F920FB60F92112408B60F92F9
S1133AD018BE09B60F9219BE0BB60F921BBE2F93D8
S1133AE03F934F935F936F937F938F939F93AF9382
S1133AF0BF93EF93FF938BED96E20E947803FF91BF
S1133B00EF91BF91AF919F918F917F916F915F9151
S1133B104F913F912F910F900BBE0F9009BE0F90C4
S1133B2008BE0F900FBE0F901F9018951F920F9212
S1133B300FB60F92112408B60F9218BE09B60F9251
S1133B4019BE0BB60F921BBE2F933F934F935F93F7
S1133B506F937F938F939F93AF93BF93EF93FF9351
S1133B608FEA96E20E947803FF91EF91BF91AF91A3
S1133B709F918F917F916F915F914F913F912F9181
S1133B800F900BBE0F9009BE0F9008BE0F900FBE92
S1133B900F901F9018951F920F920FB60F92112439
S1133BA008B60F9218BE0BB60F921BBE8F93EF93FD
S1133BB0FF93E091DB26F091DC2680818093AE2692
S1133BC0FF91EF918F910F900BBE0F9008BE0F9055
S1133BD00FBE0F901F9018951F920F920FB60F9261
S1133BE0112408B60F9218BE09B60F9219BE0BB66F
S1133BF00F921BBE2F933F934F935F936F937F93CB
S1133C008F939F93AF93BF93EF93FF9387E296E2D3
S1133C100E949E02FF91EF91BF91AF919F918F916E
S1133C207F916F915F914F913F912F910F900BBEB8
S1133C300F9009BE0F9008BE0F900FBE0F901F90FB
S1133C4018951F920F920FB60F92112408B60F9277
S1133C5018BE09B60F9219BE0BB60F921BBE2F9356
S1133C603F934F935F936F937F938F939F93AF9300
S1133C70BF93EF93FF938EEB95E20E949E02FF9118
S1133C80EF91BF91AF919F918F917F916F915F91D0
S1133C904F913F912F910F900BBE0F9009BE0F9043
S1133CA008BE0F900FBE0F901F9018951F920F9291
S1133CB00FB60F92112408B60F9218BE0BB60F92CE
S1133CC01BBE2F938F939F93EF93FF93809139277C
S1133CD08F5F8093392780913927813049F4E0E65A
S1133CE0F6E0808585FFFDCFE0ECF8E013823FC06D
S1133CF080913927823059F4E0ECF8E02381922F47
S1133D0080E08093362790933727138230C0E0EC0D
S1133D10F8E023818091362790913727822B809376
S1133D20362790933727E0913827F0E080913627A3
S1133D3090913727EE0FFF1FEA5DF84D8083918342
S1133D4010923927809138278F5F8093382780918C
S1133D503827883018F01092382709C0E0913827A6
S1133D60F0E0ED5DFA4D8081E0ECF8E08383FF91B3
S1133D70EF919F918F912F910F900BBE0F9008BEE2
S1133D800F900FBE0F901F9018951F920F920FB6B1
S1133D900F92112408B60F9218BE0BB60F921BBED9
S1133DA08F939F93EF93FF931092A0261092A126D6
S1133DB0E4E9F6E28081982F9F5F908388301CF0BD
S1133DC088E080939426FF91EF919F918F910F90BB
S1133DD00BBE0F9008BE0F900FBE0F901F9018954A
S1133DE01F920F920FB60F92112408B60F9218BEAD
S1133DF00BB60F921BBE8F939F93EF93FF9310927A
S1133E00A2261092A326E5E9F6E28081982F9F5F0F
S1133E10908388301CF088E080939526FF91EF9181
S1133E209F918F910F900BBE0F9008BE0F900FBE05
S1133E300F901F9018951F920F920FB60F92112496
S1133E4008B60F9218BE0BB60F921BBE8F939F93AA
S1133E50EF93FF931092A4261092A526E6E9F6E2CA
S1133E608081982F9F5F908388301CF088E0809336
S1133E709626FF91EF919F918F910F900BBE0F901B
S1133E8008BE0F900FBE0F901F9018951F920F92AF
S1133E900FB60F92112408B60F9218BE0BB60F92EC
S1133EA01BBE8F939F93EF93FF931092A6261092BD
S1133EB0A726E7E9F6E28081982F9F5F90838830F8
S1133EC01CF088E080939726FF91EF919F918F914A
S1133ED00F900BBE0F9008BE0F900FBE0F901F9057
S1133EE018951F920F920FB60F92112408B60F92D5
S1133EF018BE09B60F9219BE0AB60F921ABE0BB6B7
S1133F000F921BBE2F933F934F935F936F937F93B7
S1133F108F939F93AF93BF93CF93DF93EF93FF93CD
S1133F2080919426181634F4E0E0F9E010A211A26E
S1133F3010929426E8EAF6E28081982F9F5F90839E
S1133F4080FD12C0C0E0D9E028A139A140E050E0D2
S1133F5064E57AEE8AE290E00E94493E2093A0262E
S1133F603093A12618A219A2FF91EF91DF91CF916E
S1133F70BF91AF919F918F917F916F915F914F917D
S1133F803F912F910F900BBE0F900ABE0F9009BE68
S1133F900F9008BE0F900FBE0F901F9018951F92A0
S1133FA00F920FB60F92112408B60F9218BE09B6DD
S1133FB00F9219BE0AB60F921ABE0BB60F921BBE11
S1133FC02F933F934F935F936F937F938F939F931D
S1133FD0AF93BF93CF93DF93EF93FF938091952695
S1133FE0181634F4E0E4F9E010A211A21092952618
S1133FF0E9EAF6E28081982F9F5F908380FD12C0EA
S1134000C0E4D9E028A139A140E050E064E57AEEAB
S11340108AE290E00E94493E2093A2263093A32690
S113402018A219A2FF91EF91DF91CF91BF91AF91A7
S11340309F918F917F916F915F914F913F912F91BC
S11340400F900BBE0F900ABE0F9009BE0F9008BED2
S11340500F900FBE0F901F9018951F920F920FB6DE
S11340600F92112408B60F9218BE09B60F9219BE0A
S11340700AB60F921ABE0BB60F921BBE2F933F9334
S11340804F935F936F937F938F939F93AF93BF935C
S1134090CF93DF93EF93FF9380919626181634F411
S11340A0E0E0FBE010A211A210929626EAEAF6E202
S11340B08081982F9F5F908380FD12C0C0E0DBE079
S11340C028A139A140E050E064E57AEE8AE290E06C
S11340D00E94493E2093A4263093A52618A219A233
S11340E0FF91EF91DF91CF91BF91AF919F918F910C
S11340F07F916F915F914F913F912F910F900BBEE4
S11341000F900ABE0F9009BE0F9008BE0F900FBE0D
S11341100F901F9018951F920F920FB60F921124B3
S113412008B60F9218BE09B60F9219BE0AB60F92BE
S11341301ABE0BB60F921BBE2F933F934F935F9300
S11341406F937F938F939F93AF93BF93CF93DF939B
S1134150EF93FF9380919726181634F4E0E4FBE084
S113416010A211A210929726EBEAF6E28081982F12
S11341709F5F908380FD12C0C0E4DBE028A139A1D9
S113418040E050E064E57AEE8AE290E00E94493E25
S11341902093A6263093A72618A219A2FF91EF9187
S11341A0DF91CF91BF91AF919F918F917F916F914B
S11341B05F914F913F912F910F900BBE0F900ABECC
S11341C00F9009BE0F9008BE0F900FBE0F901F9066
S11341D018951F920F920FB60F92112408B60F92E2
S11341E018BEE0ECF7E06FE050E420E43FE1A8956E
S11341F06583452FA895C9010197F1F74150D1F77F
S1134200A8956683452FA895C9010197F1F74150F8
S1134210D1F7EDCFEF92FF920F931F93CF93DF93DC
S11342208BEB95E20E94A3382091092730910A274D
S11342308217930709F491C02091092730910A2726
S113424031FF06C091FFE5C703C029E120930B2786
S11342502091092730910A2733FFF0C793FFE4C761
S1134260EDC710920B27EAC7CF5FDF5FC930E1F3D8
S11342709B010C2E02C0220F331F0A94E2F74091D7
S1134280092750910A2742235323452B09F45EC082
S11342902E233F23232B09F0DCC758C000E02091D4
S11342A00727309108272115324070F040910727E5
S11342B050910827202F30E03460240F351F2093BD
S11342C007273093082731C020910727309108270A
S11342D02F3F3105C1F0B8F0E0900727F090082790
S11342E0402F50E0440F551F9A01220F331F220F15
S11342F0331F420F531F52604E0D5F1D409307271B
S11343005093082712C04091072750910827452B46
S113431061F4033028F4109F90011124316001C02E
S11343209D01209307273093082720910727309178
S113433008272115344050F0209107273091082791
S113434020930B271092072710920827DB3008F4DC
S11343508BCF8093092790930A278BEB95E20E94D9
S11343601238E0910B27F0E0EA31F10508F03FC77D
S1134370E650FF4F0C94653E20EE31E241E061E0EF
S11343808BEB95E20E949737E0ECF7E06085617073
S1134390605D8BEB95E20E94813824EF31E241E0CD
S11343A062E08BEB95E20E94973729E032E241E02C
S11343B063E08BEB95E20E9497372BE132E241E018
S11343C064E08BEB95E20E94973748C72DE232E216
S11343D041E061E08BEB95E20E9497372FE332E2F4
S11343E041E062E08BEB95E20E9497372FE432E2E2
S11343F041E063E08BEB95E20E9497372DE532E2D2
S113440041E064E08BEB95E20E94973727C72EE6E4
S113441032E241E061E08BEB95E20E9497372FE7AF
S113442032E241E062E08BEB95E20E9497372FE89D
S113443032E241E063E08BEB95E20E94973723EA96
S113444032E241E064E08BEB95E20E94973706C7C5
S113445028EB32E241E061E08BEB95E20E94973772
S113446022EC32E241E062E08BEB95E20E94973766
S11344702BEC32E241E063E08BEB95E20E9497374C
S113448023ED32E241E064E08BEB95E20E94973742
S1134490E5C625EE32E241E061E08BEB95E20E9455
S11344A09737DCC628EF32E241E061E08BEB95E21E
S11344B00E94973724EF31E241E062E08BEB95E212
S11344C00E9497372CE033E241E063E08BEB95E206
S11344D00E94973728E133E244E064E08BEB95E2F5
S11344E00E94973760910B27605D8BEB95E20E94E9
S11344F08138B4C629E233E241E061E08BEB95E216
S11345000E9497372091AD273091AE274AE061E0B1
S11345108BEB95E20E94E23722E333E241E062E072
S11345208BEB95E20E9497372091AF273091B0270B
S11345304AE062E08BEB95E20E94E2372BE333E240
S113454041E063E08BEB95E20E9497372091B1271D
S11345503091B2274AE063E08BEB95E20E94E237A8
S113456024E433E241E064E08BEB95E20E94973768
S11345702091B3273091B4274AE064E08BEB95E2B5
S11345800E94E2376BC62091AD273091AE2780910F
S1134590AB279091AC27280F391F41E061E08BEBEA
S11345A095E20E94E2372091AF273091B0278091A5
S11345B0AB279091AC27280F391F41E062E08BEBC9
S11345C095E20E94E2372091B1273091B227809181
S11345D0AB279091AC27280F391F41E063E08BEBA8
S11345E095E20E94E2372091B3273091B42780915D
S11345F0AB279091AC27280F391F41E064E08BEB87
S113460095E20E94E2372DE433E249E061E08BEB6E
S113461095E20E9497372091A7273091A82741E17E
S113462061E08BEB95E20E94E23724E533E249E056
S113463062E08BEB95E20E9497372091A927309195
S1134640AA2741E162E08BEB95E20E94E2372BE579
S113465033E249E063E08BEB95E20E9497378BEA03
S113466095E20E94F5359C0141E163E08BEB95E214
S11346700E94E23721E633E249E064E08BEB95E205
S11346800E9497372091A4273091A52741E164E047
S11346908BEB95E20E94E237E1C526E633E241E086
S11346A061E08BEB95E20E94973720915C27309173
S11346B05D2747E061E08BEB95E20E94E2372CE650
S11346C033E241E062E08BEB95E20E949737209160
S11346D05E2730915F2747E062E08BEB95E20E9412
S11346E0E23722E733E241E063E08BEB95E20E949C
S11346F09737209160273091612747E063E08BEB87
S113470095E20E94E23728E733E241E064E08BEB74
S113471095E20E949737209162273091632747E002
S113472064E08BEB95E20E94E2372EE733E24BE044
S113473061E08BEB95E20E949737209164273091DA
S1134740652741E161E08BEB95E20E94E23724E8C2
S113475033E24BE062E08BEB95E20E9497372091C5
S113476066273091672741E162E08BEB95E20E9476
S1134770E2372AE833E24BE063E08BEB95E20E94F8
S11347809737209168273091692741E163E08BEBEB
S113479095E20E94E23720E933E24BE064E08BEBE0
S11347A095E20E94973720916A2730916B2741E167
S11347B064E08BEB95E20E94E23750C526E633E2D3
S11347C041E061E08BEB95E20E94973720914C2702
S11347D030914D2747E061E08BEB95E20E94E23790
S11347E02CE633E241E062E08BEB95E20E949737DE
S11347F020914E2730914F2747E062E08BEB95E202
S11348000E94E23722E733E241E063E08BEB95E27A
S11348100E949737209150273091512747E063E059
S11348208BEB95E20E94E23728E733E241E064E053
S11348308BEB95E20E9497372091522730915327B2
S113484047E064E08BEB95E20E94E2372EE733E227
S11348504BE061E08BEB95E20E949737209154275F
S11348603091552741E161E08BEB95E20E94E237FC
S113487024E833E24BE062E08BEB95E20E94973749
S1134880209156273091572741E162E08BEB95E266
S11348900E94E2372AE833E24BE063E08BEB95E2D7
S11348A00E949737209158273091592741E163E0BE
S11348B08BEB95E20E94E23720E933E24BE064E0BF
S11348C08BEB95E20E94973720915A2730915B2712
S11348D041E164E08BEB95E20E94E237BFC426E934
S11348E033E241E061E08BEB95E20E94973720913F
S11348F04427309145274CE061E08BEB95E20E9420
S1134900E23723EA33E241E062E08BEB95E20E9476
S1134910973720914627309147274CE062E08BEB94
S113492095E20E94E23720EB33E241E063E08BEB57
S113493095E20E94973720914A2730914B274CE00B
S113494063E08BEB95E20E94E2372DEB33E241E02A
S113495064E08BEB95E20E949737209148273091D1
S113496049274CE064E08BEB95E20E94E2372AECA5
S113497033E241E161E08BEB95E20E9497372091AD
S11349803A2730913B2741E162E08BEB95E20E94AC
S1134990E2372FEC33E241E163E08BEB95E20E94D6
S11349A0973720913C2730E041E164E08BEB95E2BE
S11349B00E94E23753C424ED33E241E061E08BEB23
S11349C095E20E94973722EE33E241E062E08BEBFE
S11349D095E20E94973720EF33E241E063E08BEBEE
S11349E095E20E94973720913D2730E04FE061E047
S11349F08BEB95E20E94E23720913E2730913F27CE
S1134A004FE062E08BEB95E20E94E23720910C27A5
S1134A1030E04FE063E08BEB95E20E94E237C0EEBA
S1134A20D6E02885217030E041E064E08BEB95E22C
S1134A300E94E2372885229526952695237081E0E9
S1134A402827217030E045E064E08BEB95E20E947A
S1134A50E237E0E2F7E020852695217030E049E076
S1134A6064E08BEB95E20E94E23728852295217061
S1134A7030E04DE064E08BEB95E20E94E23728855C
S1134A8022FB222720F930E041E164E08BEB95E240
S1134A900E94E237E3C32EEF33E241E062E08BEBA6
S1134AA095E20E94973720911C2730911D274BE0F7
S1134AB062E08BEB95E20E94E23729E034E241E0C8
S1134AC063E08BEB95E20E94973720911E2730918B
S1134AD01F274BE063E08BEB95E20E94E23724E171
S1134AE034E241E064E08BEB95E20E949737209139
S1134AF02027309121274BE064E08BEB95E20E9464
S1134B00E2372EE134E24FE061E08BEB95E20E9464
S1134B10973720917521309176214FE062E08BEB3D
S1134B2095E20E94E23724E234E24FE063E08BEB4B
S1134B3095E20E94973720917721309178214FE0B8
S1134B4064E08BEB95E20E94E23788C32AE234E208
S1134B5041E061E08BEB95E20E94973726E334E273
S1134B6041E062E08BEB95E20E94973722E434E265
S1134B7041E063E08BEB95E20E9497372FE434E247
S1134B8041E064E08BEB95E20E9497372091172770
S1134B90309118274EE061E08BEB95E20E94E237FA
S1134BA02091192730911A274EE062E08BEB95E2B1
S1134BB00E94E23720917521309176214EE063E026
S1134BC08BEB95E20E94E237209177213091782196
S1134BD04EE064E08BEB95E20E94E2373FC341E094
S1134BE061E08BEB95E20E945B3860914F25605D3C
S1134BF08BEB95E20E94813860915025605D8BEBD0
S1134C0095E20E94813860915125605D8BEB95E2BD
S1134C100E94813860915225605D8BEB95E20E9481
S1134C20813860915325605D8BEB95E20E94813859
S1134C3060915425605D8BEB95E20E948138609110
S1134C405525605D8BEB95E20E9481386091362595
S1134C50605D8BEB95E20E94813860913725605D41
S1134C608BEB95E20E94813860913825605D8BEB77
S1134C7095E20E94813860913925605D8BEB95E265
S1134C800E94813860913A25605D8BEB95E20E9429
S1134C90813860913B25605D8BEB95E20E94813801
S1134CA060913C25605D8BEB95E20E9481382091F8
S1134CB04E2530E041E062E08BEB95E20E94E23762
S1134CC020913D2530E04EE062E08BEB95E20E94BE
S1134CD0E23720914D2530E041E063E08BEB95E233
S1134CE00E94E23720913E2530E04EE063E08BEBFA
S1134CF095E20E94E23741E064E08BEB95E20E948A
S1134D005B3860914C25605D8BEB95E20E948138A5
S1134D1060914B25605D8BEB95E20E948138609138
S1134D204A25605D8BEB95E20E94813860914925AC
S1134D30605D8BEB95E20E94813860914825605D4F
S1134D408BEB95E20E94813860914725605D8BEB87
S1134D5095E20E94813860914625605D8BEB95E277
S1134D600E94813860914525605D8BEB95E20E943D
S1134D70813860914425605D8BEB95E20E94813817
S1134D8060914325605D8BEB95E20E9481386091D0
S1134D904225605D8BEB95E20E948138609141254C
S1134DA0605D8BEB95E20E94813860914025605DE7
S1134DB08BEB95E20E94813860913F25605D8BEB1F
S1134DC095E20E9481382CE534E240E161E08BEB0E
S1134DD095E20E9497372091322530E040E162E06D
S1134DE08BEB95E20E94E2372FE433E240E163E08B
S1134DF08BEB95E20E94973720913425309135252D
S1134E0040E164E08BEB95E20E94E23727C222E6A0
S1134E1034E241E061E08BEB95E20E9497371EC2D9
S1134E2029E734E241E061E08BEB95E20E94973799
S1134E302091A9273091AA2747E061E08BEB95E206
S1134E400E94E23724E834E241E062E08BEB95E231
S1134E500E94973720919A2730919B2747E062E080
S1134E608BEB95E20E94E2372AE834E241E063E00A
S1134E708BEB95E20E9497378BEA95E20E94AB3662
S1134E809C0147E063E08BEB95E20E94E23721E965
S1134E9034E24BE061E08BEB95E20E9497378BEABA
S1134EA095E20E940B359C0141E161E08BEB95E2B8
S1134EB00E94E23727E934E24BE062E08BEB95E2B3
S1134EC00E9497378BEA95E20E9459359C0141E193
S1134ED062E08BEB95E20E94E2372DE934E24BE08D
S1134EE063E08BEB95E20E94973720918F273091F6
S1134EF090274FE063E08BEB95E20E94E237AEC16E
S1134F0022EA34E241E061E08BEB95E20E949737BC
S1134F1028EA36E248E061E08BEB95E20E94E23752
S1134F2029EA34E241E062E08BEB95E20E94973794
S1134F3020EA36E247E062E08BEB95E20E94E2373A
S1134F402EEA34E241E063E08BEB95E20E9497376E
S1134F5028E936E247E063E08BEB95E20E94E23712
S1134F607DC127EB34E241E061E08BEB95E20E94E6
S1134F709737209192263091932648E061E08BEB9D
S1134F8095E20E94E2376AC12DEB34E241E061E030
S1134F908BEB95E20E9497372CEB32E24FE061E015
S1134FA08BEB95E20E94973721EC34E241E062E01A
S1134FB08BEB95E20E94973726EC34E24DE062E0F9
S1134FC08BEB95E20E9497372BEC34E241E063E0EF
S1134FD08BEB95E20E94973724ED34E24DE063E0D9
S1134FE08BEB95E20E94973729ED34E241E064E0CF
S1134FF08BEB95E20E94973720912C2530E045E019
S113500061E08BEB95E20E94E23720912E253091EE
S11350102F2546E062E08BEB95E20E94E237209177
S113502034253091352542E162E08BEB95E20E9414
S1135030E23720910120332727FD30954AE063E0D1
S11350408BEB95E20E94E237209100202F3F39F04C
S11350508AE5280290011124235D3F4F02C02FEFFF
S11350603FEF42E163E08BEB95E20E94E23720914F
S11350702D2530E048E064E08BEB95E20E94E237B6
S1135080EDC020EE34E241E061E08BEB95E20E945A
S11350909737209126273091272747E061E08BEB53
S11350A095E20E94E23728E333E241E062E08BEBD1
S11350B095E20E949737209128273091292747E0CD
S11350C062E08BEB95E20E94E23721E433E241E0B7
S11350D063E08BEB95E20E94973720912A27309169
S11350E02B2747E063E08BEB95E20E94E2372AE44A
S11350F033E241E064E08BEB95E20E949737209124
S11351002C2730912D2747E064E08BEB95E20E9439
S1135110E23721E833E24CE061E08BEB95E20E9458
S1135120973720912E2730912F2741E161E08BEBB7
S113513095E20E94E23727E833E24CE062E08BEB31
S113514095E20E949737209130273091312741E131
S113515062E08BEB95E20E94E2372DE833E24CE00B
S113516063E08BEB95E20E949737209132273091D0
S1135170332741E163E08BEB95E20E94E23723E9B8
S113518033E24CE064E08BEB95E20E949737209188
S113519034273091352741E164E08BEB95E20E949E
S11351A0E2375CC027EE34E241E061E08BEB95E24C
S11351B00E94973720912427309125274CE061E005
S11351C08BEB95E20E94E23724EF34E241E062E0A7
S11351D08BEB95E20E949737209122273091232769
S11351E04CE062E08BEB95E20E94E23737C021E0AD
S11351F035E241E061E08BEB95E20E949737209124
S11352000B2730E041E062E08BEB95E20E94E2374D
S113521025C020910B27215020930B2720910B2789
S11352202A3108F012C814C820910B272F5F20934D
S11352300B2720910B272A3108F013C8D1E0C0E0D6
S113524061E070E0FC01E095F095A0E0B1E014E6C7
S11352500DC8DA3008F022C80D2F21C8DF91CF9194
S11352601F910F91FF90EF9008958F929F92AF92AC
S1135270BF92CF92DF92EF92FF920F931F93CF933F
S1135280DF9380918D25882309F485C180914A2775
S113529090914B27893B9B4008F47DC18091462720
S11352A09091472799235CF4809146279091472752
S11352B091958195910944970CF464C16CC18091D6
S11352C046279091472744970CF45CC164C18091B0
S11352D07521909176218E3691050CF498C166C1A2
S11352E08091A9279091AA2791958195910921E010
S11352F00A9754F020E008C08091A9279091AA272A
S113530021E00A970CF020E021110E94860F40E072
S113531050E862EA74E480E090E00E94490A109246
S1135320A7271092A82710929427109295278CC132
S11353308091A7279091A8272091A9273091AA2787
S1135340821B930B21E00A9784F020E00EC0809129
S1135350A9279091AA272091A7273091A827821BDB
S1135360930B21E00A970CF020E0222309F46CC18E
S11353700E94860F69C180914627909147279923FF
S113538064F48091462790914727919581959109DE
S1135390873891050CF443C108C080914627909149
S11353A04727873891050CF43AC180914A27909198
S11353B04B27893B9B4008F036C180914A27909146
S11353C04B27813F9A4008F436C18091462790913B
S11353D0472799235CF4809146279091472791951C
S11353E0819591098D970CF41EC125C180914627A2
S11353F0909147278D970CF416C11DC180914627C3
S11354009091472740E050E066E974E4815391406D
S11354100E94490A1092A7271092A82715C18091CB
S1135420462790914727843C9F4F8CF480914627D0
S11354309091472740E050E066E974E48F5C9E4F0A
S11354400E94490A1092A7271092A827FDC06091D4
S1135450462770914727882777FD8095982F0E94CB
S11354609C3B2DEC3CEC4CEC5FE30E94663D0E94BF
S1135470693BDC01CB0140E050E86BE374E40E943B
S1135480490A8091442790914527992364F4809197
S113549044279091452791958195910921E04D9755
S11354A054F020E008C0809144279091452721E0E2
S11354B04D970CF020E0222361F0809144279091D5
S11354C045279195819591098093A7279093A827C3
S11354D0BBC01092A7271092A827B6C0E0ECF7E053
S11354E0808580FD07C068E270E08AE590E00E9454
S11354F0D50B06C06EE170E08AE590E00E94D50B02
S11355001092A7271092A8279FC080914A279091B4
S11355104B2704E911E1E801C81BD90BC0904227CD
S1135520D0904327E0904627F0904727BE0180E0C3
S113553090E00E949A3B2AE939E949E15FE30E943D
S1135540663D4B015C010C191D09BE01601B710B0A
S113555080E090E00E949A3B2DEC3CEC4CE45EE34E
S11355600E94663D9B01AC01C501B4010E94243A2E
S1135570AB01BC01C7010E94490A1092A7271092EF
S1135580A82762C080917521909176218734910576
S11355900CF09DCE0BC01092902680914A279091DA
S11355A04B278136994008F0E6CEFFCE109294271F
S11355B01092952740E050E862EA74E480E090E0BD
S11355C00E94490A60917521709176216A5571098A
S11355D0882777FD8095982F0E949C3B20E030E03F
S11355E040E05FEB0E94663D0E94693B6093A72701
S11355F07093A8278091A7279091A8272091A92785
S11356003091AA27821B930B0AF092CEA0CE8091F0
S1135610A9279091AA2799230CF06ECE61CE81E040
S113562080939026C2CE8091462790914727CD97AC
S11356300CF4F5CEE3CE80914A2790914B2788371E
S1135640910508F44BCF61CFDF91CF911F910F915A
S1135650FF90EF90DF90CF90BF90AF909F908F908E
S113566008958F929F92AF92BF92CF92DF92EF9262
S1135670FF920F931F93CF93DF9380918D258823FF
S113568009F452C280914A2790914B27893B9B4051
S113569008F44AC2809146279091472799235CF4E5
S11356A08091462790914727919581959109449738
S11356B00CF44BC239C280914627909147274497F6
S11356C00CF443C231C280919327882309F4C9C0E2
S11356D08091932781110DC080910020882349F087
S11356E0833039F080910120813019F0833009F042
S11356F0B5C081E08093902640E050E0BA0180E09C
S113570090E00E94490A80919327811110C08091F2
S11357100020813021F080910120813021F482E049
S11357208093932765C281E08093932761C280911F
S11357309327813021F080919327823091F58091D5
S11357409327813019F48AE19FEF02C086EE90E03E
S1135750809394279093952780918F2790919027F9
S113576099236CF480918F2790919027919581953E
S1135770910921E08B3A91055CF420E009C0809105
S11357808F279091902721E08B3A91050CF420E02B
S1135790222309F42DC2809193278E5F809393274F
S11357A027C280919327833029F0809193278430F6
S11357B009F01EC280919327833019F484E29AEF92
S11357C002C08CED95E08093942790939527809167
S11357D08F279091902799236CF480918F27909133
S11357E0902791958195910921E0803591055CF090
S11357F020E009C080918F279091902721E0803587
S113580091050CF020E021110E94860F80918F27D2
S113581090919027992364F480918F2790919027F9
S113582091958195910921E00A9754F020E008C0F0
S113583080918F279091902721E00A970CF020E027
S1135840222309F4D5C11092932710929427109221
S113585095271092A7271092A827CAC110929026C4
S1135860C7C18091752190917621873491050CF4FC
S113587071C180917521909176218E3691050CF439
S11358809AC168C18091A9279091AA279195819581
S1135890910921E00A9754F020E008C08091A927DB
S11358A09091AA2721E00A970CF020E021110E9490
S11358B0860F40E050E862EA74E480E090E00E94E1
S11358C0490A1092A7271092A827109294271092A1
S11358D095278EC18091A7279091A8272091A92769
S11358E03091AA27821B930B21E00A9784F020E0D1
S11358F00EC08091A9279091AA272091A7273091C3
S1135900A827821B930B21E00A970CF020E02223A6
S113591009F46EC10E94860F6BC180914627909155
S11359204727992364F480914627909147279195BE
S113593081959109873891050CF445C108C080917F
S1135940462790914727873891050CF43CC18091F4
S11359504A2790914B27893B9B4008F038C180919E
S11359604A2790914B27813F9A4008F438C180918F
S113597046279091472799235CF48091462790917C
S113598047279195819591098D970CF420C127C1E2
S113599080914627909147278D970CF418C11FC119
S11359A0809146279091472740E050E066E974E4EF
S11359B0815391400E94490A1092A7271092A82768
S11359C017C18091462790914727843C9F4F8CF4C0
S11359D0809146279091472740E050E066E974E4BF
S11359E08F5C9E4F0E94490A1092A7271092A82705
S11359F0FFC06091462770914727882777FD8095DF
S1135A00982F0E949C3B2DEC3CEC4CEC5FE30E94F5
S1135A10663D0E94693BDC01CB0140E050E86BE34A
S1135A2074E40E94490A8091442790914527992360
S1135A3064F480914427909145279195819591092B
S1135A4021E04D9754F020E008C0809144279091C4
S1135A50452721E04D970CF020E0222361F080914E
S1135A604427909145279195819591098093A72783
S1135A709093A827BDC01092A7271092A827B8C05A
S1135A80E0ECF7E0808580FD07C068E270E08AE51D
S1135A9090E00E94D50B06C06EE170E08AE590E0CC
S1135AA00E94D50B1092A7271092A827A1C080911D
S1135AB04A2790914B2704E911E1E801C81BD90B4F
S1135AC0C0904227D0904327E0904627F090472784
S1135AD0BE0180E090E00E949A3B2AE939E949E15D
S1135AE05FE30E94663D4B015C010C191D09BE0178
S1135AF0601B710B80E090E00E949A3B2DEC3CEC23
S1135B004CE45EE30E94663D9B01AC01C501B40117
S1135B100E94243AAB01BC01C7010E94490A1092B9
S1135B20A7271092A82764C010929026109293275A
S1135B30109294271092952780914A2790914B2791
S1135B408136994008F0E9CE02CF80913325811146
S1135B50BFCDB9CD109294271092952740E050E81C
S1135B6062EA74E480E090E00E94490A6091752141
S1135B70709176216A557109882777FD8095982F51
S1135B800E949C3B20E030E040E05FEB0E94663DD9
S1135B900E94693B6093A7277093A8278091A72749
S1135BA09091A8272091A9273091AA27821B930BB3
S1135BB00AF090CE9ECE8091A9279091AA2799238E
S1135BC00CF06CCE5FCE81E080939026C0CE8091A5
S1135BD0462790914727CD970CF4F3CEE1CE8091E0
S1135BE04A2790914B278837910508F449CF5FCF16
S1135BF0DF91CF911F910F91FF90EF90DF90CF90A5
S1135C00BF90AF909F908F90089580914A27909174
S1135C104B27843C994058F46EE170E08AE590E0AB
S1135C200E94D50B1092A7271092A827089580915F
S1135C30752190917621CD970CF469C080917521DE
S1135C4090917621883791050CF061C0809177217D
S1135C5090917821803591050CF451C058C0809101
S1135C6046279091472791958195910921E08A359E
S1135C7091055CF020E009C0809146279091472768
S1135C8021E08A3591050CF020E02223D9F06091BF
S1135C90462770914727882777FD8095982F0E9483
S1135CA09C3B2AE939E949E95FE30E94663D0E9489
S1135CB0693BDC01CB0140E050E066E974E40E94FA
S1135CC0490A089580914627909147271816190686
S1135CD08CF4809146279091472740E050E066E994
S1135CE074E48C5291400E94490A1092A7271092A2
