S00F00004174584D6567612E737265638E
S11300000C942D010C94E9200C9461010C94610171
S11300100C9461010C9461010C9461010C946101D4
S11300200C9461010C9461010C9461010C946101C4
S11300300C9461010C9461010C9461010C946101B4
S11300400C9461010C9461010C9461010C946101A4
S11300500C9412120C9461010C9461010C946101D2
S11300600C94561E0C94BF100C9461010C94610105
S11300700C9461010C9461010C9461010C94610174
S11300800C9461010C9461010C94711F0C94CF1FAA
S11300900C9461010C9461010C9461010C9460084E
S11300A00C9461010C9461010C9461010C942D2059
S11300B00C948B200C9461010C9461010C946101EB
S11300C00C9461010C9461010C9461010C94610124
S11300D00C9461010C9461010C9461010C94610114
S11300E00C9461010C9461010C9461010C94610104
S11300F00C9461010C9499030C94A2070C94610173
S11301000C9461010C9461010C9461010C946101E3
S11301100C9461010C9461010C9461010C94070826
S11301200C9461010C9461010C9461010C946101C3
S11301300C94EC1D0C94C51E0C9461010C9461018B
S11301400C9461010C9461010C9461010C94F01EF7
S11301500C9461010C9461010C9461010C94610193
S11301600C94CB1D0C94961D0C9461010C946101AC
S11301700C9461010C9461010C9461010C94610173
S11301800C9461010C9461010C9461010C94610163
S11301900C9461010C9461010C9461010C94610153
S11301A00C9461010C9461010C9461010C94211E66
S11301B00C941B1F0C9461010C9461010C9461015B
S11301C00C9461010C9461010C94461F0C94610120
S11301D00C9461010C9461010C9461010C94610113
S11301E00C9461010C9461010C9461010C94611DE7
S11301F00C946101BC21EE210F22302251225A229B
S11302005A225A225A225A228222CB225523E623E8
S11302107724E3245325AE25F7250F2718278827AD
S1130220B927CC274928DA28084AD73B3BCE016EA8
S113023084BCBFFDC12F3D6C74319ABD56833DDA39
S11302403D00C77F11BED9E4BB4C3E916BAAAABE48
S1130250000000803F00C734CE3411241FBECFEF0E
S1130260DFE2DEBFCDBF18BE19BE1ABE1BBE15E24B
S1130270A0E0B0E2E2E9FEE700E00BBF02C00790B5
S11302800D92A034B107D9F71BBE27E2A0E4B5E272
S113029001C01D92A93FB207E1F712E0C8E5D2E020
S11302A000E006C022970109FE010BBF0E94853EB3
S11302B0C635D10780E00807A9F70E94A82E0C9440
S11302C0373F0C940000FC01608371834863DB01B9
S11302D011964C93A081B18115962C930190F081D5
S11302E0E02D81E0848308950F93213208F051C0FA
S11302F0013408F050C0FC01E959FF4F308131113D
S11303004CC0FC01E959FF4F31E03083FC01E8594E
S1130310FF4F1082222371F0E42FF52F40E050E0CC
S11303203191DC01A40FB51F13963C934F5F5F4FCF
S11303304217B0F3DC0112966C931297FC01ED594D
S1130340FF4F2083AC59BF4F0C93DC01AB59BF4F17
S11303501C92DC01AA59BF4F1C922081222349F030
S1130360FC0122812E7F0190F081E02D268381E023
S113037017C0FC01EC59FF4F2081222381F0DC01DE
S113038012962C9112972160ED91FC91268381E0C5
S113039007C080E005C080E003C080E001C081E0C8
S11303A00F910895FC01E959FF4F2081211125C0C7
S11303B0FC01E959FF4F21E02083FC01E859FF4F7C
S11303C01082DC0112966C93FC01ED59FF4F1082F0
S11303D0FC01EC59FF4F1082FC01EB59FF4F1082D6
S11303E0FC01EA59FF4F1082FC0122812E7F01900B
S11303F0F081E02D268381E0089580E00895DC01FA
S1130400ED91FC911197248122FF05C0A859BF4F9B
S113041034E03C9305C0DC01A859BF4F33E03C9362
S113042028602483FC01E959FF4F10820895FC01E0
S1130430E859FF4F6083FC01E959FF4F108208958A
S1130440CF93DF93EC01FC01EA59FF4F80818034A4
S113045080F4E881F9818781FE01EA59FF4F908198
S1130460DE01A90FB11D93968C9380818F5F8083E9
S113047008C0E881F98183E0838362E0CE010E94B1
S11304801702FE01EC59FF4F9081FE01EA59FF4F1C
S11304908081891728F4E881F98182E0838308C088
S11304A0E881F98187E0838361E0CE010E9417022D
S11304B0DF91CF910895CF93DF93FC01ED59FF4F66
S11304C03081FC01EC59FF4F4081DC01ED91FC913E
S11304D0248124FF0CC023E02383FC01E859FF4F4F
S11304E025E02083FC01E959FF4F108224C0DC0180
S11304F0AB59BF4F2C91231768F4DC01AB59BF4FA4
S11305002C91EC01C20FD11D8B8187838C918F5F5D
S11305108C9311C0DC01AA59BF4F2C91241730F4DD
S1130520DC0112968C918160868305C023E02383CD
S113053061E00E941702DF91CF910895DC01ED91F3
S1130540FC912481322F3C7019F00E94FF01089520
S113055026FF03C00E945B02089522231CF40E941C
S11305602002089566E00E9417020895EF920F9307
S1130570CF93DF93FC01DB01EE2009F457C0603A0E
S113058088E0780739F4C0E4D6E088E0898384E021
S11305908A834CC0603B88E0780739F4C0E4D6E035
S11305A080E8898380E48A8341C0603A89E07807DF
S11305B039F4C0E6D6E088E0898384E08A8336C0D3
S11305C0603B89E0780739F4C0E6D6E080E88983A7
S11305D080E48A832BC0603A8AE0780739F4C0E863
S11305E0D6E088E0898384E08A8320C0603B8AE087
S11305F0780739F4C0E8D6E080E8898380E48A8308
S113060015C0603A8BE0780739F4C0EAD6E088E098
S1130610898384E08A830AC0603B8BE0780731F4E5
S1130620C0EAD6E080E8898380E48A83A083B1832A
S1130630228315A216A213A214A211A612A617A20F
S113064010A683E015968C931597007313960C935C
S11306501397552374F414968C911497846014960C
S11306608C9314975F7716964C93169717965C9312
S113067005C016964C93169717965C93A081B1818A
S113068014968C911497806114968C930190F08148
S1130690E02D848188608483DF91CF910F91EF9066
S11306A00895FC0187A190A521A532A58F5F982FFD
S11306B09F7081E0921301C080E08823C1F027A1DC
S11306C030A53327DF01A20FB31F53966C932F5F1E
S11306D03F4F2F70332727A330A7A081B1811396F2
S11306E09C9113979C7F2281922B13969C9308953F
S11306F0FC0181A592A527A130A5992728173907C0
S113070039F40190F081E02D83818C7F83830895F7
S1130710A1A5B2A5AE0FBF1F53968C91A081B18144
S11307208C9381A592A501968F70992781A792A792
S113073008951F920F920FB60F92112408B60F92CC
S113074018BE09B60F9219BE0AB60F921ABE0BB69E
S11307500F921BBECF92DF92EF92FF920F931F93E3
S11307602F933F934F935F936F937F938F939F93B5
S1130770AF93BF93EF93FF93CF93DF93CDB7DEB7E0
S1130780C054D109CDBFDEBFE0916A25F0916B253D
S11307904081809145258230D1F130F4882359F08D
S11307A0813009F075C01DC0833009F446C084301F
S11307B009F06EC058C080E090E0642F70E09B01A7
S11307C0082E02C0359527950A94E2F72170332745
S11307D0FC01E65BFA4D208301968630910579F79A
S11307E057C080E090E0642F70E09B01082E02C0A7
S11307F0359527950A94E2F721703327FC01E05BD5
S1130800FA4D208301968730910579F741C080E045
S113081090E0642F70E09B01082E02C03595279567
S11308200A94E2F721703327FC01E95AFA4D208338
S113083001968630910579F72BC080E090E0642F13
S113084070E09B01082E02C0359527950A94E2F7C3
S113085021703327FC01E35AFA4D20830196873037
S1130860910579F715C080E090E0642F70E09B015A
S1130870082E02C0359527950A94E2F72170332794
S1130880FC01EC59FA4D208301968630910579F7E5
S11308908091452581110DC0842F90E0082E892F69
S11308A0000C881F990B000C881F991F029709F0F0
S11308B024C380914525843009F0EFC2842F90E051
S11308C0082E892F000C881F990B000C881F991F74
S11308D0039709F012C3E1C210924525FE01319637
S11308E080E4DF011D928A95E9F7CE2EDF2E7F0189
S11308F000E010E0B801882777FD8095982F0E94CA
S1130900AA3B20E030E044E351E40E94743D20E03F
S113091030E044EB50E40E94323A0E94773BF70106
S1130920619371937F010F5F1F4F0032110511F71F
S1130930EC2DFD2D80E090E06FEF7FEFDC01A65BF6
S1130940BA4D2C91222331F0208131816217730733
S11309500CF4B901019632968032910579F76F3F14
S1130960FFEF7F0709F055C085E280934025A6C0BC
S1130970DC01A65BBA4D2C91222351F1F1100BC07E
S113098020813181DB01A21BB30B9D0172F43195EF
S1130990219531090AC020813181D801A21BB30BF2
S11309A09D011AF4319521953109243B31051CF040
S11309B0BE2DB21B2B2F30E0421753074CF4F1101D
S11309C004C000811181A90103C060817181A90162
S11309D0019632968032910559F60F3FEFEF1E07CC
S11309E099F4882777FD8095982F0E94AA3B2DECD7
S11309F03CEC4CEC5DE30E94743D0E94D73D0E94A8
S1130A007C3B609340255AC0F394F2E0FF120AC085
S1130A104DC2F12C40E050E00FEF1FEF0F2EF8E62F
S1130A20EF2EF02DEC2DFD2D80E090E0A1CF962F40
S1130A30872FB801092F182FCB01801B910B853B01
S1130A409105BCF028E631E08901081B190BC801A7
S1130A5095958795680F791F882777FD8095982F3E
S1130A600E94AA3B2DEC3CEC4CEC5DE30E94743DEF
S1130A7010C095958795681B790B882777FD80951D
S1130A80982F0E94AA3B2DEC3CEC4CEC5DE30E94B9
S1130A90743D0E94D73D0E947C3B60934025909119
S1130AA0402589E3989F812D112486958695869506
S1130AB014E2819F90191124909340258091402540
S1130AC0853209F054C080914125882309F441C03E
S1130AD0809100208F3FA9F02091BD273091BE273F
S1130AE04AE58402C00111248F519F4F68E671E0EA
S1130AF00E94433E821B930B809348259093492583
S1130B0016C02091BD273091BE27809101205AE55F
S1130B108502C00111248C549F4F68E671E00E9445
S1130B20433E821B930B80934825909349258091E3
S1130B30482590914925919581959109809348255F
S1130B409093492584E080934725E0E0F7E085838E
S1130B50D4C18FEF809301208093022080930020E2
S1130B601092472584E0E0E0F7E08683C6C184E084
S1130B70E0E0F7E08583209140254091BD27509126
S1130B80BE27822F90E09C01220F331FC901880FDA
S1130B90991F880F991F820F931F840F951F992304
S1130BA02CF0809342259093432506C088599E4F8C
S1130BB0809342259093432580914225909143252B
S1130BC068E671E00E94433E482F592F80934225E6
S1130BD090934325809102208F3FD9F4842F9C0168
S1130BE02D5231092A35310568F09C012758310905
S1130BF02A35310548F0815E91098A35910530F432
S1130C0083E005C081E003C082E001C080E08093FE
S1130C100220809100208F3F49F5842F952F9C015D
S1130C202E5131092E31310508F44BC19C01225D4E
S1130C3031092E31310508F444C19C01285731098A
S1130C402E31310508F437C18C5291404E9708F487
S1130C5032C18FEF09C0833011F081E005C083E019
S1130C6003C083E001C082E080930020A0910120B2
S1130C708A2F992787FD9095242F352FF901BD9749
S1130C80EA35F10508F42EC1A901475851094A353E
S1130C90510508F41EC1B901615E71096A35710517
S1130CA008F019C163E018C1A901475851094A3530
S1130CB0510540F0A901415E51094A35510520F41E
S1130CC043E005C042E003C040E001C041E0BC0194
S1130CD0641B710962307105C1F414C04A355105B1
S1130CE040F0A901415E51094A35510520F443E021
S1130CF003C042E001C040E050E0481B590B4230C1
S1130D00510519F4AF3F09F0F4C0EA35F10570F06C
S1130D10A901475851094A35510550F0A901415ECE
S1130D2051094A35510530F443E005C041E003C0A0
S1130D3042E001C040E050E08417950711F410929E
S1130D404125409100204F3F79F1EA35F10570F0DB
S1130D50C901875891098A35910550F0C901815E0E
S1130D6091098A35910530F483E005C081E003C020
S1130D7082E001C080E0582F481769F0992787FD69
S1130D809095841B910947FD9395019721F0433079
S1130D9031F4511104C01092412540E033C081E088
S1130DA08093412541E004C040914125442351F101
S1130DB050914025852F90E0880F991FBC01660F44
S1130DC0771F660F771F860F971FEA35F10568F0C6
S1130DD0B901675871096A35710548F0215E310916
S1130DE02A35310530F423E005C021E003C022E0B8
S1130DF001C020E030E02E5F3F4F23703078209315
S1130E0001202AC050914025852F90E0880F991F1A
S1130E10BC01660F771F660F771F860F971F8C54D0
S1130E209F4F68E671E00E94433EEA35F10568F0A1
S1130E30B901675871096A35710548F0215E3109B5
S1130E402A35310530F423E005C021E003C022E057
S1130E5001C020E020930120853B910514F08856C1
S1130E6091409195819591098093482590934925C6
S1130E70442311F083E001C082E0809347258091F0
S1130E8044258F5F8093442585FF37C088ED84BF58
S1130E9081E0E8E7F0E0818330C0809145258F5FF1
S1130EA080934525853008F017CD27C0601771075A
S1130EB00CF4BDCDC1CD80910220882309F4D1CE9C
S1130EC0CACE809102208250823008F4CCCE80E0D9
S1130ED0CBCE62E001C060E08C01061B11090AF070
S1130EE0E3CEFCCEAC01415051090AF0EFCE41E013
S1130EF003CF41E04093412508CFC05CDF4FCDBF15
S1130F00DEBFDF91CF91FF91EF91BF91AF919F91A0
S1130F108F917F916F915F914F913F912F911F918D
S1130F200F91FF90EF90DF90CF900F900BBE0F903A
S1130F300ABE0F9009BE0F9008BE0F900FBE0F900F
S1130F401F9018951F920F920FB60F92112408B696
S1130F500F9218BE09B60F9219BE0BB60F921BBEA4
S1130F602F933F934F935F936F937F938F939F93AD
S1130F70AF93BF93EF93FF938AE695E20E947803C1
S1130F80FF91EF91BF91AF919F918F917F916F915D
S1130F905F914F913F912F910F900BBE0F9009BE1F
S1130FA00F9008BE0F900FBE0F901F901895EF92F0
S1130FB00F93EE24E39400E322E049E150E060EB78
S1130FC07AE08AE695E20E94B6020F91EF900895C6
S1130FD0811108C060E08AE695E20E9451031092F4
S1130FE095250895909195259F5F9093952596302A
S1130FF068F0813031F46AEA8AE695E20E9451038E
S1131000089565E58AE695E20E94510308951F92CA
S11310100F920FB60F92112408B60F9218BE09B69C
S11310200F9219BE0AB60F921ABE0BB60F921BBED0
S11310302F933F938F939F93AF93BF93CF93DF935C
S1131040EF93FF93A091A027B0E0E0E0F2E084A149
S113105095A1C091A027D0E0CC0FDD1FC058D84D7A
S113106028813981821B930BAA0FBB1FA059B84D4D
S11310708D939C938091A0278F5F87708093A02786
S11310808091A027880F880F880F81A380A1806892
S113109080A3FF91EF91DF91CF91BF91AF919F9189
S11310A08F913F912F910F900BBE0F900ABE0F901E
S11310B009BE0F9008BE0F900FBE0F901F90189599
S11310C01F920F920FB60F92112408B60F9218BEFA
S11310D00F9008BE0F900FBE0F901F901895AAECAA
S11310E0B1E022E02C93FC0184911C9290E00895DD
S11310F0CF93DF9380E290E00E946F08C0E0D2E0DB
S11311008C8781E290E00E946F088D8780E290E0F6
S11311100E946F088C8781E290E00E946F088D879F
S113112081E088A319A2198296E09C8390E39A83B4
S11311301B829FE09E838AA3888388A1806888A3FA
S1131140DF91CF910895AB01772324F444275527E9
S1131150461B570B242F352F2D3D95E0390710F0F2
S11311602CED35E01616170694F440E150E0082EF5
S113117002C0440F551F0A94E2F7E0E2F7E045830A
S11311804CED55E0BA01621B730B9B010BC040E1AF
S113119050E0082E02C0440F551F0A94E2F7E0E223
S11311A0F7E04683811105C0E0E0FAE020A731A70B
S11311B00895813029F4E0E0FAE022A733A70895E6
S11311C0823029F4E0E0FAE024A735A70895E0E0AE
S11311D0FAE026A737A708952F923F924F925F9285
S11311E06F927F928F929F92AF92BF92CF92DF9233
S11311F0EF92FF920F931F93CF93DF93CDB7DEB798
S1131200A697CDBFDEBF1C0180E1E0EBF1E2DE0179
S1131210519601900D928A95E1F780E1E0ECF1E2BC
S1131220DE01119601900D928A95E1F7CE01419667
S11312308BA39CA3FE013196E9A3FAA300E010E07E
S11312402DA23EA25101FAE5AF0EB11C2A013B01C9
S113125004C18DA19EA188599E4FEAF3893621E0ED
S1131260920734F0885691408936E1E09E07D4F71E
S11312708A35910564F4FC01EE0FFF1FEE0FFF1F8A
S1131280E75FFF4D208131814281538136C0843B29
S113129091057CF4E4EBF0E0E81BF90BEE0FFF1F83
S11312A0EE0FFF1FE75FFF4D2081318142815381A3
S11312B024C08E30F1E09F077CF4FC01EE0FFF1F89
S11312C0EE0FFF1FE75CF24E80819181A281B38112
S11312D09C01AD01505811C0E8E6F1E0E81BF90BA0
S11312E0EE0FFF1FEE0FFF1FE75FFF4D808191811F
S11312F0A281B3819C01AD0150587801E9A1FAA102
S11313006191719181919191E9A3FAA30E94743D35
S1131310A30192010E94743D862E972EC82ED92EC9
S1131320C501BB201CF488599E4FEAF38936F1E0CD
S11313309F0734F088569140893621E09207D4F70C
S11313408A35910564F4FC01EE0FFF1FEE0FFF1FB9
S1131350E75FFF4D208131814281538136C0843B58
S113136091057CF4E4EBF0E0E81BF90BEE0FFF1FB2
S1131370EE0FFF1FE75FFF4D2081318142815381D2
S113138024C08E30E1E09E077CF4FC01EE0FFF1FC9
S1131390EE0FFF1FE75CF24E80819181A281B38141
S11313A09C01AD01505811C0E8E6F1E0E81BF90BCF
S11313B0EE0FFF1FEE0FFF1FE75FFF4D808191814E
S11313C0A281B3819C01AD015058EBA1FCA16191B4
S11313D0719181919191EBA3FCA30E94743DA301AF
S11313E092010E94743D9B01AC01682D792D8C2DD6
S11313F09D2D0E94323A862E972EC82ED92E20E09B
S113140030E0A9010E94D23C18166CF420E030E0D0
S113141040E05FE3682D792D8C2D9D2D0E94323A9A
S11314200E94E53B0CC020E030E040E05FE3682D23
S1131430792D8C2D9D2D0E94313A0E94F83A0E94FC
S1131440773BF701EE0FFF1FEF53F84D6083718375
S11314500F5F1F4F0430110531F033200CF4F9CE27
S11314608DA19EA1FBCEA696CDBFDEBFDF91CF910D
S11314701F910F91FF90EF90DF90CF90BF90AF90AE
S11314809F908F907F906F905F904F903F902F90A0
S113149008952F923F924F925F926F927F928F9214
S11314A09F92AF92BF92CF92DF92EF92FF920F93EF
S11314B01F93CF93DF93CDB7DEB7A697CDBFDEBF23
S11314C08C016A017B0180E1E0EBF1E2DE015196DF
S11314D001900D928A95E1F780E1E0ECF1E2DE0102
S11314E0119601900D928A95E1F7053B11052CF0B8
S11314F008561140053B1105DCF70C342FEF120799
S11315000CF02AC108591E4F0C348FEF1807D4F37E
S113151023C18DA19EA188599E4FEAF38936E1E04B
S11315209E0734F0885691408936F1E09F07D4F73E
S11315308A35910564F4FC01EE0FFF1FEE0FFF1FC7
S1131540E75FFF4D208131814281538136C0843B66
S113155091057CF4E4EBF0E0E81BF90BEE0FFF1FC0
S1131560EE0FFF1FE75FFF4D2081318142815381E0
S113157024C08E3021E092077CF4FC01EE0FFF1FA3
S1131580EE0FFF1FE75CF24E80819181A281B3814F
S11315909C01AD01505811C0E8E6F1E0E81BF90BDD
S11315A0EE0FFF1FEE0FFF1FE75FFF4D808191815C
S11315B0A281B3819C01AD0150587501E9A1FAA142
S11315C06191719181919191E9A3FAA30E94743D73
S11315D0A30192010E94743D862E972EC82ED92E07
S11315E0C10133201CF488599E4FEAF38936F1E097
S11315F09F0734F088569140893621E09207D4F74A
S11316008A35910564F4FC01EE0FFF1FEE0FFF1FF6
S1131610E75FFF4D208131814281538136C0843B95
S113162091057CF4E4EBF0E0E81BF90BEE0FFF1FEF
S1131630EE0FFF1FE75FFF4D20813181428153810F
S113164024C08E30E1E09E077CF4FC01EE0FFF1F06
S1131650EE0FFF1FE75CF24E80819181A281B3817E
S11316609C01AD01505811C0E8E6F1E0E81BF90B0C
S1131670EE0FFF1FEE0FFF1FE75FFF4D808191818B
S1131680A281B3819C01AD015058EBA1FCA16191F1
S1131690719181919191EBA3FCA30E94743DA301EC
S11316A092010E94743D9B01AC01682D792D8C2D13
S11316B09D2D0E94323A862E972EC82ED92E20E0D8
S11316C030E0A9010E94D23C18166CF420E030E00E
S11316D040E05FE3682D792D8C2D9D2D0E94323AD8
S11316E00E94E53B0CC020E030E040E05FE3682D61
S11316F0792D8C2D9D2D0E94313A0E94F83A0E943A
S1131700773BF701EE0FFF1FEF53F84D60837183B2
S113171080914725882399F0F701EE0FFF1FEF53BF
S1131720F84D8081918199230CF4019695958795C4
S1131730F701EE0FFF1FEF53F84D80839183FFEF06
S1131740AF1ABF0A24E0A216B104C9F011230CF4A5
S1131750E0CE8DA19EA1E2CECE0141968BA39CA3A7
S1131760FE013196E9A3FAA3A12CB12C0DA31EA36B
S11317701801FAE52F0E311C26013701E7CFA69692
S1131780CDBFDEBFDF91CF911F910F91FF90EF90FE
S1131790DF90CF90BF90AF909F908F907F906F908D
S11317A05F904F903F902F9008952F923F924F92C9
S11317B05F926F927F928F929F92AF92BF92CF92DD
S11317C0DF92EF92FF920F931F93CF93DF93CDB7E6
S11317D0DEB7A897CDBFDEBF5C016B0180E1E0ED11
S11317E0F1E2DE01519601900D928A95E1F780E1D4
S11317F0E0ECF1E2DE01119601900D928A95E1F799
S1131800E0907521F0907621EA18FB080091772189
S113181010917821061B170B8091C927909196256A
S1131820981709F445C160917521709176216A1960
S11318307B09882777FD8095982F0E94AA3B2DEC81
S11318403CEC4CE45BE30E94743D2091972530917D
S113185098254091992550919A250E94323A662EF6
S1131860772E882E992E20E030E048EC52E40E9436
S1131870D23C18166CF480E090E0A8ECB2E48093BB
S1131880972590939825A0939925B0939A2525C0E0
S113189020E030E048EC52EC662D772D882D992D10
S11318A00E940B3B88236CF0862D972DA82DB92D13
S11318B08093972590939825A0939925B0939A2582
S11318C00CC080E090E0A8ECB2EC80939725909354
S11318D09825A0939925B0939A25609175217091CC
S11318E076216A197B09882777FD8095982F0E94B5
S11318F0AA3B2091972530919825409199255091A4
S11319009A250E94743D20E030E0A9010E940B3B1F
S1131910181644F010929725109298251092992544
S113192010929A2560917721709178216C197D0924
S1131930882777FD8095982F0E94AA3B2DEC3CECDC
S11319404CE45BE30E94743D20919B2530919C25DF
S113195040919D2550919E250E94323A862E972EC5
S1131960A82EB92E20E030E048EC52E40E94D23C8C
S113197018166CF480E090E0A8ECB2E480939B2508
S113198090939C25A0939D25B0939E2525C020E08F
S113199030E048EC52EC682D792D8A2D9B2D0E9465
S11319A00B3B88236CF0882D992DAA2DBB2D809399
S11319B09B2590939C25A0939D25B0939E250CC0B8
S11319C080E090E0A8ECB2EC80939B2590939C255A
S11319D0A0939D25B0939E256091772170917821E5
S11319E06C197D09882777FD8095982F0E94AA3B62
S11319F020919B2530919C2540919D2550919E25B9
S1131A000E94743D20E030E0A9010E940B3B1816AF
S1131A1044F010929B2510929C2510929D251092C3
S1131A209E258091032090910420B701681B790BB7
S1131A30882777FD8095982F0E94AA3B20E030E00C
S1131A4040E852E40E94743D20E030E040EA50E473
S1131A500E94743D462E572E882E992E8091052083
S1131A6090910620B801681B790B882777FD809533
S1131A70982F0E94AA3B20E030E040E852E40E9404
S1131A80743D20E030E040EA50E40E94743D662E4C
S1131A90772EA82EB92EE0920320F0920420009312
S1131AA00520109306208091C9278093962508C0AD
S1131AB0612C712CA12CB12C412C512C812C912CFA
S1131AC0B701882777FD8095982F0E94AA3B20E0D4
S1131AD030E040E451E40E94743D6B017C0120E05D
S1131AE030E040EA50E46091972570919825809108
S1131AF0992590919A250E94743D9B01AC01C701E0
S1131B00B6010E94323A6B017C012DEC3CEC4CECAA
S1131B105EE3642D752D882D992D0E94743D9B01E3
S1131B20AC01C701B6010E94323A262E372E882E08
S1131B30992EB801882777FD8095982F0E94AA3B9B
S1131B4020E030E040E451E40E94743D6B017C01EC
S1131B5020E030E040EA50E460919B2570919C25A0
S1131B6080919D2590919E250E94743D9B01AC011E
S1131B70C701B6010E94323A6B017C012DEC3CECAA
S1131B804CEC5EE3662D772D8A2D9B2D0E94743DCF
S1131B909B01AC01C701B6010E94323A6DA37EA33A
S1131BA08FA398A7CE0101968BA39CA3FE017196E7
S1131BB0E9A3FAA300E010E05801EBA1FCA12191F4
S1131BC0319141915191EBA3FCA3E9A1FAA1419078
S1131BD0519061907190E9A3FAA3622D732D882D21
S1131BE0992D0E94743D6B017C01A3019201BDA15A
S1131BF0AEA1FFA1E8A56B2F7A2F8F2F9E2F0E94F5
S1131C00743D9B01AC01C701B6010E94323AC62E55
S1131C10D72EE82EF92E20E030E0A9010E94D23C14
S1131C2018166CF420E030E040E05FE36C2D7D2D6D
S1131C308E2D9F2D0E94323A0E94E53B0CC020E07D
S1131C4030E040E05FE36C2D7D2D8E2D9F2D0E94B2
S1131C50313A0E94F83A0E94773BF501EE0FFF1FDC
S1131C60EF53F84D608371830F5F1F4F04301105EC
S1131C7009F0A2CF80E090E060E070E09C01FC01FC
S1131C80EE0FFF1FEF53F84D40815181552344F06F
S1131C90FC01EE0FFF1FEF53F84D408151810AC044
S1131CA0FC01EE0FFF1FEF53F84D40815181519518
S1131CB04195510964177507DCF4F901EE0FFF1F14
S1131CC0EF53F84D40815181552344F0F901EE0F53
S1131CD0FF1FEF53F84D608171810AC0F901EE0FC7
S1131CE0FF1FEF53F84D6081718171956195710902
S1131CF001968430910511F6613BF4E07F070CF402
S1131D005BC0882777FD8095982F0E94AA3B9B0192
S1131D10AC0160E070E086E994E40E940F3BA62EDB
S1131D20B72EC82ED92E00E010E07801F801EE0F8E
S1131D30FF1FEF53F84D60817181882777FD8095EF
S1131D40982F0E94AA3B2A2D3B2D4C2D5D2D0E94DD
S1131D50743D662E772E882E992E20E030E0A9015E
S1131D600E94D23C18166CF420E030E040E05FE3BF
S1131D70662D772D882D992D0E94323A0E94E53BDD
S1131D800CC020E030E040E05FE3662D772D882D25
S1131D90992D0E94313A0E94F83A0E94773BF7014C
S1131DA0EE0FFF1FEF53F84D608371830F5F1F4FDA
S1131DB00430110509F0B9CFA896CDBFDEBFDF917D
S1131DC0CF911F910F91FF90EF90DF90CF90BF9034
S1131DD0AF909F908F907F906F905F904F903F90C7
S1131DE02F9008958F929F92AF92BF920F931F935B
S1131DF0CF93DF93BC01A8958730910558F020E478
S1131E003CE9C9010197F1F766507109A89567305B
S1131E107105B8F780E090E00E94A83B4B015C019B
S1131E2020E030E04AEF55E40E94743D062F172F5E
S1131E30D82FC92F20E030E040E85FE30E940B3B3D
S1131E4088234CF120E03FEF4FE757E4602F712FD8
S1131E508D2F9C2F0E94D23C1816B4F420E030E061
S1131E6040E251E4C501B4010E94743D0E947C3BF0
S1131E7061157105A9F020E233E0C9010197F1F77A
S1131E8061507109D1F70CC0602F712F8D2F9C2FD9
S1131E900E947C3B02C061E070E0CB010197F1F746
S1131EA0A895DF91CF911F910F91BF90AF909F9014
S1131EB08F9008959091A62591111DC0811123C082
S1131EC01AC088EE93E0E0E0F8E080A791A706C08E
S1131ED08AE892E0E0E0F8E080A791A71092082059
S1131EE0089584EF91E0E0E0F8E080A791A781E015
S1131EF080930820089580910820815080930820C1
S1131F00882379F30895823019F7DBCF8091072075
S1131F108823B9F081E08093A62584E690E080933D
S1131F20A2259093A32510929F251092A0258EEFB1
S1131F309FEF80935227909353271092072010927B
S1131F40A625089580910720882361F08FE090E012
S1131F508093A2259093A32510929F251092A025EB
S1131F6010920720089580910720811118C0809154
S1131F70A4259091A52501968093A4259093A52549
S1131F808F3F910560F084E0E0E2F7E086831092F1
S1131F90A4251092A52581E08093072008958091BF
S1131FA0A2259091A325892B71F08091A22590916F
S1131FB0A32501978093A2259093A32584E0E0E2D2
S1131FC0F7E08583089584E0E0E2F7E086830895EE
S1131FD0E0E2F7E0808581FF2EC080919F259091FB
S1131FE0A0250697C0F081E08093A12588E0E0E079
S1131FF0F7E0858380919F259091A025499708F06B
S113200046C080919F259091A025019680939F259D
S11320109093A02508951092A12588E0E0E0F7E0D0
S1132020868380919F259091A025019680939F257A
S11320309093A025089580919F259091A0250697BF
S113204088F081E08093A12588E0E0E0F7E08583D3
S113205080919F259091A025019780939F2590932F
S1132060A02508951092A12588E0E0E0F7E086839A
S113207080919F259091A025892B49F080919F25DF
S11320809091A025019780939F259093A025089572
S113209081309105E9F56F3F7F4F09F05EC046EC52
S11320A062ED75E28FEC95E20E949F3742EE62ED9D
S11320B075E283EC95E20E94683944EE62ED75E2C4
S11320C087EC95E20E94683946EE62ED75E28BEC8E
S11320D095E20E94683940E56BE376E28FEB95E286
S11320E00E94D5344EEC62ED75E28BEB95E20E94D2
S11320F0FB3848EA62ED75E28BEA95E20E946239A8
S113210040EC6BE376E287EA95E20E949837089503
S1132110892B19F56F3F7F4F01F587EA95E20E94FD
S11321209E378BEA95E20E9467398BEB95E20E9419
S113213001398FEB95E20E94DB348BEC95E20E942F
S11321406E3987EC95E20E946E3983EC95E20E9429
S11321506E398FEC95E20E94A4370895EF920F93A5
S1132160EE24E39400E221E04FEC50E060EA78E0F2
S11321708DEC97E20E94B6020F91EF9008951F92A2
S11321800F920FB60F92112408B60F9218BE09B61B
S11321900F9219BE0AB60F921ABE0BB60F921BBE4F
S11321A02F933F934F935F936F937F938F939F935B
S11321B0AF93BF93CF93DF93EF93FF93E091CD273A
S11321C0F091CE2740818091CC27873009F462C0FA
S11321D068F4833039F120F4813021F148F51CC0D2
S11321E0853009F442C008F04DC036C08B3009F484
S11321F07BC030F4893009F462C008F06DC057C068
S11322008D3009F486C008F47CC08E3009F48EC089
S11322108F3009F0E7C092C0453509F4E3C010924D
S1132220CC27E5C04A3A09F4DDC01092CC27DFC0C0
S1132230453531F4E091CA27F091CB2712860CC0C2
S1132240463539F4E091CA27F091CB2781E08287A3
S113225003C01092CC27CBC0E091CA27F091CB27C2
S1132260842F90E083879487BDC0E091CA27F091C2
S1132270CB2723853485942F80E0822B932B83876F
S11322809487B0C0E091CA27F091CB2750E04087F3
S11322905187A8C0E091CA27F091CB2720853185CA
S11322A0942F80E0822B932B808791879BC0E091B1
S11322B0CA27F091CB2750E04483558393C0E09123
S11322C0CA27F091CB2724813581942F80E0822B7B
S11322D0932B8483958386C0E091CA27F091CB2702
S11322E050E0468357837EC0E091CA27F091CB2704
S11322F026813781942F80E0822B932B86839783CA
S113230071C0E091CA27F091CB2750E040835183FC
S113231069C0E091CA27F091CB2720813181942FA5
S113232080E0822B932B808391835CC0E091CA2749
S1132330F091CB2750E04283538354C0E091CA27E5
S1132340F091CB2722813381942F80E0822B932B31
S11323508283938320813181C281D381A481B58119
S11323606681778140855185838594852C0F3D1F37
S11323702A0F3B1F260F371F240F351F2817390735
S113238069F581E08587248135818091BD2790910D
S1132390BE274091A1275091A227205A310912F457
S11323A02D5F3F4F3595279535952795820F931FC0
S11323B09A01220F331F220F331F220F331F420FA4
S11323C0531F840F951F6AE070E00E94433E6093A0
S11323D0A1277093A2271092F82701C015861092A6
S11323E0CC2705C08091CC278F5F8093CC27FF91A9
S11323F0EF91DF91CF91BF91AF919F918F917F9199
S11324006F915F914F913F912F910F900BBE0F9061
S11324100ABE0F9009BE0F9008BE0F900FBE0F901A
S11324201F9018951F920F920FB60F92112408B6A1
S11324300F9218BE09B60F9219BE0AB60F921ABEB1
S11324400BB60F921BBE2F923F924F925F926F92E8
S11324507F928F929F92AF92BF92CF92DF92EF9230
S1132460FF920F931F932F933F934F935F936F9319
S11324707F938F939F93AF93BF93EF93FF93CF93E8
S1132480DF93CDB7DEB72A97CDBFDEBF8091C927D2
S11324908931E8F11092C927E0EEF6E0808580FDED
S11324A03BC0808586FD1BC08091AF218823D1F07D
S11324B08FEB95E20E9403368093B8279093B92757
S11324C01092A5271092A6276091B8277091B9277A
S11324D080E590E00E94EF3E1092AF2103C081E0BE
S11324E08093AF21109251271092522710925327B4
S11324F0E0EEF6E0808580FD06C0808582958170DF
S11325000E94E80709C080E00E94E80705C08091A6
S1132510C9278F5F8093C927E0EEF6E0808580FDB0
S113252004C010924725109241258091C0269091B5
S1132530C1269C012F5F3F4F2093C0263093C126B4
S1132540893B9B4050F080E00E945A0F89EB9BE04E
S11325508093C0269093C12630C08091C02690916C
S1132560C1269C012F5F3F4F2093C0263093C12684
S1132570813D974038F084EF91E0E0E0F8E080A7F7
S113258091A71BC08091C0269091C1269C012F5F0A
S11325903F4F2093C0263093C126893E934038F0A4
S11325A088EE93E0E0E0F8E080A791A706C084EF0E
S11325B091E0E0E0F8E080A791A78091BA278F5FCF
S11325C08093BA27843008F45AC01092BA278091B5
S11325D0B4279091B5278093B6279093B7278FEBB4
S11325E095E20E945637853009F03FC080E4E0E070
S11325F0F7E086838FEB95E20E9403362091B8279B
S11326003091B927821B930B89879A8789859A858C
S1132610853B91053CF089859A8588569140898748
S11326209A870BC089859A858C349F4F34F48985A9
S11326309A8588599E4F89879A8789859A85809338
S1132640BD279093BE278FEB95E20E941437833FFA
S113265030F080E8E0E0F7E086830C94EB1C80E83F
S1132660E0E0F7E085830C94EB1C8FEB95E20E948D
S1132670DC3480E4E0E0F7E085830C94EB1C8130EB
S113268009F05BC48BEB95E20E9402398093A62685
S11326909093A726883F9A4288F48091A5268F5F5D
S11326A08093A5268531CCF090E2E0E0F7E09583B5
S11326B089329CF088E28093A5260FC08091A526DC
S11326C081508093A526843144F490E2E0E0F7E061
S11326D09683882314F41092A526E0EEF6E0808514
S11326E085FF03C080E491E002C080ED97E0209173
S11326F07027309171272817390798F52091722790
S1132700309173272817390760F520917427309189
S113271075272817390728F52091762730917727D0
S113272028173907F0F42091782730917927281752
S11327303907B8F420917A2730917B272817390775
S113274080F420917C2730917D272817390748F49D
S113275020917E2730917F272817390710F40C9495
S1132760061D0F2EF8E2CF2EF5E2DF2EF02DE12C20
S1132770F12C212C312C412C512C612C712C812CCD
S1132780912C5701F701EE0FFF1FE059F84D6081BE
S1132790718180E090E00E94A83BF60130812181A4
S11327A0F2E0CF0ED11C032F122F11232CF4980129
S11327B028593E4FEAF301C09801293641E0340715
S11327C034F0285631402936E1E03E07D4F72A3563
S11327D0310564F4F901EE0FFF1FEE0FFF1FE75FF1
S11327E0FF4D208131814281538132C0243B310528
S11327F07CF4E4EBF0E0E21BF30BEE0FFF1FEE0FB3
S1132800FF1FE75FFF4D208131814281538120C04A
S11328102E30F1E03F076CF4F901EE0FFF1FEE0FCD
S1132820FF1FE75CF24E2081318142815381505871
S11328300FC0E8E6F1E0E21BF30BEE0FFF1FEE0F13
S1132840FF1FE75FFF4D2081318142815381505842
S11328500E94743D9B01AC01662D772D882D992D26
S11328600E94323A662E772E882E992EF501EE0FAD
S1132870FF1FE059F84D6081718180E090E00E9473
S1132880A83B065A1F4F1AF408591E4FEAF309369B
S113289021E0120734F008561140093631E01307DD
S11328A0D4F70A35110564F4F801EE0FFF1FEE0F9B
S11328B0FF1FE75FFF4D208131814281538136C084
S11328C0043B11057CF4E4EBF0E0E01BF10BEE0FAC
S11328D0FF1FEE0FFF1FE75FFF4D20813181428113
S11328E0538124C00E3041E014077CF4F801EE0F4C
S11328F0FF1FEE0FFF1FE75CF24E00811181228162
S11329003381A9019801505811C0E8E6F1E0E01BB9
S1132910F10BEE0FFF1FEE0FFF1FE75FFF4D00816E
S1132920118122813381A901980150580E94743D7C
S11329309B01AC01622D732D842D952D0E94323A9A
S1132940262E372E482E592E8FEFE81AF80AE8E083
S1132950EE16F10409F015CF262D372D482D592DEB
S1132960622D732D842D952D0E94A53A20E030E030
S113297044E353E40E94743D2BED3FE049E450E40A
S11329800E940F3B0E94773B60935A2770935B270A
S1132990E0ECF7E0808580FF09C080915A27909190
S11329A05B27059680935A2790935B2780915A273B
S11329B090915B272091BD273091BE27821B930BFA
S11329C0809358279093592780915A2790915B2799
S11329D08D349F4F5CF480915A2790915B278859DE
S11329E09E4F80935A2790935B2711C080915A275A
S11329F090915B27853B910554F080915A279091E3
S1132A005B278856914080935A2790935B27222D09
S1132A10332D442D552D662D772D882D992D0E940B
S1132A20DF3C6B017C0120E030E0A9010E94D23C34
S1132A3018165CF420E030E040E05FE3C701B60123
S1132A400E94323A0E94E53B0AC020E030E040E0B8
S1132A505FE3C701B6010E94313A0E94F83A0E942E
S1132A607C3B60935E2770935F2700915A271091F7
S1132A705B2760915E2770915F2780E090E00E9461
S1132A80A83B6B017C01000F111F000F111F065A98
S1132A901F4F1AF408591E4FEAF3093621E01207B2
S1132AA034F008561140093631E01307D4F70A35DB
S1132AB0110564F4F801EE0FFF1FEE0FFF1FE75F2F
S1132AC0FF4D208131814281538136C0043B110581
S1132AD07CF4E4EBF0E0E01BF10BEE0FFF1FEE0FD4
S1132AE0FF1FE75FFF4D208131814281538124C064
S1132AF00E3041E014077CF4F801EE0FFF1FEE0FD7
S1132B00FF1FE75CF24E80819181A281B3819C0119
S1132B10AD01505811C0E8E6F1E0E01BF10BEE0FF7
S1132B20FF1FEE0FFF1FE75FFF4D80819181A281A0
S1132B30B3819C01AD01505860E070E080E191E404
S1132B400E94313A9B01AC01C701B6010E94743D59
S1132B5020E030E040E05EE30E94743DE62EF72E74
S1132B60082F192F20E030E0A9010E94D23C18164A
S1132B706CF420E030E040E05FE36E2D7F2D802F89
S1132B80912F0E94323A0E94E53B0CC020E030E0D5
S1132B9040E05FE36E2D7F2D802F912F0E94313A0C
S1132BA00E94F83A0E947C3B60935C2770935D27F7
S1132BB000E010E0412C512C612C712C812C912CC3
S1132BC0A12CB12C0F2EF4EB2F2E312CF02D7801EB
S1132BD06801CC0CDD1CF601E65CF84D6081718166
S1132BE080E090E00E94A83BF601E157FE4D208171
S1132BF0318133231CF428593E4FEAF32936E1E0AE
S1132C003E0734F0285631402936F1E03F07D4F727
S1132C102A35310564F4F901EE0FFF1FEE0FFF1F93
S1132C20E75FFF4D208131814281538131C0243BD4
S1132C30310574F4F101E21BF30BEE0FFF1FEE0FED
S1132C40FF1FE75FFF4D208131814281538120C006
S1132C502E3041E034076CF4F901EE0FFF1FEE0F44
S1132C60FF1FE75CF24E208131814281538150582D
S1132C700FC0E8E6F1E0E21BF30BEE0FFF1FEE0FCF
S1132C80FF1FE75FFF4D20813181428153815058FE
S1132C900E94743D9B01AC01682D792D8A2D9B2DDA
S1132CA00E94323A862E972EA82EB92EEE0CFF1CC7
S1132CB0F701E65CF84D6081718180E090E00E944C
S1132CC0A83BF701E157FE4D20813181265A3F4F41
S1132CD01AF428593E4FEAF32936E1E03E0734F06E
S1132CE0285631402936F1E03F07D4F72A3531051B
S1132CF064F4F901EE0FFF1FEE0FFF1FE75FFF4DB6
S1132D00208131814281538135C0243B310574F4E3
S1132D10F101E21BF30BEE0FFF1FEE0FFF1FE75F46
S1132D20FF4D208131814281538124C02E3041E006
S1132D3034077CF4F901EE0FFF1FEE0FFF1FE75C71
S1132D40F24EC080D180E280F380A70196015058F2
S1132D5011C0E8E6F1E0E21BF30BEE0FFF1FEE0FEC
S1132D60FF1FE75FFF4DC080D180E280F380A701A1
S1132D70960150580E94743D9B01AC01642D752D41
S1132D80862D972D0E94323A462E572E682E792E84
S1132D900F5F1F4F0830110509F019CF282D392D69
S1132DA04A2D5B2D642D752D862D972D0E94A53AF5
S1132DB020E030E044E353E40E94743D2BED3FE017
S1132DC049E450E40E940F3B0E94773B609338270C
S1132DD07093392780913827909139278D349F4FEC
S1132DE05CF4809138279091392788599E4F8093BD
S1132DF038279093392711C080913827909139272B
S1132E00853B910554F08091382790913927885655
S1132E1091408093382790933927242D352D462DC2
S1132E20572D682D792D8A2D9B2D0E94DF3C6B0137
S1132E307C0120E030E0A9010E94D23C18165CF429
S1132E4020E030E040E05FE3C701B6010E94323A7F
S1132E500E94E53B0AC020E030E040E05FE3C701A8
S1132E60B6010E94313A0E94F83A0E947C3B60937A
S1132E7036277093372780915227909153279C01CE
S1132E802F5F3F4F20935227309353278034914034
S1132E9008F041C080915E2790915F27803991406E
S1132EA008F4C3C5209156273091572780915E2797
S1132EB090915F27205931402817390708F0B5C58C
S1132EC0209156273091572780915E2790915F2754
S1132ED020573E4F8217930708F0A7C52091542727
S1132EE03091552780915A2790915B2725503109BD
S1132EF0281739070CF099C520915427309155278C
S1132F0080915A2790915B272B5F3F4F821793073D
S1132F100CF461C58AC5809152279091532781385A
S1132F20924020F481E08093512755C51092512797
S1132F3010925227109253274EC5823009F042C393
S1132F408091BB279091BC272091BD273091BE274B
S1132F50821B930B853B91053CF0885691408093EE
S1132F60B4279093B5270FC08C344FEF94072CF0FF
S1132F708093B4279093B52706C088599E4F8093B9
S1132F80B4279093B5270091B4271091B527B801C1
S1132F90882777FD8095982F0E94AA3B4B015C01FE
S1132FA020E030E040E85CE30E94743D2091B027CB
S1132FB03091B1274091B2275091B3270E94323A01
S1132FC0462E572E682E792E20E030E048E453E454
S1132FD00E94D23C18166CF480E090E0A8E4B3E4BC
S1132FE08093B0279093B127A093B227B093B327CF
S1132FF025C020E030E048E453EC642D752D862D87
S1133000972D0E940B3B88236CF0842D952DA62DC3
S1133010B72D8093B0279093B127A093B227B09394
S1133020B3270CC080E090E0A8E4B3EC8093B02711
S11330309093B127A093B227B093B3272091B627DA
S11330403091B727029FC001039F900D129F900DEE
S1133050112418161906B4F020E030E040E05FE3D4
S11330606091B0277091B1278091B2279091B327D6
S11330700E94743D6093B0277093B1278093B22768
S11330809093B327C090B027D090B127E090B22797
S1133090F090B327A7019601C501B4010E94743DC5
S11330A020E030E0A9010E940B3B181684F024EACA
S11330B030E74DE75FE3C701B6010E94743D6093BA
S11330C0B0277093B1278093B2279093B3278FEBE7
S11330D095E20E94B5358093AE279093AF278091F7
S11330E0C225882321F01092AE271092AF27609159
S11330F0AE277091AF270091A5271091A6278827A6
S113310077FD8095982F0E94AA3B20E030E040E8AC
S11331105CE30E94743D0E94773B600F711F6093D3
S1133120A5277093A6278091A5279091A62760E8EC
S113313076E10E94433E8093A5279093A627809131
S1133140A5279091A62799230CF40F96959587951A
S11331509595879595958795959587958093A327BC
S11331609093A4278091A3279091A427853B910550
S11331705CF08091A3279091A42788569140809376
S1133180A3279093A42711C08091A3279091A427EB
S11331908C349F4F54F48091A3279091A42788598D
S11331A09E4F8093A3279093A4270091AE2710915C
S11331B0AF276091B4277091B527882777FD809554
S11331C0982F0E94AA3B20E030E04AE751E40E9495
S11331D0743D6B017C0120E030E040E051E46091FB
S11331E0B0277091B1278091B2279091B3270E94A4
S11331F0743D9B01AC01C701B6010E94323A6B01D8
S11332007C01B801882777FD8095982F0E94AA3BFE
S113321020E030E040E85DE30E94743D9B01AC0196
S1133220C701B6010E94323AE62EF72E082F192F55
S1133230A62EB72EC82ED92E982F4E2D5F2D692F6E
S1133240712F4093AA275093AB276093AC277093B8
S1133250AD2720E030E04AE754E46E2D7F2D802F27
S1133260912F0E94D23C1816BCF480E090E0AAE7AB
S1133270B4E48093AA279093AB27A093AC27B09390
S1133280AD27A12CB12C0F2EFAE7CF2EF02D0F2E47
S1133290F4E4DF2EF02D2EC020E030E04AE754ECB9
S11332A06E2D7F2D802F912F0E940B3B8823BCF421
S11332B080E090E0AAE7B4EC8093AA279093AB2730
S11332C0A093AC27B093AD27A12CB12C0F2EFAE715
S11332D0CF2EF02D0F2EF4ECDF2EF02D18C020E0B1
S11332E030E0A9016E2D7F2D802F912F0E94D23CBA
S11332F018166CF420E030E040E05FE36A2D7B2D8B
S11333008C2D9D2D0E94323A0E94E53B0CC020E09A
S113331030E040E05FE36A2D7B2D8C2D9D2D0E94D3
S1133320313A0E94F83A0E94773B6093BF2770932A
S1133330C0278091A8279091A927892B29F08091F3
S11333404725833008F486C32091C1273091C227D2
S11333508091BF279091C027820F931F89839A83FE
S11333602091C3273091C4278091BF279091C02713
S1133370820F931F8B839C832091C5273091C6278E
S11333808091BF279091C027820F931F8D839E83C6
S11333902091C7273091C8278091BF279091C027DB
S11333A0820F931F8F8398878FEB95E20E945E367E
S11333B099233CF08FEB95E20E945E36099754F412
S11333C022C08FEB95E20E945E369195819591091A
S11333D00997CCF08FEB95E20E94193599234CF0B4
S11333E08FEB95E20E941935813293400CF03FC077
S11333F00AC08FEB95E20E94193591958195910948
S113340081329340A4F58FEB95E20E94B93699235B
S11334103CF08FEB95E20E94B936099754F433C01F
S11334208FEB95E20E94B9369195819591090997A0
S113343054F18FEB95E20E941935992354F08FEBE8
S113344095E20E94193521E08132934074F420E022
S11334500CC08FEB95E20E941935919581959109E5
S113346021E0813293400CF420E0222361F080912A
S1133470BF279091C0278F8398878D839E838B83EA
S11334809C8389839A838E010F5F1F4F7E0189E09D
S1133490E80EF11CF80160E070E030812181329681
S11334A0832F922F99231CF4919581959109681784
S11334B079070CF4BC01EE15FF0579F76D3DE5E0E5
S11334C07E070CF450C0882777FD8095982F0E94C2
S11334D0AA3B9B01AC0160E070E88BEB94E40E9492
S11334E00F3B462E572E682E792E6801F801608115
S11334F07181882777FD8095982F0E94AA3B242DFF
S1133500352D462D572D0E94743D862E972EA82EBC
S1133510B92E20E030E0A9010E94D23C18166CF4C8
S113352020E030E040E05FE3682D792D8A2D9B2D6B
S11335300E94323A0E94E53B0CC020E030E040E0BB
S11335405FE3682D792D8A2D9B2D0E94313A0E94CC
S1133550F83A0E94773BF601608371830E5F1F4F38
S1133560E016F10611F6E0EEF6E0808580FF15C066
S113357069817A8180E00E94A3086B817C8181E06B
S11335800E94A3086D817E8182E00E94A3086F815E
S1133590788583E00E94A3081EC260E070E080E0AA
S11335A00E94A30860E070E081E00E94A30860E04C
S11335B070E082E00E94A30860E070E083E00E9473
S11335C0A30809C2833009F006C280912F27811114
S11335D05EC083EC95E20E94103A882309F47FC010
S11335E08BEC95E20E94103A882309F478C083ECAE
S11335F095E20E94C23900E317E2F80180839183C7
S11336008BEC95E20E94C23980933427909335273E
S1133610F80180819181892BF1F480913427909174
S11336203527892B59F480E590E0809330279093D7
S1133630312780933427909335271FC02091342756
S11336403091352782EA90E0821B930B80933027D8
S11336509093312712C08091342790913527892B7C
S113366061F4209130273091312782EA90E0821B67
S1133670930B809334279093352787EC95E20E942F
S1133680B73980912F278F5F80932F2728C080918F
S11336902F27813021F587EC95E20E94103A882388
S11336A0F1F087EC95E20E94C23902E317E2F801D7
S11336B08083918383EC95E20E94B739F80180817D
S11336C09181892B31F484E690E0809332279093A2
S11336D033278BEC95E20E94B73910922F27809103
S11336E034279091352720913027309131278A54FF
S11336F09F4F821B930B96958795EBE2F7E28083AD
S11337009183808191818130944024F010922B2701
S113371010922C2780913227909133270596EDE261
S1133720F7E28083918380819181809377219093C4
S1133730782180913027909131272091342730913E
S11337403527820F931F8739910520F1E0E3F7E2D3
S11337508081918180937F2190938021A4E3B7E2BB
S11337608D919C9111978093792190937A21109255
S11337702227109221278D919C91208131818A5496
S11337809F4F821B930B96958795809375219093F9
S11337907621CFC0209130273091312740912227C4
S11337A0E42FF0E0EE0FFF1FE158FE4D8081918180
S11337B02C5E3F4F8217930708F14F5F433018F494
S11337C04093222703C082E08093222780912227FE
S11337D090E0FC01EE0FFF1FEB5DF84DDC01AA0F3A
S11337E0BB1FA158BE4D80917F21909180212D91C6
S11337F03C91821B930B8083918310C020913027CE
S11338003091312744962817390740F0442321F09A
S113381041504093222702C0109222276091222710
S1133820262F30E08091302790913127F901EE0F57
S1133830FF1FE158FE4D80839183409134275091BE
S1133840352770912127E72FF0E0EE0FFF1FE7588F
S1133850FE4D808191814C5E5F4F8417950708F17E
S11338607F5F733018F47093212703C082E0809344
S113387021278091212790E0FC01EE0FFF1FEF5DCF
S1133880F84DDC01AA0FBB1FA758BE4D80917921CA
S113389090917A214D915C91841B950B8083918347
S11338A010C0409134275091352744964817590742
S11338B040F0772321F071507093212702C01092B9
S11338C0212770912127472F50E080913427909130
S11338D03527FA01EE0FFF1FE758FE4D80839183D1
S11338E08091302790913127662349F0F901EE0F3A
S11338F0FF1FEB5DF84D20813181820F931F2091D2
S1133900342730913527772349F0FA01EE0FFF1F52
S1133910EF5DF84D40815181240F351F281B390B71
S11339202A543F4FC90196958795809375219093AA
S1133930762180914725882309F44DC08091012088
S11339408130E1F01CF4882339F045C0823041F124
S1133950833009F040C032C0E0914725F0E0EE0F1B
S1133960FF1FEB57FE4D2081318180EF90E0821BD9
S1133970930B80937721909378212DC0E091472574
S1133980F0E0EE0FFF1FEB57FE4D2081318184EBF9
S113399090E0821B930B80937521909376211BC03A
S11339A0E0914725F0E0EE0FFF1FEB57FE4D8081BD
S11339B0918180937721909378210DC0E0914725E0
S11339C0F0E0EE0FFF1FEB57FE4D80819181809355
S11339D07521909376210E94E80F0E94B30F1092F4
S11339E04425E0EEF6E0808582FF0BC080911A2723
S11339F08F5F80931A27823320F00E940A2110924D
S1133A001A278EEFE0ECF8E083832DC085E090E088
S1133A1080935E2790935F2780935C2790935D2724
S1133A2010925A2710925B27C3C880915E27909109
S1133A305F27809356279093572780915A27909118
S1133A405B27809354279093552710925227109206
S1133A505327C1CF8091A8279091A9278093BF278E
S1133A609093C02771CC2A96CDBFDEBFDF91CF9152
S1133A70FF91EF91BF91AF919F918F917F916F9142
S1133A805F914F913F912F911F910F91FF90EF9074
S1133A90DF90CF90BF90AF909F908F907F906F906A
S1133AA05F904F903F902F900F900BBE0F900ABEE7
S1133AB00F9009BE0F9008BE0F900FBE0F901F907D
S1133AC018951F920F920FB60F92112408B60F92F9
S1133AD018BE09B60F9219BE0BB60F921BBE2F93D8
S1133AE03F934F935F936F937F938F939F93AF9382
S1133AF0BF93EF93FF938FEE96E20E947803FF91BA
S1133B00EF91BF91AF919F918F917F916F915F9151
S1133B104F913F912F910F900BBE0F9009BE0F90C4
S1133B2008BE0F900FBE0F901F9018951F920F9212
S1133B300FB60F92112408B60F9218BE09B60F9251
S1133B4019BE0BB60F921BBE2F933F934F935F93F7
S1133B506F937F938F939F93AF93BF93EF93FF9351
S1133B6083EC96E20E947803FF91EF91BF91AF91AD
S1133B709F918F917F916F915F914F913F912F9181
S1133B800F900BBE0F9009BE0F9008BE0F900FBE92
S1133B900F901F9018951F920F920FB60F92112439
S1133BA008B60F9218BE0BB60F921BBE8F93EF93FD
S1133BB0FF93E091EF26F091F02680818093C22656
S1133BC0FF91EF918F910F900BBE0F9008BE0F9055
S1133BD00FBE0F901F9018951F920F920FB60F9261
S1133BE0112408B60F9218BE09B60F9219BE0BB66F
S1133BF00F921BBE2F933F934F935F936F937F93CB
S1133C008F939F93AF93BF93EF93FF938BE396E2CE
S1133C100E949E02FF91EF91BF91AF919F918F916E
S1133C207F916F915F914F913F912F910F900BBEB8
S1133C300F9009BE0F9008BE0F900FBE0F901F90FB
S1133C4018951F920F920FB60F92112408B60F9277
S1133C5018BE09B60F9219BE0BB60F921BBE2F9356
S1133C603F934F935F936F937F938F939F93AF9300
S1133C70BF93EF93FF9382ED95E20E949E02FF9122
S1133C80EF91BF91AF919F918F917F916F915F91D0
S1133C904F913F912F910F900BBE0F9009BE0F9043
S1133CA008BE0F900FBE0F901F9018951F920F9291
S1133CB00FB60F92112408B60F9218BE0BB60F92CE
S1133CC01BBE2F938F939F93EF93FF9380914D2768
S1133CD08F5F80934D2780914D27813049F4E0E632
S1133CE0F6E0808585FFFDCFE0ECF8E013823FC06D
S1133CF080914D27823059F4E0ECF8E02381922F33
S1133D0080E080934A2790934B27138230C0E0ECE5
S1133D10F8E0238180914A2790914B27822B80934E
S1133D204A2790934B27E0914C27F0E080914A2753
S1133D3090914B27EE0FFF1FE65CF84D8083918333
S1133D4010924D2780914C278F5F80934C27809150
S1133D504C27883018F010924C2709C0E0914C276A
S1133D60F0E0E85CFA4D8081E0ECF8E08383FF91B9
S1133D70EF919F918F912F910F900BBE0F9008BEE2
S1133D800F900FBE0F901F9018951F920F920FB6B1
S1133D900F92112408B60F9218BE0BB60F921BBED9
S1133DA08F939F93EF93FF931092B4261092B526AE
S1133DB0E8EAF6E28081982F9F5F908388301CF0B8
S1133DC088E08093A826FF91EF919F918F910F90A7
S1133DD00BBE0F9008BE0F900FBE0F901F9018954A
S1133DE01F920F920FB60F92112408B60F9218BEAD
S1133DF00BB60F921BBE8F939F93EF93FF9310927A
S1133E00B6261092B726E9EAF6E28081982F9F5FE2
S1133E10908388301CF088E08093A926FF91EF916D
S1133E209F918F910F900BBE0F9008BE0F900FBE05
S1133E300F901F9018951F920F920FB60F92112496
S1133E4008B60F9218BE0BB60F921BBE8F939F93AA
S1133E50EF93FF931092B8261092B926EAEAF6E29D
S1133E608081982F9F5F908388301CF088E0809336
S1133E70AA26FF91EF919F918F910F900BBE0F9007
S1133E8008BE0F900FBE0F901F9018951F920F92AF
S1133E900FB60F92112408B60F9218BE0BB60F92EC
S1133EA01BBE8F939F93EF93FF931092BA261092A9
S1133EB0BB26EBEAF6E28081982F9F5F90838830DF
S1133EC01CF088E08093AB26FF91EF919F918F9136
S1133ED00F900BBE0F9008BE0F900FBE0F901F9057
S1133EE018951F920F920FB60F92112408B60F92D5
S1133EF018BE09B60F9219BE0AB60F921ABE0BB6B7
S1133F000F921BBE2F933F934F935F936F937F93B7
S1133F108F939F93AF93BF93CF93DF93EF93FF93CD
S1133F208091A826181634F4E0E0F9E010A211A25A
S1133F301092A826ECEBF6E28081982F9F5F908385
S1133F4080FD12C0C0E0D9E028A139A140E050E0D2
S1133F5064E57AEE8AE290E00E94573E2093B4260C
S1133F603093B52618A219A2FF91EF91DF91CF915A
S1133F70BF91AF919F918F917F916F915F914F917D
S1133F803F912F910F900BBE0F900ABE0F9009BE68
S1133F900F9008BE0F900FBE0F901F9018951F92A0
S1133FA00F920FB60F92112408B60F9218BE09B6DD
S1133FB00F9219BE0AB60F921ABE0BB60F921BBE11
S1133FC02F933F934F935F936F937F938F939F931D
S1133FD0AF93BF93CF93DF93EF93FF938091A92681
S1133FE0181634F4E0E4F9E010A211A21092A92604
S1133FF0EDEBF6E28081982F9F5F908380FD12C0E5
S1134000C0E4D9E028A139A140E050E064E57AEEAB
S11340108AE290E00E94573E2093B6263093B7265A
S113402018A219A2FF91EF91DF91CF91BF91AF91A7
S11340309F918F917F916F915F914F913F912F91BC
S11340400F900BBE0F900ABE0F9009BE0F9008BED2
S11340500F900FBE0F901F9018951F920F920FB6DE
S11340600F92112408B60F9218BE09B60F9219BE0A
S11340700AB60F921ABE0BB60F921BBE2F933F9334
S11340804F935F936F937F938F939F93AF93BF935C
S1134090CF93DF93EF93FF938091AA26181634F4FD
S11340A0E0E0FBE010A211A21092AA26EEEBF6E2E9
S11340B08081982F9F5F908380FD12C0C0E0DBE079
S11340C028A139A140E050E064E57AEE8AE290E06C
S11340D00E94573E2093B8263093B92618A219A2FD
S11340E0FF91EF91DF91CF91BF91AF919F918F910C
S11340F07F916F915F914F913F912F910F900BBEE4
S11341000F900ABE0F9009BE0F9008BE0F900FBE0D
S11341100F901F9018951F920F920FB60F921124B3
S113412008B60F9218BE09B60F9219BE0AB60F92BE
S11341301ABE0BB60F921BBE2F933F934F935F9300
S11341406F937F938F939F93AF93BF93CF93DF939B
S1134150EF93FF938091AB26181634F4E0E4FBE070
S113416010A211A21092AB26EFEBF6E28081982FF9
S11341709F5F908380FD12C0C0E4DBE028A139A1D9
S113418040E050E064E57AEE8AE290E00E94573E17
S11341902093BA263093BB2618A219A2FF91EF915F
S11341A0DF91CF91BF91AF919F918F917F916F914B
S11341B05F914F913F912F910F900BBE0F900ABECC
S11341C00F9009BE0F9008BE0F900FBE0F901F9066
S11341D018951F920F920FB60F92112408B60F92E2
S11341E018BEE0ECF7E06FE050E420E43FE1A8956E
S11341F06583452FA895C9010197F1F74150D1F77F
S1134200A8956683452FA895C9010197F1F74150F8
S1134210D1F7EDCFEF92FF920F931F93CF93DF93DC
S11342208FEC95E20E94B13820911D2730911E2712
S11342308217930709F491C020911D2730911E27FE
S113424031FF06C091FFEDC703C029E120931F276A
S113425020911D2730911E2733FFF8C793FFECC729
S1134260F5C710921F27F2C7CF5FDF5FC930E1F3B4
S11342709B010C2E02C0220F331F0A94E2F74091D7
S11342801D2750911E2742235323452B09F45EC05A
S11342902E233F23232B09F0E4C758C000E02091CC
S11342A01B2730911C272115324070F040911B27A9
S11342B050911C27202F30E03460240F351F2093A9
S11342C01B2730931C2731C020911B2730911C27BA
S11342D02F3F3105C1F0B8F0E0901B27F0901C2768
S11342E0402F50E0440F551F9A01220F331F220F15
S11342F0331F420F531F52604E0D5F1D40931B2707
S113430050931C2712C040911B2750911C27452B0A
S113431061F4033028F4109F90011124316001C02E
S11343209D0120931B2730931C2720911B2730913C
S11343301C272115344050F020911B2730911C2755
S113434020931F2710921B2710921C27DB3008F4A0
S11343508BCF80931D2790931E278FEC95E20E94AC
S11343602038E0911F27F0E0EA31F10508F047C753
S1134370E650FF4F0C94733E20EE31E241E061E0E1
S11343808FEC95E20E94A537E0ECF7E06085617060
S1134390605D8FEC95E20E948F3824EF31E241E0BA
S11343A062E08FEC95E20E94A53720E032E24DE016
S11343B062E08FEC95E20E94A53729E032E241E009
S11343C063E08FEC95E20E94A5372BE132E241E0F5
S11343D064E08FEC95E20E94A53748C72DE232E2F3
S11343E041E061E08FEC95E20E94A5372FE332E2D1
S11343F041E062E08FEC95E20E94A5372FE432E2BF
S113440041E063E08FEC95E20E94A5372DE532E2AE
S113441041E064E08FEC95E20E94A53727C72EE6C1
S113442032E241E061E08FEC95E20E94A5372FE78C
S113443032E241E062E08FEC95E20E94A5372FE87A
S113444032E241E063E08FEC95E20E94A53723EA73
S113445032E241E064E08FEC95E20E94A53706C7A2
S113446028EB32E241E061E08FEC95E20E94A5374F
S113447022EC32E241E062E08FEC95E20E94A53743
S11344802BEC32E241E063E08FEC95E20E94A53729
S113449023ED32E241E064E08FEC95E20E94A5371F
S11344A0E5C625EE32E241E061E08FEC95E20E9440
S11344B0A537DCC628EF32E241E061E08FEC95E2FB
S11344C00E94A5372CE033E241E062E08FEC95E2F4
S11344D00E94A53721E233E241E063E08FEC95E2EC
S11344E00E94A5372DE233E244E064E08FEC95E2CC
S11344F00E94A53760911F27605D8FEC95E20E94B2
S11345008F38B4C62EE333E241E061E08FEC95E2EC
S11345100E94A5372091C1273091C2274AE061E06B
S11345208FEC95E20E94F03727E433E241E062E049
S11345308FEC95E20E94A5372091C3273091C427C0
S11345404AE062E08FEC95E20E94F03720E533E226
S113455041E063E08FEC95E20E94A5372091C527E6
S11345603091C6274AE063E08FEC95E20E94F03771
S113457029E533E241E064E08FEC95E20E94A5373F
S11345802091C7273091C8274AE064E08FEC95E278
S11345900E94F0376BC62091C1273091C2278091C9
S11345A0BF279091C027280F391F41E061E08FECAD
S11345B095E20E94F0372091C3273091C42780915F
S11345C0BF279091C027280F391F41E062E08FEC8C
S11345D095E20E94F0372091C5273091C62780913B
S11345E0BF279091C027280F391F41E063E08FEC6B
S11345F095E20E94F0372091C7273091C827809117
S1134600BF279091C027280F391F41E064E08FEC49
S113461095E20E94F03722E633E249E061E08FEC54
S113462095E20E94A5372091BB273091BC2741E138
S113463061E08FEC95E20E94F03729E633E249E02D
S113464062E08FEC95E20E94A5372091BD2730915E
S1134650BE2741E162E08FEC95E20E94F03720E74B
S113466033E249E063E08FEC95E20E94A5378FEBDB
S113467095E20E9403369C0141E163E08FEC95E2F0
S11346800E94F03726E733E249E064E08FEC95E2DC
S11346900E94A5372091B8273091B92741E164E001
S11346A08FEC95E20E94F037E1C52BE733E241E05D
S11346B061E08FEC95E20E94A5372091702730913C
S11346C0712747E061E08FEC95E20E94F03721E822
S11346D033E241E062E08FEC95E20E94A53720913D
S11346E072273091732747E062E08FEC95E20E94D5
S11346F0F03727E833E241E063E08FEC95E20E9473
S1134700A537209174273091752747E063E08FEC3B
S113471095E20E94F0372DE833E241E064E08FEC4B
S113472095E20E94A537209176273091772747E0BC
S113473064E08FEC95E20E94F03723E933E24BE02A
S113474061E08FEC95E20E94A537209178273091A3
S1134750792741E161E08FEC95E20E94F03729E985
S113476033E24BE062E08FEC95E20E94A5372091A2
S11347707A2730917B2741E162E08FEC95E20E9439
S1134780F0372FE933E24BE063E08FEC95E20E94CF
S1134790A53720917C2730917D2741E163E08FECA0
S11347A095E20E94F03725EA33E24BE064E08FECB7
S11347B095E20E94A53720917E2730917F2741E121
S11347C064E08FEC95E20E94F03750C52BE733E2AA
S11347D041E061E08FEC95E20E94A53720916027CB
S11347E03091612747E061E08FEC95E20E94F03759
S11347F021E833E241E062E08FEC95E20E94A537C4
S1134800209162273091632747E062E08FEC95E2C4
S11348100E94F03727E833E241E063E08FEC95E251
S11348200E94A537209164273091652747E063E013
S11348308FEC95E20E94F0372DE833E241E064E02A
S11348408FEC95E20E94A537209166273091672767
S113485047E064E08FEC95E20E94F03723E933E20D
S11348604BE061E08FEC95E20E94A5372091682728
S11348703091692741E161E08FEC95E20E94F037C5
S113488029E933E24BE062E08FEC95E20E94A53720
S113489020916A2730916B2741E162E08FEC95E229
S11348A00E94F0372FE933E24BE063E08FEC95E2AE
S11348B00E94A53720916C2730916D2741E163E078
S11348C08FEC95E20E94F03725EA33E24BE064E096
S11348D08FEC95E20E94A53720916E2730916F27C7
S11348E041E164E08FEC95E20E94F037BFC42BEA0B
S11348F033E241E061E08FEC95E20E94A53720911C
S11349005827309159274CE061E08FEC95E20E94E2
S1134910F03728EB33E241E062E08FEC95E20E944D
S1134920A53720915A2730915B274CE062E08FEC49
S113493095E20E94F03725EC33E241E063E08FEC2E
S113494095E20E94A53720915E2730915F274CE0C5
S113495063E08FEC95E20E94F03722ED33E241E010
S113496064E08FEC95E20E94A53720915C2730919A
S11349705D274CE064E08FEC95E20E94F0372FED68
S113498033E241E161E08FEC95E20E94A53720918A
S11349904E2730914F2741E162E08FEC95E20E946F
S11349A0F03724EE33E241E163E08FEC95E20E94BC
S11349B0A5372091502730E041E164E08FEC95E287
S11349C00E94F03753C429EE33E241E061E08FECFA
S11349D095E20E94A53727EF33E241E062E08FECD5
S11349E095E20E94A53725E034E241E063E08FECD4
S11349F095E20E94A5372091512730E04FE061E015
S1134A008FEC95E20E94F037209152273091532782
S1134A104FE062E08FEC95E20E94F037209120276E
S1134A2030E04FE063E08FEC95E20E94F037C0EE97
S1134A30D6E02885217030E041E064E08FEC95E217
S1134A400E94F0372885229526952695237081E0CB
S1134A502827217030E045E064E08FEC95E20E9465
S1134A60F037E0E2F7E020852695217030E049E058
S1134A7064E08FEC95E20E94F0372885229521703E
S1134A8030E04DE064E08FEC95E20E94F037288539
S1134A9022FB222720F930E041E164E08FEC95E22B
S1134AA00E94F037E3C323E134E241E062E08FEC9B
S1134AB095E20E94A53720913027309131274BE0B1
S1134AC062E08FEC95E20E94F0372EE134E241E09F
S1134AD063E08FEC95E20E94A53720913227309154
S1134AE033274BE063E08FEC95E20E94F03729E234
S1134AF034E241E064E08FEC95E20E94A537209116
S1134B003427309135274BE064E08FEC95E20E9426
S1134B10F03723E334E24FE061E08FEC95E20E944A
S1134B20A53720917521309176214FE062E08FEC1A
S1134B3095E20E94F03729E334E24FE063E08FEC22
S1134B4095E20E94A53720917721309178214FE09A
S1134B5064E08FEC95E20E94F03788C32FE334E2DF
S1134B6041E061E08FEC95E20E94A5372BE434E24A
S1134B7041E062E08FEC95E20E94A53727E534E23C
S1134B8041E063E08FEC95E20E94A53724E634E22D
S1134B9041E064E08FEC95E20E94A53720912B2739
S1134BA030912C274EE061E08FEC95E20E94F037C3
S1134BB020912D2730912E274EE062E08FEC95E274
S1134BC00E94F03720917521309176214EE063E008
S1134BD08FEC95E20E94F037209177213091782173
S1134BE04EE064E08FEC95E20E94F0373FC341E071
S1134BF061E08FEC95E20E94693860916325605D05
S1134C008FEC95E20E948F3860916425605D8FEC93
S1134C1095E20E948F3860916525605D8FEC95E286
S1134C200E948F3860916625605D8FEC95E20E944A
S1134C308F3860916725605D8FEC95E20E948F3814
S1134C4060916825605D8FEC95E20E948F386091D9
S1134C506925605D8FEC95E20E948F3860914A254A
S1134C60605D8FEC95E20E948F3860914B25605D0A
S1134C708FEC95E20E948F3860914C25605D8FEC3B
S1134C8095E20E948F3860914D25605D8FEC95E22E
S1134C900E948F3860914E25605D8FEC95E20E94F2
S1134CA08F3860914F25605D8FEC95E20E948F38BC
S1134CB060915025605D8FEC95E20E948F382091C1
S1134CC0622530E041E062E08FEC95E20E94F0372B
S1134CD02091512530E04EE062E08FEC95E20E9495
S1134CE0F0372091612530E041E063E08FEC95E2FC
S1134CF00E94F0372091522530E04EE063E08FECC3
S1134D0095E20E94F03741E064E08FEC95E20E9466
S1134D10693860916025605D8FEC95E20E948F3860
S1134D2060915F25605D8FEC95E20E948F38609101
S1134D305E25605D8FEC95E20E948F3860915D2561
S1134D40605D8FEC95E20E948F3860915C25605D18
S1134D508FEC95E20E948F3860915B25605D8FEC4B
S1134D6095E20E948F3860915A25605D8FEC95E240
S1134D700E948F3860915925605D8FEC95E20E9406
S1134D808F3860915825605D8FEC95E20E948F38D2
S1134D9060915725605D8FEC95E20E948F38609199
S1134DA05625605D8FEC95E20E948F386091552501
S1134DB0605D8FEC95E20E948F3860915425605DB0
S1134DC08FEC95E20E948F3860915325605D8FECE3
S1134DD095E20E948F3821E734E240E161E08FECF4
S1134DE095E20E94A5372091462530E040E162E03B
S1134DF08FEC95E20E94F03724E633E240E163E071
S1134E008FEC95E20E94A5372091482530914925E1
S1134E1040E164E08FEC95E20E94F03727C227E777
S1134E2034E241E061E08FEC95E20E94A5371EC2B6
S1134E302EE834E241E061E08FEC95E20E94A53770
S1134E402091BD273091BE2747E061E08FEC95E2C9
S1134E500E94F03729E934E241E062E08FEC95E208
S1134E600E94A5372091AE273091AF2747E062E03A
S1134E708FEC95E20E94F0372FE934E241E063E0E1
S1134E808FEC95E20E94A5378FEB95E20E94B9362C
S1134E909C0147E063E08FEC95E20E94F03726EA3C
S1134EA034E24BE061E08FEC95E20E94A5378FEB92
S1134EB095E20E9419359C0141E161E08FEC95E295
S1134EC00E94F0372CEA34E24BE062E08FEC95E28A
S1134ED00E94A5378FEB95E20E9467359C0141E162
S1134EE062E08FEC95E20E94F03722EB34E24BE073
S1134EF063E08FEC95E20E94A5372091A3273091BF
S1134F00A4274FE063E08FEC95E20E94F037AEC136
S1134F1027EB34E241E061E08FEC95E20E94A53793
S1134F202CEB36E248E061E08FEC95E20E94F0372A
S1134F302EEB34E241E062E08FEC95E20E94A5376B
S1134F4024EB36E247E062E08FEC95E20E94F03712
S1134F5023EC34E241E063E08FEC95E20E94A53754
S1134F602CEA36E247E063E08FEC95E20E94F037EA
S1134F707DC12CEC34E241E061E08FEC95E20E94CB
S1134F80A5372091A6263091A72648E061E08FEC52
S1134F9095E20E94F0376AC122ED34E241E061E01B
S1134FA08FEC95E20E94A5372CEB32E24FE061E0F2
S1134FB08FEC95E20E94A53726ED34E241E062E0F1
S1134FC08FEC95E20E94A5372BED34E24DE062E0D0
S1134FD08FEC95E20E94A53720EE34E241E063E0D5
S1134FE08FEC95E20E94A53729EE34E24DE063E0B0
S1134FF08FEC95E20E94A5372EEE34E241E064E0A6
S11350008FEC95E20E94A5372091402530E045E0E1
S113501061E08FEC95E20E94F037209142253091B7
S1135020432546E062E08FEC95E20E94F037209140
S113503048253091492542E162E08FEC95E20E94D7
S1135040F03720910120332727FD30954AE063E0B3
S11350508FEC95E20E94F037209100202F3F39F029
S11350608AE5280290011124235D3F4F02C02FEFEF
S11350703FEF42E163E08FEC95E20E94F03720912C
S1135080412530E048E064E08FEC95E20E94F0377F
S1135090EDC025EF34E241E061E08FEC95E20E943F
S11350A0A53720913A2730913B2747E061E08FEC08
S11350B095E20E94F0372DE433E241E062E08FECA8
S11350C095E20E94A53720913C2730913D2747E087
S11350D062E08FEC95E20E94F03726E533E241E08E
S11350E063E08FEC95E20E94A53720913E27309132
S11350F03F2747E063E08FEC95E20E94F0372FE50D
S113510033E241E064E08FEC95E20E94A537209100
S113511040273091412747E064E08FEC95E20E94FC
S1135120F03726E933E24CE061E08FEC95E20E942F
S1135130A537209142273091432741E161E08FEC6C
S113514095E20E94F0372CE933E24CE062E08FEC08
S113515095E20E94A537209144273091452741E1EB
S113516062E08FEC95E20E94F03722EA33E24CE0F1
S113517063E08FEC95E20E94A53720914627309199
S1135180472741E163E08FEC95E20E94F03728EA7B
S113519033E24CE064E08FEC95E20E94A537209165
S11351A048273091492741E164E08FEC95E20E9461
S11351B0F0375CC02CEF34E241E061E08FEC95E223
S11351C00E94A53720913827309139274CE061E0BF
S11351D08FEC95E20E94F03729E035E241E062E08D
S11351E08FEC95E20E94A53720913627309137271E
S11351F04CE062E08FEC95E20E94F03737C026E184
S113520035E241E061E08FEC95E20E94A537209100
S11352101F2730E041E062E08FEC95E20E94F03716
S113522025C020911F27215020931F2720911F273D
S11352302A3108F00AC80CC820911F272F5F209339
S11352401F2720911F272A3108F00BC8D1E0C0E0A6
S113525061E070E0FC01E095F095A0E0B1E014E6B7
S113526005C8DA3008F01AC80D2F19C8DF91CF919C
S11352701F910F91FF90EF9008958F929F92AF929C
S1135280BF92CF92DF92EF92FF920F931F93CF932F
S1135290DF938091A125882309F485C180915E273D
S11352A090915F27893B9B4008F47DC180915A27E8
S11352B090915B2799235CF480915A2790915B2706
S11352C091958195910944970CF464C16CC18091C6
S11352D05A2790915B2744970CF45CC164C1809178
S11352E07521909176218E3691050CF49BC166C18F
S11352F08091BD279091BE2791958195910921E0D8
S11353000A9754F020E008C08091BD279091BE27F1
S113531021E00A970CF020E021110E94860F40E062
S113532050E862EA74E480E090E00E94490A109236
S1135330BB271092BC271092A8271092A9278FC1CF
S11353408091BB279091BC272091BD273091BE2727
S1135350821B930B21E00A9784F020E00EC0809119
S1135360BD279091BE272091BB273091BC27821B7B
S1135370930B21E00A970CF020E0222309F46FC17B
S11353800E94860F6CC180915A2790915B279923C4
S113539064F480915A2790915B27919581959109A6
S11353A0873891050CF446C108C080915A27909122
S11353B05B27873891050CF43DC180915E2790915D
S11353C05F27893B9B4008F039C180915E2790910B
S11353D05F27813F9A4008F439C180915A27909100
S11353E05B2799235CF480915A2790915B279195D0
S11353F0819591098D970CF421C128C180915A2778
S113540090915B278D970CF419C120C180915A2784
S113541090915B2740E050E066E974E48153914049
S11354200E94490A1092BB271092BC2718C1809190
S11354305A2790915B27843C9F4F8CF480915A2784
S113544090915B2740E050E066E974E48F5C9E4FE6
S11354500E94490A1092BB271092BC2700C1609198
S11354605A2770915B27882777FD8095982F0E9493
S1135470AA3B2DEC3CEC4CEC5FE30E94743D0E9493
S1135480773BDC01CB0140E050E86BE374E40E941D
S1135490490A8091582790915927992364F480915F
S11354A058279091592791958195910921E04D971D
S11354B054F020E008C0809158279091592721E0AA
S11354C04D970CF020E0222361F0809158279091B1
S11354D059279195819591098093BB279093BC2777
S11354E0BEC01092BB271092BC27B9C0E0ECF7E015
S11354F0808580FD07C068E270E08AE590E00E9444
S1135500D50B06C06EE170E08AE590E00E94D50BF1
S11355101092BB271092BC27A2C080915E27909165
S11355205F2704E911E1E801C81BD90BC090562795
S1135530D0905727E0905A27F0905B27BE0180E077
S113554090E00E94A83B2AE939E949E15FE30E941F
S1135550743D4B015C010C191D09BE01601B710BEC
S113556080E090E00E94A83B2DEC3CEC4CE45EE330
S11355700E94743D9B01AC01C501B4010E94323A02
S1135580AB01BC01C7010E94490A1092BB271092CB
S1135590BC2765C08091752190917621873491054F
S11355A00CF09DCE0BC01092A42680915E279091A2
S11355B05F278136994008F0E6CEFFCE81E08093E4
S11355C0A4261092A8271092A92740E050E862EA86
S11355D074E480E090E00E94490A60917521709122
S11355E076216A557109882777FD8095982F0E9446
S11355F0AA3B20E030E040E05FEB0E94743D0E9453
S1135600773B6093BB277093BC278091BB27909115
S1135610BC272091BD273091BE27821B930B0AF033
S11356208FCE9DCE8091BD279091BE2799230CF0FB
S11356306BCE5ECE81E08093A426BFCE80915A27A4
S113564090915B27CD970CF4F2CEE0CE80915E274B
S113565090915F278837910508F448CF5ECFDF919A
S1135660CF911F910F91FF90EF90DF90CF90BF905B
S1135670AF909F908F9008958F929F92AF92BF9218
S1135680CF92DF92EF92FF920F931F93CF93DF930A
S11356908091A125882309F452C280915E279091BC
S11356A05F27893B9B4008F44AC280915A27909116
S11356B05B2799235CF480915A2790915B279195FD
S11356C08195910944970CF44BC239C280915A27B1
S11356D090915B2744970CF443C231C28091A72771
S11356E0882309F4C9C08091A72781110DC0809136
S11356F00020882349F0833039F0809101208130E3
S113570019F0833009F0B5C081E08093A42640E00D
S113571050E0BA0180E090E00E94490A8091A727F6
S1135720811110C080910020813021F080910120EE
S1135730813021F482E08093A72768C281E08093BE
S1135740A72764C28091A727813021F08091A727E1
S1135750823091F58091A727813019F48AE19FEF77
S113576002C086EE90E08093A8279093A9278091A9
S1135770A3279091A42799236CF48091A327909157
S1135780A42791958195910921E08B3A91055CF4C8
S113579020E009C08091A3279091A42721E08B3AAF
S11357A091050CF420E0222309F430C28091A7274C
S11357B08E5F8093A7272AC28091A727833029F080
S11357C08091A727843009F021C28091A7278330D4
S11357D019F484E29AEF02C08CED95E08093A82737
S11357E09093A9278091A3279091A42799236CF4DF
S11357F08091A3279091A42791958195910921E007
S1135800803591055CF020E009C08091A327909138
S1135810A42721E0803591050CF020E021110E949D
S1135820860F8091A3279091A427992364F48091F3
S1135830A3279091A42791958195910921E00A9736
S113584054F020E008C08091A3279091A42721E080
S11358500A970CF020E0222309F4D8C11092A7275C
S11358601092A8271092A9271092BB271092BC2748
S1135870CDC11092A426CAC1809175219091762140
S1135880873491050CF471C1809175219091762132
S11358908E3691050CF49DC168C18091BD2790910D
S11358A0BE2791958195910921E00A9754F020E053
S11358B008C08091BD279091BE2721E00A970CF083
S11358C020E021110E94860F40E050E862EA74E46F
S11358D080E090E00E94490A1092BB271092BC27F6
S11358E01092A8271092A92791C18091BB2790916B
S11358F0BC272091BD273091BE27821B930B21E04A
S11359000A9784F020E00EC08091BD279091BE27B5
S11359102091BB273091BC27821B930B21E00A976F
S11359200CF020E0222309F471C10E94860F6EC19D
S113593080915A2790915B27992364F480915A2788
S113594090915B27919581959109873891050CF485
S113595048C108C080915A2790915B2787389105E8
S11359600CF43FC180915E2790915F27893B9B4057
S113597008F03BC180915E2790915F27813F9A4058
S113598008F43BC180915A2790915B2799235CF4DA
S113599080915A2790915B279195819591098D97D4
S11359A00CF423C12AC180915A2790915B278D97CB
S11359B00CF41BC122C180915A2790915B2740E0CF
S11359C050E066E974E4815391400E94490A1092C0
S11359D0BB271092BC271AC180915A2790915B274C
S11359E0843C9F4F8CF480915A2790915B2740E030
S11359F050E066E974E48F5C9E4F0E94490A10925D
S1135A00BB271092BC2702C160915A2770915B2773
S1135A10882777FD8095982F0E94AA3B2DEC3CECBB
S1135A204CEC5FE30E94743D0E94773BDC01CB01A8
S1135A3040E050E86BE374E40E94490A80915827DF
S1135A4090915927992364F480915827909159276C
S1135A5091958195910921E04D9754F020E008C07B
S1135A60809158279091592721E04D970CF020E020
S1135A70222361F08091582790915927919581951F
S1135A8091098093BB279093BC27C0C01092BB2779
S1135A901092BC27BBC0E0ECF7E0808580FD07C016
S1135AA068E270E08AE590E00E94D50B06C06EE1E2
S1135AB070E08AE590E00E94D50B1092BB2710920B
S1135AC0BC27A4C080915E2790915F2704E911E16F
S1135AD0E801C81BD90BC0905627D0905727E090F7
S1135AE05A27F0905B27BE0180E090E00E94A83B1B
S1135AF02AE939E949E15FE30E94743D4B015C0105
S1135B000C191D09BE01601B710B80E090E00E941E
S1135B10A83B2DEC3CEC4CE45EE30E94743D9B01FD
S1135B20AC01C501B4010E94323AAB01BC01C7010A
S1135B300E94490A1092BB271092BC2767C010929A
S1135B40A4261092A7271092A8271092A927809123
S1135B505E2790915F278136994008F0E9CE02CF05
S1135B60809147258111BFCDB9CD81E08093A426D2
S1135B701092A8271092A92740E050E862EA74E442
S1135B8080E090E00E94490A60917521709176212D
S1135B906A557109882777FD8095982F0E94AA3B42
S1135BA020E030E040E05FEB0E94743D0E94773BD0
S1135BB06093BB277093BC278091BB279091BC272F
S1135BC02091BD273091BE27821B930B0AF08DCE06
S1135BD09BCE8091BD279091BE2799230CF069CE6E
S1135BE05CCE81E08093A426BDCE80915A2790910B
S1135BF05B27CD970CF4F0CEDECE80915E2790919A
S1135C005F278837910508F446CF5CCFDF91CF91A9
S1135C101F910F91FF90EF90DF90CF90BF90AF90C6
S1135C209F908F90089580915E2790915F27843C88
S1135C30994058F46EE170E08AE590E00E94D50B3B
S1135C401092BB271092BC270895809175219091E2
S1135C507621CD970CF469C08091752190917621BD
S1135C60883791050CF061C080917721909178215B
S1135C70803591050CF451C058C080915A279091F9
S1135C805B2791958195910921E08A3591055CF016
S1135C9020E009C080915A2790915B2721E08A3542
S1135CA091050CF020E02223D9F060915A277091DD
S1135CB05B27882777FD8095982F0E94AA3B2AE9C5
S1135CC039E949E95FE30E94743D0E94773BDC01B6
S1135CD0CB0140E050E066E974E40E94490A08956B
S1135CE080915A2790915B27181619068CF480919D
