S00F00004174584D6567612E737265638E
S11300000C942C010C94D51F0C9460010C94600189
S11300100C9460010C9460010C9460010C946001D8
S11300200C9460010C9460010C9460010C946001C8
S11300300C9460010C9460010C9460010C946001B8
S11300400C9460010C9460010C9460010C946001A8
S11300500C941D120C9460010C9460010C946001CA
S11300600C94421D0C94CA100C9460010C94600111
S11300700C9460010C9460010C9460010C94600178
S11300800C9460010C9460010C945D1E0C94BB1ED6
S11300900C9460010C9460010C9460010C9475083C
S11300A00C9460010C9460010C9460010C94191F71
S11300B00C94771F0C9460010C9460010C94600103
S11300C00C9460010C9460010C9460010C94600128
S11300D00C9460010C9460010C9460010C94600118
S11300E00C9460010C9460010C9460010C94600108
S11300F00C9460010C9498030C94A1070C94600177
S11301000C9460010C9460010C9460010C946001E7
S11301100C9460010C9460010C9460010C9406082A
S11301200C9460010C9460010C9460010C946001C7
S11301300C94D81C0C94B11D0C9460010C946001B7
S11301400C9460010C9460010C9460010C94DC1D0F
S11301500C9460010C9460010C9460010C94600197
S11301600C94B71C0C94821C0C9460010C946001D8
S11301700C9460010C9460010C9460010C94600177
S11301800C9460010C9460010C9460010C94600167
S11301900C9460010C9460010C9460010C94600157
S11301A00C9460010C9460010C9460010C940D1D7E
S11301B00C94071E0C9460010C9460010C94600173
S11301C00C9460010C9460010C94321E0C94600138
S11301D00C9460010C9460010C9460010C94600117
S11301E00C9460010C9460010C9460010C944D1CFF
S11301F00C946001A820D220F320142135213E2143
S11302003E213E213E213E216621AF213922CA22D0
S11302105B23C72339249424DD24F525FE256E268B
S11302209F26B2262F27084AD73B3BCE016E84BCBB
S1130230BFFDC12F3D6C74319ABD56833DDA3D003C
S1130240C77F11BED9E4BB4C3E916BAAAABE000085
S113025000803F00C932D03211241FBECFEFDFE24D
S1130260DEBFCDBF18BE19BE1ABE1BBE15E2A0E08C
S1130270B0E2E6E9FAE700E00BBF02C007900D9296
S1130280A234B107D9F71BBE27E2A2E4B5E201C04C
S11302901D92A73EB207E1F712E0C6E5D2E000E006
S11302A006C022970109FE010BBF0E94873CC4359A
S11302B0D10780E00807A9F70E94A52C0C94393DCA
S11302C00C940000FC01608371834863DB01119688
S11302D04C93A081B18115962C930190F081E02D6F
S11302E081E0848308950F93213208F051C00134D2
S11302F008F050C0FC01E959FF4F308131114CC066
S1130300FC01E959FF4F31E03083FC01E859FF4F0C
S11303101082222371F0E42FF52F40E050E0319158
S1130320DC01A40FB51F13963C934F5F5F4F421738
S1130330B0F3DC0112966C931297FC01ED59FF4F58
S11303402083AC59BF4F0C93DC01AB59BF4F1C92B7
S1130350DC01AA59BF4F1C922081222349F0FC01E1
S113036022812E7F0190F081E02D268381E017C049
S1130370FC01EC59FF4F2081222381F0DC0112960D
S11303802C9112972160ED91FC91268381E007C0A6
S113039080E005C080E003C080E001C081E00F91EF
S11303A00895FC01E959FF4F2081211125C0FC016A
S11303B0E959FF4F21E02083FC01E859FF4F1082E7
S11303C0DC0112966C93FC01ED59FF4F1082FC0185
S11303D0EC59FF4F1082FC01EB59FF4F1082FC01D6
S11303E0EA59FF4F1082FC0122812E7F0190F08197
S11303F0E02D268381E0089580E00895DC01ED91ED
S1130400FC911197248122FF05C0A859BF4F34E005
S11304103C9305C0DC01A859BF4F33E03C932860EE
S11304202483FC01E959FF4F10820895FC01E85927
S1130430FF4F6083FC01E959FF4F10820895CF9369
S1130440DF93EC01FC01EA59FF4F8081803480F492
S1130450E881F9818781FE01EA59FF4F9081DE012D
S1130460A90FB11D93968C9380818F5F808308C000
S1130470E881F98183E0838362E0CE010E94160261
S1130480FE01EC59FF4F9081FE01EA59FF4F808134
S1130490891728F4E881F98182E0838308C0E88120
S11304A0F98187E0838361E0CE010E941602DF9127
S11304B0CF910895CF93DF93FC01ED59FF4F308125
S11304C0FC01EC59FF4F4081DC01ED91FC9124814A
S11304D024FF0CC023E02383FC01E859FF4F25E0EF
S11304E02083FC01E959FF4F108224C0DC01AB5981
S11304F0BF4F2C91231768F4DC01AB59BF4F2C91EB
S1130500EC01C20FD11D8B8187838C918F5F8C93FB
S113051011C0DC01AA59BF4F2C91241730F4DC011F
S113052012968C918160868305C023E0238361E069
S11305300E941602DF91CF910895DC01ED91FC91A8
S11305402481322F3C7019F00E94FE01089526FF89
S113055003C00E945A02089522231CF40E941F0221
S1130560089566E00E9416020895EF920F93CF93C8
S1130570DF93FC01DB01EE2009F457C0603A88E008
S1130580780739F4C0E4D6E088E0898384E08A837C
S11305904CC0603B88E0780739F4C0E4D6E080E8DA
S11305A0898380E48A8341C0603A89E0780739F41A
S11305B0C0E6D6E088E0898384E08A8336C0603B65
S11305C089E0780739F4C0E6D6E080E8898380E4DE
S11305D08A832BC0603A8AE0780739F4C0E8D6E011
S11305E088E0898384E08A8320C0603B8AE07807BE
S11305F039F4C0E8D6E080E8898380E48A8315C0B2
S1130600603A8BE0780739F4C0EAD6E088E0898361
S113061084E08A830AC0603B8BE0780731F4C0EA47
S1130620D6E080E8898380E48A83A083B18322832F
S113063015A216A213A214A211A612A617A210A6FE
S113064083E015968C931597007313960C93139768
S1130650552374F414968C911497846014968C9397
S113066014975F7716964C93169717965C9305C06C
S113067016964C93169717965C93A081B1811496A5
S11306808C911497806114968C930190F081E02DE5
S1130690848188608483DF91CF910F91EF900895D6
S11306A0FC0187A190A521A532A58F5F982F9F708B
S11306B081E0921301C080E08823C1F027A130A516
S11306C03327DF01A20FB31F53966C932F5F3F4F65
S11306D02F70332727A330A7A081B18113969C9153
S11306E013979C7F2281922B13969C930895FC016F
S11306F081A592A527A130A599272817390739F490
S11307000190F081E02D83818C7F83830895A1A5DE
S1130710B2A5AE0FBF1F53968C91A081B1818C936B
S113072081A592A501968F70992781A792A7089514
S11307301F920F920FB60F92112408B60F9218BE93
S113074009B60F9219BE0AB60F921ABE0BB60F92D3
S11307501BBECF92DF92EF92FF920F931F932F93C2
S11307603F934F935F936F937F938F939F93AF9335
S1130770BF93EF93FF93CF93DF93CDB7DEB7C0540E
S1130780D109CDBFDEBFE0916C25F0916D2540818C
S1130790809147258230D1F130F4882359F081309B
S11307A009F075C01DC0833009F446C0843009F0D7
S11307B06EC058C080E090E0642F70E09B01082E6A
S11307C002C0359527950A94E2F721703327FC017E
S11307D0E45BFA4D208301968630910579F757C082
S11307E080E090E0642F70E09B01082E02C03595F4
S11307F027950A94E2F721703327FC01EE5AFA4D4B
S1130800208301968730910579F741C080E090E01C
S1130810642F70E09B01082E02C0359527950A9439
S1130820E2F721703327FC01E75AFA4D2083019641
S11308308630910579F72BC080E090E0642F70E05A
S11308409B01082E02C0359527950A94E2F7217082
S11308503327FC01E15AFA4D208301968730910534
S113086079F715C080E090E0642F70E09B01082EBA
S113087002C0359527950A94E2F721703327FC01CD
S1130880EA59FA4D208301968630910579F78091D3
S1130890472581110DC0842F90E0082E892F000C6C
S11308A0881F990B000C881F991F029709F024C315
S11308B080914725843009F0EFC2842F90E0082E00
S11308C0892F000C881F990B000C881F991F039710
S11308D009F012C3E1C210924725FE01319680E46B
S11308E0DF011D928A95E9F7CE2EDF2E7F0100E00D
S11308F010E0B801882777FD8095982F0E94AC39C5
S113090020E030E044E351E40E94763B20E030E014
S113091044EB50E40E9434380E947939F701619322
S113092071937F010F5F1F4F0032110511F7EC2DFA
S1130930FD2D80E090E06FEF7FEFDC01A45BBA4D0A
S11309402C91222331F020813181621773070CF43A
S1130950B901019632968032910579F76F3FFFEF26
S11309607F0709F055C085E280934225A6C0DC01CB
S1130970A45BBA4D2C91222351F1F1100BC02081BC
S11309803181DB01A21BB30B9D0172F431952195DA
S113099031090AC020813181D801A21BB30B9D010A
S11309A01AF4319521953109243B31051CF0BE2DF3
S11309B0B21B2B2F30E0421753074CF4F11004C044
S11309C000811181A90103C060817181A90101968F
S11309D032968032910559F60F3FEFEF1E0799F4D6
S11309E0882777FD8095982F0E94AC392DEC3CEC3C
S11309F04CEC5DE30E94763B0E94D93B0E947E3919
S1130A00609342255AC0F394F2E0FF120AC04DC22B
S1130A10F12C40E050E00FEF1FEF0F2EF8E6EF2E21
S1130A20F02DEC2DFD2D80E090E0A1CF962F872FA7
S1130A30B801092F182FCB01801B910B853B910521
S1130A40BCF028E631E08901081B190BC801959513
S1130A508795680F791F882777FD8095982F0E94C6
S1130A60AC392DEC3CEC4CEC5DE30E94763B10C0C1
S1130A7095958795681B790B882777FD8095982F26
S1130A800E94AC392DEC3CEC4CEC5DE30E94763BCF
S1130A900E94D93B0E947E39609342259091422561
S1130AA089E3989F812D112486958695869514E275
S1130AB0819F90191124909342258091422585327B
S1130AC009F054C080914325882309F441C08091E2
S1130AD000208F3FA9F02091AB273091AC274AE545
S1130AE08402C00111248F519F4F68E671E00E9477
S1130AF0453C821B930B80934A2590934B2516C04B
S1130B002091AB273091AC27809101205AE58502D2
S1130B10C00111248C549F4F68E671E00E94453C4B
S1130B20821B930B80934A2590934B2580914A25F1
S1130B3090914B2591958195910980934A259093A5
S1130B404B2584E080934925E0E0F7E08583D4C118
S1130B508FEF8093012080930220809300201092D5
S1130B60492584E0E0E0F7E08683C6C184E0E0E064
S1130B70F7E08583209142254091AB275091AC2723
S1130B80822F90E09C01220F331FC901880F991F07
S1130B90880F991F820F931F840F951F99232CF0A0
S1130BA0809344259093452506C088599E4F809391
S1130BB0442590934525809144259091452568E6E8
S1130BC071E00E94453C482F592F8093442590930F
S1130BD04525809102208F3FD9F4842F9C012D520A
S1130BE031092A35310568F09C01275831092A3525
S1130BF0310548F0815E91098A35910530F483E02E
S1130C0005C081E003C082E001C080E0809302203F
S1130C10809100208F3F49F5842F952F9C012E5100
S1130C2031092E31310508F44BC19C01225D310993
S1130C302E31310508F444C19C01285731092E3165
S1130C40310508F437C18C5291404E9708F432C1F3
S1130C508FEF09C0833011F081E005C083E003C049
S1130C6083E001C082E080930020A09101208A2FBC
S1130C70992787FD9095242F352FF901BD97EA35E3
S1130C80F10508F42EC1A901475851094A35510507
S1130C9008F41EC1B901615E71096A35710508F075
S1130CA019C163E018C1A901475851094A355105D2
S1130CB040F0A901415E51094A35510520F443E051
S1130CC005C042E003C040E001C041E0BC01641B38
S1130CD0710962307105C1F414C04A35510540F000
S1130CE0A901415E51094A35510520F443E003C08E
S1130CF042E001C040E050E0481B590B423051052E
S1130D0019F4AF3F09F0F4C0EA35F10570F0A90118
S1130D10475851094A35510550F0A901415E51091E
S1130D204A35510530F443E005C041E003C042E0D8
S1130D3001C040E050E08417950711F41092432558
S1130D40409100204F3F79F1EA35F10570F0C90177
S1130D50875891098A35910550F0C901815E91093E
S1130D608A35910530F483E005C081E003C082E058
S1130D7001C080E0582F481769F0992787FD9095A6
S1130D80841B910947FD9395019721F0433031F479
S1130D90511104C01092432540E033C081E0809398
S1130DA0432541E004C040914325442351F150912F
S1130DB04225852F90E0880F991FBC01660F771F8D
S1130DC0660F771F860F971FEA35F10568F0B901A2
S1130DD0675871096A35710548F0215E31092A3571
S1130DE0310530F423E005C021E003C022E001C056
S1130DF020E030E02E5F3F4F2370307820930120B5
S1130E002AC050914225852F90E0880F991FBC017C
S1130E10660F771F660F771F860F971F8C549F4F9F
S1130E2068E671E00E94453CEA35F10568F0B901D5
S1130E30675871096A35710548F0215E31092A3510
S1130E40310530F423E005C021E003C022E001C0F5
S1130E5020E020930120853B910514F088569140B1
S1130E6091958195910980934A2590934B2544232C
S1130E7011F083E001C082E08093492580914625EA
S1130E808F5F8093462585FF37C088ED84BF81E05E
S1130E90E8E7F0E0818330C0809147258F5F80933D
S1130EA04725853008F017CD27C0601771070CF46B
S1130EB0BDCDC1CD80910220882309F4D1CECACE04
S1130EC0809102208250823008F4CCCE80E0CBCED8
S1130ED062E001C060E08C01061B11090AF0E3CE58
S1130EE0FCCEAC01415051090AF0EFCE41E003CFF2
S1130EF041E04093432508CFC05CDF4FCDBFDEBF48
S1130F00DF91CF91FF91EF91BF91AF919F918F911D
S1130F107F916F915F914F913F912F911F910F910D
S1130F20FF90EF90DF90CF900F900BBE0F900ABE12
S1130F300F9009BE0F9008BE0F900FBE0F901F9028
S1130F4018951F920F920FB60F92112408B60F92A4
S1130F5018BE09B60F9219BE0BB60F921BBE2F9383
S1130F603F934F935F936F937F938F939F93AF932D
S1130F70BF93EF93FF938CE695E20E947703FF9172
S1130F80EF91BF91AF919F918F917F916F915F91FD
S1130F904F913F912F910F900BBE0F9009BE0F9070
S1130FA008BE0F900FBE0F901F901895EF920F93ED
S1130FB0EE24E39400E322E049E150E060EB7AE0C0
S1130FC08CE695E20E94B5020F91EF90089581118D
S1130FD008C060E08CE695E20E94500310929725C9
S1130FE00895909197259F5F90939725963068F088
S1130FF0813031F46AEA8CE695E20E945003089548
S113100065E58CE695E20E94500308951F920F92C5
S11310100FB60F92112408B60F9218BE09B60F929C
S113102019BE0BB60F921BBE2F933F938F939F93C2
S1131030AF93BF93EF93FF93E0918E27F0E0A0E08E
S1131040B2E094968D919C919597A0918E27B0E0F3
S1131050AA0FBB1FA258B84D2D913C91821B930B34
S1131060EE0FFF1FE259F84D80839183E0ECF7E027
S1131070808580FD04C080918E27873091F0809117
S11310808E278F5F877080938E2780918E27880F9D
S1131090880F880FE0E0F2E081A380A1806880A33C
S11310A011C080916E2790916F2720917A273091FB
S11310B07B27820F931F9695879580937C27909327
S11310C07D27DDCFFF91EF91BF91AF919F918F91DC
S11310D03F912F910F900BBE0F9009BE0F9008BE49
S11310E00F900FBE0F901F9018951F920F920FB67E
S11310F00F92112408B60F9218BE0F9008BE0F90DD
S11311000FBE0F901F901895AAECB1E022E02C932B
S1131110FC0184911C9290E00895CF93DF9380E2C8
S113112090E00E948408C0E0D2E08C8781E290E0E5
S11311300E9484088D8780E290E00E9484088C8756
S113114081E290E00E9484088D8781E088A319A23F
S1131150198296E09C8390E39A831B829FE09E838E
S11311608AA3888388A1806888A3DF91CF9108959A
S1131170AB01772324F444275527461B570B242F10
S1131180352F2D3D95E0390710F02CED35E016167E
S1131190170694F440E150E0082E02C0440F551F96
S11311A00A94E2F7E0E2F7E045834CED55E0BA013A
S11311B0621B730B9B010BC040E150E0082E02C080
S11311C0440F551F0A94E2F7E0E2F7E046838111E9
S11311D005C0E0E0FAE020A731A70895813029F4A2
S11311E0E0E0FAE022A733A70895823029F4E0E092
S11311F0FAE024A735A70895E0E0FAE026A737A788
S113120008952F923F924F925F926F927F928F92A6
S11312109F92AF92BF92CF92DF92EF92FF920F9381
S11312201F93CF93DF93CDB7DEB7A697CDBFDEBFB5
S11312301C0180E1E0EBF1E2DE01519601900D9298
S11312408A95E1F780E1E0ECF1E2DE01119601908C
S11312500D928A95E1F7CE0141968BA39CA3FE01E2
S11312603196E9A3FAA300E010E02DA23EA25101B9
S1131270FAE5AF0EB11C2A013B0104C18DA19EA168
S113128088599E4FEAF3893621E0920734F0885654
S113129091408936E1E09E07D4F78A35910564F4DC
S11312A0FC01EE0FFF1FEE0FFF1FE75FFF4D2081D4
S11312B031814281538136C0843B91057CF4E4EB57
S11312C0F0E0E81BF90BEE0FFF1FEE0FFF1FE75FC7
S11312D0FF4D208131814281538124C08E30F1E061
S11312E09F077CF4FC01EE0FFF1FEE0FFF1FE75C6E
S11312F0F24E80819181A281B3819C01AD0150584D
S113130011C0E8E6F1E0E81BF90BEE0FFF1FEE0F4A
S1131310FF1FE75FFF4D80819181A281B3819C0112
S1131320AD0150587801E9A1FAA1619171918191BF
S11313309191E9A3FAA30E94763BA30192010E9432
S1131340763B862E972EC82ED92EC501BB201CF4C1
S113135088599E4FEAF38936F1E09F0734F08856A6
S11313609140893621E09207D4F78A35910564F4D7
S1131370FC01EE0FFF1FEE0FFF1FE75FFF4D208103
S113138031814281538136C0843B91057CF4E4EB86
S1131390F0E0E81BF90BEE0FFF1FEE0FFF1FE75FF6
S11313A0FF4D208131814281538124C08E30E1E0A0
S11313B09E077CF4FC01EE0FFF1FEE0FFF1FE75C9E
S11313C0F24E80819181A281B3819C01AD0150587C
S11313D011C0E8E6F1E0E81BF90BEE0FFF1FEE0F7A
S11313E0FF1FE75FFF4D80819181A281B3819C0142
S11313F0AD015058EBA1FCA1619171918191919142
S1131400EBA3FCA30E94763BA30192010E94763BCE
S11314109B01AC01682D792D8C2D9D2D0E943438B3
S1131420862E972EC82ED92E20E030E0A9010E94E6
S1131430D43A18166CF420E030E040E05FE3682D05
S1131440792D8C2D9D2D0E9434380E94E7390CC0D3
S113145020E030E040E05FE3682D792D8C2D9D2D58
S11314600E9433380E94FA380E947939F701EE0F4E
S1131470FF1FE155F84D608371830F5F1F4F0430E8
S1131480110531F033200CF4F9CE8DA19EA1FBCED1
S1131490A696CDBFDEBFDF91CF911F910F91FF9034
S11314A0EF90DF90CF90BF90AF909F908F907F9000
S11314B06F905F904F903F902F9008952F923F929E
S11314C04F925F926F927F928F929F92AF92BF9250
S11314D0CF92DF92EF92FF920F931F93CF93DF93FC
S11314E0CDB7DEB7A697CDBFDEBF8C016A017B0105
S11314F080E1E0EBF1E2DE01519601900D928A95D4
S1131500E1F780E1E0ECF1E2DE01119601900D9249
S11315108A95E1F7053B11052CF008561140053B6F
S11315201105DCF70C342FEF12070CF02AC108590F
S11315301E4F0C348FEF1807D4F323C18DA19EA145
S113154088599E4FEAF38936E1E09E0734F08856C5
S113155091408936F1E09F07D4F78A35910564F408
S1131560FC01EE0FFF1FEE0FFF1FE75FFF4D208111
S113157031814281538136C0843B91057CF4E4EB94
S1131580F0E0E81BF90BEE0FFF1FEE0FFF1FE75F04
S1131590FF4D208131814281538124C08E3021E06E
S11315A092077CF4FC01EE0FFF1FEE0FFF1FE75CB8
S11315B0F24E80819181A281B3819C01AD0150588A
S11315C011C0E8E6F1E0E81BF90BEE0FFF1FEE0F88
S11315D0FF1FE75FFF4D80819181A281B3819C0150
S11315E0AD0150587501E9A1FAA161917191819100
S11315F09191E9A3FAA30E94763BA30192010E9470
S1131600763B862E972EC82ED92EC10133201CF48A
S113161088599E4FEAF38936F1E09F0734F08856E3
S11316209140893621E09207D4F78A35910564F414
S1131630FC01EE0FFF1FEE0FFF1FE75FFF4D208140
S113164031814281538136C0843B91057CF4E4EBC3
S1131650F0E0E81BF90BEE0FFF1FEE0FFF1FE75F33
S1131660FF4D208131814281538124C08E30E1E0DD
S11316709E077CF4FC01EE0FFF1FEE0FFF1FE75CDB
S1131680F24E80819181A281B3819C01AD015058B9
S113169011C0E8E6F1E0E81BF90BEE0FFF1FEE0FB7
S11316A0FF1FE75FFF4D80819181A281B3819C017F
S11316B0AD015058EBA1FCA161917191819191917F
S11316C0EBA3FCA30E94763BA30192010E94763B0C
S11316D09B01AC01682D792D8C2D9D2D0E943438F1
S11316E0862E972EC82ED92E20E030E0A9010E9424
S11316F0D43A18166CF420E030E040E05FE3682D43
S1131700792D8C2D9D2D0E9434380E94E7390CC010
S113171020E030E040E05FE3682D792D8C2D9D2D95
S11317200E9433380E94FA380E947939F701EE0F8B
S1131730FF1FE155F84D608371838091492588230B
S113174099F0F701EE0FFF1FE155F84D808191816B
S113175099230CF4019695958795F701EE0FFF1FD9
S1131760E155F84D80839183FFEFAF1ABF0A24E05F
S1131770A216B104C9F011230CF4E0CE8DA19EA1F0
S1131780E2CECE0141968BA39CA3FE013196E9A340
S1131790FAA3A12CB12C0DA31EA31801FAE52F0E58
S11317A0311C26013701E7CFA696CDBFDEBFDF91FE
S11317B0CF911F910F91FF90EF90DF90CF90BF904A
S11317C0AF909F908F907F906F905F904F903F90DD
S11317D02F9008952F923F924F925F926F927F9233
S11317E08F929F92AF92BF92CF92DF92EF92FF922D
S11317F00F931F93CF93DF93CDB7DEB7A897CDBFD9
S1131800DEBF5C016B0180E1E0EDF1E2DE015196A7
S113181001900D928A95E1F780E1E0ECF1E2DE01BE
S1131820119601900D928A95E1F7E0907521F09060
S11318307621EA18FB080091772110917821061B84
S1131840170B8091B72790919825981709F445C1F3
S113185060917521709176216A197B09882777FD3B
S11318608095982F0E94AC392DEC3CEC4CE45BE362
S11318700E94763B2091992530919A2540919B2591
S113188050919C250E943438662E772E882E992EEE
S113189020E030E048EC52E40E94D43A18166CF48C
S11318A080E090E0A8ECB2E48093992590939A2587
S11318B0A0939B25B0939C2525C020E030E048EC04
S11318C052EC662D772D882D992D0E940D39882391
S11318D06CF0862D972DA82DB92D80939925909382
S11318E09A25A0939B25B0939C250CC080E090E0A2
S11318F0A8ECB2EC8093992590939A25A0939B250C
S1131900B0939C2560917521709176216A197B09A9
S1131910882777FD8095982F0E94AC3920919925CE
S113192030919A2540919B2550919C250E94763BAD
S113193020E030E0A9010E940D39181644F01092FD
S1131940992510929A2510929B2510929C256091BE
S11319507721709178216C197D09882777FD80950E
S1131960982F0E94AC392DEC3CEC4CE45BE30E94D4
S1131970763B20919D2530919E2540919F25509145
S1131980A0250E943438862E972EA82EB92E20E04A
S113199030E048EC52E40E94D43A18166CF480E02B
S11319A090E0A8ECB2E480939D2590939E25A093AB
S11319B09F25B093A02525C020E030E048EC52ECF0
S11319C0682D792D8A2D9B2D0E940D3988236CF06A
S11319D0882D992DAA2DBB2D80939D2590939E250E
S11319E0A0939F25B093A0250CC080E090E0A8ECC4
S11319F0B2EC80939D2590939E25A0939F25B09350
S1131A00A02560917721709178216C197D09882730
S1131A1077FD8095982F0E94AC3920919D253091B7
S1131A209E2540919F255091A0250E94763B20E061
S1131A3030E0A9010E940D39181644F010929D253A
S1131A4010929E2510929F251092A025809103202C
S1131A5090910420B701681B790B882777FD809546
S1131A60982F0E94AC3920E030E040E852E40E9414
S1131A70763B20E030E040EA50E40E94763B462E7C
S1131A80572E882E992E8091052090910620B8011A
S1131A90681B790B882777FD8095982F0E94AC39B5
S1131AA020E030E040E852E40E94763B20E030E061
S1131AB040EA50E40E94763B662E772EA82EB92E7B
S1131AC0E0920320F0920420009305201093062056
S1131AD08091B7278093982508C0612C712CA12C84
S1131AE0B12C412C512C812C912CB701882777FDE6
S1131AF08095982F0E94AC3920E030E040E451E416
S1131B000E94763B6B017C0120E030E040E850E429
S1131B106091992570919A2580919B2590919C259F
S1131B200E94763B9B01AC01C701B6010E94343888
S1131B306B017C012DEC3CEC4CE45EE3642D752DD3
S1131B40882D992D0E94763B9B01AC01C701B601FB
S1131B500E943438262E372E882E992EB8018827D5
S1131B6077FD8095982F0E94AC3920E030E040E466
S1131B7051E40E94763B6B017C0120E030E040E8B8
S1131B8050E460919D2570919E2580919F259091B0
S1131B90A0250E94763B9B01AC01C701B6010E94BF
S1131BA034386B017C012DEC3CEC4CE45EE3662D97
S1131BB0772D8A2D9B2D0E94763B9B01AC01C7019A
S1131BC0B6010E9434386DA37EA38FA398A7CE01DB
S1131BD001968BA39CA3FE017196E9A3FAA300E0EE
S1131BE010E05801EBA1FCA1219131914191519157
S1131BF0EBA3FCA3E9A1FAA14190519061907190EB
S1131C00E9A3FAA3622D732D882D992D0E94763BAA
S1131C106B017C01A3019201BDA1AEA1FFA1E8A5C6
S1131C206B2F7A2F8F2F9E2F0E94763B9B01AC0146
S1131C30C701B6010E943438C62ED72EE82EF92EDD
S1131C4020E030E0A9010E94D43A18166CF420E098
S1131C5030E040E05FE36C2D7D2D8E2D9F2D0E94A2
S1131C6034380E94E7390CC020E030E040E05FE304
S1131C706C2D7D2D8E2D9F2D0E9433380E94FA38B5
S1131C800E947939F501EE0FFF1FE155F84D60838D
S1131C9071830F5F1F4F0430110509F0A2CF80E05C
S1131CA090E060E070E09C01FC01EE0FFF1FE15545
S1131CB0F84D40815181552344F0FC01EE0FFF1F84
S1131CC0E155F84D408151810AC0FC01EE0FFF1F20
S1131CD0E155F84D40815181519541955109641761
S1131CE07507DCF4F901EE0FFF1FE155F84D408153
S1131CF05181552344F0F901EE0FFF1FE155F84DD2
S1131D00608171810AC0F901EE0FFF1FE155F84DA2
S1131D106081718171956195710901968430910595
S1131D2011F6613BF4E07F070CF45BC0882777FD74
S1131D308095982F0E94AC399B01AC0160E070E063
S1131D4086E994E40E941139A62EB72EC82ED92E06
S1131D5000E010E07801F801EE0FFF1FE155F84DA7
S1131D6060817181882777FD8095982F0E94AC3916
S1131D702A2D3B2D4C2D5D2D0E94763B662E772E11
S1131D80882E992E20E030E0A9010E94D43A18163A
S1131D906CF420E030E040E05FE3662D772D882D81
S1131DA0992D0E9434380E94E7390CC020E030E0BD
S1131DB040E05FE3662D772D882D992D0E943338FE
S1131DC00E94FA380E947939F701EE0FFF1FE1559E
S1131DD0F84D608371830F5F1F4F0430110509F0C4
S1131DE0B9CFA896CDBFDEBFDF91CF911F910F91E0
S1131DF0FF90EF90DF90CF90BF90AF909F908F9027
S1131E007F906F905F904F903F902F9008958F92A6
S1131E109F92AF92BF920F931F93CF93DF93BC0116
S1131E20A8958730910558F020E43CE9C901019751
S1131E30F1F766507109A89567307105B8F780E02D
S1131E4090E00E94AA394B015C0120E030E04AEFA7
S1131E5055E40E94763B062F172FD82FC92F20E078
S1131E6030E040E85FE30E940D3988234CF120E024
S1131E703FEF4FE757E4602F712F8D2F9C2F0E9467
S1131E80D43A1816B4F420E030E040E251E4C5013D
S1131E90B4010E94763B0E947E3961157105A9F058
S1131EA020E233E0C9010197F1F761507109D1F7DC
S1131EB00CC0602F712F8D2F9C2F0E947E3902C081
S1131EC061E070E0CB010197F1F7A895DF91CF9124
S1131ED01F910F91BF90AF909F908F900895909114
S1131EE0A82591110DC0811113C00AC084EF91E09F
S1131EF0E0E0F8E080A791A781E0809308200895AE
S1131F0080910820815080930820882379F30895D4
S1131F1088EE93E0E0E0F8E080A791A71092082013
S1131F200895809107208823B9F081E08093A82543
S1131F3084E690E08093A4259093A5251092A12592
S1131F401092A2258EEF9FEF8093502790935127F4
S1131F50109207201092A8250895809107208823C5
S1131F6061F08FE090E08093A4259093A5251092D2
S1131F70A1251092A2251092072008958091072090
S1131F80811118C08091A6259091A7250196809370
S1131F90A6259093A7258F3F910560F084E0E0E2A9
S1131FA0F7E086831092A6251092A72581E08093FE
S1131FB0072008958091A4259091A525892B71F07F
S1131FC08091A4259091A52501978093A4259093B1
S1131FD0A52584E0E0E2F7E08583089584E0E0E26B
S1131FE0F7E086830895E0E2F7E0808581FD2EC066
S1131FF08091A1259091A2250697C0F081E080935D
S1132000A32588E0E0E0F7E085838091A125909105
S1132010A225499708F046C08091A1259091A22558
S113202001968093A1259093A22508951092A3254B
S113203088E0E0E0F7E086838091A1259091A225D5
S113204001968093A1259093A22508958091A125BE
S11320509091A225069788F081E08093A32588E0DB
S1132060E0E0F7E085838091A1259091A225019776
S11320708093A1259093A22508951092A32588E02A
S1132080E0E0F7E086838091A1259091A225892B39
S113209049F08091A1259091A22501978093A125D3
S11320A09093A225089581309105E9F56F3F7F4F04
S11320B009F05EC046EC64ED75E281ED95E20E94A4
S11320C0A13542EE64ED75E285EC95E20E946A3733
S11320D044EE64ED75E289EC95E20E946A3746EEBF
S11320E064ED75E28DEC95E20E946A3740E56DE39C
S11320F076E281EC95E20E94D7324EEC64ED75E213
S11321008DEB95E20E94FD3648EA64ED75E28DEAB6
S113211095E20E94643740EC6DE376E289EA95E249
S11321200E949A350895892B19F56F3F7F4F01F569
S113213089EA95E20E94A0358DEA95E20E9469370A
S11321408DEB95E20E94033781EC95E20E94DD322B
S11321508DEC95E20E94703789EC95E20E9470370D
S113216085EC95E20E94703781ED95E20E94A635D8
S11321700895EF920F93EE24E39400E221E04FECF4
S113218050E060EA78E08BEB97E20E94B5020F9191
S1132190EF9008951F920F920FB60F92112408B674
S11321A00F9218BE09B60F9219BE0AB60F921ABE44
S11321B00BB60F921BBE2F933F934F935F936F9376
S11321C07F938F939F93AF93BF93CF93DF93EF93BB
S11321D0FF93E091BB27F091BC2740818091BA27FF
S11321E0873009F462C068F4833039F120F4813017
S11321F021F148F51CC0853009F442C008F04DC0F7
S113220036C08B3009F47BC030F4893009F462C0E5
S113221008F06DC057C08D3009F486C008F47CC046
S11322208E3009F48EC08F3009F0E7C092C0453576
S113223009F4E3C01092BA27E5C04A3A09F4DDC0B4
S11322401092BA27DFC0453531F4E091B827F091F8
S1132250B92712860CC0463539F4E091B827F091BD
S1132260B92781E0828703C01092BA27CBC0E091DE
S1132270B827F091B927842F90E083879487BDC055
S1132280E091B827F091B92723853485942F80E015
S1132290822B932B83879487B0C0E091B827F09169
S11322A0B92750E040875187A8C0E091B827F09142
S11322B0B92720853185942F80E0822B932B80874A
S11322C091879BC0E091B827F091B92750E04483EF
S11322D0558393C0E091B827F091B92724813581C3
S11322E0942F80E0822B932B8483958386C0E09186
S11322F0B827F091B92750E0468357837EC0E09118
S1132300B827F091B92726813781942F80E0822B5A
S1132310932B8683978371C0E091B827F091B927F6
S113232050E04083518369C0E091B827F091B92708
S113233020813181942F80E0822B932B80839183A1
S11323405CC0E091B827F091B92750E042835383F1
S113235054C0E091B827F091B92722813381942F9A
S113236080E0822B932B8283938320813181C281ED
S1132370D381A481B5816681778140855185838528
S113238094852C0F3D1F2A0F3B1F260F371F240F48
S1132390351F2817390769F581E085872481358140
S11323A08091AB279091AC2740918F275091902733
S11323B0205A310912F42D5F3F4F359527953595F5
S11323C02795820F931F9A01220F331F220F331F69
S11323D0220F331F420F531F840F951F6AE070E0D2
S11323E00E94453C60938F27709390271092E627B4
S11323F001C015861092BA2705C08091BA278F5F55
S11324008093BA27FF91EF91DF91CF91BF91AF9164
S11324109F918F917F916F915F914F913F912F91F8
S11324200F900BBE0F900ABE0F9009BE0F9008BE0E
S11324300F900FBE0F901F9018951F920F920FB61A
S11324400F92112408B60F9218BE09B60F9219BE46
S11324500AB60F921ABE0BB60F921BBE2F923F9272
S11324604F925F926F927F928F929F92AF92BF92A0
S1132470CF92DF92EF92FF920F931F932F933F938C
S11324804F935F936F937F938F939F93AF93BF9378
S1132490EF93FF93CF93DF93CDB7DEB72A97CDBFEA
S11324A0DEBF8091B7278931E8F11092B727E0EEBB
S11324B0F6E0808580FD3BC0808586FD1BC0809151
S11324C0AF218823D1F081EC95E20E9405348093FA
S11324D0A6279093A7271092932710929427609190
S11324E0A6277091A72780E590E00E94F13C109206
S11324F0AF2103C081E08093AF2110924F27109247
S1132500502710925127E0EEF6E0808580FD06C04A
S11325108085829581700E94E70709C080E00E944F
S1132520E70705C08091B7278F5F8093B727E0EE58
S1132530F6E0808580FD04C0109249251092432561
S11325408091C2269091C3269C012F5F3F4F209318
S1132550C2263093C3268D3D9540D0F180915C27EF
S113256090915D278136994028F180915827909168
S11325705927992364F4809158279091592791956C
S1132580819591098B3491054CF080E018C08091BD
S11325905827909159278B34910574F4E0EEF6E0B6
S11325A0808580FD0BC09091222781E0933039F41F
S11325B080E005C080E003C080E001C081E00E94AB
S11325C06F0F80E496E08093C2269093C32630C0B8
S11325D08091C2269091C3269C012F5F3F4F209388
S11325E0C2263093C326893E934038F084EF91E0AD
S11325F0E0E0F8E080A791A71BC08091C2269091EB
S1132600C3269C012F5F3F4F2093C2263093C326DD
S1132610853F914038F088EE93E0E0E0F8E080A751
S113262091A706C084EF91E0E0E0F8E080A791A7CD
S11326308091A8278F5F8093A827843008F45AC01C
S11326401092A8278091A2279091A3278093A42772
S11326509093A52781EC95E20E945835853009F0C6
S11326603FC080E4E0E0F7E0868381EC95E20E94DD
S113267005342091A6273091A727821B930B8987C5
S11326809A8789859A85853B91053CF089859A8549
S11326908856914089879A870BC089859A858C349E
S11326A09F4F34F489859A8588599E4F89879A87E4
S11326B089859A858093AB279093AC2781EC95E22A
S11326C00E941635833F30F080E8E0E0F7E086832F
S11326D00C94B01B80E8E0E0F7E085830C94B01B19
S11326E081EC95E20E94DE3280E4E0E0F7E085834D
S11326F00C94B01B813009F0E5C28DEB95E20E9489
S113270004378093A8269093A926E0EEF6E080850E
S113271085FF03C08CE291E002C080ED97E0209138
S11327206E2730916F272817390798F52091702765
S1132730309171272817390760F52091722730915D
S113274073272817390728F52091742730917527A6
S113275028173907F0F42091762730917727281726
S11327603907B8F420917827309179272817390749
S113277080F420917A2730917B272817390748F471
S113278020917C2730917D272817390710F40C9469
S1132790F21B0F2EFAE2CF2EF5E2DF2EF02DE12C04
S11327A0F12C212C312C412C512C612C712C812C9D
S11327B0912C5701F701EE0FFF1FE259F84D60818C
S11327C0718180E090E00E94AA39F6013081218174
S11327D0F2E0CF0ED11C032F122F11232CF49801F9
S11327E028593E4FEAF301C09801293641E03407E5
S11327F034F0285631402936E1E03E07D4F72A3533
S1132800310564F4F901EE0FFF1FEE0FFF1FE75FC0
S1132810FF4D208131814281538132C0243B3105F7
S11328207CF4E4EBF0E0E21BF30BEE0FFF1FEE0F82
S1132830FF1FE75FFF4D208131814281538120C01A
S11328402E30F1E03F076CF4F901EE0FFF1FEE0F9D
S1132850FF1FE75CF24E2081318142815381505841
S11328600FC0E8E6F1E0E21BF30BEE0FFF1FEE0FE3
S1132870FF1FE75FFF4D2081318142815381505812
S11328800E94763B9B01AC01662D772D882D992DF6
S11328900E943438662E772E882E992EF501EE0F7D
S11328A0FF1FE259F84D6081718180E090E00E9441
S11328B0AA39065A1F4F1AF408591E4FEAF309366B
S11328C021E0120734F008561140093631E01307AD
S11328D0D4F70A35110564F4F801EE0FFF1FEE0F6B
S11328E0FF1FE75FFF4D208131814281538136C054
S11328F0043B11057CF4E4EBF0E0E01BF10BEE0F7C
S1132900FF1FEE0FFF1FE75FFF4D208131814281E2
S1132910538124C00E3041E014077CF4F801EE0F1B
S1132920FF1FEE0FFF1FE75CF24E00811181228131
S11329303381A9019801505811C0E8E6F1E0E01B89
S1132940F10BEE0FFF1FEE0FFF1FE75FFF4D00813E
S1132950118122813381A901980150580E94763B4C
S11329609B01AC01622D732D842D952D0E9434386A
S1132970262E372E482E592E8FEFE81AF80AE8E053
S1132980EE16F10409F015CF262D372D482D592DBB
S1132990622D732D842D952D0E94A73820E030E000
S11329A044E353E40E94763B2BED3FE049E450E4DA
S11329B00E9411390E9479396093582770935927DE
S11329C080915827909159272091AB273091AC27BB
S11329D0821B930B8093562790935727E0ECF7E0E4
S11329E0808580FF19C08091582790915927489677
S11329F0809358279093592780915827909159276D
S1132A00181619064CF480915827909159270A9763
S1132A10809358279093592780915827909159274C
S1132A208D349F4F5CF48091582790915927885991
S1132A309E4F809358279093592711C0809158270F
S1132A4090915927853B910554F080915827909196
S1132A505927885691408093582790935927222DBF
S1132A60332D442D552D662D772D882D992D0E94BB
S1132A70E13A6B017C0120E030E0A9010E94D43AE4
S1132A8018165CF420E030E040E05FE3C701B601D3
S1132A900E9434380E94E7390AC020E030E040E068
S1132AA05FE3C701B6010E9433380E94FA380E94DE
S1132AB07E3960935C2770935D27009158271091AD
S1132AC0592760915C2770915D2780E090E00E9417
S1132AD0AA396B017C01000F111F000F111F065A48
S1132AE01F4F1AF408591E4FEAF3093621E0120762
S1132AF034F008561140093631E01307D4F70A358B
S1132B00110564F4F801EE0FFF1FEE0FFF1FE75FDE
S1132B10FF4D208131814281538136C0043B110530
S1132B207CF4E4EBF0E0E01BF10BEE0FFF1FEE0F83
S1132B30FF1FE75FFF4D208131814281538124C013
S1132B400E3041E014077CF4F801EE0FFF1FEE0F86
S1132B50FF1FE75CF24E80819181A281B3819C01C9
S1132B60AD01505811C0E8E6F1E0E01BF10BEE0FA7
S1132B70FF1FEE0FFF1FE75FFF4D80819181A28150
S1132B80B3819C01AD01505860E070E080E191E4B4
S1132B900E9433389B01AC01C701B6010E94763B09
S1132BA020E030E040E05EE30E94763BE62EF72E24
S1132BB0082F192F20E030E0A9010E94D43A1816FA
S1132BC06CF420E030E040E05FE36E2D7F2D802F39
S1132BD0912F0E9434380E94E7390CC020E030E085
S1132BE040E05FE36E2D7F2D802F912F0E943338BC
S1132BF00E94FA380E947E3960935A2770935B27AB
S1132C0080915027909151279C012F5F3F4F209333
S1132C105027309351278034914008F041C080916F
S1132C205C2790915D278039914008F4EAC5209192
S1132C3054273091552780915C2790915D27205926
S1132C4031402817390708F0DCC52091542730910A
S1132C50552780915C2790915D2720573E4F82171E
S1132C60930708F0CEC520915227309153278091C5
S1132C7058279091592725503109281739070CF006
S1132C80C0C52091522730915327809158279091A5
S1132C9059272B5F3F4F821793070CF461C5B1C5C9
S1132CA080915027909151278138924020F481E0FF
S1132CB080934F2755C510924F271092502710929A
S1132CC051274EC5823009F042C38091A9279091C3
S1132CD0AA272091AB273091AC27821B930B853B0D
S1132CE091053CF0885691408093A2279093A327A6
S1132CF00FC08C343FEF93072CF08093A22790935E
S1132D00A32706C088599E4F8093A2279093A32798
S1132D100091A2271091A327B801882777FD8095F9
S1132D20982F0E94AC394B015C0120E030E040E870
S1132D305CE30E94763B20919E2730919F2740912F
S1132D40A0275091A1270E943438462E572E682E72
S1132D50792E20E030E048E453E40E94D43A181677
S1132D606CF480E090E0A8E4B3E480939E27909311
S1132D709F27A093A027B093A12725C020E030E08F
S1132D8048E453EC642D752D862D972D0E940D3942
S1132D9088236CF0842D952DA62DB72D80939E2726
S1132DA090939F27A093A027B093A1270CC080E005
S1132DB090E0A8E4B3EC80939E2790939F27A09380
S1132DC0A027B093A1272091A4273091A527029F83
S1132DD0C001039F900D129F900D1124181619061F
S1132DE0B4F020E030E040E05FE360919E27709112
S1132DF09F278091A0279091A1270E94763B609302
S1132E009E2770939F278093A0279093A127C0901B
S1132E109E27D0909F27E090A027F090A127A7019C
S1132E209601C501B4010E94763B20E030E0A9017F
S1132E300E940D39181684F024EA30E74DE75FE369
S1132E40C701B6010E94763B60939E2770939F272B
S1132E508093A0279093A12781EC95E20E94B73339
S1132E6080939C2790939D278091C425882321F0EB
S1132E7010929C2710929D2760919C2770919D270A
S1132E800091932710919427882777FD8095982F98
S1132E900E94AC3920E030E040E85CE30E94763BDD
S1132EA00E947939600F711F609393277093942760
S1132EB0809193279091942760E876E10E94453CA5
S1132EC080939327909394278091932790919427AC
S1132ED099230CF40F9695958795959587959595D7
S1132EE087959595879580939127909392278091C4
S1132EF0912790919227853B91055CF080919127D1
S1132F00909192278856914080939127909392278D
S1132F1011C080919127909192278C349F4F54F443
S1132F20809191279091922788599E4F8093912761
S1132F309093922700919C2710919D276091A2273E
S1132F407091A327882777FD8095982F0E94AC392C
S1132F5020E030E04AE751E40E94763B6B017C01BB
S1132F6020E030E040E051E460919E2770919F277B
S1132F708091A0279091A1270E94763B9B01AC01F0
S1132F80C701B6010E9434386B017C01B80188275F
S1132F9077FD8095982F0E94AC3920E030E040E81E
S1132FA05DE30E94763B9B01AC01C701B6010E9420
S1132FB03438E62EF72E082F192FA62EB72EC82E3A
S1132FC0D92E982F4E2D5F2D692F712F409398275E
S1132FD05093992760939A2770939B2720E030E0C1
S1132FE04AE754E46E2D7F2D802F912F0E94D43A0E
S1132FF01816BCF480E090E0AAE7B4E48093982724
S113300090939927A0939A27B0939B27A12CB12C36
S11330100F2EFAE7CF2EF02D0F2EF4E4DF2EF02D35
S11330202EC020E030E04AE754EC6E2D7F2D802F37
S1133030912F0E940D398823BCF480E090E0AAE728
S1133040B4EC8093982790939927A0939A27B093F0
S11330509B27A12CB12C0F2EFAE7CF2EF02D0F2E8B
S1133060F4ECDF2EF02D18C020E030E0A9016E2D25
S11330707F2D802F912F0E94D43A18166CF420E0F3
S113308030E040E05FE36A2D7B2D8C2D9D2D0E9466
S113309034380E94E7390CC020E030E040E05FE3C0
S11330A06A2D7B2D8C2D9D2D0E9433380E94FA3879
S11330B00E9479396093AD277093AE27809196274B
S11330C090919727892B29F080914925833008F422
S11330D0ADC32091AF273091B0278091AD27909157
S11330E0AE27820F931F89839A832091B127309151
S11330F0B2278091AD279091AE27820F931F8B83C7
S11331009C832091B3273091B4278091AD2790916F
S1133110AE27820F931F8D839E832091B527309114
S1133120B6278091AD279091AE27820F931F8F838E
S1133130988781EC95E20E94603499233CF081ECFD
S113314095E20E946034099754F422C081EC95E220
S11331500E9460349195819591090997CCF081EC96
S113316095E20E941B3399234CF081EC95E20E9476
S11331701B33813293400CF03FC00AC081EC95E2CE
S11331800E941B3391958195910981329340A4F556
S113319081EC95E20E94BB3499233CF081EC95E2EA
S11331A00E94BB34099754F433C081EC95E20E9429
S11331B0BB34919581959109099754F181EC95E27D
S11331C00E941B33992354F081EC95E20E941B3337
S11331D021E08132934074F420E00CC081EC95E24C
S11331E00E941B3391958195910921E0813293408E
S11331F00CF420E0222361F08091AD279091AE275A
S11332008F8398878D839E838B839C8389839A8302
S11332108E010F5F1F4F7E0189E0E80EF11CF8015B
S113322060E070E0308121813296832F922F9923C0
S11332301CF4919581959109681779070CF4BC01E8
S1133240EE15FF0579F76D3DE5E07E070CF450C0FF
S1133250882777FD8095982F0E94AC399B01AC019B
S113326060E070E88BEB94E40E941139462E572EEF
S1133270682E792E6801F80160817181882777FDB5
S11332808095982F0E94AC39242D352D462D572D2D
S11332900E94763B862E972EA82EB92E20E030E091
S11332A0A9010E94D43A18166CF420E030E040E002
S11332B05FE3682D792D8A2D9B2D0E9434380E945E
S11332C0E7390CC020E030E040E05FE3682D792D61
S11332D08A2D9B2D0E9433380E94FA380E94793936
S11332E0F601608371830E5F1F4FE016F10611F63D
S11332F0E0EEF6E0808580FF15C069817A8180E088
S11333000E94B8086B817C8181E00E94B8086D81BD
S11333107E8182E00E94B8086F81788583E00E94F4
S1133320B8081EC260E070E080E00E94B80860E067
S113333070E081E00E94B80860E070E082E00E94E2
S1133340B80860E070E083E00E94B80809C28330E6
S113335009F006C28091312781115EC085EC95E2A7
S11333600E941238882309F47FC08DEC95E20E94F4
S11333701238882309F478C085EC95E20E94C4379A
S113338002E317E2F801808391838DEC95E20E94B9
S1133390C4378093362790933727F8018081918131
S11333A0892BF1F48091362790913727892B59F492
S11333B080E590E0809332279093332780933627DB
S11333C0909337271FC0209136273091372782EA00
S11333D090E0821B930B809332279093332712C083
S11333E08091362790913727892B61F420913227D9
S11333F03091332782EA90E0821B930B8093362727
S11334009093372789EC95E20E94B9378091312750
S11334108F5F8093312728C080913127813021F537
S113342089EC95E20E9412388823F1F089EC95E248
S11334300E94C43704E317E2F8018083918385EC8A
S113344095E20E94B937F80180819181892B31F48A
S113345084E690E080933427909335278DEC95E2B1
S11334600E94B937109231278091362790913727DF
S113347020913227309133278A549F4F821B930B1C
S113348096958795EDE2F7E280839183808191811F
S11334908130944024F010922D2710922E27809191
S11334A03427909135270596EFE2F7E280839183E4
S11334B08081918180937721909378218091322724
S11334C0909133272091362730913727820F931F0D
S11334D08739910520F1E2E3F7E2808191818093BD
S11334E07F2190938021A6E3B7E28D919C9111975F
S11334F08093792190937A21109224271092232784
S11335008D919C91208131818A549F4F821B930B12
S1133510969587958093752190937621CFC02091BD
S113352032273091332740912427E42FF0E0EE0F27
S1133530FF1FE158FE4D808191812C5E3F4F821721
S1133540930708F14F5F433018F44093242703C0D6
S113355082E0809324278091242790E0FC01EE0FE1
S1133560FF1FE95DF84DDC01AA0FBB1FA158BE4D3A
S113357080917F21909180212D913C91821B930B0E
S11335808083918310C02091322730913327449651
S11335902817390740F0442321F041504093242751
S11335A002C01092242760912427262F30E08091B6
S11335B0322790913327F901EE0FFF1FE158FE4D9A
S11335C08083918340913627509137277091232728
S11335D0E72FF0E0EE0FFF1FE758FE4D8081918149
S11335E04C5E5F4F8417950708F17F5F733018F4C2
S11335F07093232703C082E080932327809123279D
S113360090E0FC01EE0FFF1FED5DF84DDC01AA0F09
S1133610BB1FA758BE4D8091792190917A214D917D
S11336205C91841B950B8083918310C04091362755
S11336305091372744964817590740F0772321F0D3
S113364071507093232702C010922327709123276F
S1133650472F50E08091362790913727FA01EE0FDB
S1133660FF1FE758FE4D808391838091322790910C
S11336703327662349F0F901EE0FFF1FE95DF84D8A
S113368020813181820F931F209136273091372773
S1133690772349F0FA01EE0FFF1FED5DF84D4081ED
S11336A05181240F351F281B390B2A543F4FC90160
S11336B096958795809375219093762180914925DD
S11336C0882309F44DC0809101208130E1F01CF47D
S11336D0882339F045C0823041F1833009F040C07D
S11336E032C0E0914925F0E0EE0FFF1FEB57FE4D8D
S11336F02081318180EF90E0821B930B80937721AE
S1133700909378212DC0E0914925F0E0EE0FFF1F42
S1133710EB57FE4D2081318184EB90E0821B930BAB
S113372080937521909376211BC0E0914925F0E0A8
S1133730EE0FFF1FEB57FE4D80819181809377211F
S1133740909378210DC0E0914925F0E0EE0FFF1F22
S1133750EB57FE4D80819181809375219093762162
S11337600E94F30F0E94BE0F10924625E0EEF6E091
S1133770808582FF0BC080911C278F5F80931C275C
S1133780823320F00E94F61F10921C278091A826F5
S11337909091A926883F9A4288F48091A7268F5F4A
S11337A08093A7268B30CCF090E2E0E0F7E095839D
S11337B085319CF084E18093A7260FC08091A726D1
S11337C081508093A7268A3024F490E2E0E0F7E069
S11337D09683882314F41092A7268EEFE0ECF8E089
S11337E083832DC085E090E080935C2790935D27D0
S11337F080935A2790935B27109258271092592749
S1133800FFC980915C2790915D2780935427909302
S11338105527809158279091592780935227909348
S1133820532710925027109251279ACF80919627B0
S1133830909197278093AD279093AE274ACC2A96F0
S1133840CDBFDEBFDF91CF91FF91EF91BF91AF91DB
S11338509F918F917F916F915F914F913F912F91A4
S11338601F910F91FF90EF90DF90CF90BF90AF909A
S11338709F908F907F906F905F904F903F902F908C
S11338800F900BBE0F900ABE0F9009BE0F9008BE9A
S11338900F900FBE0F901F9018951F920F920FB6A6
S11338A00F92112408B60F9218BE09B60F9219BED2
S11338B00BB60F921BBE2F933F934F935F936F935F
S11338C07F938F939F93AF93BF93EF93FF9381EF76
S11338D096E20E947703FF91EF91BF91AF919F9180
S11338E08F917F916F915F914F913F912F910F90A5
S11338F00BBE0F9009BE0F9008BE0F900FBE0F9025
S11339001F9018951F920F920FB60F92112408B6AC
S11339100F9218BE09B60F9219BE0BB60F921BBEBA
S11339202F933F934F935F936F937F938F939F93C3
S1133930AF93BF93EF93FF9385EC96E20E947703D6
S1133940FF91EF91BF91AF919F918F917F916F9173
S11339505F914F913F912F910F900BBE0F9009BE35
S11339600F9008BE0F900FBE0F901F9018951F92D6
S11339700F920FB60F92112408B60F9218BE0BB611
S11339800F921BBE8F93EF93FF93E091F126F0917A
S1133990F22680818093C426FF91EF918F910F903E
S11339A00BBE0F9008BE0F900FBE0F901F9018957E
S11339B01F920F920FB60F92112408B60F9218BEE1
S11339C009B60F9219BE0BB60F921BBE2F933F93ED
S11339D04F935F936F937F938F939F93AF93BF9313
S11339E0EF93FF938DE396E20E949D02FF91EF9186
S11339F0BF91AF919F918F917F916F915F914F9103
S1133A003F912F910F900BBE0F9009BE0F9008BEEF
S1133A100F900FBE0F901F9018951F920F920FB624
S1133A200F92112408B60F9218BE09B60F9219BE50
S1133A300BB60F921BBE2F933F934F935F936F93DD
S1133A407F938F939F93AF93BF93EF93FF9384EDF3
S1133A5095E20E949D02FF91EF91BF91AF919F91DA
S1133A608F917F916F915F914F913F912F910F9023
S1133A700BBE0F9009BE0F9008BE0F900FBE0F90A3
S1133A801F9018951F920F920FB60F92112408B62B
S1133A900F9218BE0BB60F921BBE2F938F939F935A
S1133AA0EF93FF9380914B278F5F80934B278091F7
S1133AB04B27813049F4E0E6F6E0808585FFFDCFB1
S1133AC0E0ECF8E013823FC080914B27823059F438
S1133AD0E0ECF8E02381922F80E0809348279093D4
S1133AE04927138230C0E0ECF8E023818091482715
S1133AF090914927822B8093482790934927E091FE
S1133B004A27F0E08091482790914927EE0FFF1F44
S1133B10E85CF84D8083918310924B2780914A276B
S1133B208F5F80934A2780914A27883018F010923B
S1133B304A2709C0E0914A27F0E0E65CFA4D80810B
S1133B40E0ECF8E08383FF91EF919F918F912F91A7
S1133B500F900BBE0F9008BE0F900FBE0F901F90DA
S1133B6018951F920F920FB60F92112408B60F9258
S1133B7018BE0BB60F921BBE8F939F93EF93FF93C8
S1133B801092B6261092B726EAEAF6E28081982FC0
S1133B909F5F908388301CF088E08093AA26FF9171
S1133BA0EF919F918F910F900BBE0F9008BE0F90D5
S1133BB00FBE0F901F9018951F920F920FB60F9281
S1133BC0112408B60F9218BE0BB60F921BBE8F932A
S1133BD09F93EF93FF931092B8261092B926EBEAC5
S1133BE0F6E28081982F9F5F908388301CF088E0F4
S1133BF08093AB26FF91EF919F918F910F900BBE15
S1133C000F9008BE0F900FBE0F901F9018951F9233
S1133C100F920FB60F92112408B60F9218BE0BB66E
S1133C200F921BBE8F939F93EF93FF931092BA262C
S1133C301092BB26ECEAF6E28081982F9F5F908376
S1133C4088301CF088E08093AC26FF91EF919F911F
S1133C508F910F900BBE0F9008BE0F900FBE0F9068
S1133C601F9018951F920F920FB60F92112408B649
S1133C700F9218BE0BB60F921BBE8F939F93EF93B8
S1133C80FF931092BC261092BD26EDEAF6E28081E5
S1133C90982F9F5F908388301CF088E08093AD2636
S1133CA0FF91EF919F918F910F900BBE0F9008BEE3
S1133CB00F900FBE0F901F9018951F920F920FB682
S1133CC00F92112408B60F9218BE09B60F9219BEAE
S1133CD00AB60F921ABE0BB60F921BBE2F933F93D8
S1133CE04F935F936F937F938F939F93AF93BF9300
S1133CF0CF93DF93EF93FF938091AA26181634F4A1
S1133D00E0E0F9E010A211A21092AA26EEEBF6E28E
S1133D108081982F9F5F908380FD12C0C0E0D9E01E
S1133D2028A139A140E050E064E57AEE8AE290E00F
S1133D300E94593C2093B6263093B72618A219A2A4
S1133D40FF91EF91DF91CF91BF91AF919F918F91AF
S1133D507F916F915F914F913F912F910F900BBE87
S1133D600F900ABE0F9009BE0F9008BE0F900FBEB1
S1133D700F901F9018951F920F920FB60F92112457
S1133D8008B60F9218BE09B60F9219BE0AB60F9262
S1133D901ABE0BB60F921BBE2F933F934F935F93A4
S1133DA06F937F938F939F93AF93BF93CF93DF933F
S1133DB0EF93FF938091AB26181634F4E0E4F9E016
S1133DC010A211A21092AB26EFEBF6E28081982F9D
S1133DD09F5F908380FD12C0C0E4D9E028A139A17F
S1133DE040E050E064E57AEE8AE290E00E94593CBB
S1133DF02093B8263093B92618A219A2FF91EF9107
S1133E00DF91CF91BF91AF919F918F917F916F91EE
S1133E105F914F913F912F910F900BBE0F900ABE6F
S1133E200F9009BE0F9008BE0F900FBE0F901F9009
S1133E3018951F920F920FB60F92112408B60F9285
S1133E4018BE09B60F9219BE0AB60F921ABE0BB667
S1133E500F921BBE2F933F934F935F936F937F9368
S1133E608F939F93AF93BF93CF93DF93EF93FF937E
S1133E708091AC26181634F4E0E0FBE010A211A205
S1133E801092AC26E0ECF6E28081982F9F5F90833D
S1133E9080FD12C0C0E0DBE028A139A140E050E081
S1133EA064E57AEE8AE290E00E94593C2093BA26B7
S1133EB03093BB2618A219A2FF91EF91DF91CF9105
S1133EC0BF91AF919F918F917F916F915F914F912E
S1133ED03F912F910F900BBE0F900ABE0F9009BE19
S1133EE00F9008BE0F900FBE0F901F9018951F9251
S1133EF00F920FB60F92112408B60F9218BE09B68E
S1133F000F9219BE0AB60F921ABE0BB60F921BBEC1
S1133F102F933F934F935F936F937F938F939F93CD
S1133F20AF93BF93CF93DF93EF93FF938091AD262D
S1133F30181634F4E0E4FBE010A211A21092AD26AE
S1133F40E1ECF6E28081982F9F5F908380FD12C0A0
S1133F50C0E4DBE028A139A140E050E064E57AEE5A
S1133F608AE290E00E94593C2093BC263093BD26FF
S1133F7018A219A2FF91EF91DF91CF91BF91AF9158
S1133F809F918F917F916F915F914F913F912F916D
S1133F900F900BBE0F900ABE0F9009BE0F9008BE83
S1133FA00F900FBE0F901F9018951F920F920FB68F
S1133FB00F92112408B60F9218BEE0ECF7E06FE000
S1133FC050E420E43FE1A8956583452FA895C901F5
S1133FD00197F1F74150D1F7A8956683452FA8952D
S1133FE0C9010197F1F74150D1F7EDCFEF92FF925C
S1133FF00F931F93CF93DF9381ED95E20E94B33625
S113400020911F27309120278217930709F491C02C
S113401020911F273091202731FF06C091FFC2C78E
S113402003C028E12093212720911F2730912027C6
S113403033FFCDC793FFC1C7CAC710922127C7C793
S1134040CF5FDF5FC930E1F39B010C2E02C0220F6A
S1134050331F0A94E2F740911F27509120274223EF
S11340605323452B09F45EC02E233F23232B09F051
S1134070B9C758C000E020911D2730911E27211593
S1134080324070F040911D2750911E27202F30E0C0
S11340903460240F351F20931D2730931E2731C011
S11340A020911D2730911E272F3F3105C1F0B8F014
S11340B0E0901D27F0901E27402F50E0440F551F1D
S11340C09A01220F331F220F331F420F531F5260D6
S11340D04E0D5F1D40931D2750931E2712C0409123
S11340E01D2750911E27452B61F4033028F4109F9F
S11340F090011124316001C09D0120931D2730934C
S11341001E2720911D2730911E272115344050F081
S113411020911D2730911E272093212710921D27BF
S113412010921E27DB3008F48BCF80931F279093C7
S1134130202781ED95E20E942236E0912127F0E0CC
S1134140E931F10508F01CC7E650FF4F0C94753CAB
S113415020EE31E241E061E081ED95E20E94A73575
S1134160E0ECF7E060856170605D81ED95E20E94AE
S1134170913624EF31E241E062E081ED95E20E9464
S1134180A73529E032E241E063E081ED95E20E9447
S1134190A7352BE132E241E064E081ED95E20E9433
S11341A0A73525C72DE232E241E061E081ED95E2D9
S11341B00E94A7352FE332E241E062E081ED95E20F
S11341C00E94A7352FE432E241E063E081ED95E2FD
S11341D00E94A7352DE532E241E064E081ED95E2ED
S11341E00E94A73504C72EE632E241E061E081ED8A
S11341F095E20E94A7352FE732E241E062E081EDCB
S113420095E20E94A7352FE832E241E063E081EDB8
S113421095E20E94A73523EA32E241E064E081EDB1
S113422095E20E94A735E3C628EB32E241E061E063
S113423081ED95E20E94A73522EC32E241E062E092
S113424081ED95E20E94A7352BEC32E241E063E078
S113425081ED95E20E94A73523ED32E241E064E06E
S113426081ED95E20E94A735C2C625EE32E241E017
S113427061E081ED95E20E94A735B9C628EF32E2EC
S113428041E061E081ED95E20E94A73524EF31E23F
S113429041E062E081ED95E20E94A7352CE033E233
S11342A041E063E081ED95E20E94A73528E133E225
S11342B044E064E081ED95E20E94A73560912127F6
S11342C0605D81ED95E20E94913691C629E233E268
S11342D041E061E081ED95E20E94A7352091AF278E
S11342E03091B0274AE061E081ED95E20E94F23519
S11342F022E333E241E062E081ED95E20E94A735DA
S11343002091B1273091B2274AE062E081ED95E235
S11343100E94F2352BE333E241E063E081ED95E264
S11343200E94A7352091B3273091B4274AE063E077
S113433081ED95E20E94F23524E433E241E064E049
S113434081ED95E20E94A7352091B5273091B627DB
S11343504AE064E081ED95E20E94F23548C620917E
S1134360AF273091B0278091AD279091AE27280FC9
S1134370391F41E061E081ED95E20E94F235209120
S1134380B1273091B2278091AD279091AE27280FA5
S1134390391F41E062E081ED95E20E94F2352091FF
S11343A0B3273091B4278091AD279091AE27280F81
S11343B0391F41E063E081ED95E20E94F2352091DE
S11343C0B5273091B6278091AD279091AE27280F5D
S11343D0391F41E064E081ED95E20E94F2352DE45D
S11343E033E249E061E081ED95E20E94A735209136
S11343F0A9273091AA2741E161E081ED95E20E946D
S1134400F23524E533E249E062E081ED95E20E9471
S1134410A7352091AB273091AC2741E162E081EDD3
S113442095E20E94F2352BE533E249E063E081ED49
S113443095E20E94A73581EC95E20E9405349C0127
S113444041E163E081ED95E20E94F23521E633E239
S113445049E064E081ED95E20E94A7352091A6270A
S11344603091A72741E164E081ED95E20E94F235A5
S1134470BEC526E633E241E061E081ED95E20E94AB
S1134480A73520916E2730916F2747E061E081EDD9
S113449095E20E94F2352CE633E241E062E081EDE0
S11344A095E20E94A735209170273091712747E04B
S11344B062E081ED95E20E94F23522E733E241E0C9
S11344C063E081ED95E20E94A73520917227309137
S11344D0732747E063E081ED95E20E94F23528E717
S11344E033E241E064E081ED95E20E94A73520913A
S11344F074273091752747E064E081ED95E20E94CE
S1134500F2352EE733E24BE061E081ED95E20E9463
S1134510A735209176273091772741E161E081ED3D
S113452095E20E94F23524E833E24BE062E081ED4B
S113453095E20E94A735209178273091792741E1AF
S113454062E081ED95E20E94F2352AE833E24BE025
S113455063E081ED95E20E94A73520917A2730919E
S11345607B2741E163E081ED95E20E94F23520E989
S113457033E24BE064E081ED95E20E94A73520919F
S11345807C2730917D2741E164E081ED95E20E9432
S1134590F2352DC526E633E241E061E081ED95E296
S11345A00E94A73520915E2730915F2747E061E0A4
S11345B081ED95E20E94F2352CE633E241E062E0BF
S11345C081ED95E20E94A735209160273091612703
S11345D047E062E081ED95E20E94F23522E733E2A2
S11345E041E063E081ED95E20E94A73520916227C6
S11345F03091632747E063E081ED95E20E94F23554
S113460028E733E241E064E081ED95E20E94A735BA
S1134610209164273091652747E064E081ED95E2BD
S11346200E94F2352EE733E24BE061E081ED95E242
S11346300E94A735209166273091672741E161E008
S113464081ED95E20E94F23524E833E24BE062E02A
S113465081ED95E20E94A735209168273091692762
S113466041E162E081ED95E20E94F2352AE833E20D
S11346704BE063E081ED95E20E94A73520916A2723
S113468030916B2741E163E081ED95E20E94F235C0
S113469020E933E24BE064E081ED95E20E94A73526
S11346A020916C2730916D2741E164E081ED95E222
S11346B00E94F2359CC426E933E241E061E081EDD9
S11346C095E20E94A73520915627309157274CE058
S11346D061E081ED95E20E94F23523EA33E241E0A4
S11346E062E081ED95E20E94A73520915827309130
S11346F059274CE062E081ED95E20E94F23520EB0F
S113470033E241E063E081ED95E20E94A735209118
S11347105C2730915D274CE063E081ED95E20E94D7
S1134720F2352DEB33E241E064E081ED95E20E9445
S1134730A73520915A2730915B274CE064E081ED46
S113474095E20E94F2352AEC33E241E161E081ED29
S113475095E20E94A73520914C2730914D2741E1E5
S113476062E081ED95E20E94F2352FEC33E241E103
S113477063E081ED95E20E94A73520914E2730E059
S113478041E164E081ED95E20E94F23530C424ED0C
S113479033E241E061E081ED95E20E94A73522EE2B
S11347A033E241E062E081ED95E20E94A73520EF1B
S11347B033E241E063E081ED95E20E94A735209168
S11347C04F2730E04FE061E081ED95E20E94F23541
S11347D020915027309151274FE062E081ED95E21E
S11347E00E94F2352091222730E04FE063E081ED12
S11347F095E20E94F235C0EED6E02885217030E0C3
S113480041E064E081ED95E20E94F235288522952D
S113481026952695237011E02127217030E045E08C
S113482064E081ED95E20E94F235E0E2F7E0208554
S113483026951227212F217030E049E064E081EDB4
S113484095E20E94F23528852295217030E04DE0F2
S113485064E081ED95E20E94F235288522FB22274F
S113486020F930E041E164E081ED95E20E94F23507
S1134870BEC32EEF33E241E062E081ED95E20E9497
S1134880A73520913227309133274BE062E081ED48
S113489095E20E94F23529E034E241E063E081EDE3
S11348A095E20E94A73520913427309135274BE0BB
S11348B063E081ED95E20E94F23524E134E241E0C7
S11348C064E081ED95E20E94A7352091362730916E
S11348D037274BE064E081ED95E20E94F2352EE14A
S11348E034E24FE061E081ED95E20E94A73520912A
S11348F07521309176214FE062E081ED95E20E94CE
S1134900F23524E234E24FE063E081ED95E20E9467
S1134910A73520917721309178214FE064E081ED33
S113492095E20E94F23563C32AE234E241E061E099
S113493081ED95E20E94A73526E334E241E062E08E
S113494081ED95E20E94A73522E434E241E063E080
S113495081ED95E20E94A7352FE434E241E064E062
S113496081ED95E20E94A73520912D2730912E27C5
S11349704EE061E081ED95E20E94F23520912F270F
S1134980309130274EE062E081ED95E20E94F235ED
S113499020917521309176214EE063E081ED95E21E
S11349A00E94F23520917721309178214EE064E025
S11349B081ED95E20E94F2351AC341E061E081ED98
S11349C095E20E946B3660916525605D81ED95E20C
S11349D00E94913660916625605D81ED95E20E94AA
S11349E0913660916725605D81ED95E20E94913674
S11349F060916825605D81ED95E20E949136609139
S1134A006925605D81ED95E20E94913660916A2589
S1134A10605D81ED95E20E94913660916B25605D49
S1134A2081ED95E20E94913660914C25605D81EDA7
S1134A3095E20E94913660914D25605D81ED95E28D
S1134A400E94913660914E25605D81ED95E20E9451
S1134A50913660914F25605D81ED95E20E9491361B
S1134A6060915025605D81ED95E20E9491366091E0
S1134A705125605D81ED95E20E9491366091522549
S1134A80605D81ED95E20E9491362091642530E0CD
S1134A9041E062E081ED95E20E94F23520915325D8
S1134AA030E04EE062E081ED95E20E94F235209123
S1134AB0632530E041E063E081ED95E20E94F23548
S1134AC02091542530E04EE063E081ED95E20E94B0
S1134AD0F23541E064E081ED95E20E946B3660912D
S1134AE06225605D81ED95E20E94913660916125B9
S1134AF0605D81ED95E20E94913660916025605D74
S1134B0081ED95E20E94913660915F25605D81EDB3
S1134B1095E20E94913660915E25605D81ED95E29B
S1134B200E94913660915D25605D81ED95E20E9461
S1134B30913660915C25605D81ED95E20E9491362D
S1134B4060915B25605D81ED95E20E9491366091F4
S1134B505A25605D81ED95E20E9491366091592558
S1134B60605D81ED95E20E94913660915825605D0B
S1134B7081ED95E20E94913660915725605D81ED4B
S1134B8095E20E94913660915625605D81ED95E233
S1134B900E94913660915525605D81ED95E20E94F9
S1134BA091362CE534E240E161E081ED95E20E942A
S1134BB0A7352091482530E040E162E081ED95E29F
S1134BC00E94F2352FE433E240E163E081ED95E2A7
S1134BD00E94A73520914A2530914B2540E164E09D
S1134BE081ED95E20E94F23502C222E634E241E010
S1134BF061E081ED95E20E94A735F9C129E734E22D
S1134C0041E061E081ED95E20E94A7352091AB2758
S1134C103091AC2747E061E081ED95E20E94F235E6
S1134C2024E834E241E062E081ED95E20E94A73598
S1134C3020919C2730919D2747E062E081ED95E229
S1134C400E94F2352AE834E241E063E081ED95E226
S1134C500E94A73581EC95E20E94BB349C0147E099
S1134C6063E081ED95E20E94F23521E934E24BE004
S1134C7061E081ED95E20E94A73581EC95E20E9406
S1134C801B339C0141E161E081ED95E20E94F23524
S1134C9027E934E24BE062E081ED95E20E94A7351A
S1134CA081EC95E20E9469339C0141E162E081ED6F
S1134CB095E20E94F2352DE934E24BE063E081EDA8
S1134CC095E20E94A73520919127309192274FE0D9
S1134CD063E081ED95E20E94F23589C122EA34E273
S1134CE041E061E081ED95E20E94A7352EEB36E2CA
S1134CF048E061E081ED95E20E94F23529EA34E270
S1134D0041E062E081ED95E20E94A73526EB36E2B0
S1134D1047E062E081ED95E20E94F2352EEA34E24A
S1134D2041E063E081ED95E20E94A7352EEA36E288
S1134D3047E063E081ED95E20E94F23558C127EB2C
S1134D4034E241E061E081ED95E20E94A7352091D3
S1134D50A8263091A92648E061E081ED95E20E9401
S1134D60F23545C12DEB34E241E061E081ED95E29D
S1134D700E94A7352CEB32E24FE061E081ED95E231
S1134D800E94A73521EC34E241E062E081ED95E236
S1134D900E94A73526EC34E24DE062E081ED95E215
S1134DA00E94A7352BEC34E241E063E081ED95E20B
S1134DB00E94A73524ED34E24DE063E081ED95E2F5
S1134DC00E94A73529ED34E241E064E081ED95E2EB
S1134DD00E94A7352091422530E045E061E081ED55
S1134DE095E20E94F235209144253091452546E014
S1134DF062E081ED95E20E94F23520914A253091DE
S1134E004B2542E162E081ED95E20E94F23520916A
S1134E100120332727FD30954AE063E081ED95E2D8
S1134E200E94F235209100202F3F39F08AE52802B4
S1134E3090011124235D3F4F02C02FEF3FEF42E169
S1134E4063E081ED95E20E94F2352091432530E044
S1134E5048E064E081ED95E20E94F235C8C020EE9E
S1134E6034E241E061E081ED95E20E94A7352091B2
S1134E7038273091392747E061E081ED95E20E94BF
S1134E80F23527EE34E241E062E081ED95E20E94E2
S1134E90A73520913A2730913B2747E062E081ED26
S1134EA095E20E94F2352EEE34E241E063E081EDBA
S1134EB095E20E94A73520913C2730913D2747E099
S1134EC063E081ED95E20E94F23525EF34E241E0A2
S1134ED064E081ED95E20E94A73520913E27309150
S1134EE03F2747E064E081ED95E20E94F2352CEF24
S1134EF034E24BE061E081ED95E20E94A735209118
S1134F0040273091412741E161E081ED95E20E9423
S1134F10F23523E035E24BE062E081ED95E20E9458
S1134F20A735209142273091432741E162E081ED8A
S1134F3095E20E94F2352AE035E24BE063E081ED30
S1134F4095E20E94A735209144273091452741E1FD
S1134F5063E081ED95E20E94F23521E135E24BE018
S1134F6064E081ED95E20E94A735209146273091B7
S1134F70472741E164E081ED95E20E94F23537C0B4
S1134F8028E135E241E061E081ED95E20E94A73538
S1134F902091212730E041E062E081ED95E20E941A
S1134FA0F23525C0209121272150209321272091DB
S1134FB02127293108F035C837C8209121272F5FD0
S1134FC02093212720912127293108F036C8D1E0E8
S1134FD0C0E061E070E0FC01E095F095A0E0B1E094
S1134FE014E630C8DA3008F045C80D2F44C8DF9104
S1134FF0CF911F910F91FF90EF9008958F929F9200
S1135000AF92BF92CF92DF92EF92FF920F931F93D2
S1135010CF93DF938091A325882351F18091AB270F
S11350209091AC27992364F48091AB279091AC279D
S113503091958195910921E04E9754F020E008C0A4
S11350408091AB279091AC2721E04E970CF020E0A3
S113505021110E94910F40E050E862EA74E480E07C
S113506090E00E945E0A1092A9271092AA272CC1F0
S11350701092A62680915627909157278A3591053C
S113508044F480915C2790915D278136994008F023
S1135090FBC080915C2790915D27893B9B4008F081
S11350A0F7C080915C2790915D27813F9A4008F476
S11350B0F7C0809158279091592799235CF48091E7
S11350C05827909159279195819591098D970CF4C2
S11350D0DFC0E6C080915827909159278D970CF432
S11350E0D7C0DEC0809158279091592740E050E006
S11350F066E974E48C5291400E945E0A1092A927DA
S11351001092AA27E1C08091582790915927843C96
S11351109F4F8CF4809158279091592740E050E09C
S113512066E974E4845D9E4F0E945E0A1092A9278A
S11351301092AA27C9C060915827709159278827CF
S113514077FD8095982F0E94AC3926E636E646EE28
S11351505FE30E94763B0E947939DC01CB0140E099
S113516050E066E174E40E945E0A809156279091B3
S1135170572799235CF4809156279091572791954E
S1135180819591094D970CF494C007C080915627DE
S1135190909157274D970CF48CC08091562790918D
S11351A057278091562790915727883791050CF0FF
S11351B08BC08091492581117CC086C0E0ECF7E06A
S11351C0808580FD07C068E270E08AE590E00E9477
S11351D0EA0B06C06EE170E08AE590E00E94EA0BFB
S11351E01092A9271092AA276FC080915C279091F2
S11351F05D27C4E9D1E17E01E81AF90AC090542779
S1135200D09055270091582710915927B70180E075
S113521090E00E94AA392AE939E949E15FE30E9452
S1135220763B4B015C01CC19DD09B7016C1B7D0B8E
S113523080E090E00E94AA392DEC3CEC4CE45EE363
S11352400E94763B9B01AC01C501B4010E94343835
S11352506B017C01B801882777FD8095982F0E9407
S1135260AC392AE939E949E95FE30E94763B0E94B7
S11352707939DC01CB01B701A6010E945E0A1092C4
S1135280A9271092AA2720C081E08093A62601CFE7
S11352908091582790915927CD970CF434CF22CF81
S11352A080915C2790915D278837910508F486CF1B
S11352B09CCF80915627909157279195819591097C
S11352C08093A9279093AA27DF91CF911F910F91E3
S11352D0FF90EF90DF90CF90BF90AF909F908F9012
S11352E008958F929F92AF92BF92CF92DF92EF92E6
S11352F0FF920F931F93CF93DF938091A32588236D
S113530009F432C180914925811105C08091952706
S1135310882309F4E3C081E08093A62640E050E0AE
S1135320BA0180E090E00E945E0A80919527811185
S11353303EC080914925882339F180910120813034
S113534021F090910020911104C082E08093952770
S11353505AC2833011F0933021F481E08093952771
S113536052C2209132273091332780913627909171
S113537037278217930720F481E08093952743C24F
S113538082E0809395273FC22091322730913327C2
S113539080913627909137278217930720F481E074
S11353A08093952730C282E0809395272CC2809108
S11353B09527813021F080919527823091F5809155
S11353C09527813019F486E09FEF02C08AEF90E0C0
S11353D08093962790939727809191279091922775
S11353E099236CF4809191279091922791958195BE
S11353F0910921E08F3691055CF420E009C0809189
S113540091279091922721E08F3691050CF420E0AA
S1135410222309F4F8C1809195278E5F8093952704
S1135420F2C180919527833029F0809195278430AB
S113543009F0E9C180919527833019F484E29AEF49
S113544002C08CED95E080939627909397278091E6
S113545091279091922799236CF4809191279091B0
S1135460922791958195910921E0843691055CF00C
S113547020E009C0809191279091922721E0843601
S113548091050CF020E021110E94910F8091912749
S113549090919227992364F4809191279091922777
S11354A091958195910921E0449754F020E008C03A
S11354B0809191279091922721E044970CF020E06D
S11354C0222309F4A0C110929527109296271092D6
S11354D097271092A9271092AA2795C18091752128
S11354E090917621CD970CF459C1809175219091BA
S11354F07621883791050CF449C150C18091AB27BE
S11355009091AC2791958195910921E04E9754F0A3
S113551020E008C08091AB279091AC2721E04E9702
S11355200CF020E021110E94910F40E050E862EA63
S113553074E480E090E00E945E0A10929627109234
S1135540972761C140E050E066E174E48AE590E0A9
S11355500E945E0A58C140E050E066E174E48AE5C6
S113556090E00E945E0A4FC11092A62610929527E1
S1135570109296271092972780915627909157273B
S11355808A35910544F480915C2790915D2781369A
S1135590994008F018C180915C2790915D27893B60
S11355A09B4008F014C180915C2790915D27813F56
S11355B09A4008F414C1809158279091592799234F
S11355C05CF4809158279091592791958195910980
S11355D08D970CF4FCC003C18091582790915927F2
S11355E08D970CF4F4C0FBC08091582790915927F3
S11355F040E050E066E974E48C5291400E945E0AF7
S11356001092A9271092AA27FEC080915827909142
S11356105927843C9F4F8CF48091582790915927A7
S113562040E050E066E974E4845D9E4F0E945E0AA7
S11356301092A9271092AA27E6C06091582770916A
S11356405927882777FD8095982F0E94AC3926E644
S113565036E646EE5FE30E94763B0E947939DC0130
S1135660CB0140E050E066E174E40E945E0A809160
S113567056279091572799235CF48091562790914F
S113568057279195819591094D970CF4B1C007C0A6
S113569080915627909157274D970CF4A9C080917B
S11356A056279091572780915627909157278837EE
S11356B091050CF0A8C080914925811199C0A3C01F
S11356C0E0ECF7E0808580FD07C068E270E08AE5E1
S11356D090E00E94EA0B06C06EE170E08AE590E07B
S11356E00E94EA0B1092A9271092AA278CC08091DD
S11356F05C2790915D27C4E9D1E17E01E81AF90A9B
S1135700C0905427D09055270091582710915927BD
S1135710B70180E090E00E94AA392AE939E949E119
S11357205FE30E94763B4B015C01CC19DD09B701B4
S11357306C1B7D0B80E090E00E94AA392DEC3CECC0
S11357404CE45EE30E94763B9B01AC01C501B401CD
S11357500E9434386B017C01B801882777FD80955D
S1135760982F0E94AC392AE939E949E95FE30E949C
S1135770763B0E947939DC01CB01B701A6010E9476
S11357805E0A1092A9271092AA273DC08091AB27E8
S11357909091AC2799230CF0BDCEB0CE10929627F1
S11357A01092972740E050E862EA74E480E090E0C9
S11357B00E945E0A80917521909176218A35910527
S11357C00CF4C0CEC8CE81E08093A626E4CE8091AE
S11357D0582790915927CD970CF417CF05CF809176
S11357E05C2790915D278837910508F469CF7FCFB6
S11357F0809156279091572791958195910980938F
S1135800A9279093AA27DF91CF911F910F91FF9021
S1135810EF90DF90CF90BF90AF909F908F900895BE
S113582080915C2790915D27843C994058F46EE107
S113583070E08AE590E00E94EA0B1092A92710928A
S1135840AA2708958091752190917621CD970CF423
S113585069C08091752190917621883791050CF06B
S113586061C08091772190917821803591050CF465
S113587051C058C08091582790915927919581958E
S1135880910921E08A3591055CF020E009C08091FE
S113589058279091592721E08A3591050CF020E092
S11358A02223D9F06091582770915927882777FDD2
S11358B08095982F0E94AC392AE939E949E95FE3D8
S11358C00E94763B0E947939DC01CB0140E050E034
S11358D066E974E40E945E0A0895809158279091C5
S11358E05927181619068CF4809158279091592736
S11358F040E050E066E974E48C5291400E945E0AF4
S11359001092A9271092AA2708951092A9271092FD
S1135910AA270895809158279091592799230CF02C
S1135920B6CFA8CF6EE170E08AE590E00E94EA0B62
S113593008951092A9271092AA2740E050E0BA01D6
S113594080E090E00E945E0A0895A89597E188EDB2
S11359500FB6F894A89580933400909380000FBEFE
S1135960E0E5F0E083EC828380818860808382ECD0
S11359708583818183FFFDCFE0E5F0E08081806154
S1135980808388ED84BFE0E4F0E01182E0E5F0E09C
S1135990818184FFFDCF88ED84BF84E08093400043
S11359A02BE940EC60E974E08DE396E20E94620129
S11359B02BE940EC60EB74E084ED95E20E94620117
S11359C0C0ECD8E083E5888352E059831092200626
S11359D0A0E4B6E08BEB8C938BE8809360068FE8B1
S11359E0809380068BE98093A00620EE36E0F901CF
S11359F010828FEF8093000780E297E04CEFFC0168
S1135A004083E0ECF7E0108248E1408B418B428B0D
S1135A10438BF901468B28E0FC01258380E116962F
S1135A208C9316978EEF8B83E0E0FAE081E080831D
S1135A3083EF81838CED95E086A397A3E0E0F8E003
S1135A4085E0808383E1818380E197E286A397A345
S1135A5084EF91E080A791A715965C9380917800DC
S1135A6083FF08C081E0E0E0F7E0858388E080936D
S1135A70780031C08091780082FF08C082E0E0E0C5
S1135A80F7E0858384E08093780025C080917800D6
S1135A9085FF0AC0E0E0F7E081E0858382E085834A
S1135AA080E28093780017C08091780084FF04C05E
S1135AB080E1809378000FC08091780081FF04C05A
S1135AC082E08093780007C08091780080FF03C053
S1135AD081E080937800E0E4F8E037E030831182DD
S1135AE084E690E086A397A310A211A221E0268366
S1135AF0E0E0F9E0308311828FEF9FEF86A397A354
S1135B0010A211A22683E0E4F9E03083118286A377
S1135B1097A310A211A22683E0E0FBE03083118258
S1135B2086A397A310A211A22683E0E4FBE03083AE
S1135B30118286A397A310A211A2268380E090E08D
S1135B400E94EC3C282F392F2093A6273093A727B7
S1135B5080E590E00E94EC3C282F392F2093A62763
S1135B603093A7278091A6279091A72781319E4043
S1135B7024F01092A6271092A7270E94D607EE249D
S1135B80E39400E021E043E350E060EB7BE081EF4D
S1135B9096E20E94B50200E121E043E350E060EAAE
S1135BA079E085EC96E20E94B5020E94B910F8945F
S1135BB087E0E0EAF0E082837894E0EEF6E0808526
S1135BC082FF05C061E081ED95E20E94443685ECD8
S1135BD095E20E94713789EC95E20E9471378DEC51
S1135BE095E20E94713781ED95E20E94713785EC50
S1135BF095E20E9497378DEC95E20E949737E0EC8E
S1135C00F7E0808580FD41C080919F219091A02183
S1135C1080937E2790937F278091A1219091A22148
S1135C2080938027909381278091A3219091A42130
S1135C3080938227909383278091A5219091A62118
S1135C4080938427909385278091A7219091A82100
S1135C5080938627909387278091A9219091AA21E8
S1135C6080938827909389278091AB219091AC21D0
S1135C7080938A2790938B278091AD219091AE21B8
S1135C8080938C2790938D2740C080918F21909191
S1135C90902180937E2790937F27809191219091EA
S1135CA092218093802790938127809193219091D2
S1135CB094218093822790938327809195219091BA
S1135CC096218093842790938527809197219091A2
S1135CD0982180938627909387278091992190918A
S1135CE09A21809388279093892780919B21909172
