:100000000C942B010C94EB1D0C945F010C945F017C
:100010000C945F010C945F010C945F010C945F01E0
:100020000C945F010C945F010C945F010C945F01D0
:100030000C945F010C94281B0C945F010C945F01DD
:100040000C945F010C945F010C945F010C945F01B0
:100050000C9430110C945F010C945F010C945F01BF
:100060000C945F010C94DD0F0C945F010C945F0104
:100070000C945F010C945F010C945F010C945F0180
:100080000C945F010C945F010C94731C0C94D11CB4
:100090000C945F010C945F010C945F010C94980721
:1000A0000C945F010C945F010C945F010C942F1D64
:1000B0000C948D1D0C945F010C945F010C945F01F6
:1000C0000C945F010C945F010C945F010C945F0130
:1000D0000C945F010C945F010C945F010C945F0120
:1000E0000C945F010C945F010C945F010C945F0110
:1000F0000C945F010C9497030C94DA060C945F0146
:100100000C945F010C945F010C945F010C945F01EF
:100110000C945F010C945F010C945F010C943F07F9
:100120000C945F010C945F010C945F010C945F01CF
:100130000C945D1B0C94C71B0C945F010C945F0125
:100140000C945F010C945F010C945F010C94F21B02
:100150000C945F010C945F010C945F010C945F019F
:100160000C94071B0C94D21A0C945F010C945F0141
:100170000C945F010C945F010C945F010C945F017F
:100180000C945F010C945F010C945F010C945F016F
:100190000C945F010C945F010C945F010C945F015F
:1001A0000C945F010C945F010C945F010C94921B02
:1001B0000C941D1C0C945F010C945F010C945F0166
:1001C0000C945F010C945F010C94481C0C945F012B
:1001D0000C945F010C945F010C945F010C945F011F
:1001E0000C945F010C945F010C945F010C949D1AB8
:1001F0000C945F01BE1EE81E091F2A1F4B1F541FCF
:10020000541F541F541F541F7C1FC51F4F20E02034
:100210007121E3215522B022F92211241A247924D4
:10022000AA24BD24084AD73B3BCE016E84BCBFFD47
:10023000C12F3D6C74319ABD56833DDA3D00C77FB6
:1002400011BED9E4BB4C3E916BAAAABE000000804F
:100250003F00DE2EE52E11241FBECFEFDFE2DEBF12
:10026000CDBF18BE19BE1ABE1BBE14E2A0E0B0E29C
:10027000E0ECF1E700E00BBF02C007900D92A23F57
:10028000B107D9F71BBE27E2A2EFB4E201C01D926D
:10029000A23EB207E1F712E0C4E5D2E000E006C0FA
:1002A00022970109FE010BBF0E941C38C235D107FD
:1002B00080E00807A9F70E94D9280C94CE380C9446
:1002C0000000FC01608371834863DB0111964C934D
:1002D000A081B18115962C930190F081E02D81E0F1
:1002E000848308950F93213208F051C0013408F03F
:1002F00050C0FC01E959FF4F308131114CC0FC0165
:10030000E959FF4F31E03083FC01E859FF4F10827B
:10031000222371F0E42FF52F40E050E03191DC0111
:10032000A40FB51F13963C934F5F5F4F4217B0F376
:10033000DC0112966C931297FC01ED59FF4F20835C
:10034000AC59BF4F0C93DC01AB59BF4F1C92DC0181
:10035000AA59BF4F1C922081222349F0FC0122811F
:100360002E7F0190F081E02D268381E017C0FC01F3
:10037000EC59FF4F2081222381F0DC0112962C9151
:1003800012972160ED91FC91268381E007C080E007
:1003900005C080E003C080E001C081E00F910895B6
:1003A000FC01E959FF4F2081211125C0FC01E959C9
:1003B000FF4F21E02083FC01E859FF4F1082DC0150
:1003C00012966C93FC01ED59FF4F1082FC01EC5921
:1003D000FF4F1082FC01EB59FF4F1082FC01EA59DC
:1003E000FF4F1082FC0122812E7F0190F081E02DD1
:1003F000268381E0089580E00895DC01ED91FC9171
:100400001197248122FF05C0A859BF4F34E03C93C7
:1004100005C0DC01A859BF4F33E03C93286024831A
:10042000FC01E959FF4F10820895FC01E859FF4F84
:100430006083FC01E959FF4F10820895CF93DF9349
:10044000EC01FC01EA59FF4F8081803480F4E8819F
:10045000F9818781FE01EA59FF4F9081DE01A90FE2
:10046000B11D93968C9380818F5F808308C0E88153
:10047000F98183E0838362E0CE010E941502FE01D0
:10048000EC59FF4F9081FE01EA59FF4F8081891797
:1004900028F4E881F98182E0838308C0E881F9814A
:1004A00087E0838361E0CE010E941502DF91CF9146
:1004B0000895CF93DF93FC01ED59FF4F3081FC018C
:1004C000EC59FF4F4081DC01ED91FC91248124FF28
:1004D0000CC023E02383FC01E859FF4F25E0208373
:1004E000FC01E959FF4F108224C0DC01AB59BF4F1A
:1004F0002C91231768F4DC01AB59BF4F2C91EC0110
:10050000C20FD11D8B8187838C918F5F8C9311C01B
:10051000DC01AA59BF4F2C91241730F4DC0112964C
:100520008C918160868305C023E0238361E00E9473
:100530001502DF91CF910895DC01ED91FC912481AA
:10054000322F3C7019F00E94FD01089526FF03C070
:100550000E945902089522231CF40E941E0208954D
:1005600066E00E9415020895EF920F93CF93DF93F8
:10057000FC01DB01EE2009F457C0603A88E07807FF
:1005800039F4C0E4D6E088E0898384E08A834CC0F3
:10059000603B88E0780739F4C0E4D6E080E88983DE
:1005A00080E48A8341C0603A89E0780739F4C0E684
:1005B000D6E088E0898384E08A8336C0603B89E0A6
:1005C000780739F4C0E6D6E080E8898380E48A833E
:1005D0002BC0603A8AE0780739F4C0E8D6E088E0BA
:1005E000898384E08A8320C0603B8AE0780739F4FD
:1005F000C0E8D6E080E8898380E48A8315C0603A49
:100600008BE0780739F4C0EAD6E088E0898384E09B
:100610008A830AC0603B8BE0780731F4C0EAD6E0F9
:1006200080E8898380E48A83A083B183228315A232
:1006300016A213A214A211A612A617A210A683E056
:1006400015968C931597007313960C931397552357
:1006500074F414968C911497846014968C93149768
:100660005F7716964C93169717965C9305C016966F
:100670004C93169717965C93A081B18114968C9138
:100680001497806114968C930190F081E02D848101
:1006900088608483DF91CF910F91EF900895FC01E2
:1006A00087A190A521A532A58F5F982F9F7081E02B
:1006B000921301C080E08823C1F027A130A5332721
:1006C000DF01A20FB31F53966C932F5F3F4F2F7024
:1006D000332727A330A7A081B18113969C9113974C
:1006E0009C7F2281922B13969C930895FC0181A5F7
:1006F00092A527A130A599272817390739F4019029
:10070000F081E02D83818C7F83830895A1A5B2A51C
:10071000AE0FBF1F53968C91A081B1818C9381A5A0
:1007200092A501968F70992781A792A708951F928D
:100730000F920FB60F92112408B60F9218BE09B689
:100740000F9219BE0AB60F921ABE0BB60F921BBEBD
:100750001F932F933F934F935F936F937F938F9349
:100760009F93AF93BF93CF93DF93EF93FF93E0916A
:100770001D25F0911E2540818091F7248230D1F112
:1007800030F4882359F0813009F075C01DC08330E2
:1007900009F446C0843009F06EC058C080E090E093
:1007A000642F70E09B01082E02C0359527950A94AE
:1007B000E2F721703327FC01E350FB4D20830196C3
:1007C0008630910579F757C080E090E0642F70E0A3
:1007D0009B01082E02C0359527950A94E2F72170F7
:1007E0003327FC01ED5FFA4D208301968730910598
:1007F00079F741C080E090E0642F70E09B01082E03
:1008000002C0359527950A94E2F721703327FC0141
:10081000E65FFA4D208301968630910579F72BC06B
:1008200080E090E0642F70E09B01082E02C03595B7
:1008300027950A94E2F721703327FC01E05FFA4D17
:10084000208301968730910579F715C080E090E00C
:10085000642F70E09B01082E02C0359527950A94FD
:10086000E2F721703327FC01E95EFA4D20830196FF
:100870008630910579F78091F72481110DC0842F7E
:1008800090E0082E892F000C881F990B000C881F00
:10089000991F029709F072C28091F724843009F001
:1008A00048C2842F90E0082E892F000C881F990BD6
:1008B000000C881F991F039709F060C23AC210927A
:1008C000F72480E090E0A0E0FC01E350FB4D2081A4
:1008D000222311F0A16001C0A2600196803291052F
:1008E00099F7A13009F43DC2A23009F43CC2A3300B
:1008F00019F0A11102C038C2A1E061E070E020E06F
:1009000030E0D0E010E0C22FF901E350FB4D8081D0
:10091000811129C0F9013197EF71FF27E350FB4D99
:10092000808181110FC21FC0FB01EF71FF27E350CF
:10093000FB4D8081882351F0B1E011C0EF71F0E0F0
:10094000E350FB4D8081882311F009C0B1E0BF5F07
:10095000EC2FEB0F8E2F90E0841795077CF3DB17BD
:1009600010F4DB2F1C2F2F5F3F4F6F5F7F4F203224
:10097000310549F62D2F210F21502F71211710F02D
:10098000812F02C0822F212F30E090E0A901481B67
:10099000590B4131510544F0820F931F959587956E
:1009A000805F482F4F71D7C1820F931F9595879510
:1009B000482FD1C128E631E0429FC001439F900DEE
:1009C00011248C549F4F959587959595879595956E
:1009D0008795959587959595879591958195910999
:1009E0008093FB249093FC248091FB249091FC2421
:1009F0008C349F4F54F48091FB249091FC248859AF
:100A00009E4F8093FB249093FC2482E08093FA24F1
:100A10002091FB243091FC248091A6279091A72758
:100A2000820F931F853B91051CF08856914006C0AC
:100A30008C344FEF940714F488599E4FAC019C01FD
:100A4000245D3F4F2935310518F41092F82419C060
:100A50008D978B35910520F483E08093F82411C0A5
:100A6000CA0189579F4F8F3051E0950720F082E0EF
:100A70008093F82406C08B35910518F481E08093AB
:100A8000F8248091F8248093F92445C19091FA24A8
:100A9000943019F4A1116EC102C0A1110CC0809153
:100AA000FA24823029F41092FA241092F82403C018
:100AB00084E08093FA249091FA24992309F42BC1BD
:100AC0008091FA24843009F058C04091F82428E637
:100AD00031E0429FC001439F900D11249595879569
:100AE000959587959195819591098093FB24909395
:100AF000FC248091FB249091FC248C349F4F54F46F
:100B00008091FB249091FC2488599E4F8093FB2474
:100B10009093FC242091A6273091A7278091FB2455
:100B20009091FC24821B930B8093FB249093FC24D4
:100B30008091FB249091FC248C349F4F5CF4809135
:100B4000FB249091FC2488599E4F8093FB24909322
:100B5000FC24E1C08091FB249091FC24853B91050D
:100B60000CF4D9C08091FB249091FC2488569140CC
:100B70008093FB249093FC24CEC088E691E0489FAC
:100B80009001499F300D11242C543F4F35952795E6
:100B9000359527953595279535952795359527953D
:100BA00088279927821B930B8C345FEF950724F4D9
:100BB00088E691E0821B930B2091A6273091A7270E
:100BC000280F391F2C344FEF34071CF428593E4F9F
:100BD00005C0253B310514F028563140B901A90163
:100BE000445D5F4F4935510590F02D5231092B3549
:100BF000310578F09B0129573F4F2F3051E03507E1
:100C000050F461E02B35310538F060E005C060E05C
:100C100003C063E001C062E0262F30E02E5F3F4F4B
:100C2000237033274091F82450E02417350731F022
:100C30004091F92450E024173507D9F48C549F4F84
:100C40008093FB249093FC248091FB249091FC24BE
:100C5000853B910554F08091FB249091FC248856AB
:100C600091408093FB249093FC2483E08093FA24AA
:100C700052C022E02093FA242091F824621709F44C
:100C800046C02091FB243091FC24281B390B62F0D4
:100C90002091FB243091FC24281B390B41E02B359B
:100CA00031057CF440E00DC02091FB243091FC2400
:100CB000AC01421B530B9A0141E02B3531050CF47A
:100CC00040E04423E9F08C549F4F8093FB249093A1
:100CD000FC248091FB249091FC24853B910554F0E9
:100CE0008091FB249091FC24885691408093FB24B2
:100CF0009093FC24862F8E5F83708093F8240BC022
:100D00008093FB249093FC246093F82404C0809388
:100D1000FB249093FC248091F6248F5F8093F6242B
:100D200085FF2CC088ED84BF81E0E8E7F0E0818397
:100D300025C08091F7248F5F8093F724853008F0D9
:100D4000BECD1CC0A901405E5F4F641775070CF44F
:100D5000EBCDB1E004CE8091FA24882309F42ACEA9
:100D600095CEA0E001C0A0E08091FA24882399F2FA
:100D700040E08CCE83E08093FA249DCEFF91EF91EA
:100D8000DF91CF91BF91AF919F918F917F916F91A3
:100D90005F914F913F912F911F910F900BBE0F903C
:100DA0000ABE0F9009BE0F9008BE0F900FBE0F90A5
:100DB0001F9018951F920F920FB60F92112408B62C
:100DC0000F9218BE09B60F9219BE0BB60F921BBE3A
:100DD0002F933F934F935F936F937F938F939F9343
:100DE000AF93BF93EF93FF938DE195E20E9476035B
:100DF000FF91EF91BF91AF919F918F917F916F91F3
:100E00005F914F913F912F910F900BBE0F9009BEB4
:100E10000F9008BE0F900FBE0F901F901895EF9285
:100E20000F93EE24E39400E322E049E150E060EB0D
:100E30007AE08DE195E20E94B4020F91EF9008955F
:100E4000811108C060E08DE195E20E944F0310928D
:100E500048250895909148259F5F909348259630A6
:100E600068F0813031F46AEA8DE195E20E944F0327
:100E7000089565E58DE195E20E944F0308951F9264
:100E80000F920FB60F92112408B60F9218BE09B632
:100E90000F9219BE0AB60F921ABE0BB60F921BBE66
:100EA0002F933F938F939F93AF93BF93CF93DF93F2
:100EB000EF93FF93A0918F27B0E0E0E0F2E084A1F0
:100EC00095A1C0918F27D0E0CC0FDD1FC158D84D20
:100ED00028813981821B930BAA0FBB1FA159B84DE2
:100EE0008D939C9380918F278F5F877080938F273E
:100EF00080918F27880F880F880F81A380A1806839
:100F000080A3FF91EF91DF91CF91BF91AF919F911E
:100F10008F913F912F910F900BBE0F900ABE0F90B3
:100F200009BE0F9008BE0F900FBE0F901F9018952E
:100F30001F920F920FB60F92112408B60F9218BE8F
:100F40000F9008BE0F900FBE0F901F901895AAEC3F
:100F5000B1E022E02C93FC0184911C9290E0089572
:100F6000CF93DF9380E290E00E94A707C0E0D2E039
:100F70008C8781E290E00E94A7078D8780E290E055
:100F80000E94A7078C8781E290E00E94A7078D87C7
:100F900081E088A319A2198296E09C8390E39A834A
:100FA0001B829FE09E838AA3888388A1806888A390
:100FB000DF91CF910895AB01772324F4442755277F
:100FC000461B570B242F352F2D3D95E0390710F088
:100FD0002CED35E01616170694F440E150E0082E8B
:100FE00002C0440F551F0A94E2F7E0E2F7E04583A0
:100FF0004CED55E0BA01621B730B9B010BC040E145
:1010000050E0082E02C0440F551F0A94E2F7E0E2B8
:10101000F7E04683811105C0E0E0FAE020A731A7A0
:101020000895813029F4E0E0FAE022A733A708957B
:10103000823029F4E0E0FAE024A735A70895E0E043
:10104000FAE026A737A708952F923F924F925F921A
:101050006F927F928F929F92AF92BF92CF92DF92C8
:10106000EF92FF920F931F93CF93DF93CDB7DEB72D
:10107000A697CDBFDEBF1C0180E1E5EAF1E2DE010B
:10108000519601900D928A95E1F780E1E5EBF1E24E
:10109000DE01119601900D928A95E1F7CE014196FD
:1010A0008BA39CA3FE013196E9A3FAA300E010E014
:1010B0002DA23EA25101FAE5AF0EB11C2A013B015F
:1010C00004C18DA19EA188599E4FEAF3893621E083
:1010D000920734F0885691408936E1E09E07D4F7B4
:1010E0008A35910564F4FC01EE0FFF1FEE0FFF1F20
:1010F000E85FFF4D208131814281538136C0843BBE
:1011000091057CF4E4EBF0E0E81BF90BEE0FFF1F18
:10111000EE0FFF1FE85FFF4D208131814281538137
:1011200024C08E30F1E09F077CF4FC01EE0FFF1F1E
:10113000EE0FFF1FE85CF24E80819181A281B381A6
:101140009C01AD01505811C0E8E6F1E0E81BF90B35
:10115000EE0FFF1FEE0FFF1FE85FFF4D80819181B3
:10116000A281B3819C01AD0150587801E9A1FAA197
:101170006191719181919191E9A3FAA30E942B371A
:10118000A30192010E942B37862E972EC82ED92EAE
:10119000C501BB201CF488599E4FEAF38936F1E063
:1011A0009F0734F088569140893621E09207D4F7A2
:1011B0008A35910564F4FC01EE0FFF1FEE0FFF1F4F
:1011C000E85FFF4D208131814281538136C0843BED
:1011D00091057CF4E4EBF0E0E81BF90BEE0FFF1F48
:1011E000EE0FFF1FE85FFF4D208131814281538167
:1011F00024C08E30E1E09E077CF4FC01EE0FFF1F5F
:10120000EE0FFF1FE85CF24E80819181A281B381D5
:101210009C01AD01505811C0E8E6F1E0E81BF90B64
:10122000EE0FFF1FEE0FFF1FE85FFF4D80819181E2
:10123000A281B3819C01AD015058EBA1FCA1619149
:10124000719181919191EBA3FCA30E942B37A30193
:1012500092010E942B379B01AC01682D792D8C2DBA
:101260009D2D0E94E933862E972EC82ED92E20E080
:1012700030E0A9010E94893618166CF420E030E0B5
:1012800040E05FE3682D792D8C2D9D2D0E94E93380
:101290000E949C350CC020E030E040E05FE3682D08
:1012A000792D8C2D9D2D0E94E8330E94AF340E9431
:1012B0002E35F701EE0FFF1FE655F84D6083718361
:1012C0000F5F1F4F0430110531F033200CF4F9CEBD
:1012D0008DA19EA1FBCEA696CDBFDEBFDF91CF91A3
:1012E0001F910F91FF90EF90DF90CF90BF90AF9044
:1012F0009F908F907F906F905F904F903F902F9036
:1013000008952F923F924F925F926F927F928F92A9
:101310009F92AF92BF92CF92DF92EF92FF920F9384
:101320001F93CF93DF93CDB7DEB7A697CDBFDEBFB8
:101330008C016A017B0180E1E5EAF1E2DE01519670
:1013400001900D928A95E1F780E1E5EBF1E2DE0193
:10135000119601900D928A95E1F7053B11052CF04D
:1013600008561140053B1105DCF70C342FEF12072E
:101370000CF013C108591E4F0C348FEF1807D4F32B
:101380000CC18DA19EA188599E4FEAF38936E1E0F8
:101390009E0734F0885691408936F1E09F07D4F7D4
:1013A0008A35910564F4FC01EE0FFF1FEE0FFF1F5D
:1013B000E85FFF4D208131814281538136C0843BFB
:1013C00091057CF4E4EBF0E0E81BF90BEE0FFF1F56
:1013D000EE0FFF1FE85FFF4D208131814281538175
:1013E00024C08E3021E092077CF4FC01EE0FFF1F39
:1013F000EE0FFF1FE85CF24E80819181A281B381E4
:101400009C01AD01505811C0E8E6F1E0E81BF90B72
:10141000EE0FFF1FEE0FFF1FE85FFF4D80819181F0
:10142000A281B3819C01AD0150587501E9A1FAA1D7
:101430006191719181919191E9A3FAA30E942B3757
:10144000A30192010E942B37862E972EC82ED92EEB
:10145000C10133201CF488599E4FEAF38936F1E02C
:101460009F0734F088569140893621E09207D4F7DF
:101470008A35910564F4FC01EE0FFF1FEE0FFF1F8C
:10148000E85FFF4D208131814281538136C0843B2A
:1014900091057CF4E4EBF0E0E81BF90BEE0FFF1F85
:1014A000EE0FFF1FE85FFF4D2081318142815381A4
:1014B00024C08E30E1E09E077CF4FC01EE0FFF1F9C
:1014C000EE0FFF1FE85CF24E80819181A281B38113
:1014D0009C01AD01505811C0E8E6F1E0E81BF90BA2
:1014E000EE0FFF1FEE0FFF1FE85FFF4D8081918120
:1014F000A281B3819C01AD015058EBA1FCA1619187
:10150000719181919191EBA3FCA30E942B37A301D0
:1015100092010E942B379B01AC01682D792D8C2DF7
:101520009D2D0E94E933862E972EC82ED92E20E0BD
:1015300030E0A9010E94893618166CF420E030E0F2
:1015400040E05FE3682D792D8C2D9D2D0E94E933BD
:101550000E949C350CC020E030E040E05FE3682D45
:10156000792D8C2D9D2D0E94E8330E94AF340E946E
:101570002E35F701EE0FFF1FE655F84D608371839E
:10158000FFEFAF1ABF0A24E0A216B104C9F011237D
:101590000CF4F7CE8DA19EA1F9CECE0141968BA37E
:1015A0009CA3FE013196E9A3FAA3A12CB12C0DA3B3
:1015B0001EA31801FAE52F0E311C26013701E7CFD3
:1015C000A696CDBFDEBFDF91CF911F910F91FF9007
:1015D000EF90DF90CF90BF90AF909F908F907F90D3
:1015E0006F905F904F903F902F9008952F923F9271
:1015F0004F925F926F927F928F929F92AF92BF9223
:10160000CF92DF92EF92FF920F931F93CF93DF93CE
:10161000CDB7DEB7A897CDBFDEBF5C016B0180E11F
:10162000E5ECF1E2DE01519601900D928A95E1F729
:1016300080E1E5EBF1E2DE01119601900D928A95D1
:10164000E1F7E0907421F0907521EA18FB08009111
:10165000762110917721061B170B8091B22790916C
:101660004925981709F445C160917421709175213D
:101670006A197B09882777FD8095982F0E9461352C
:101680002DEC3CEC4CE45BE30E942B3720914A2587
:1016900030914B2540914C2550914D250E94E933C6
:1016A000662E772E882E992E20E030E048EC52E40A
:1016B0000E94893618166CF480E090E0A8ECB2E441
:1016C00080934A2590934B25A0934C25B0934D25AC
:1016D00025C020E030E048EC52EC662D772D882DB7
:1016E000992D0E94C23488236CF0862D972DA82D49
:1016F000B92D80934A2590934B25A0934C25B09308
:101700004D250CC080E090E0A8ECB2EC80934A2517
:1017100090934B25A0934C25B0934D256091742157
:10172000709175216A197B09882777FD8095982F1C
:101730000E94613520914A2530914B2540914C25DE
:1017400050914D250E942B3720E030E0A9010E94E6
:10175000C234181644F010924A2510924B2510926C
:101760004C2510924D2560917621709177216C194E
:101770007D09882777FD8095982F0E9461352DEC93
:101780003CEC4CE45BE30E942B3720914E253091DA
:101790004F2540915025509151250E94E933862EC6
:1017A000972EA82EB92E20E030E048EC52E40E949B
:1017B000893618166CF480E090E0A8ECB2E48093CF
:1017C0004E2590934F25A0935025B093512525C0C9
:1017D00020E030E048EC52EC682D792D8A2D9B2DCD
:1017E0000E94C23488236CF0882D992DAA2DBB2D20
:1017F00080934E2590934F25A0935025B09351256B
:101800000CC080E090E0A8ECB2EC80934E25909361
:101810004F25A0935025B09351256091762170916A
:1018200077216C197D09882777FD8095982F0E9474
:10183000613520914E2530914F2540915025509192
:1018400051250E942B3720E030E0A9010E94C234CC
:10185000181644F010924E2510924F2510925025E4
:10186000109251258091022090910320B701681BAE
:10187000790B882777FD8095982F0E94613520E0AD
:1018800030E040E852E40E942B3720E030E040EAAC
:1018900050E40E942B37462E572E882E992E809189
:1018A000042090910520B801681B790B882777FDEB
:1018B0008095982F0E94613520E030E040E852E4A6
:1018C0000E942B3720E030E040EA50E40E942B37A2
:1018D000662E772EA82EB92EE0920220F0920320D9
:1018E00000930420109305208091B227809349250E
:1018F00008C0612C712CA12CB12C412C512C812CB5
:10190000912CB701882777FD8095982F0E9461352B
:1019100020E030E040E451E40E942B376B017C0171
:1019200020E030E040E850E460914A2570914B257A
:1019300080914C2590914D250E942B379B01AC0145
:10194000C701B6010E94E9336B017C012DEC3CEC30
:101950004CE45EE3642D752D882D992D0E942B3764
:101960009B01AC01C701B6010E94E933262E372E38
:10197000882E992EB801882777FD8095982F0E9490
:10198000613520E030E040E451E40E942B376B01E8
:101990007C0120E030E040E850E460914E257091F9
:1019A0004F2580915025909151250E942B379B0106
:1019B000AC01C701B6010E94E9336B017C012DEC3B
:1019C0003CEC4CE45EE3662D772D8A2D9B2D0E9426
:1019D0002B379B01AC01C701B6010E94E9336DA30F
:1019E0007EA38FA398A7CE0101968BA39CA3FE0193
:1019F0007196E9A3FAA300E010E05801EBA1FCA165
:101A00002191319141915191EBA3FCA3E9A1FAA15C
:101A10004190519061907190E9A3FAA3622D732DCA
:101A2000882D992D0E942B376B017C01A301920117
:101A3000BDA1AEA1FFA1E8A56B2F7A2F8F2F9E2FFE
:101A40000E942B379B01AC01C701B6010E94E9330C
:101A5000C62ED72EE82EF92E20E030E0A9010E94F4
:101A6000893618166CF420E030E040E05FE36C2D1E
:101A70007D2D8E2D9F2D0E94E9330E949C350CC038
:101A800020E030E040E05FE36C2D7D2D8E2D9F2D1A
:101A90000E94E8330E94AF340E942E35F501EE0F0C
:101AA000FF1FE655F84D608371830F5F1F4F0430B1
:101AB000110509F0A2CF80E090E060E070E09C01A9
:101AC000FC01EE0FFF1FE655F84D40815181552373
:101AD00044F0FC01EE0FFF1FE655F84D40815181A7
:101AE0000AC0FC01EE0FFF1FE655F84D4081518101
:101AF00051954195510964177507DCF4F901EE0F12
:101B0000FF1FE655F84D40815181552344F0F901FE
:101B1000EE0FFF1FE655F84D608171810AC0F90193
:101B2000EE0FFF1FE655F84D60817181719561954B
:101B3000710901968430910511F6613BF4E07F074D
:101B40000CF45BC0882777FD8095982F0E94613543
:101B50009B01AC0160E070E086E994E40E94C63429
:101B6000A62EB72EC82ED92E00E010E07801F8017D
:101B7000EE0FFF1FE655F84D60817181882777FDD4
:101B80008095982F0E9461352A2D3B2D4C2D5D2D7F
:101B90000E942B37662E772E882E992E20E030E07B
:101BA000A9010E94893618166CF420E030E040E06C
:101BB0005FE3662D772D882D992D0E94E9330E94D1
:101BC0009C350CC020E030E040E05FE3662D772DCF
:101BD000882D992D0E94E8330E94AF340E942E3543
:101BE000F701EE0FFF1FE655F84D608371830F5F1D
:101BF0001F4F0430110509F0B9CFA896CDBFDEBF45
:101C0000DF91CF911F910F91FF90EF90DF90CF90D8
:101C1000BF90AF909F908F907F906F905F904F900C
:101C20003F902F9008958F929F92AF92BF920F9303
:101C30001F93CF93DF93BC01A8958730910558F08F
:101C400020E43CE9C9010197F1F766507109A895B4
:101C500067307105B8F780E090E00E945F354B0176
:101C60005C0120E030E04AEF55E40E942B37062F5C
:101C7000172FD82FC92F20E030E040E85FE30E9403
:101C8000C23488234CF120E03FEF4FE757E4602F48
:101C9000712F8D2F9C2F0E9489361816B4F420E0E6
:101CA00030E040E251E4C501B4010E942B370E94AC
:101CB000333561157105A9F020E233E0C9010197C0
:101CC000F1F761507109D1F70CC0602F712F8D2F82
:101CD0009C2F0E94333502C061E070E0CB01019778
:101CE000F1F7A895DF91CF911F910F91BF90AF9021
:101CF0009F908F9008959091572591111BC081114D
:101D00000FC08091542581110BC014C084EF91E065
:101D1000E0E0F8E080A791A781E080930720089594
:101D200088EE93E0E0E0F8E080A791A787E0809359
:101D300007200895809107208150809307208823F1
:101D400029F308951F93CF93DF9380910620882372
:101D500031F181E08093572540E050E06AE774E478
:101D600080E090E00E94240884E690E00E94130E38
:101D7000C0E2D7E014E01D8384E690E00E94130ED9
:101D80001E8310925225109253258EEF9FEF809361
:101D90005327909354271092062010925725DF91D5
:101DA000CF911F9108951F93CF93DF9380910620C9
:101DB000882379F0C0E2D7E014E01D838FE090E043
:101DC0000E94130E1E8310925225109253251092DA
:101DD0000620DF91CF911F910895809106208111F7
:101DE00013C08091552590915625019680935525D5
:101DF000909356258F3F910538F0109255251092FB
:101E0000562581E0809306200895E0E2F7E0808582
:101E100081FD2FC080915225909153250B97C8F0DA
:101E200081E08093542588E0E0E0F7E085838091AD
:101E30005225909153258436910508F046C0809133
:101E400052259091532501968093522590935325C6
:101E500008951092542588E0E0E0F7E086838091B1
:101E600052259091532501968093522590935325A6
:101E7000089580915225909153250B9788F081E029
:101E80008093542588E0E0E0F7E085838091522537
:101E9000909153250197809352259093532508954F
:101EA0001092542588E0E0E0F7E086838091522587
:101EB00090915325892B49F080915225909153257B
:101EC0000197809352259093532508958130910571
:101ED000E9F56F3F7F4F09F05EC046EC63E875E2BD
:101EE00080E895E20E94B63142EE63E875E284E74D
:101EF00095E20E941F3344EE63E875E288E795E2BD
:101F00000E941F3346EE63E875E28CE795E20E947B
:101F10001F3340E56CEE75E280E795E20E94EC2EFF
:101F20004EEC63E875E28CE695E20E94123348EAD3
:101F300063E875E28CE595E20E94193340EC6CEEA3
:101F400075E288E595E20E94AF310895892B19F575
:101F50006F3F7F4F01F588E595E20E94B5318CE532
:101F600095E20E941E338CE695E20E94183380E7CA
:101F700095E20E94F22E8CE795E20E94253388E7D5
:101F800095E20E94253384E795E20E94253380E89C
:101F900095E20E94BB310895EF920F93EE24E394F3
:101FA00000E221E04FEC50E060EA78E086EB97E257
:101FB0000E94B4020F91EF9008951F920F920FB6F6
:101FC0000F92112408B60F9218BE09B60F9219BECF
:101FD0000AB60F921ABE0BB60F921BBE2F933F93F9
:101FE0004F935F936F937F938F939F93AF93BF9321
:101FF000CF93DF93EF93FF93E091B627F091B7274C
:1020000040818091B527873009F462C068F483303D
:1020100039F120F4813021F148F51CC0853009F4F4
:1020200042C008F04DC036C08B3009F47BC030F49C
:10203000893009F462C008F06DC057C08D3009F4D2
:1020400086C008F47CC08E3009F48EC08F3009F051
:10205000E7C092C0453509F4E3C01092B527E5C04A
:102060004A3A09F4DDC01092B527DFC0453531F496
:10207000E091B327F091B42712860CC0463539F4AD
:10208000E091B327F091B42781E0828703C01092DA
:10209000B527CBC0E091B327F091B427842F90E00F
:1020A00083879487BDC0E091B327F091B42723853F
:1020B0003485942F80E0822B932B83879487B0C044
:1020C000E091B327F091B42750E040875187A8C032
:1020D000E091B327F091B42720853185942F80E0DB
:1020E000822B932B808791879BC0E091B327F0913F
:1020F000B42750E04483558393C0E091B327F09117
:10210000B42724813581942F80E0822B932B848304
:10211000958386C0E091B327F091B42750E04683C1
:1021200057837EC0E091B327F091B4272681378191
:10213000942F80E0822B932B8683978371C0E0914C
:10214000B327F091B42750E04083518369C0E091F8
:10215000B327F091B42720813181942F80E0822B26
:10216000932B808391835CC0E091B327F091B427D7
:1021700050E04283538354C0E091B327F091B427D9
:1021800022813381942F80E0822B932B828393834F
:1021900020813181C281D381A481B581668177811B
:1021A00040855185838594852C0F3D1F2A0F3B1F49
:1021B000260F371F240F351F2817390769F581E0CF
:1021C0008587248135818091A6279091A72740910A
:1021D000902750919127205A310912F42D5F3F4FDB
:1021E0003595279535952795820F931F9A01220FD4
:1021F000331F220F331F220F331F420F531F840F31
:10220000951F6AE070E00E94DA3760939027709320
:1022100091271092E12701C015861092B52705C0BD
:102220008091B5278F5F8093B527FF91EF91DF9164
:10223000CF91BF91AF919F918F917F916F915F915E
:102240004F913F912F910F900BBE0F900ABE0F90B0
:1022500009BE0F9008BE0F900FBE0F901F901895EB
:102260001F920F920FB60F92112408B60F9218BE4C
:1022700009B60F9219BE0AB60F921ABE0BB60F928C
:102280001BBE2F923F924F925F926F927F928F92DE
:102290009F92AF92BF92CF92DF92EF92FF920F93F5
:1022A0001F932F933F934F935F936F937F938F93DE
:1022B0009F93AF93BF93EF93FF93CF93DF93CDB7EC
:1022C000DEB72897CDBFDEBF8091B2278931C8F134
:1022D0001092B227E0EEF6E0808580FD37C0808561
:1022E00086FD17C08091A4218823B1F080E795E294
:1022F0000E941A308093A1279093A2276091A12772
:102300007091A22780E590E00E9486381092A42167
:1023100003C081E08093A42110925227109253278A
:1023200010925427E0EEF6E0808580FD06C080859F
:10233000829581700E94200709C080E00E942007DA
:1023400005C08091B2278F5F8093B2278091A62726
:102350009091A727853B91055CF08091A6279091ED
:10236000A727885691408093A6279093A72711C04E
:102370008091A6279091A7278C349F4F54F4809189
:10238000A6279091A72788599E4F8093A6279093C0
:10239000A7278091A6279091A727919581959109CC
:1023A0008093A6279093A7278091D9269091DA262B
:1023B0009C012F5F3F4F2093D9263093DA268D3D25
:1023C000954008F440C080915D2790915E27813F41
:1023D0009A4048F18091592790915A27992364F4A3
:1023E0008091592790915A279195819591098B3425
:1023F00091054CF080E01EC08091592790915A279A
:102400008B34910594F4E0EEF6E0808580FD0FC0FA
:1024100080913927833069F09091392781E091309C
:1024200049F080E007C080E005C080E003C081E0A3
:1024300001C081E00E947B0E80E496E08093D92663
:102440009093DA2630C08091D9269091DA269C01AB
:102450002F5F3F4F2093D9263093DA26893E934051
:1024600038F084EF91E0E0E0F8E080A791A71BC08E
:102470008091D9269091DA269C012F5F3F4F2093BF
:10248000D9263093DA26853F914038F088EE93E0E4
:10249000E0E0F8E080A791A706C084EF91E0E0E0DB
:1024A000F8E080A791A78091A3278F5F8093A3274F
:1024B000843008F45FC01092A32780919D279091EB
:1024C0009E2780939F279093A02780E795E20E9404
:1024D0006D31853009F045C080E4E0E0F7E08683A7
:1024E00080E795E20E941A302091A1273091A2271F
:1024F000821B930B8093A6279093A7278091A627F2
:102500009091A727853B91055CF08091A62790913B
:10251000A727885691408093A6279093A72711C09C
:102520008091A6279091A7278C349F4F54F48091D7
:10253000A6279091A72788599E4F8093A62790930E
:10254000A72780E795E20E942B318F3F29F480E88E
:10255000E0E0F7E0868388C780E8E0E0F7E0858385
:1025600083C780E795E20E94F32E80E4E0E0F7E085
:1025700085837AC7813009F0D8C2E0EEF6E0808525
:1025800085FF03C08CE291E002C080ED97E02091CE
:102590006F27309170272817390790F52091712700
:1025A000309172272817390758F5209173273091F9
:1025B00074272817390720F5209175273091762741
:1025C00028173907E8F420917727309178272817C2
:1025D0003907B0F42091792730917A2728173907E5
:1025E00078F420917B2730917C272817390740F415
:1025F00020917D2730917E272817390708F44BC793
:102600000F2EF2EECF2EF4E2DF2EF02DE12CF12C86
:10261000212C312C412C512C612C712C812C912C92
:102620005701F701EE0FFF1FE159F84D60817181ED
:1026300080E090E00E945F35F60130812181F2E078
:10264000CF0ED11C032F122F11232CF498012859DF
:102650003E4FEAF301C09801293641E0340734F0D7
:10266000285631402936E1E03E07D4F72A353105B6
:1026700064F4F901EE0FFF1FEE0FFF1FE85FFF4D3F
:10268000208131814281538132C0243B31057CF469
:10269000E4EBF0E0E21BF30BEE0FFF1FEE0FFF1F6A
:1026A000E85FFF4D208131814281538120C02E306F
:1026B000F1E03F076CF4F901EE0FFF1FEE0FFF1F73
:1026C000E85CF24E208131814281538150580FC025
:1026D000E8E6F1E0E21BF30BEE0FFF1FEE0FFF1F2A
:1026E000E85FFF4D208131814281538150580E9423
:1026F0002B379B01AC01662D772D882D992D0E94DB
:10270000E933662E772E882E992EF501EE0FFF1FE6
:10271000E159F84D6081718180E090E00E945F3561
:10272000065A1F4F1AF408591E4FEAF3093621E0E2
:10273000120734F008561140093631E01307D4F778
:102740000A35110564F4F801EE0FFF1FEE0FFF1FAD
:10275000E85FFF4D208131814281538136C0043BC7
:1027600011057CF4E4EBF0E0E01BF10BEE0FFF1F32
:10277000EE0FFF1FE85FFF4D2081318142815381C1
:1027800024C00E3041E014077CF4F801EE0FFF1F67
:10279000EE0FFF1FE85CF24E008111812281338130
:1027A000A9019801505811C0E8E6F1E0E01BF10BD7
:1027B000EE0FFF1FEE0FFF1FE85FFF4D008111813D
:1027C00022813381A901980150580E942B379B0127
:1027D000AC01622D732D842D952D0E94E933262E98
:1027E000372E482E592E8FEFE81AF80AE8E0EE1639
:1027F000F10409F015CF262D372D482D592D622DC6
:10280000732D842D952D0E945C3420E030E044E34C
:1028100053E40E942B372BED3FE049E450E40E9443
:10282000C6340E942E356093592770935A27E0ECE6
:10283000F7E0808580FD0AC08091592790915A2742
:102840000A968093592790935A2719C08091592747
:1028500090915A2748968093592790935A278091B0
:10286000592790915A27181619064CF48091592728
:1028700090915A270A978093592790935A278091CD
:10288000592790915A278D349F4F5CF48091592796
:1028900090915A2788599E4F8093592790935A2791
:1028A00011C08091592790915A27853B910554F08A
:1028B0008091592790915A278856914080935927A3
:1028C00090935A27222D332D442D552D662D772D8B
:1028D000882D992D0E9496366B017C0120E030E016
:1028E000A9010E94893618165CF420E030E040E02F
:1028F0005FE3C701B6010E94E9330E949C350AC01C
:1029000020E030E040E05FE3C701B6010E94E83319
:102910000E94AF340E94333560935D2770935E2729
:102920000091592710915A2760915D2770915E2779
:1029300080E090E00E945F356B017C01000F111F69
:10294000000F111F065A1F4F1AF408591E4FEAF3C1
:10295000093621E0120734F008561140093631E0FB
:102960001307D4F70A35110564F4F801EE0FFF1FC1
:10297000EE0FFF1FE85FFF4D2081318142815381BF
:1029800036C0043B11057CF4E4EBF0E0E01BF10BF6
:10299000EE0FFF1FEE0FFF1FE85FFF4D208131811B
:1029A0004281538124C00E3041E014077CF4F801C9
:1029B000EE0FFF1FEE0FFF1FE85CF24E808191814A
:1029C000A281B3819C01AD01505811C0E8E6F1E04D
:1029D000E01BF10BEE0FFF1FEE0FFF1FE85FFF4D37
:1029E00080819181A281B3819C01AD01505860E04A
:1029F00070E080E191E40E94E8339B01AC01C701E3
:102A0000B6010E942B3720E030E040E05EE30E94F8
:102A10002B37E62EF72E082F192F20E030E0A901E2
:102A20000E94893618166CF420E030E040E05FE345
:102A30006E2D7F2D802F912F0E94E9330E949C35AF
:102A40000CC020E030E040E05FE36E2D7F2D802F52
:102A5000912F0E94E8330E94AF340E943335609377
:102A60005B2770935C2780915327909154279C019A
:102A70002F5F3F4F2093532730935427803491404A
:102A800008F041C080915D2790915E278039914088
:102A900008F410C5209157273091582780915D2761
:102AA00090915E27205931402817390708F002C558
:102AB000209157273091582780915D2790915E276C
:102AC00020573E4F8217930708F0F4C420915527F2
:102AD000309156278091592790915A2725503109D6
:102AE000281739070CF0E6C4209155273091562756
:102AF0008091592790915A272B5F3F4F8217930758
:102B00000CF4B2C4D7C480915327909154278138D4
:102B1000924020F481E080935227A6C4109252275D
:102B200010925327109254279FC4823009F0E5C2B7
:102B30008091A4279091A5272091A6273091A727BF
:102B4000821B930B853B91053CF088569140809306
:102B50009D2790939E270FC08C343FEF93072CF056
:102B600080939D2790939E2706C088599E4F8093FF
:102B70009D2790939E2700919D2710919E27B80135
:102B8000882777FD8095982F0E9461354B015C0165
:102B900020E030E040E85CE30E942B372091992749
:102BA00030919A2740919B2750919C270E94E933AE
:102BB000462E572E682E792E20E030E048E453E46C
:102BC0000E94893618166CF480E090E0A8E4B3E423
:102BD0008093992790939A27A0939B27B0939C2743
:102BE00025C020E030E048E453EC642D752D862D9F
:102BF000972D0E94C23488236CF0842D952DA62D2C
:102C0000B72D8093992790939A27A0939B27B093F1
:102C10009C270CC080E090E0A8E4B3EC8093992757
:102C200090939A27A0939B27B0939C2720919F274E
:102C30003091A027029FC001039F900D129F900D1D
:102C4000112418161906B4F020E030E040E05FE3EC
:102C50006091992770919A2780919B2790919C274A
:102C60000E942B376093992770939A2780939B2714
:102C700090939C27C0909927D0909A27E0909B270B
:102C8000F0909C27A7019601C501B4010E942B3743
:102C900020E030E0A9010E94C234181684F024EA32
:102CA00030E74DE75FE3C701B6010E942B37609321
:102CB000992770939A2780939B2790939C2780E76E
:102CC00095E20E94CC2F809397279093982780912C
:102CD0007325882321F0109297271092982700914E
:102CE00097271091982760919D2770919E2788279C
:102CF00077FD8095982F0E94613520E030E04AE70B
:102D000051E40E942B376B017C0120E030E040E071
:102D100051E46091992770919A2780919B27909117
:102D20009C270E942B379B01AC01C701B6010E9472
:102D3000E9336B017C01B801882777FD8095982FD6
:102D40000E94613520E030E040E85DE30E942B37CF
:102D50009B01AC01C701B6010E94E933E62EF72EB4
:102D6000082F192FA62EB72EC82ED92E982F4E2DEC
:102D70005F2D692F712F4093932750939427609371
:102D800095277093962720E030E04AE754E46E2DB3
:102D90007F2D802F912F0E9489361816BCF480E079
:102DA00090E0AAE7B4E48093932790939427A093AC
:102DB0009527B0939627A12CB12C0F2EFAE7CF2E92
:102DC000F02D0F2EF4E4DF2EF02D2EC020E030E0A9
:102DD0004AE754EC6E2D7F2D802F912F0E94C23434
:102DE0008823BCF480E090E0AAE7B4EC80939327BA
:102DF00090939427A0939527B0939627A12CB12C5C
:102E00000F2EFAE7CF2EF02D0F2EF4ECDF2EF02D43
:102E100018C020E030E0A9016E2D7F2D802F912F6A
:102E20000E94893618166CF420E030E040E05FE341
:102E30006A2D7B2D8C2D9D2D0E94E9330E949C359F
:102E40000CC020E030E040E05FE36A2D7B2D8C2D4C
:102E50009D2D0E94E8330E94AF340E942E3560936E
:102E6000A8277093A92780919227882331F088E0C2
:102E700097E08093A8279093A9272091AA273091C3
:102E8000AB278091A8279091A927820F931F898350
:102E90009A832091AC273091AD278091A8279091FB
:102EA000A927820F931F8B839C832091AE2730919B
:102EB000AF278091A8279091A927820F931F8D8318
:102EC0009E832091B0273091B1278091A8279091BF
:102ED000A927820F931F8F83988780E795E20E942E
:102EE000753099233CF080E795E20E9475300B978E
:102EF00054F422C080E795E20E9475309195819547
:102F000091090B97CCF080E795E20E94302F99232E
:102F10004CF080E795E20E94302F813293400CF014
:102F20003FC00AC080E795E20E94302F91958195BD
:102F3000910981329340A4F580E795E20E94D03058
:102F400099233CF080E795E20E94D0300B9754F42F
:102F500033C080E795E20E94D03091958195910928
:102F60000B9754F180E795E20E94302F992354F09B
:102F700080E795E20E94302F21E08132934074F483
:102F800020E00CC080E795E20E94302F919581955A
:102F9000910921E0813293400CF420E0222361F07A
:102FA0008091A8279091A9278F8398878D839E83EE
:102FB0008B839C8389839A838E010F5F1F4F7E01D1
:102FC00049E0E40EF11CF80160E070E030812181FD
:102FD0003296832F922F99231CF491958195910914
:102FE000681779070CF4BC01EE15FF0579F76D3D04
:102FF00085E078070CF450C0882777FD8095982FDE
:103000000E9461359B01AC0160E070E88BEB94E4B9
:103010000E94C634462E572E682E792E6801F8017C
:1030200060817181882777FD8095982F0E94613596
:10303000242D352D462D572D0E942B37862E972E69
:10304000A82EB92E20E030E0A9010E94893618167A
:103050006CF420E030E040E05FE3682D792D8A2DAC
:103060009B2D0E94E9330E949C350CC020E030E08B
:1030700040E05FE3682D792D8A2D9B2D0E94E83377
:103080000E94AF340E942E35F601608371830E5F7B
:103090001F4F0E151F0511F6E0EEF6E0808580FF4C
:1030A00015C069817A8180E00E94DB076B817C8199
:1030B00081E00E94DB076D817E8182E00E94DB0758
:1030C0006F81788583E00E94DB07CEC160E070E00D
:1030D00080E00E94DB0760E070E081E00E94DB0797
:1030E00060E070E082E00E94DB0760E070E083E077
:1030F0000E94DB071092FA24B7C1833009F0B4C1F3
:103100008091482781115EC084E795E20E94C73311
:10311000882309F47FC08CE795E20E94C733882397
:1031200009F478C084E795E20E94793309E417E254
:10313000F801808391838CE795E20E947933809334
:103140004D2790934E27F80180819181892BF1F4CE
:1031500080914D2790914E27892B59F480E590E07E
:103160008093492790934A2780934D2790934E2729
:103170001FC020914D2730914E2782EA90E0821B9C
:10318000930B8093492790934A2712C080914D2733
:1031900090914E27892B61F42091492730914A273D
:1031A00082EA90E0821B930B80934D2790934E27E9
:1031B00088E795E20E946E33809148278F5F809365
:1031C000482728C080914827813021F588E795E27B
:1031D0000E94C7338823F1F088E795E20E94793393
:1031E0000BE417E2F8018083918384E795E20E9463
:1031F0006E33F80180819181892B31F484E690E06F
:1032000080934B2790934C278CE795E20E946E3376
:103210001092482780914D2790914E272091492761
:1032200030914A278A549F4F821B930B969587951E
:10323000E4E4F7E28083918380819181813094403E
:1032400024F0109244271092452780914B279091AB
:103250004C270596E6E4F7E2808391838081918193
:1032600080937621909377218091492790914A27E6
:1032700020914D2730914E27820F931F873991055A
:1032800020F1E9E4F7E28081918180937E2190939F
:103290007F21ADE4B7E28D919C91119780937821C5
:1032A0009093792110923B2710923A278D919C910F
:1032B000208131818A549F4F821B930B969587956D
:1032C0008093742190937521CFC02091492730912C
:1032D0004A2740913B27E42FF0E0EE0FFF1FE25812
:1032E000FE4D808191812C5E3F4F8217930708F13C
:1032F0004F5F433018F440933B2703C082E0809334
:103300003B2780913B2790E0FC01EE0FFF1FE25C22
:10331000F84DDC01AA0FBB1FA258BE4D80917E2143
:1033200090917F212D913C91821B930B80839183FF
:1033300010C02091492730914A2744962817390711
:1033400040F0442321F0415040933B2702C01092AB
:103350003B2760913B27262F30E0809149279091B1
:103360004A27F901EE0FFF1FE258FE4D808391833B
:1033700040914D2750914E2770913A27E72FF0E06A
:10338000EE0FFF1FE858FE4D808191814C5E5F4F2C
:103390008417950708F17F5F733018F470933A270C
:1033A00003C082E080933A2780913A2790E0FC01A5
:1033B000EE0FFF1FE65CF84DDC01AA0FBB1FA858FB
:1033C000BE4D80917821909179214D915C91841B23
:1033D000950B8083918310C040914D2750914E27CB
:1033E00044964817590740F0772321F071507093A5
:1033F0003A2702C010923A2770913A27472F50E09F
:1034000080914D2790914E27FA01EE0FFF1FE8584B
:10341000FE4D808391838091492790914A276623AE
:1034200049F0F901EE0FFF1FE25CF84D2081318178
:10343000820F931F20914D2730914E27772349F01B
:10344000FA01EE0FFF1FE65CF84D40815181240F19
:10345000351F281B390B2A543F4FC9019695879574
:1034600080937421909375210E94050F0E94ED0EA8
:103470001092F624E0EEF6E0808582FF30C0809165
:1034800033278F5F80933327823348F10E940C1ECD
:103490001092332724C085E090E080935D279093BD
:1034A0005E2780935B2790935C2710925927109298
:1034B0005A27D9CA80915D2790915E27809357271C
:1034C000909358278091592790915A278093552798
:1034D000909356271092532710925427C5CF2896C1
:1034E000CDBFDEBFDF91CF91FF91EF91BF91AF9143
:1034F0009F918F917F916F915F914F913F912F910C
:103500001F910F91FF90EF90DF90CF90BF90AF9001
:103510009F908F907F906F905F904F903F902F90F3
:103520000F900BBE0F900ABE0F9009BE0F9008BE01
:103530000F900FBE0F901F9018951F920F920FB60D
:103540000F92112408B60F9218BE09B60F9219BE39
:103550000BB60F921BBE2F933F934F935F936F93C6
:103560007F938F939F93AF93BF93EF93FF9388E0E5
:1035700097E20E947603FF91EF91BF91AF919F91E7
:103580008F917F916F915F914F913F912F910F900C
:103590000BBE0F9009BE0F9008BE0F900FBE0F908C
:1035A0001F9018951F920F920FB60F92112408B614
:1035B0000F9218BE09B60F9219BE0BB60F921BBE22
:1035C0002F933F934F935F936F937F938F939F932B
:1035D000AF93BF93EF93FF938CED96E20E94760337
:1035E000FF91EF91BF91AF919F918F917F916F91DB
:1035F0005F914F913F912F910F900BBE0F9009BE9D
:103600000F9008BE0F900FBE0F901F9018951F923D
:103610000F920FB60F92112408B60F9218BE0BB678
:103620000F921BBE8F93EF93FF93E0910827F091C9
:10363000092780818093DB26FF91EF918F910F9076
:103640000BBE0F9008BE0F900FBE0F901F901895E5
:103650001F920F920FB60F92112408B60F9218BE48
:1036600009B60F9219BE0BB60F921BBE2F933F9354
:103670004F935F936F937F938F939F93AF93BF937A
:10368000EF93FF9385E596E20E949C02FF91EF91F4
:10369000BF91AF919F918F917F916F915F914F916A
:1036A0003F912F910F900BBE0F9009BE0F9008BE57
:1036B0000F900FBE0F901F9018951F920F920FB68C
:1036C0000F92112408B60F9218BE09B60F9219BEB8
:1036D0000BB60F921BBE2F933F934F935F936F9345
:1036E0007F938F939F93AF93BF93EF93FF938CEE52
:1036F00095E20E949C02FF91EF91BF91AF919F9143
:103700008F917F916F915F914F913F912F910F908A
:103710000BBE0F9009BE0F9008BE0F900FBE0F900A
:103720001F9018951F920F920FB60F92112408B692
:103730000F9218BE09B60F9219BE0BB60F921BBEA0
:103740002F933F934F935F936F937F938F939F93A9
:10375000AF93BF93EF93FF9383E895E20E949C029F
:10376000FF91EF91BF91AF919F918F917F916F9159
:103770005F914F913F912F910F900BBE0F9009BE1B
:103780000F9008BE0F900FBE0F901F9018951F92BC
:103790000F920FB60F92112408B60F9218BE0BB6F7
:1037A0000F921BBE8F939F93EF93FF931092CC26A3
:1037B0001092CD26E0ECF6E28081982F9F5F9083F7
:1037C00088301CF088E08093C026FF91EF919F9194
:1037D0008F910F900BBE0F9008BE0F900FBE0F90F1
:1037E0001F9018951F920F920FB60F92112408B6D2
:1037F0000F9218BE0BB60F921BBE8F939F93EF9341
:10380000FF931092CE261092CF26E1ECF6E2808153
:10381000982F9F5F908388301CF088E08093C126AA
:10382000FF91EF919F918F910F900BBE0F9008BE6B
:103830000F900FBE0F901F9018951F920F920FB60A
:103840000F92112408B60F9218BE0BB60F921BBE32
:103850008F939F93EF93FF931092D0261092D126CF
:10386000E2ECF6E28081982F9F5F908388301CF015
:1038700088E08093C226FF91EF919F918F910F90E6
:103880000BBE0F9008BE0F900FBE0F901F901895A3
:103890001F920F920FB60F92112408B60F9218BE06
:1038A0000BB60F921BBE8F939F93EF93FF931092D3
:1038B000D2261092D326E3ECF6E28081982F9F5F08
:1038C000908388301CF088E08093C326FF91EF91AD
:1038D0009F918F910F900BBE0F9008BE0F900FBE5F
:1038E0000F901F9018951F920F920FB60F921124F0
:1038F00008B60F9218BE09B60F9219BE0AB60F92FB
:103900001ABE0BB60F921BBE2F933F934F935F933C
:103910006F937F938F939F93AF93BF93CF93DF93D7
:10392000EF93FF938091C026181634F4E0E0F9E09D
:1039300010A211A21092C026E4EDF6E28081982F29
:103940009F5F908380FD12C0C0E0D9E028A139A11B
:1039500040E050E064E57AEE8AE290E00E94EE37C3
:103960002093CC263093CD2618A219A2FF91EF9177
:10397000DF91CF91BF91AF919F918F917F916F9187
:103980005F914F913F912F910F900BBE0F900ABE08
:103990000F9009BE0F9008BE0F900FBE0F901F90A2
:1039A00018951F920F920FB60F92112408B60F921E
:1039B00018BE09B60F9219BE0AB60F921ABE0BB600
:1039C0000F921BBE2F933F934F935F936F937F9301
:1039D0008F939F93AF93BF93CF93DF93EF93FF9317
:1039E0008091C126181634F4E0E4F9E010A211A287
:1039F0001092C126E5EDF6E28081982F9F5F9083BB
:103A000080FD12C0C0E4D9E028A139A140E050E017
:103A100064E57AEE8AE290E00E94EE372093CE26AB
:103A20003093CF2618A219A2FF91EF91DF91CF9189
:103A3000BF91AF919F918F917F916F915F914F91C6
:103A40003F912F910F900BBE0F900ABE0F9009BEB1
:103A50000F9008BE0F900FBE0F901F9018951F92E9
:103A60000F920FB60F92112408B60F9218BE09B626
:103A70000F9219BE0AB60F921ABE0BB60F921BBE5A
:103A80002F933F934F935F936F937F938F939F9366
:103A9000AF93BF93CF93DF93EF93FF938091C226B1
:103AA000181634F4E0E0FBE010A211A21092C22636
:103AB000E6EDF6E28081982F9F5F908380FD12C033
:103AC000C0E0DBE028A139A140E050E064E57AEEF7
:103AD0008AE290E00E94EE372093D0263093D126E0
:103AE00018A219A2FF91EF91DF91CF91BF91AF91F1
:103AF0009F918F917F916F915F914F913F912F9106
:103B00000F900BBE0F900ABE0F9009BE0F9008BE1B
:103B10000F900FBE0F901F9018951F920F920FB627
:103B20000F92112408B60F9218BE09B60F9219BE53
:103B30000AB60F921ABE0BB60F921BBE2F933F937D
:103B40004F935F936F937F938F939F93AF93BF93A5
:103B5000CF93DF93EF93FF938091C326181634F42D
:103B6000E0E4FBE010A211A21092C326E7EDF6E21A
:103B70008081982F9F5F908380FD12C0C0E4DBE0BE
:103B800028A139A140E050E064E57AEE8AE290E0B5
:103B90000E94EE372093D2263093D32618A219A282
:103BA000FF91EF91DF91CF91BF91AF919F918F9155
:103BB0007F916F915F914F913F912F910F900BBE2D
:103BC0000F900ABE0F9009BE0F9008BE0F900FBE57
:103BD0000F901F9018951F920F920FB60F921124FD
:103BE00008B60F9218BEE0ECF7E06FE050E420E476
:103BF0003FE1A8956583452FA895C9010197F1F785
:103C00004150D1F7A8956683452FA895C901019722
:103C1000F1F74150D1F7EDCFEF92FF920F931F9341
:103C2000CF93DF9380E895E20E94C8322091362737
:103C3000309137278217930709F491C020913627D6
:103C40003091372731FF06C091FF26C703C027E117
:103C500020933827209136273091372733FF31C7FB
:103C600093FF25C72EC7109238272BC7CF5FDF5F82
:103C7000C930E1F39B010C2E02C0220F331F0A94BE
:103C8000E2F7409136275091372742235323452BA3
:103C900009F45EC02E233F23232B09F01DC758C013
:103CA00000E020913427309135272115324070F003
:103CB0004091342750913527202F30E03460240F75
:103CC000351F209334273093352731C02091342776
:103CD000309135272F3F3105C1F0B8F0E0903427FF
:103CE000F0903527402F50E0440F551F9A01220FC6
:103CF000331F220F331F420F531F52604E0D5F1DA3
:103D0000409334275093352712C040913427509167
:103D10003527452B61F4033028F4109F90011124BE
:103D2000316001C09D0120933427309335272091C5
:103D30003427309135272115344050F02091342715
:103D40003091352720933827109234271092352749
:103D5000DB3008F48BCF809336279093372780E8A9
:103D600095E20E943732E0913827F0E0E831F10522
:103D700008F080C6E650FF4F0C940A3825ED31E27A
:103D800041E061E080E895E20E94BC31E0ECF7E0C0
:103D900060856170605D80E895E20E94A63229EE40
:103DA00031E241E062E080E895E20E94BC312EEF12
:103DB00031E241E063E080E895E20E94BC3120E11D
:103DC00032E241E064E080E895E20E94BC3189C6BD
:103DD00022E232E241E061E080E895E20E94BC31FB
:103DE00024E332E241E062E080E895E20E94BC31E7
:103DF00024E432E241E063E080E895E20E94BC31D5
:103E000022E532E241E064E080E895E20E94BC31C4
:103E100068C623E632E241E061E080E895E20E9474
:103E2000BC3124E732E241E062E080E895E20E94A2
:103E3000BC3124E832E241E063E080E895E20E9490
:103E4000BC3128E932E241E064E080E895E20E947A
:103E5000BC3147C62DEA32E241E061E080E895E2FC
:103E60000E94BC3127EB32E241E062E080E895E25B
:103E70000E94BC3120EC32E241E063E080E895E250
:103E80000E94BC3128EC32E241E064E080E895E237
:103E90000E94BC3126C62AED32E241E061E080E8B2
:103EA00095E20E94BC311DC62DEE32E241E061E098
:103EB00080E895E20E94BC3129EE31E241E062E007
:103EC00080E895E20E94BC3121E033E241E063E00A
:103ED00080E895E20E94BC312DE033E244E064E0EA
:103EE00080E895E20E94BC3160913827605D80E8EF
:103EF00095E20E94A632F5C52EE133E241E061E091
:103F000080E895E20E94BC312091AA273091AB272E
:103F10004AE061E080E895E20E94073227E233E25E
:103F200041E062E080E895E20E94BC312091AC273C
:103F30003091AD274AE062E080E895E20E940732C6
:103F400020E333E241E063E080E895E20E94BC3187
:103F50002091AE273091AF274AE063E080E895E2F8
:103F60000E94073229E333E241E064E080E895E211
:103F70000E94BC312091B0273091B1274AE064E023
:103F800080E895E20E940732ACC52091AA273091C3
:103F9000AB278091A8279091A927280F391F41E0CE
:103FA00061E080E895E20E9407322091AC273091D1
:103FB000AD278091A8279091A927280F391F41E0AC
:103FC00062E080E895E20E9407322091AE273091AE
:103FD000AF278091A8279091A927280F391F41E08A
:103FE00063E080E895E20E9407322091B02730918B
:103FF000B1278091A8279091A927280F391F41E068
:1040000064E080E895E20E94073222E433E249E06E
:1040100061E080E895E20E94BC312091A4273091B4
:10402000A52741E161E080E895E20E94073229E49A
:1040300033E249E062E080E895E20E94BC312091E1
:10404000A6273091A72741E162E080E895E20E942F
:10405000073220E533E249E063E080E895E20E9420
:10406000BC3180E795E20E941A309C0141E163E097
:1040700080E895E20E94073226E533E249E064E0F9
:1040800080E895E20E94BC312091A1273091A227BF
:1040900041E164E080E895E20E94073222C52BE509
:1040A00033E241E061E080E895E20E94BC3120917A
:1040B0006F273091702747E061E080E895E20E9429
:1040C000073221E633E241E062E080E895E20E94B7
:1040D000BC31209171273091722747E062E080E87F
:1040E00095E20E94073227E633E241E063E080E890
:1040F00095E20E94BC31209173273091742747E0EC
:1041000063E080E895E20E9407322DE633E241E069
:1041100064E080E895E20E94BC31209175273091DF
:10412000762747E064E080E895E20E94073223E7C3
:1041300033E24BE061E080E895E20E94BC312091DF
:1041400077273091782741E161E080E895E20E948D
:10415000073229E733E24BE062E080E895E20E9413
:10416000BC312091792730917A2741E162E080E8E3
:1041700095E20E9407322FE733E24BE063E080E8EC
:1041800095E20E94BC3120917B2730917C2741E150
:1041900063E080E895E20E94073225E833E24BE0D5
:1041A00064E080E895E20E94BC3120917D27309147
:1041B0007E2741E164E080E895E20E94073291C4E5
:1041C0002BE533E241E061E080E895E20E94BC31FA
:1041D00020915F273091602747E061E080E895E219
:1041E0000E94073221E633E241E062E080E895E296
:1041F0000E94BC31209161273091622747E062E044
:1042000080E895E20E94073227E633E241E063E06E
:1042100080E895E20E94BC312091632730916427A9
:1042200047E063E080E895E20E9407322DE633E242
:1042300041E064E080E895E20E94BC31209165276E
:104240003091662747E064E080E895E20E940732FB
:1042500023E733E24BE061E080E895E20E94BC3165
:10426000209167273091682741E161E080E895E27D
:104270000E94073229E733E24BE062E080E895E2F2
:104280000E94BC312091692730916A2741E162E0A8
:1042900080E895E20E9407322FE733E24BE063E0CB
:1042A00080E895E20E94BC3120916B2730916C2709
:1042B00041E163E080E895E20E94073225E833E2BD
:1042C0004BE064E080E895E20E94BC3120916D27CC
:1042D00030916E2741E164E080E895E20E94073268
:1042E00000C42BE833E241E061E080E895E20E94FF
:1042F000BC312091592730915A278091A62790915F
:10430000A727280F391F4CE061E080E895E20E9462
:10431000073228E933E241E062E080E895E20E945A
:10432000BC312091592730915A274CE062E080E857
:1043300095E20E94073225EA33E241E063E080E83B
:1043400095E20E94BC3120915D2730915E274CE0C0
:1043500063E080E895E20E94073222EB33E241E01D
:1043600064E080E895E20E94BC3120915B273091A7
:104370005C274CE064E080E895E20E9407322FEB76
:1043800033E241E161E080E895E20E94BC31209196
:104390004F273091502741E162E080E895E20E948A
:1043A000073224EC33E241E163E080E895E20E94C9
:1043B000BC312091512730E041E164E080E895E292
:1043C0000E9407328EC329EC33E241E061E080E8CD
:1043D00095E20E94BC3127ED33E241E062E080E8E3
:1043E00095E20E94BC3125EE33E241E063E080E8D3
:1043F00095E20E94BC312091522730E04FE061E00D
:1044000080E895E20E94073220915327309154278B
:104410004FE062E080E895E20E9407322091392760
:1044200030E04FE063E080E895E20E940732C0EEA2
:10443000D6E02885217030E041E064E080E895E234
:104440000E9407322885229526952695237011E033
:104450002127217030E045E064E080E895E20E9489
:104460000732E0E2F7E0208526951227212F217000
:1044700030E049E064E080E895E20E940732288558
:104480002295217030E04DE064E080E895E20E94E2
:104490000732288522FB222720F930E041E164E041
:1044A00080E895E20E9407321CC323EF33E241E02B
:1044B00062E080E895E20E94BC312091492730916A
:1044C0004A274BE062E080E895E20E9407322EEF37
:1044D00033E241E063E080E895E20E94BC31209144
:1044E0004B2730914C274BE063E080E895E20E9437
:1044F000073229E034E241E064E080E895E20E947E
:10450000BC3120914D2730914E274BE064E080E88C
:1045100095E20E94073223E134E24FE061E080E857
:1045200095E20E94BC3120917421309175214FE0B9
:1045300062E080E895E20E94073229E134E24FE030
:1045400063E080E895E20E94BC31209176213091B1
:1045500077214FE064E080E895E20E940732C1C213
:104560002FE134E241E061E080E895E20E94BC3155
:104570002BE234E241E062E080E895E20E94BC3147
:1045800027E334E241E063E080E895E20E94BC3139
:1045900024E434E241E064E080E895E20E94BC312A
:1045A00020914427309145274EE061E080E895E274
:1045B0000E94073220914627309147274EE062E063
:1045C00080E895E20E940732209174213091752194
:1045D0004EE063E080E895E20E9407322091762168
:1045E000309177214EE064E080E895E20E94073246
:1045F00078C241E061E080E895E20E9480326091FB
:104600001625605D80E895E20E94A632609117252C
:10461000605D80E895E20E94A63260911825605D99
:1046200080E895E20E94A63260911925605D80E8DD
:1046300095E20E94A63260911A25605D80E895E2BD
:104640000E94A63260911B25605D80E895E20E9481
:10465000A63260911C25605D80E895E20E94A6323A
:104660006091FD24605D80E895E20E94A632609131
:10467000FE24605D80E895E20E94A6326091FF24EE
:10468000605D80E895E20E94A63260910025605D41
:1046900080E895E20E94A63260910125605D80E885
:1046A00095E20E94A63260910225605D80E895E265
:1046B0000E94A63260910325605D80E895E20E9429
:1046C000A6322091152530E041E062E080E895E2D5
:1046D0000E9407322091042530E04EE062E080E83D
:1046E00095E20E9407322091142530E041E063E01A
:1046F00080E895E20E9407322091052530E04EE0E7
:1047000063E080E895E20E94073241E064E080E8DF
:1047100095E20E94803260911325605D80E895E209
:104720000E94A63260911225605D80E895E20E94A9
:10473000A63260911125605D80E895E20E94A63264
:1047400060911025605D80E895E20E94A63260913C
:104750000F25605D80E895E20E94A63260910E25EB
:10476000605D80E895E20E94A63260910D25605D53
:1047700080E895E20E94A63260910C25605D80E899
:1047800095E20E94A63260910B25605D80E895E27B
:104790000E94A63260910A25605D80E895E20E9441
:1047A000A63260910925605D80E895E20E94A632FC
:1047B00060910825605D80E895E20E94A6326091D4
:1047C0000725605D80E895E20E94A632609106258B
:1047D000605D80E895E20E94A63221E534E240E186
:1047E00061E080E895E20E94BC312091F82430E03D
:1047F00040E162E080E895E20E94073224E433E27F
:1048000040E163E080E895E20E94BC312091FB2406
:104810003091FC2440E164E080E895E20E94073298
:1048200060C127E534E241E061E080E895E20E9462
:10483000BC3157C12EE634E241E061E080E895E208
:104840000E94BC312091A6273091A72747E061E064
:1048500080E895E20E94073229E734E241E062E015
:1048600080E895E20E94BC3180E795E20E94CC2F5F
:104870009C0148E062E080E895E20E9407322FE761
:1048800034E241E063E080E895E20E94BC3180E7D9
:1048900095E20E94D0309C0148E063E080E895E218
:1048A0000E94073226E834E24BE061E080E895E2BE
:1048B0000E94BC3180E795E20E94302F9C0141E1CB
:1048C00061E080E895E20E9407322CE834E24BE098
:1048D00062E080E895E20E94BC3180E795E20E94A8
:1048E0007E2F9C0141E162E080E895E20E94073260
:1048F000F8C022E934E241E061E080E895E20E94FC
:10490000BC3124ED36E248E061E080E895E20E94A7
:10491000073229E934E241E062E080E895E20E9452
:10492000BC312CEC36E247E062E080E895E20E9480
:1049300007322EE934E241E063E080E895E20E942C
:10494000BC3124EC36E247E063E080E895E20E9467
:104950000732C7C027EA34E241E061E080E895E22F
:104960000E94BC312091BE263091BF2648E061E014
:1049700080E895E20E940732B4C02DEA34E241E0BB
:1049800061E080E895E20E94BC3121EB32E24FE029
:1049900061E080E895E20E94BC3121EB34E241E025
:1049A00062E080E895E20E94BC3126EB34E24DE003
:1049B00062E080E895E20E94BC312BEB34E241E0FA
:1049C00063E080E895E20E94BC3124EC34E24DE0E3
:1049D00063E080E895E20E94BC3129EC34E241E0DA
:1049E00064E080E895E20E94BC312091F22430E03E
:1049F00045E061E080E895E20E9407322091F424CE
:104A00003091F52446E062E080E895E20E940732AA
:104A10002091FB243091FC2442E162E080E895E2A1
:104A20000E94073220910120332727FD30954AE06C
:104A300063E080E895E20E940732209100202F3F3A
:104A400039F08AE5280290011124235D3F4F02C00E
:104A50002FEF3FEF42E163E080E895E20E940732EA
:104A60002091F32430E048E064E080E895E20E9481
:104A7000073237C020ED34E241E061E080E895E2A2
:104A80000E94BC312091382730E041E062E080E8AC
:104A900095E20E94073225C02091382721502093AB
:104AA000382720913827283108F0D1C8D3C8209161
:104AB00038272F5F2093382720913827283108F096
:104AC000D2C8D1E0C0E061E070E0FC01E095F09573
:104AD000A0E0B1E014E6CCC8DA3008F0E1C80D2F50
:104AE000E0C8DF91CF911F910F91FF90EF90089553
:104AF000CF92DF92EF92FF92CF93DF93E0E2F7E065
:104B0000808581FD19C180915D2790915E27813A52
:104B10009F4008F411C18091592790915A279923F9
:104B20005CF48091592790915A279195819591092C
:104B30004E970CF409C100C18091592790915A27D2
:104B40004E970CF401C1F8C08091A6279091A72739
:104B500091958195910921E0803591055CF020E0E7
:104B600009C08091A6279091A72721E08035910563
:104B70000CF020E021110E94A20E40E050E862EA11
:104B800074E480E090E00E9481091092A4271092C2
:104B9000A527F4C080915D2790915E27813F9A40C0
:104BA00008F4E3C08091592790915A2799235CF427
:104BB0008091592790915A279195819591098D97C8
:104BC0000CF4CAC0D2C08091592790915A278D9772
:104BD0000CF4C2C0CAC08091592790915A2740E076
:104BE00050E066E974E48C5291400E948109109271
:104BF000A4271092A527C2C08091592790915A27C7
:104C0000883B9F4F8CF48091592790915A2740E020
:104C100050E066E974E4845D9E4F0E948109109221
:104C2000A4271092A527AAC0E0ECF7E0808580FFBA
:104C30001BC06091592770915A27882777FD80956E
:104C4000982F0E94613526E636E646EE5FE30E9425
:104C50002B370E942E35DC01CB0140E050E061E6AD
:104C600074E40E9481091AC06091592770915A27F3
:104C7000882777FD8095982F0E94613526E636E6D5
:104C800046EE5FE30E942B370E942E35DC01CB01FC
:104C900040E050E061E674E40E9481091092A4278C
:104CA0001092A5276BC0E0ECF7E0808580FD07C07F
:104CB00068E270E08AE590E00E94F60A06C06EE1C4
:104CC00070E08AE590E00E94F60A1092A427109204
:104CD000A52754C080915D2790915E27C0915927E8
:104CE000D0915A2764E971E1681B790B80E090E06C
:104CF0000E945F352DEC3CEC4CEC5EE30E942B37C0
:104D00006B017C01BE01882777FD8095982F0E945A
:104D100061352DEC3CEC4CE85FE30E942B370E94A0
:104D20002E35DC01CB01B701A6010E94810910924A
:104D3000A4271092A52722C080915D2790915E271D
:104D4000893B9B4048F426CF8091A6279091A727C6
:104D500099230CF006CFF8CE8091592790915A27CD
:104D6000893491050CF448CF36CF80915D2790911E
:104D70005E278837910508F496CFACCFDF91CF91AD
:104D8000FF90EF90DF90CF900895CF92DF92EF9257
:104D9000FF92CF93DF9380915425882309F438C183
:104DA00080915D2790915E27813A9F4008F430C141
:104DB0008091592790915A2799235CF48091592723
:104DC00090915A27919581959109CC970CF42AC11D
:104DD0001FC18091592790915A27CC970CF422C17A
:104DE00017C18091A6279091A72791958195910948
:104DF00021E08D9754F020E008C08091A627909183
:104E0000A72721E08D970CF020E0222351F040E00D
:104E100050E862EA74E480E090E00E9481090E9418
:104E2000A20E8091902790919127880F991F8093CF
:104E3000A4279093A52784E0E0E0F7E0858311C1E3
:104E400080915D2790915E27813F9A4008F400C1D0
:104E50008091592790915A2799235CF48091592782
:104E600090915A279195819591098D970CF4E7C0FF
:104E7000EFC08091592790915A278D970CF4DFC08D
:104E8000E7C08091592790915A2740E050E066E9A9
:104E900074E48C5291400E948109809190279091F6
:104EA0009127880F991F8093A4279093A527ABC0C3
:104EB0008091592790915A27883B9F4FBCF480914D
:104EC000592790915A2740E050E066E974E4845DE8
:104ED0009E4F0E9481098091902790919127880F81
:104EE000991F8093A4279093A5278DC0E0ECF7E04D
:104EF000808580FF1BC06091592770915A278827B1
:104F000077FD8095982F0E94613526E636E646EEBD
:104F10005FE30E942B370E942E35DC01CB0140E07D
:104F200050E061E674E40E9481091AC0609159273B
:104F300070915A27882777FD8095982F0E946135B8
:104F400026E636E646EE5FE30E942B370E942E35BA
:104F5000DC01CB0140E050E061E674E40E9481098D
:104F60008091902790919127880F991F8093A42773
:104F70009093A52748C0E0ECF7E0808580FD07C04E
:104F800068E270E08AE590E00E94F60A06C06EE1F1
:104F900070E08AE590E00E94F60A1092A427109231
:104FA000A52731C080915D2790915E27C091592738
:104FB000D0915A2764E971E1681B790B80E090E099
:104FC0000E945F352DEC3CEC4CEC5EE30E942B37ED
:104FD0006B017C01BE01882777FD8095982F0E9488
:104FE00061352DEC3CEC4CE85FE30E942B370E94CE
:104FF0002E35DC01CB01B701A6010E948109109278
:10500000A4271092A52784E0E0E0F7E0868329C07A
:105010001092D82680915D2790915E27893B9B4016
:1050200070F40ECF8091D8268F5F8093D826809120
:10503000A6279091A72799230CF0DFCED2CE80919E
:10504000592790915A27893491050CF431CF19CF03
:1050500080915D2790915E278837910508F48BCF6A
:10506000A1CFDF91CF91FF90EF90DF90CF90089587
:1050700080915D2790915E27843C994058F46EE1C1
:1050800070E08AE590E00E94F60A1092A427109240
:10509000A52708958091742190917521CD970CF4E6
:1050A00075C08091742190917521883791050CF01D
:1050B0006DC08091762190917721803591050CF417
:1050C0005DC064C08091592790915A279195819530
:1050D000910921E08A3591055CF020E009C08091BA
:1050E000592790915A2721E08A3591050CF020E04C
:1050F0002223D9F06091592770915A27882777FD8C
:105100008095982F0E9461352AE939E949E95FE3E2
:105110000E942B370E942E35DC01CB0140E050E08D
:1051200066E974E40E94810908958091592790915D
:105130005A27181619068CF48091592790915A27EE
:1051400040E050E066E974E48C5291400E9481098D
:105150001092A4271092A527089580915927909125
:105160005A2740E050E066E974E4845D9E4F0E9457
:1051700081091092A4271092A5270895809159279C
:1051800090915A2799230CF0AACF9CCF6EE170E042
:105190008AE590E00E94F60A08951092A4271092E2
:1051A000A52740E050E0BA0180E090E00E9481092C
:1051B0000895A89597E188ED0FB6F894A895809387
:1051C0003400909380000FBEE0E5F0E083EC828332
:1051D00080818860808382EC8583818183FFFDCF1D
:1051E000E0E5F0E080818061808388ED84BFE0E4C9
:1051F000F0E01182E0E5F0E0818184FFFDCF88EDF1
:1052000084BF84E0809340002BE940EC60E974E0C7
:105210008CEE95E20E9461012BE940EC60EB74E0BA
:1052200083E895E20E94610110922006A0E4B6E0B6
:105230008BED8C938BE8809360068FE880938006DB
:105240008BE98093A00680EE96E0FC0110822FEFA0
:1052500020930007C0E2D7E02CEF2883E0ECF7E0D2
:10526000108228E1208B218B228B238BFC01268B43
:1052700088E08D83E0E0FAE081E0808383EF818342
:105280008CED95E086A397A3E0E0F8E085E08083CD
:1052900083E1818380E197E286A397A384EF91E085
:1052A00080A791A782E015968C938091780083FF68
:1052B00008C081E0E0E0F7E0858388E08093780033
:1052C00031C08091780082FF08C082E0E0E0F7E022
:1052D000858384E08093780025C08091780085FFE5
:1052E0000AC0E0E0F7E081E0858382E0858380E228
:1052F0008093780017C08091780084FF04C080E11B
:10530000809378000FC08091780081FF04C082E014
:105310008093780007C08091780080FF03C081E00F
:1053200080937800E0E4F8E037E03083118284E68F
:1053300090E086A397A310A211A221E02683E0E0CB
:10534000F9E0308311828FEF9FEF86A397A310A21D
:1053500011A22683E0E4F9E03083118286A397A3AB
:1053600010A211A22683E0E0FBE03083118286A325
:1053700097A310A211A22683E0E4FBE03083118200
:1053800086A397A310A211A2268380E090E00E943A
:105390008138282F392F2093A1273093A22780E529
:1053A00090E00E948138282F392F2093A127309335
:1053B000A2278091A1279091A22781319E4024F0BD
:1053C0001092A1271092A2270E940F07EE24E394C7
:1053D00000E021E043E350E060EB7BE088E097E20F
:1053E0000E94B40200E121E043E350E060EA79E08A
:1053F0008CED96E20E94B4020E94CC0FF89487E0F4
:10540000E0EAF0E082837894E0EEF6E0808582FFC7
:1054100005C061E080E895E20E94593280E795E29C
:105420000E94F32E84E795E20E94263388E795E2F6
:105430000E9426338CE795E20E94263380E895E2AD
:105440000E94263384E795E20E944C338CE795E274
:105450000E944C33E0ECF7E0808580FD41C08091F4
:1054600094219091952180937F279093802780911C
:105470009621909197218093812790938227809104
:1054800098219091992180938327909384278091EC
:105490009A2190919B2180938527909386278091D4
:1054A0009C2190919D2180938727909388278091BC
:1054B0009E2190919F218093892790938A278091A4
:1054C000A0219091A12180938B2790938C2780918C
:1054D000A2219091A32180938D2790938E2740C085
:1054E000809184219091852180937F2790938027BC
:1054F00080918621909187218093812790938227A4
:10550000809188219091892180938327909384278B
:1055100080918A2190918B21809385279093862773
:1055200080918C2190918D2180938727909388275B
:1055300080918E2190918F218093892790938A2743
:10554000809190219091912180938B2790938C272B
:10555000809192219091932180938D2790938E2713
:105560000E94B0071092A4271092A52740E050E0B7
:10557000BA0180E090E00E9424081092FA24C0EE64
:10558000D6E0CC24C3940F2EFAE6DF2EF02D0F2E9A
:10559000FAEAAF2EF7E2BF2EF02D0F2EFEEA8F2E85
:1055A000F7E29F2EF02D0F2EF0EB6F2EF7E27F2EFD
:1055B000F02D0F2EF0E24F2EF7E05F2EF02D0F2E84
:1055C000F9E42F2EF7E23F2EF02DA895888583FF72
:1055D00003C0C092392702C010923927888581FF05
:1055E00005C0809139278E5F80933927809152279B
:1055F000882329F080913927813009F4C6C380912E
:10560000FA24823068F08091FB249091FC2440E0E1
:1056100050E86BEB74E48C549F4F0E94240822C026
:1056200080913927811103C00E9478251BC0809189
:105630003927813019F40E94382814C08091392705
:10564000823019F40E94C5260DC00E94CD2888859D
:1056500080FD05C08091542581110E94D30E8D2DAF
:105660008A95F1F7888582FFB0CF888580FF90C347
:10567000ACCFE12CF12CF701EE0FFF1FE159F84DF3
:10568000008111816CE788E097E20E944F036E2D44
:10569000605688E097E20E944F03B80172956295C8
:1056A0006F7067277F70672788E097E20E944F033B
:1056B00066E288E097E20E944F038AE090E00E9451
:1056C000130E2FEFE21AF20A88E0E816F10499F6B9
:1056D0007CCF00919727109198276CE788E097E29C
:1056E0000E944F0361EB88E097E20E944F03C801DC
:1056F000992314F481509F4F692F772767FD7A957E
:1057000088E097E20E944F0366E288E097E20E94F9
:105710004F038AE090E00E94130EF1010081118195
:105720006CE788E097E20E944F0363EB88E097E222
:105730000E944F03B8017695679588E097E20E9432
:105740004F0366E288E097E20E944F038AE090E010
:105750000E94130EEBE4F7E2008111816CE788E010
:1057600097E20E944F0364EB88E097E20E944F03A8
:10577000B8017695679588E097E20E944F0366E24C
:1057800088E097E20E944F038AE090E00E94130EA7
:10579000EDE4F7E2008111816CE788E097E20E9476
:1057A0004F0365EB88E097E20E944F03B8017695BE
:1057B000679588E097E20E944F0366E288E097E2EF
:1057C0000E944F038AE090E00E94130EFECE0091EB
:1057D000592710915A276CE788E097E20E944F03FF
:1057E00060EC88E097E20E944F03C80199230CF413
:1057F0000196BC017595679588E097E20E944F037A
:1058000066E288E097E20E944F038AE090E00E94FF
:10581000130EE4E7F1E2008111816CE788E097E282
:105820000E944F0362EC88E097E20E944F03602FD2
:1058300088E097E20E944F0366E288E097E20E94C8
:105840004F038AE090E00E94130EE6E7F1E2008148
:1058500011816CE788E097E20E944F0363EC88E0D7
:1058600097E20E944F03602F88E097E20E944F0367
:1058700066E288E097E20E944F038AE090E00E948F
:10588000130E0091A4271091A5276CE788E097E2FA
:105890000E944F0364EC88E097E20E944F03C80126
:1058A00099230CF40196BC017595679588E097E201
:1058B0000E944F0366E288E097E20E944F038AE06D
:1058C00090E00E94130E0091A6271091A7276CE785
:1058D00088E097E20E944F0365EC88E097E20E941F
:1058E0004F03C80199230CF40196BC017595679587
:1058F00088E097E20E944F0366E288E097E20E9408
:105900004F038AE090E00E94130E109139276CE754
:1059100088E097E20E944F0366EC88E097E20E94DD
:105920004F03612F88E097E20E944F0366E288E010
:1059300097E20E944F038AE090E00E94130E0091CC
:105940009027109191276CE788E097E20E944F031F
:1059500067EC88E097E20E944F03602F88E097E2AF
:105960000E944F0366E288E097E20E944F038AE0BC
:1059700090E00E94130E00915D2710915E276CE766
:1059800088E097E20E944F0368EC88E097E20E946B
:105990004F039801ABEABAEA0E941038BC01729535
:1059A00062956F7067277F70672788E097E20E9493
:1059B0004F0366E288E097E20E944F038AE090E09E
:1059C0000E94130E109154256CE788E097E20E9424
:1059D0004F0369EC88E097E20E944F03612F88E053
:1059E00097E20E944F0366E288E097E20E944F032D
:1059F0008AE090E00E94130EE8CD18856CE788E0FD
:105A000097E20E944F0360ED88E097E20E944F0307
:105A1000612F617088E097E20E944F0366E288E0A0
:105A200097E20E944F038AE090E00E94130E1885CF
:105A30006CE788E097E20E944F0361ED88E097E20F
:105A40000E944F0312FB662760F988E097E20E94EC
:105A50004F0366E288E097E20E944F038AE090E0FD
:105A60000E94130E18856CE788E097E20E944F03AE
:105A700062ED88E097E20E944F0314FB662760F90D
:105A800088E097E20E944F0366E288E097E20E9476
:105A90004F038AE090E00E94130E18856CE788E0BF
:105AA00097E20E944F0363ED88E097E20E944F0364
:105AB00011FB662760F988E097E20E944F0366E2D7
:105AC00088E097E20E944F038AE090E00E94130E64
:105AD00018856CE788E097E20E944F0364ED88E048
