S00F00004174584D6567612E737265638E
S11300000C9428010C945C100C945C010C945C011D
S11300100C945C010C945C010C945C010C945C01E8
S11300200C945C010C945C010C945C010C945C01D8
S11300300C945C010C94F20F0C947C0A0C945C01FB
S11300400C945C010C945C010C945C010C945C01B8
S11300500C945C010C945C010C945C010C945C01A8
S11300600C945C010C945C010C945C010C945C0198
S11300700C945C010C945C010C945C010C945C0188
S11300800C945C010C945C010C945C010C945C0178
S11300900C945C010C945C010C945C010C941207AC
S11300A00C945C010C945C010C945C010C945C0158
S11300B00C945C010C945C010C945C010C945C0148
S11300C00C945C010C945C010C945C010C945C0138
S11300D00C945C010C945C010C945C010C945C0128
S11300E00C945C010C945C010C945C010C945C0118
S11300F00C945C010C945C010C945C010C945C0108
S11301000C945C010C945C010C945C010C945C01F7
S11301100C945C010C945C010C945C010C94B90685
S11301200C945C010C945C010C945C010C945C01D7
S11301300C9427100C945C010C945C010C945C01ED
S11301400C945C010C945C010C945C010C945C01B7
S11301500C945C010C945C010C945C010C945C01A7
S11301600C9466030C9458060C945C010C945C018A
S11301700C945C010C945C010C945C010C945C0187
S11301800C945C010C945C010C945C010C945C0177
S11301900C945C010C945C010C945C010C945C0167
S11301A00C945C010C945C010C945C010C945C0157
S11301B00C945C010C945C010C945C010C945C0147
S11301C00C945C010C945C010C945C010C945C0137
S11301D00C945C010C945C010C945C010C945C0127
S11301E00C945C010C945C010C945C010C945C0117
S11301F00C945C0122113D115F117A118F118F1142
S11302008F118F118F118F11B811FC117D120913E9
S11302109413FF137514DD14211524153816084A98
S1130220D73B3BCE016E84BCBFFDC12F3D6C743106
S11302309ABD56833DDA3D00C77F11BED9E4BB4C5D
S11302403E916BAAAABE000000803F00FF1A3E1B2D
S113025011241FBECFEFDFE2DEBFCDBF18BE19BE33
S11302601ABE1BBE14E2A0E0B0E2E2EEF3E400E04A
S11302700BBF02C007900D92A435B107D9F71BBE7E
S113028025E2A4E5B4E201C01D92A23DB207E1F764
S113029012E0CEE4D2E000E006C022970109FE019C
S11302A00BBF0E944F21CC34D10780E00807A9F787
S11302B00E94D4190C94DF210C940000FC0160838B
S11302C071834863DB0111964C93A081B18115962B
S11302D02C930190F081E02D81E0848308950F93A5
S11302E0CF93DF93FC01213208F042C0013208F0C1
S11302F03FC0DC01A95BBF4F8C91811139C081E003
S11303008C93DF01A85BBF4F1C92CA01DA0107C0BE
S1130310ED01C81BD90B3D91CE0FDF1F3B833A2F54
S1130320381B3217A8F36283EF01CD5BDF4F2883BC
S11303309F012C5B3F4FD9010C93CF018B5B9F4FE7
S1130340DC011C92CF018A5B9F4FDC011C928881E7
S1130350882319F082818E7F06C0D9018C9188236D
S113036049F0828181600190F081E02D868302C092
S113037080E001C081E0DF91CF910F910895FC01ED
S1130380DC01A95BBF4F8C9181111FC081E08C936C
S1130390DF01A85BBF4F1C926283DF01AD5BBF4FDF
S11303A01C92DF01AC5BBF4F1C92DF01AB5BBF4F04
S11303B01C92DF01AA5BBF4F1C9282818E7F019049
S11303C0F081E02D868381E0089580E00895DC01CA
S11303D0ED91FC9111972481A85BBF4F22FF02C0CD
S11303E034E001C033E03C9328602483FC01E95BE2
S11303F0FF4F10820895CF93DF93FC01ED5BFF4F15
S11304003081FC01EC5BFF4F2081DC01ED91FC911C
S1130410448144FF07C023E02383FC01E85BFF4FD2
S113042025E022C0DC01AB5BBF4F4C91431750F475
S11304302C91EC01C20FD11D8B8187838C918F5F2E
S11304408C9317C0DC01AA5BBF4F3C91321730F488
S1130450DC0112968C91816086830BC023E0238398
S1130460FC01E85BFF4F21E02083FC01E95BFF4FC7
S11304701082DF91CF910895CF93DF93FC01EA5B63
S1130480FF4F2081EC01A881B981203260F41796D6
S11304902C913081DC01A30FB11D93962C93208104
S11304A02F5F20830CC023E013962C93FC01E85BA0
S11304B0FF4F22E02083FC01E95BFF4F1082FC0127
S11304C0EC5BFF4F2081FC01EA5BFF4F3081DC01D4
S11304D0ED91FC91321718F482E083830BC027E07E
S11304E02383FC01E85BFF4F21E02083FC01E95BEF
S11304F0FF4F1082DF91CF910895DC01ED91FC91C3
S11305002481322F3C7011F00C94E70126FD0C94E9
S1130510FB0127FD0C943C02FC01E85BFF4F26E045
S11305202083FC01E95BFF4F10820895EF920F9343
S1130530DC01FB01EE2009F44FC0603A88E0780743
S113054029F488E08093410684E008C0603B88E099
S1130550780739F480E88093410680E4809342066A
S11305603BC0603A89E0780729F488E0809361060B
S113057084E008C0603B89E0780739F480E8809320
S1130580610680E48093620627C0603A8AE07807B7
S113059029F488E08093810684E008C0603B8AE007
S11305A0780739F480E88093810680E4809382069A
S11305B013C0603A8BE0780729F488E08093A106A1
S11305C084E008C0603B8BE0780731F480E88093D6
S11305D0A10680E48093A206ED93FC9311971296F2
S11305E02C93129795961D921C92969793961D9212
S11305F01C92949799961D921C929A9797961D9285
S11306001C92989783E085830073038357FF04C08B
S11306108481846084835F7746835783ED91FC9162
S11306201197848180618483ED91FC918481886039
S113063084830F91EF900895FC0187A190A521A5D3
S113064032A5982F9F5F9F7081E0921302C080E0D3
S1130650089527A130A53327DF01A20FB31F5396B6
S11306606C932F5F3F4F2F70332727A330A7A081B0
S1130670B18113969C9113979C7F2281922B1396A0
S11306809C930895CF93DF93FC0181A592A527A1A4
S113069030A59927A081B1812817390739F4139619
S11306A08C9113978C7F13968C930DC0C1A5D2A502
S11306B0CE0FDF1F8B898C9381A592A501968F7035
S11306C0992781A792A7DF91CF9108951F920F9246
S11306D00FB60F92112408B60F9218BE09B60F92E6
S11306E019BE0BB60F921BBE2F933F934F935F938C
S11306F06F937F938F939F93AF93BF93CF93EF9316
S1130700FF93E0917B24F0917C24608180915524B7
S11307108230D1F130F4882359F0813009F075C06A
S11307201DC0833009F446C0843009F06EC058C03F
S113073080E090E0462F50E09A01082E02C03595E3
S113074027950A94E2F721703327FC01E55AFB4D03
S1130750208301968630910579F757C080E090E0B8
S1130760462F50E09A01082E02C0359527950A9429
S1130770E2F721703327FC01EF59FB4D20830196EA
S11307808730910579F741C080E090E0462F50E032
S11307909A01082E02C0359527950A94E2F7217034
S11307A03327FC01E859FB4D2083019686309105DF
S11307B079F72BC080E090E0462F50E09A01082E94
S11307C002C0359527950A94E2F721703327FC017E
S11307D0E259FB4D208301968730910579F715C0C6
S11307E080E090E0462F50E09A01082E02C0359533
S11307F027950A94E2F721703327FC01EB58FB4D4F
S1130800208301968630910579F7809155248111D2
S11308100BC0262F30E0E6E035952795EA95E1F701
S11308202230310509F02CC280915524843009F01E
S113083005C2862F90E076E0959587957A95E1F745
S1130840039709F01DC2FAC11092552480E090E08C
S1130850A0E0FC01E55AFB4D2081222311F0A160A8
S113086001C0A26001968032910599F7A13009F484
S113087052C0A23009F44FC0A33009F4A1E080E0D3
S113088090E020E030E0C82FFC01E55AFB4D4081A8
S1130890411124C0FC013197EF71FF27E55AFB4D4C
S11308A0408141110DC01AC0EF71F0E0E55AFB4DD3
S11308B04081442319F02B1778F010C0BF5F04C0A7
S11308C0B1E0BC01615E7F4FEB2FEC0F4E2F50E087
S11308D0641775074CF7EFCF2B2F3C2F019680320E
S11308E0910589F6230F21502F71231710F0832FC0
S11308F002C0822F232F30E090E0A901481B590B3E
S1130900820F931F95958795682F413151052CF0DF
S1130910605F6F7102C0A0E060E080915824811193
S113092066C0AA2309F47DC128E631E0629FC001B4
S1130930639F900D11248C549F4F45E095958795A6
S11309404A95E1F791958195910980935924909363
S11309505A248091592490915A248C349F4F54F4F2
S11309608091592490915A2488599E4F80935924F8
S113097090935A2482E08093582480915924909132
S11309805A242091C5253091C625820F931F853B9B
S113099091051CF08856914006C08C344FEF9407A3
S11309A014F488599E4F9C01245D3F4F293531052D
S11309B018F41092562416C09C012D5231092B357F
S11309C0310510F483E00CC089579F4F8F3051E0FC
S11309D0950710F082E004C08B35910518F481E08E
S11309E08093562480915624809357241AC1809171
S11309F05824843019F4A1112AC102C0A1110CC0D9
S1130A0080915824823029F410925824109256244C
S1130A1003C084E08093582480915824882309F4E7
S1130A2000C180915824843009F054C04091562468
S1130A3028E631E0429FC001439F900D1124959513
S1130A4087959595879591958195910980935924DA
S1130A5090935A248091592490915A248C349F4F16
S1130A6054F48091592490915A2488599E4F80932C
S1130A70592490935A242091C5253091C6258091FC
S1130A80592490915A24821B930B80935924909358
S1130A905A248091592490915A248C349F4F3CF4C9
S1130AA08091592490915A2488599E4F0EC0809168
S1130AB0592490915A24853B91050CF4B2C080913D
S1130AC0592490915A2488569140809359249093A4
S1130AD05A24A7C048E651E0649FC001659F900D69
S1130AE011248C549F4F25E0959587952A95E1F71D
S1130AF022273327281B390B2C346FEF36071CF4BD
S1130B009A01281B390B8091C5259091C625820F27
S1130B10931F8C344FEF94071CF488599E4F05C0E3
S1130B20853B910514F088569140AC01445D5F4FBC
S1130B304935510580F0AC014D5251094B355105F1
S1130B4060F089579F4F8F3051E0950740F461E082
S1130B508B35910528F060E003C063E001C062E0DA
S1130B60862F90E00296837099274091562450E096
S1130B708417950709F475C04091572450E08417F1
S1130B80950709F066C06DC08091592490915A244C
S1130B90885691408093592490935A2483E08093FB
S1130BA058243FC08091592490915A24821B930B5E
S1130BB097FD07C08091592490915A24821B930B6E
S1130BC008C08091592490915A24A901481B590BBB
S1130BD0CA018B359105D4F02C543F4F20935924EE
S1130BE030935A248091592490915A24853B91053D
S1130BF054F08091592490915A24885691408093BE
S1130C00592490935A246E5F637004C0209359242E
S1130C1030935A246093562404C02093592430936B
S1130C205A24809154248F5F8093542485FF28C0D4
S1130C3088ED84BF81E08093790022C0809155249F
S1130C408F5F80935524853008F0FECD19C083E072
S1130C50E1CE82E080935824809156248613A2CF5B
S1130C60DCCF2C543F4F2093592430935A24809145
S1130C70592490915A24853B91050CF085CF8ECF51
S1130C80FF91EF91CF91BF91AF919F918F917F9100
S1130C906F915F914F913F912F910F900BBE0F90E9
S1130CA009BE0F9008BE0F900FBE0F901F901895AD
S1130CB01F920F920FB60F92112408B60F9218BE0E
S1130CC009B60F9219BE0BB60F921BBE2F933F931A
S1130CD04F935F936F937F938F939F93AF93BF9340
S1130CE0EF93FF938BE794E20E944203FF91EF910D
S1130CF0BF91AF919F918F917F916F915F914F9130
S1130D003F912F910F900BBE0F9009BE0F9008BE1C
S1130D100F900FBE0F901F901895EF920F93EE2433
S1130D20E39400E322E049E150E060EA79E08BE7F4
S1130D3094E20E9496020F91EF900895811108C0E9
S1130D4060E08BE794E20E941C031092A6240895AD
S1130D509091A6249F5F9093A624963048F081300A
S1130D6011F46AEA01C065E58BE794E20C941C0374
S1130D7008951F920F920FB60F92112408B60F9286
S1130D8018BE09B60F9219BE0AB60F921ABE0BB658
S1130D900F921BBE2F933F938F939F93AF93BF9359
S1130DA0CF93DF93EF93FF93E091B125F0E0C0E0A0
S1130DB0D2E08CA19DA1A091B125B0E0AA0FBB1FE8
S1130DC0AE58BE4D2D913C91821B930BEE0FFF1F2D
S1130DD0EF55FA4D808391838091B1258F5F8770A1
S1130DE08093B1258091B125880F880F880F89A33E
S1130DF088A1806888A3FF91EF91DF91CF91BF9183
S1130E00AF919F918F913F912F910F900BBE0F90B7
S1130E100ABE0F9009BE0F9008BE0F900FBE0F9030
S1130E201F9018951F920F920FB60F92112408B6B7
S1130E300F9218BE0BB60F921BBE8F939F93EF9326
S1130E40FF93E0E4F2E084A195A18093812590933F
S1130E50822580A1806880A3FF91EF919F918F915B
S1130E600F900BBE0F9008BE0F900FBE0F901F90F7
S1130E701895AAECB1E022E02C93FC0184911C9219
S1130E8090E00895CF93DF9380E290E00E943907C9
S1130E90C0E0D2E08C8781E290E00E9439078D8720
S1130EA080E290E00E9439078C8781E290E00E9402
S1130EB039078D8781E088A319A2198296E09C8363
S1130EC090E39A831B829FE09E838AA3888388A1F0
S1130ED0806888A3DF91CF91089502C088599E4FFE
S1130EE097FDFCCF02C088569140893621E09207D5
S1130EF0D4F78A35910514F4FC0107C0843B9105AD
S1130F007CF4E4EBF0E0E81BF90BEE0FFF1FEE0FAF
S1130F10FF1FEE5FFF4D80819181A281B3811BC0D1
S1130F208E3021E0920744F4FC01EE0FFF1FEE0F18
S1130F30FF1FEE5CF24E0AC0E8E6F1E0E81BF90B95
S1130F40EE0FFF1FEE0FFF1FEE5FFF4D80819181BB
S1130F50A281B381B058682F792F8A2F9B2F0895CF
S1130F60AB0177FF04C044275527461B570B9A0152
S1130F704D3D95E0590710F02CED35E0811105C089
S1130F802093280A3093290A12C0813029F420932F
S1130F902A0A30932B0A0BC0823029F420932C0A9E
S1130FA030932D0A04C020932E0A30932F0A20E197
S1130FB030E0082E01C0220F0A94EAF7161617062D
S1130FC01CF42093850608952093860608952F9295
S1130FD03F924F925F926F927F928F929F92AF92C5
S1130FE0BF92CF92DF92EF92FF920F931F93CF9312
S1130FF0DF93CDB7DEB7A297CDBFDEBF6C012A0168
S11310003B0180E1E3E8F1E2DE01519601900D92AB
S11310108A95E1F780E1E3E9F1E2DE0111960190BE
S11310200D928A95E1F7CE01019689A39AA37E01D8
S113103091E1E90EF11C00E010E05601EAE5AE0E84
S1131040B11CC6010E946D07E9A1FAA12191319159
S113105041915191E9A3FAA30E949A20A30192011C
S11310600E949A201B014C01C5010E946D07F701E3
S113107021913191419151917F010E949A20A301C4
S113108092010E949A209B01AC01622D732D882D40
S1131090992D0E94581D1B014C0120E030E0A9014C
S11310A0732D992D0E94F81F20E030E040E05FE3AB
S11310B0622D732D18163CF4882D992D0E94581D0D
S11310C00E940B1F06C0882D992D0E94571D0E9457
S11310D01E1E0E949D1EF801EE0FFF1FE753FA4DDE
S11310E0608371830F5F1F4F0430110509F0A9CF8E
S11310F0A296CDBFDEBFDF91CF911F910F91FF90DC
S1131100EF90DF90CF90BF90AF909F908F907F90A3
S11311106F905F904F903F902F9008952F923F9241
S11311204F925F926F927F928F929F92AF92BF92F3
S1131130CF92DF92EF92FF920F931F93CF93DF939F
S1131140CDB7DEB7A297CDBFDEBF8C012A013B012C
S113115080E1E3E8F1E2DE01519601900D928A9577
S1131160E1F780E1E3E9F1E2DE01119601900D92ED
S11311708A95E1F702C008561140053B1105DCF7DA
S113118002C008591E4F0C348FEF1807D4F3FE0128
S11311903196E9A3FAA36E01F1E1CF0ED11CE12C43
S11311A0F12C58018AE5A80EB11CC8010E946D07F4
S11311B0E9A1FAA12191319141915191E9A3FAA3B5
S11311C00E949A20A30192010E949A201B014C01C3
S11311D0C5010E946D07F601219131914191519110
S11311E06F010E949A20A30192010E949A209B0100
S11311F0AC01622D732D882D992D0E94581D1B0161
S11312004C0120E030E0A901732D992D0E94F81FB4
S113121020E030E040E05FE3622D732D18163CF4CB
S1131220882D992D0E94581D0E940B1F06C0882DE1
S1131230992D0E94571D0E941E1E0E949D1EF7019B
S1131240EE0FFF1FE753FA4D60837183FFEFEF1A30
S1131250FF0A84E0E816F10409F0A7CFA296CDBFF7
S1131260DEBFDF91CF911F910F91FF90EF90DF9040
S1131270CF90BF90AF909F908F907F906F905F9032
S11312804F903F902F9008951092CF251092D02523
S11312901092CD251092CE251092CB251092CC25FC
S11312A01092C9251092CA2508958F929F92AF92E9
S11312B0BF920F931F93CF93DF93BC01A89520E4B3
S11312C03CE906C0C9010197F1F766507109A89578
S11312D067307105B8F780E090E00E94CE1E4B01A4
S11312E05C0120E030E04AEF55E40E949A208B0133
S11312F0D82FC92F20E030E040E85FE3FE01712FD2
S11313008F2F9E2F0E94311E87FD2BC020E03FEFC0
S11313104FE757E4FE01602F712F8F2F9E2F0E94FD
S1131320F81F1816B4F420E030E040E251E4C5019F
S1131330B4010E949A200E94A21E20E233E005C05C
S1131340C9010197F1F76150710961157105C1F780
S11313500DC09E01602F712F832F922F0E94A21E19
S113136002C061E070E0CB010197F1F7A895DF912D
S1131370CF911F910F91BF90AF909F908F90089540
S11313809091AC24911113C081110AC08091A924B9
S1131390811106C00CC080E88093660681E004C019
S11313A080E88093650687E080930120089580910A
S11313B00120815080930120882369F30895CF93FD
S11313C080910020882319F140E050E06AE774E43A
S11313D080E090E00E94E70784E690E00E945509CF
S11313E0C0E4C09365068EE190E00E945509C09365
S11313F066061092A7241092A8248EEF9FEF809384
S1131400852590938625109200201092AC24CF91CC
S11314100895CF9380910020882379F0C0E4C0938D
S1131420650689E190E00E945509C0936606109212
S1131430A7241092A82410920020CF91089580919F
S11314400020811113C08091AA249091AB240196AD
S11314508093AA249093AB248F3F910538F0109287
S1131460AA241092AB2481E08093002008958091F7
S1131470280787FD1FC08091A7249091A8240B976B
S113148070F081E08093A92482E08093C507809165
S1131490A7249091A8248436910568F505C010927C
S11314A0A92482E08093C6078091A7249091A82460
S11314B001961DC08091A7249091A8240B9738F021
S11314C081E08093A92482E08093C5070BC0109229
S11314D0A92482E08093C6078091A7249091A82430
S11314E0892B49F08091A7249091A8240197809397
S11314F0A7249093A82408951F920F920FB60F92D9
S1131500112408B60F9218BE09B60F9219BE0AB676
S11315100F921ABE0BB60F921BBE2F923F924F92A0
S11315205F926F927F928F929F92AF92BF92CF926F
S1131530DF92EF92FF920F931F932F933F934F935A
S11315405F936F937F938F939F93AF93BF93EF9327
S1131550FF93CF93DF93CDB7DEB76197CDBFDEBFE7
S11315608091D125893108F461C01092D1258091F0
S1131570480682FD2EC08091480687FD13C08091E5
S11315808221882391F01092C0251092C125609188
S1131590C0257091C12580E590E00E9483211092BE
S11315A0822103C081E080938221109284251092CD
S11315B08525109286258091480682FD05C080917C
S11315C048068295817001C080E00E949E061092B8
S11315D0582480918F2590919025813A9F4010F155
S11315E080918B2590918C2597FD05C080918B254A
S11315F090918C2507C080918B2590918C25919595
S113160081959109CC9774F48091480682FF02C0B9
S113161081E009C0809174258330D1F380917425D1
S11316208130B1F380E00E94C00905C08091D125CA
S11316308F5F8093D1258091C2258F5F8093C225CF
S11316408430A8F18091BC259091BD258093BE255E
S11316509093BF258091C5259091C625853B910522
S11316603CF08091C5259091C625885691400DC0C7
S11316708091C5259091C6258C349F4F54F4809158
S1131680C5259091C62588599E4F8093C525909372
S1131690C6258091C5259091C6259195819591097E
S11316A08093C5259093C6251092C225E0C381304E
S11316B009F0CBC18091A1259091A2258C32914053
S11316C070F48091A3259091A4258C32914038F434
S11316D08091A5259091A6258C32914078F054E410
S11316E0A52E54E2B52E00E010E01A861B86312C9C
S11316F0612C712C812C912C212C25C08091A72543
S11317009091A8258C32914050F78091A925909111
S1131710AA258C32914018F78091AB259091AC2585
S11317208C329140E0F68091AD259091AE258C32BB
S11317309140A8F68091AF259091B0258C329140CC
S113174008F4FAC3CCCF6801CC0CDD1C81EA95E225
S1131750C80ED91EF60140805180F5019081818127
S1131760F2E0AF0EB11CE92EF82EC7010E946D07FE
S11317709B01AC01B20180E090E02E873F87488B4B
S1131780598B0E94CE1E2E853F85488959890E9417
S11317909A209B01AC01672D782D892D922D0E94F2
S11317A0581D6C87472E582E9D87762E4201292E70
S11317B0F601C080D180C701865A9F4F0E946D07F1
S11317C09B01AC01B60180E090E02E873F87488BF7
S11317D0598B0E94CE1E2E853F85488959890E94C7
S11317E09A209B01AC01BA85AB856B2F7A2F832D90
S11317F0962D0E94581D6B017C016A87DB86382E6A
S11318006F2C0F5F1F4F0830110509F09CCF272D57
S1131810382D492D522D6C2D7D2D8E2D9F2D0E94FE
S1131820CB1D20E030E044E353E40E949A202BEDEA
S11318303FE049E450E40E94351E0E949D1E882723
S11318409927861B970B80938B2590938C258091E9
S11318508B2590918C258D349F4F3CF480918B2562
S113186090918C2588599E4F0DC080918B25909125
S11318708C25853B910554F080918B2590918C2586
S11318808856914080938B2590938C252C2D3D2D4B
S11318904E2D5F2DBC85ED856B2F742D852D9E2FD0
S11318A00E9405206B017C0120E030E0A9010E9428
S11318B0F81F20E030E040E05FE318163CF4C70175
S11318C0B6010E94581D0E940B1F06C0C701B60135
S11318D00E94571D0E941E1E0E94A21E60938F2507
S11318E07093902580918B2590918C2500918F2564
S11318F010919025880F991F880F991F865A9F4F22
S11319000E946D079B01AC01B80180E090E02E8736
S11319103F87488B598B0E94CE1E6B017C012E851C
S11319203F854889598960E070E080E191E40E9434
S1131930571D9B01AC01C701B6010E949A2020E00B
S113194030E040E05EE30E949A207B018C0120E0BD
S113195030E0A9017F2D912F0E94F81F20E030E094
S113196040E05FE36E2D7F2D18163CF4802F912FFD
S11319700E94581D0E940B1F06C0802F912F0E94A9
S1131980571D0E941E1E0E94A21E60938D257093F7
S11319908E2580918525909186259C012F5F3F4F50
S11319A020938525309386258034914008F03FC0EC
S11319B080918F25909190258039914008F4CBC275
S11319C020918F25309190258091892590918A25A9
S11319D0805991408217930708F0BDC220918F254A
S11319E0309190258091892590918A2580579E4F2A
S11319F02817390708F0AFC2809187259091882570
S1131A0020918B2530918C250497281739070CF4E5
S1131A10A2C2809187259091882520918B253091B1
S1131A208C250496821793070CF495C220C28091EA
S1131A308525909186258138924020F481E0809319
S1131A40842515C21092842596C2823009F00FC2F3
S1131A508091C3259091C4252091C5253091C62538
S1131A60821B930B853B91051CF08856914007C05F
S1131A708C342FEF92070CF002C088599E4F80934C
S1131A80BC259093BD250091BC251091BD25B801BE
S1131A90882777FD8095982F0E94D01E4B015C010A
S1131AA020E030E040E85CE30E949A202091B825D1
S1131AB03091B9254091BA255091BB250E94581DFB
S1131AC02B013C0120E030E048E453E4752D972DD0
S1131AD00E94F81F18162CF480E090E0A8E4B3E408
S1131AE015C020E030E048E453EC642D752D862DBC
S1131AF0972D0E94311E87FD05C0842D952DA62D9E
S1131B00B72D04C080E090E0A8E4B3EC8093B8253E
S1131B109093B925A093BA25B093BB25E090BE2538
S1131B20F090BF25E09EC001E19E900DF09E900DC7
S1131B30112418161906B4F020E030E040E05FE309
S1131B406091B8257091B9258091BA259091BB25F3
S1131B500E949A206093B8257093B9258093BA2582
S1131B609093BB254090B8255090B9256090BA2534
S1131B707090BB25A3019201C501B4010E949A2073
S1131B8020E030E0A9010E94311E181684F024EAF6
S1131B9030E74DE75FE3C301B2010E949A206093EE
S1131BA0B8257093B9258093BA259093BB2520E07E
S1131BB030E040EA51E4C501B4010E949A204B018F
S1131BC05C0123E333E343E850E46091B82570916A
S1131BD0B9258091BA259091BB250E949A209B013A
S1131BE0AC01C501B4010E94581D4B015C01B80150
S1131BF06E197F09882777FD8095982F0E94D01E43
S1131C002DEC3CEC4CEC5EE30E949A2020E030E0AA
S1131C1040E852E40E949A209B01AC01C501B40142
S1131C200E94581D7B018C0120E030E04AE754E417
S1131C307F2D912F0E94F81F18162CF480E090E05D
S1131C40AAE7B4E415C020E030E04AE754EC6E2D76
S1131C507F2D802F912F0E94311E87FD05C08E2D70
S1131C609F2DA02FB12F04C080E090E0AAE7B4EC30
S1131C708093B4259093B525A093B625B093B7254A
S1131C80C090B425D090B525E090B625F090B72546
S1131C9020E030E0A901C701B6010E94F81F20E04E
S1131CA030E040E05FE318163CF4C701B6010E943F
S1131CB0581D0E940B1F06C0C701B6010E94571D84
S1131CC00E941E1E0E949D1E6093C7257093C82506
S1131CD08091B325882331F088E097E08093C7256D
S1131CE09093C8258091C9259091CA252091C72534
S1131CF03091C825820F931F89839A838091CB25C5
S1131D009091CC252091C7253091C825820F931F2F
S1131D108B839C838091CD259091CE252091C725DE
S1131D203091C825820F931F8D839E838091CF2588
S1131D309091D0252091C7253091C825820F931FFB
S1131D408F8398878E010F5F1F4F7E0189E0E80E15
S1131D50F11CF80160E070E0308121813296832F1C
S1131D60922F97FF03C09195819591096817790780
S1131D700CF4BC01EE15FF0579F76D3D95E079078C
S1131D802CF48091480682FD4CC05DC0882777FD05
S1131D908095982F0E94D01E9B01AC0160E070E8F2
S1131DA08BEB94E40E94351ED62EC72EB82EA92E96
S1131DB0F80160817181882777FD8095982F0E94B2
S1131DC0D01ED601F5012B2F3C2D4F2F5A2D0E94EA
S1131DD09A203B014C0120E030E0A901772D992D98
S1131DE00E94F81F20E030E040E05FE3662D772D8D
S1131DF018163CF4882D992D0E94581D0E940B1F23
S1131E0006C0882D992D0E94571D0E941E1E0E94F7
S1131E109D1EF801619371938F01EE15FF0541F644
S1131E20B0CF6F81788580E00E94B0076D817E819C
S1131E3081E00E94B0076B817C8182E00E94B00740
S1131E4069817A8111C060E070E080E00E94B0078F
S1131E5060E070E081E00E94B00760E070E082E042
S1131E600E94B00760E070E083E00E94B00720E5C4
S1131E7030E02093792530937A2584E690E08093AE
S1131E807B2590937C2520937D2530937E2580931C
S1131E907F25909380258AE590E080936E2190932E
S1131EA06F218CE390E080937021909371218DEAEF
S1131EB094E20E94C51C89878985811124C08DEA1A
S1131EC094E20E941D1D60EA70E0681B790B80E0BB
S1131ED090E00E94CE1E20EC3BE14DE95BE30E94C2
S1131EE09A200E94F61D20E030E044E353E40E946F
S1131EF09A2025E236E049E450E40E94351E0E940F
S1131F00A21E6093B22520E040E060E08DEA94E2F6
S1131F100E94211D0E94370A0E941F0A1092542415
S1131F208091480683FF30C080916E258F5F809337
S1131F306E25823328F528C085E090E080938F25B4
S1131F409093902580938D2590938E2510928B25C8
S1131F5010928C251ECD80918F2590919025809391
S1131F60892590938A2580918B2590918C25809347
S1131F70872590938825109285251092862577CF02
S1131F800E947C1010926E256196CDBFDEBFDF915A
S1131F90CF91FF91EF91BF91AF919F918F917F91DD
S1131FA06F915F914F913F912F911F910F91FF90EE
S1131FB0EF90DF90CF90BF90AF909F908F907F90E5
S1131FC06F905F904F903F902F900F900BBE0F90AB
S1131FD00ABE0F9009BE0F9008BE0F900FBE0F905F
S1131FE01F9018951F920F920FB60F92112408B6E6
S1131FF00F9218BE09B60F9219BE0BB60F921BBEF4
S11320002F933F934F935F936F937F938F939F93FC
S1132010AF93BF93EF93FF9385E295E20E947D0215
S1132020FF91EF91BF91AF919F918F917F916F91AC
S11320305F914F913F912F910F900BBE0F9009BE6E
S11320400F9008BE0F900FBE0F901F9018951F920F
S11320500F920FB60F92112408B60F9218BE09B64C
S11320600F9219BE0BB60F921BBE2F933F934F9343
S11320705F936F937F938F939F93AF93BF93EF93EC
S1132080FF938CED94E20E947D02FF91EF91BF914A
S1132090AF919F918F917F916F915F914F913F91FC
S11320A02F910F900BBE0F9009BE0F9008BE0F909A
S11320B00FBE0F901F9018951F920F920FB60F929C
S11320C0112408B60F9218BE3FE080E49FE1A89562
S11320D03093C50720E4A895FC013197F1F721500E
S11320E0D1F7A8953093C60720E4A895FC01319751
S11320F0F1F72150D1F7EBCFCF93DF9385ED94E245
S11321000E946F1C209171253091722582179307CC
S113211009F489C0209171253091722531FF06C0E0
S113212091FFBEC503C024E120937325209171253E
S11321303091722533FF05C093FFBDC502C01092D4
S1132140732520E030E0A1E0B0E0EC01C095D0952B
S1132150422F293009F45DC0E0917125F091722578
S1132160BD01022E02C0660F771F0A94E2F7E62330
S1132170F723EF2B09F44DC06C237D23672B09F063
S1132180A5C547C060916F25709170256115724097
S113219038F060916F257091702550E0546011C043
S11321A060916F25709170256F3F710569F060F043
S11321B060916F2570917025EAE04E9FA001112473
S11321C05260460F571F10C060916F2570917025A3
S11321D0672B71F4433030F464E6469FA001112468
S11321E0516002C040E051E040936F255093702548
S11321F040916F25509170254115544050F0409105
S11322006F25509170254093732510926F2510927D
S113221070252F5F3F4F2B30310509F099CF809304
S113222071259093722585ED94E20E94E61BE0915E
S11322307325F0E0E531F10508F01FC5E650FF4FC6
S11322400C94492123EA31E241E061E085ED94E216
S11322500E946F1B27EB31E241E062E085ED94E2DE
S11322600E946F1B2CEC31E241E063E085ED94E2C7
S11322700E946F1B2EED31E21AC020EF31E241E0E3
S113228061E085ED94E20E946F1B22E032E241E0BE
S113229062E085ED94E20E946F1B23E132E241E0AB
S11322A063E085ED94E20E946F1B21E232E241E09B
S11322B064E085ED94E2DF91CF910C946F1B22E3EF
S11322C032E241E061E085ED94E20E946F1B23E479
S11322D032E241E062E085ED94E20E946F1B23E567
S11322E032E241E063E085ED94E20E946F1B27E651
S11322F032E2DDCF2CE732E241E061E085ED94E2A9
S11323000E946F1B21E932E241E062E085ED94E234
S11323100E946F1B2BE932E241E063E0CACF23EA5B
S113232031E241E061E085ED94E20E946F1B27EB0E
S113233031E241E062E085ED94E20E946F1B29EAFC
S113234032E241E063E085ED94E20E946F1B25EBED
S113235032E244E064E085ED94E20E946F1B6091F8
S11323607325605D85ED94E2DF91CF910C944F1C51
S113237026EC32E241E061E085ED94E20E946F1BBD
S11323802091C9253091CA254AE061E085ED94E2A7
S11323900E94B61B2FEC32E241E062E085ED94E24C
S11323A00E946F1B2091CB253091CC254AE062E03E
S11323B085ED94E20E94B61B28ED32E241E063E031
S11323C085ED94E20E946F1B2091CD253091CE259E
S11323D04AE063E085ED94E20E94B61B21EE32E20E
S11323E041E064E085ED94E20E946F1B2091CF25CB
S11323F03091D0254AE03AC42091C9253091CA25AC
S11324008091C7259091C825280F391F41E061E0CC
S113241085ED94E20E94B61B2091CB253091CC250A
S11324208091C7259091C825280F391F41E062E0AB
S113243085ED94E20E94B61B2091CD253091CE25E6
S11324408091C7259091C825280F391F41E063E08A
S113245085ED94E20E94B61B2091CF253091D025C2
S11324608091C7259091C825280F391F41E064E069
S113247085ED94E20E94B61B2AEE32E249E061E067
S113248085ED94E20E946F1B2091C3253091C425F1
S113249041E161E085ED94E20E94B61B21EF32E256
S11324A049E062E085ED94E20E946F1B2091C5250E
S11324B03091C62541E162E085ED94E20E94B61BAD
S11324C028EF32E249E063E085ED94E20E946F1B5D
S11324D020E030E041E163E085ED94E20E94B61B28
S11324E02EEF32E249E064E085ED94E20E946F1B36
S11324F02091C0253091C1258AC023E033E241E018
S113250061E085ED94E20E946F1B2091A12530913A
S1132510A22547E061E085ED94E20E94B61B29E024
S113252033E241E062E085ED94E20E946F1B20916A
S1132530A3253091A42547E062E085ED94E20E9452
S1132540B61B2FE033E241E063E085ED94E20E94A4
S11325506F1B2091A5253091A62547E063E085ED0A
S113256094E20E94B61B25E133E241E064E085ED8C
S113257094E20E946F1B2091A7253091A82547E083
S113258064E085ED94E20E94B61B2BE133E24BE05C
S113259061E085ED94E20E946F1B2091A9253091A2
S11325A0AA2541E161E085ED94E20E94B61B21E297
S11325B033E24BE062E085ED94E20E946F1B2091D0
S11325C0AB253091AC2541E162E085ED94E20E94B7
S11325D0B61B27E233E24BE063E085ED94E20E9410
S11325E06F1B2091AD253091AE2541E163E085ED6F
S11325F094E20E94B61B2DE233E24BE064E085EDE9
S113260094E20E946F1B2091AF253091B02541E1E7
S11326102DC323E033E241E061E085ED94E20E94C2
S11326206F1B209191253091922547E061E085ED63
S113263094E20E94B61B29E033E241E062E085EDBA
S113264094E20E946F1B209193253091942547E0DA
S113265062E085ED94E20E94B61B2FE033E241E094
S113266063E085ED94E20E946F1B209195253091E3
S1132670962547E063E085ED94E20E94B61B25E1D0
S113268033E241E064E085ED94E20E946F1B209107
S113269097253091982547E064E085ED94E20E9407
S11326A0B61B2BE133E24BE061E085ED94E20E943E
S11326B06F1B2091992530919A2541E161E085EDC8
S11326C094E20E94B61B21E233E24BE062E085ED26
S11326D094E20E946F1B20919B2530919C2541E13F
S11326E062E085ED94E20E94B61B27E233E24BE000
S11326F063E085ED94E20E946F1B20919D2530914B
S11327009E2541E163E085ED94E20E94B61B2DE233
S113271033E24BE064E085ED94E20E946F1B20916C
S11327209F253091A02573CF23E333E241E061E09C
S113273085ED94E20E946F1B20918B2530918C25AE
S11327408091C5259091C625280F391F4CE061E082
S113275085ED94E20E94B61B20E433E241E062E09E
S113276085ED94E20E946F1B20918B2530918C257E
S11327704CE062E085ED94E20E94B61B2DE433E266
S113278041E063E085ED94E20E946F1B20918F2568
S1132790309190254CE063E085ED94E20E94B61BF5
S11327A02AE533E241E064E085ED94E20E946F1B88
S11327B020918D2530918E254CE064E085ED94E2E6
S11327C00E94B61B27E633E241E161E085ED94E225
S11327D00E946F1B209181253091822541E162E0A6
S11327E085ED94E20E94B61B2CE633E241E163E0FE
S11327F085ED94E20E946F1B2091832574C021E72C
S113280033E241E061E085ED94E20E946F1B2FE723
S113281033E241E062E085ED94E20E946F1B2DE813
S113282033E241E063E085ED94E20E946F1B209166
S1132830842530E04FE061E085ED94E20E94B61B10
S113284020918525309186254FE062E085ED94E264
S11328500E94B61B2091742530E04FE063E085EDC3
S113286094E20E94B61B2091480622FB222720F9FD
S113287030E041E064E085ED94E20E94B61B809173
S11328804806992787FD909580959095292F221FBA
S11328902227221F30E045E064E085ED94E20E94A7
S11328A0B61B80912807992787FD90958095909570
S11328B0292F221F2227221F30E049E064E085ED02
S11328C094E20E94B61B2091480623FB222720F99C
S11328D030E04DE064E085ED94E20E94B61B209167
S11328E048062295217030E092CE2BE933E241E094
S11328F061E085ED94E20E946F1B20917F25309169
S113290080254BE061E085ED94E20E94B61B25EA48
S113291033E241E062E085ED94E20E946F1B209176
S1132920792530917A254BE062E085ED94E20E94AE
S1132930B61B20EB33E241E063E085ED94E20E94B4
S11329406F1B20917B2530917C254BE063E085ED66
S113295094E20E94B61B2BEB33E241E064E085ED88
S113296094E20E946F1B20917D2530917E254BE0DF
S113297064E085ED94E20E94B61B25EC33E24FE05F
S113298061E085ED94E20E946F1B20916E213091ED
S11329906F214FE062E085ED94E20E94B61B2BECC0
S11329A033E24FE063E085ED94E20E946F1B2091D7
S11329B07021309171214FE059C121ED33E241E0A2
S11329C061E085ED94E20E946F1B2DED33E241E05E
S11329D062E085ED94E20E946F1B29EE33E241E050
S11329E063E085ED94E20E946F1B26EF33E241E041
S11329F064E085ED94E20E946F1B2091752530916F
S1132A0076254EE061E085ED94E20E94B61B2091AC
S1132A107725309178254EE062E085ED94E20E94BE
S1132A20B61B20916E2130916F214EE063E085ED5D
S1132A3094E20E94B61B20917021309171214EE0E6
S1132A4015C123E034E216C141E061E085ED94E272
S1132A500E942B1C60917424605D85ED94E20E94B9
S1132A604F1C60917524605D85ED94E20E944F1CBB
S1132A7060917624605D85ED94E20E944F1C609124
S1132A807724605D85ED94E20E944F1C6091782468
S1132A90605D85ED94E20E944F1C60917924605D35
S1132AA085ED94E20E944F1C60917A24605D85ED6F
S1132AB094E20E944F1C60915B24605D85ED94E27A
S1132AC00E944F1C60915C24605D85ED94E20E943D
S1132AD04F1C60915D24605D85ED94E20E944F1C63
S1132AE060915E24605D85ED94E20E944F1C6091CC
S1132AF05F24605D85ED94E20E944F1C6091602428
S1132B00605D85ED94E20E944F1C60916124605DDC
S1132B1085ED94E20E944F1C2091732430E041E043
S1132B2062E085ED94E20E94B61B2091622430E0BD
S1132B304EE062E085ED94E20E94B61B209172247F
S1132B4030E041E063E085ED94E20E94B61B209101
S1132B50632430E04EE063E085ED94E20E94B61B0E
S1132B6041E064E085ED94E20E942B1C60917124A5
S1132B70605D85ED94E20E944F1C60917024605D5D
S1132B8085ED94E20E944F1C60916F24605D85ED99
S1132B9094E20E944F1C60916E24605D85ED94E286
S1132BA00E944F1C60916D24605D85ED94E20E944B
S1132BB04F1C60916C24605D85ED94E20E944F1C73
S1132BC060916B24605D85ED94E20E944F1C6091DE
S1132BD06A24605D85ED94E20E944F1C6091692433
S1132BE0605D85ED94E20E944F1C60916824605DF5
S1132BF085ED94E20E944F1C60916724605D85ED31
S1132C0094E20E944F1C60916624605D85ED94E21D
S1132C100E944F1C60916524605D85ED94E20E94E2
S1132C204F1C60916424605D85ED94E20E944F1C0A
S1132C3025E134E240E161E085ED94E20E946F1BFE
S1132C402091582430E040E162E085ED94E20E9456
S1132C50B61B2CEE32E240E163E085ED94E20E9483
S1132C606F1B2091592430915A2440E164E012C032
S1132C702AE134E241E061E01CCB22E334E241E0AA
S1132C8061E085ED94E20E946F1B2091732530E092
S1132C9041E062E085ED94E2DF91CF910C94B61BA4
S1132CA0209173252150209373252091732525317C
S1132CB008F039CA3BCA209173252F5F20937325EE
S1132CC020917325253108F03ACA3BCA4F5F4A3038
S1132CD008F458CA40E056CA8091A924882309F40C
S1132CE0B3C08091C3259091C425892B09F047C1B5
S1132CF080917F25909180254F9708F431C1809170
S1132D007F2590918025889708F02AC180917925A4
S1132D1090917A25499730F08091792590917A2580
S1132D20849770F080917D2590917E25499708F4D1
S1132D3017C180917D2590917E25849708F010C15C
S1132D4080917B2590917C258937910508F017C1E6
S1132D5007C185EB9FEF8093C3259093C425809191
S1132D60C5259091C625843C9F4F0CF05DC10C9401
S1132D70DF098BE490E08093C3259093C425809170
S1132D80C5259091C625CD970CF44EC1F0CF809106
S1132D907F2590918025C29708F401C180917B25FD
S1132DA090917C254E9708F4FAC006C140E050E0AB
S1132DB066E174E48AE590E023C140E050E066E116
S1132DC074E486EA9FEF1CC18091C5259091C625C5
S1132DD00A976CF208958091C5259091C625919526
S1132DE0819591090A971CF2089580917925909113
S1132DF07A2584349105D0F280917D2590917E25A9
S1132E0084349105D0F240E050E06AE774E480E055
S1132E1090E00E948E088091C5259091C62597FD6B
S1132E2008C08091C5259091C6250A970CF49FCFC0
S1132E3008958091C5259091C62591958195910914
S1132E400A970CF494CF08958091C3259091C425DA
S1132E50892B29F01092C3251092C42508958091DE
S1132E608F25909190258539914108F4B4C08091C3
S1132E708B2590918C2597FD05C080918B25909191
S1132E808C2507C080918B2590918C2591958195F7
S1132E9091090B970CF4A7C09EC080918F25909147
S1132EA09025893B9B4008F4B6C080918B25909176
S1132EB08C2597FD05C080918B2590918C2507C0AA
S1132EC080918B2590918C259195819591098D9771
S1132ED00CF498C0A0C080918B2590918C2540E083
S1132EE050E869E874E48E5091408AC080918B2543
S1132EF090918C25863A9F4F5CF480918B2590911C
S1132F008C2540E050E869E874E4825F9E4F78C005
S1132F1080918B2590918C259C01220F331F40E0DA
S1132F2050E061E674E46AC068E270E08AE590E02B
S1132F300C94440980918425882349F080918B2541
S1132F4090918C2540E050E862E774E459C0809188
S1132F508B2590918C2540E050E06AE774E450C0E2
S1132F602091792530917A2580917D2590917E2537
S1132F70820F931F8837910508F409CF36CF40E0BC
S1132F8050E0BA0180E090E00E94E70780916E2152
S1132F9090916F218B3591050CF4DBCEEACE209114
S1132FA0792530917A2580917D2590917E25281769
S1132FB0390708F4FBCE01CF40E050E06AE774E43F
S1132FC080E090E00E948E088091C5259091C625EE
S1132FD097FFFACE00CF80918F2590919025853769
S1132FE09E4080F45ACF80918B2590918C259C0132
S1132FF0220F331F40E050E068E474E4820F931F13
S11330000C948E0880918B2590918C258B3591059D
S11330100CF46CCF60CF80918F25909190258837E8
S1133020910508F087CF80CF0895CF93DF938091E7
S1133030280787FD19C08091C5259091C62597FD65
S113304005C08091C5259091C62507C08091C525EE
S11330509091C6259195819591098D970CF0BCC0EE
S1133060DF91CF910C94DF0980918F259091902569
S11330708936904108F497C080918B2590918C25D6
S113308097FD05C080918B2590918C2507C0809178
S11330908B2590918C259195819591098D970CF4B0
S11330A06EC081C080918F2590919025813F9A4078
S11330B008F481C080918B2590918C2597FD05C0E3
S11330C080918B2590918C2507C080918B259091C0
S11330D08C259195819591098D970CF474C06BC0E2
S11330E080918B2590918C2540E050E869E874E448
S11330F08E5091401CC080918B2590918C25863AEE
S11331009F4F5CF480918B2590918C2540E050E892
S113311069E874E4825F9E4F0AC080918B25909188
S11331208C2540E050E061E674E4880F991F0E940A
S11331308E081092C3251092C42530C068E270E056
S11331408AE590E00E94440929C080918F259091DE
S11331509025C0918B25D0918C2568E873E1681B7C
S1133160790B80E090E00E94CE1E2AE939E949E912
S11331705EE30E949A20AB01BC01CE010DC0809198
S11331808B2590918C259C01220F331F40E050E049
S113319068E474E4820F931F0E948E081092C32582
S11331A01092C42519C080918F2590919025893B58
S11331B09B4048F477CF80918F2590919025883754
S11331C0910518F6BBCF80918B2590918C258B357A
S11331D091050CF490CF84CFDF91CF910895809125
S11331E0280787FD19C08091C5259091C62597FDB4
S11331F007C08091C5259091C6258D975CF00895F0
S11332008091C5259091C6259195819591098D97B9
S11332100CF0B6C00C94DF0980917021909171215B
S11332208B35910534F06EE170E08AE590E00C9402
S1133230440980918F25909190258936904108F416
S113324086C080918B2590918C2597FD05C0809137
S11332508B2590918C2507C080918B2590918C258E
S1133260919581959109CC970CF45DC070C08091C3
S11332708F2590919025813F9A4008F470C08091E9
S11332808B2590918C2597FD05C080918B2590917D
S11332908C2507C080918B2590918C2591958195E3
S11332A091098D970CF463C05AC080918B2590913D
S11332B08C2540E050E869E874E48E5091401CC0CD
S11332C080918B2590918C25863A9F4F5CF4809158
S11332D08B2590918C2540E050E869E874E4825F86
S11332E09E4F0AC080918B2590918C2540E050E040
S11332F061E674E4880F991F0E948E081092C3251A
S11333001092C4251FC068E270E08AE590E00E9434
S1133310440918C080918B2590918C2540E050E0A1
S11333206AE774E40DC080918B2590918C259C01F3
S1133330220F331F40E050E068E474E4820F931FCF
S11333400E948E081092C3251092C425089580917E
S11333508F259091902581389C4048F488CF8091A6
S11333608F259091902588379105A0F6CCCF809138
S11333708B2590918C258B3591050CF4A1CF95CF9D
S113338008952091B2258091C3259091C425820F80
S1133390911D8093C3259093C42540E050E0BA0169
S11333A080E090E00C94E707A89597E188ED0FB6CC
S11333B0F894A89580933400909380000FBE83EC1A
S11333C0809352008091500088608093500082EC7A
S11333D0809355008091510083FFFCCF8091500071
S11333E080618093500088ED84BF109241008091E9
S11333F0510084FFFCCF88ED84BFC4E0C09340003B
S11334002BE940EC60E874E085E295E20E945E01FD
S11334102BE940EC60E974E08CED94E20E945E01DB
S113342088EC809360068FEF809380068FE780930B
S113343020078FE08093C00780E180935706909126
S1133440780093FF04C088E08093C5072EC0909154
S1133450780092FF05C0C093C507C093780027C0C9
S11334609091780095FF07C0C093C50788E08093CA
S1133470C50780E21AC09091780094FF06C080933B
S1133480250790E49093250710C09091780091FF50
S113349004C08093250782E008C08091780080FFF3
S11334A006C080E48093250781E08093780083EF51
S11334B08093010A8CED95E08093260A9093270A65
S11334C021E02093000A87E080930008109201080D
S11334D084E690E0809326089093270810922008B1
S11334E0109221082093060880E090E00E947E213B
S11334F08093C0259093C12580E590E00E947E21B1
S11335008093C0259093C1258091C0259091C125B9
S113351081319E4024F01092C0251092C1250E9452
S11335208D06F89487E08093A200789461E085ED9D
S113353094E20E94061C0E9442071092C325109236
S1133540C42540E050E0BA0180E090E00E94E70723
S1133550C1E0DAE6A8958091480686FF03C0C093CF
S1133560742502C0109274258091480685FF05C019
S1133570809174258E5F809374258091842588239F
S113358021F0809174258130A1F1809158248230FA
S113359068F08091592490915A2440E050E862EAFE
S11335A074E48C549F4F0E94E707D4CF8091742514
S11335B0811103C00E946C16CDCF80917425813097
S11335C019F40E94EF18C6CF80917425823019F443
S11335D00E941518BFCF0E94C1198091480682FD30
S11335E004C08091A924811107C08D2F8A95F1F719
S11335F0B1CF10927425C9CF0E94090AF6CF40EDCD
S11336006CED74E288ED94E20E94B81C46EC65E22D
S113361075E285ED94E20E94691B40EC65E275E277
S113362081ED94E20E94621B42EE65E275E281EC58
S113363094E20E94501D44EE65E275E285EC94E24A
S11336400E94501D46EE65E275E289EC94E20E9408
S1133650501D48EE65E275E28DEC94E20E94501D27
S113366040E165E275E28DEB94E20E94B11C48E50D
S113367065E275E28DEA94E20C94BF1C8DEA94E253
S11336800E94C41C8DEB94E20E94B71C8DEC94E262
S11336900E94561D89EC94E20E94561D85EC94E22A
S11336A00E94561D81EC94E20E94561D81ED94E225
S11336B00E94681B85ED94E20E946E1B88ED94E2E3
S11336C00C94BE1CFC0113826083718342830895B1
S11336D00895FC0160837183428308950895EF92F5
S11336E0FF920F931F93CF93DF93CDB7DEB7699704
S11336F0CDBFDEBF7C01FE01319689E1DF011D9261
S11337008A95E9F783E08A836B834C83D9010D9012
S11337100020E9F711971A2F121B153108F014E154
S1133720FE013596412F50E0B901CF010E9454218A
S1133730F70180819181FC01E95BFF4F2081211118
S1133740FDCF212F2C5F00E0AE014F5F5F4FD7010B
S113375012966C910E946F016996CDBFDEBFDF9116
S1133760CF911F910F91FF90EF900895CF92DF9228
S1133770EF92FF920F931F93CF93DF93CDB7DEB7F2
S11337802697CDBFDEBF7C01D62EC42EC9018E0183
S11337900F5F1F4F26E0F80111922A95E9F74AE0DE
S11337A050E0B8010E945D2198014C2D6D2DC70198
S11337B00E946F1B2696CDBFDEBFDF91CF911F9174
S11337C00F91FF90EF90DF90CF9008950F93CF93D8
S11337D0DF9300D0CDB7DEB7FC0119828CE08A8379
S11337E080819181DC01A95BBF4F2C912111FDCF18
S11337F000E022E0AE014F5F5F4F62810E946F01E3
S11338000F900F90DF91CF910F9108950F93CF9365
S1133810DF9300D0CDB7DEB7FC0119821A8266238C
S113382011F083E101C084E18A8380819181DC010C
S1133830A95BBF4F2C912111FDCF00E022E0AE0126
S11338404F5F5F4F62810E946F010F900F90DF9175
S1133850CF910F9108950F93CF93DF9300D000D0B1
S1133860CDB7DEB7FC01198283E08A836B834C8376
S113387080819181DC01A95BBF4F2C912111FDCF87
S113388000E024E0AE014F5F5F4F62810E946F0150
S11338902496CDBFDEBFDF91CF910F9108950F9392
S11338A0CF93DF9300D0CDB7DEB7FC0119821A8223
S11338B06A8380819181DC01A95BBF4F2C91211126
S11338C0FDCF00E022E0AE014F5F5F4F62810E94B6
S11338D06F010F900F90DF91CF910F910895EF92A8
S11338E0FF920F93CF93DF931F92CDB7DEB77C0186
S11338F081E08983D7018D919C91FC01E95BFF4FA5
S113390020812111FDCF02E021E0AE014F5F5F4F26
S1133910F70162810E946F01D701ED91FC91DF01F3
S1133920A95BBF4F8C918111FDCFDF01A85BBF4F15
S11339308C91813031F4DF01AA5BBF4F8C918230CE
S113394019F02FEF3FEF05C083A194A1392F20E098
S1133950282BC9010F90DF91CF910F91FF90EF9029
S11339600895FC011382608371834283089508954E
S1133970FC01138260837183428308950895FC01DE
S113398060837183428308950895CF93DF93EC019C
S113399088819981FC01E95BFF4F20812111FDCFD2
S11339A06A810E94BF01E881F981DF01A95BBF4FF1
S11339B08C918111FDCFDF01AA5BBF4F8C918E30BA
S11339C0B0F124A133A1932F80E0822B85359A4A4C
S11339D021F520A537A1932F80E0822B8D879E8728
S11339E022A531A5932F80E0822B8B839C8324A571
S11339F033A5932F80E0822B8D839E8326A535A546
S1133A00932F80E0822B8F83988720A937A5932F4B
S1133A1080E0822B89879A870DC024A133A1932F3C
S1133A2080E0822B86359A4A29F082E001C083E047
S1133A308F8700C0DF91CF910895FC018381948129
S1133A4008950F931F93CF93DF93CDB7DEB72597D8
S1133A50CDBFDEBFFC018E010F5F1F4F85E0D80193
S1133A601D928A95E9F78DEF8A836B834C832D83AE
S1133A7080819181DC01A95BBF4F2C912111FDCF85
S1133A8000E025E0AE014F5F5F4F62810E946F014D
S1133A902596CDBFDEBFDF91CF911F910F91089581
S1133AA0FC01138260837183428308950895505802
S1133AB0BB27AA270ED04BC23CD230F041D220F013
S1133AC031F49F3F11F41EF40CC20EF4E095E7FBB1
S1133AD0D9C1E92F4DD280F3BA176207730784075F
S1133AE0950718F071F49EF57CC20EF4E0950B2E48
S1133AF0BA2FA02D0B01B90190010C01CA01A0013C
S1133B001124FF27591B99F0593F50F4503E68F196
S1133B101A16F040A22F232F342F4427585FF3CFD7
S1133B20469537952795A795F0405395C9F77EF4A8
S1133B301F16BA0B620B730B840BBAF09150A1F0F1
S1133B40FF0FBB1F661F771F881FC2F70EC0BA0F77
S1133B50621F731F841F48F4879577956795B795FF
S1133B60F7959E3F08F0B3CF9395880F08F09927F7
S1133B70EE0F979587950895DCD158F080E891E091
S1133B8009F49EEFDDD128F040E851E059F45EEFEE
S1133B9009C0A7C126C2E92FE078EAD168F3092E4B
S1133BA0052AC1F3261737074807590738F00E2EA0
S1133BB007F8E02569F0E025E0640AC0EF6307F840
S1133BC0009407FADB01B9019D01DC01CA01AD01D2
S1133BD0EF935AD0BCD10AD05F91552331F02BED2D
S1133BE03FE049E450FD49EC63CF0895DF93DD27BE
S1133BF0B92FBF7740E85FE31616170648075B073F
S1133C0010F4D92F5AD29F938F937F936F9337D306
S1133C10EEE1F2E069D19BD12F913F914F915F91F9
S1133C2095D2DD2349F09058A2EA2AED3FE049EC11
S1133C305FE3D0785D274DDFDF9189C1BBD180F090
S1133C409F3740F491110EF4CDC160E070E080E83C
S1133C509FE3089526F01B16611D711D811D18C177
S1133C6032C1ECD008F481E008950CD070C168D161
S1133C7040F05FD130F021F45F3F19F003C15111DE
S1133C80B1C12FC175D198F39923C9F35523B1F369
S1133C90951B550BBB27AA2762177307840738F0B7
S1133CA09F5F5F4F220F331F441FAA1FA9F333D016
S1133CB00E2E3AF0E0E830D091505040E695001CCA
S1133CC0CAF729D0FE2F27D0660F771F881FBB1F86
S1133CD0261737074807AB07B0E809F0BB0B802D60
S1133CE0BF01FF2793585F4F2AF09E3F510568F0AC
S1133CF0C9C078C15F3FECF3983EDCF386957795B5
S1133D006795B795F7959F5FC9F7880F911D9695AD
S1133D10879597F90895E1E0660F771F881FBB1F09
S1133D20621773078407BA0720F0621B730B840BB6
S1133D30BA0BEE1F88F7E095089504D06894B1118A
S1133D4051C108951DD188F09F5790F0B92F99273C
S1133D50B751A0F0D1F0660F771F881F991F1AF092
S1133D60BA95C9F712C0B13081F03BD1B1E00895E2
S1133D7038C1672F782F8827B85F39F0B93FCCF363
S1133D80869577956795B395D9F73EF49095809588
S1133D90709561957F4F8F4F9F4F0895E89409C0A8
S1133DA097FB3EF490958095709561957F4F8F4F6A
S1133DB09F4F9923A9F0F92F96E9BB279395F69580
S1133DC0879577956795B795F111F8CFFAF4BB0FFE
S1133DD011F460FF1BC06F5F7F4F8F4F9F4F16C062
S1133DE0882311F096E911C0772321F09EE8872FEC
S1133DF0762F05C0662371F096E8862F70E060E0A8
S1133E002AF09A95660F771F881FDAF7880F969520
S1133E10879597F90895CED080F09F3740F491119B
S1133E200EF0E0C060E070E080E89FEB089526F4B7
S1133E301B16611D711D811D2BC045C0990F000803
S1133E40550FAA0BE0E8FEEF16161706E807F90768
S1133E50C0F012161306E407F50798F0621B730B03
S1133E60840B950B39F40A2661F0232B242B252B84
S1133E7021F408950A2609F4A140A6958FEF811D27
S1133E80811D089597F99F6780E870E060E00895C8
S1133E90882371F4772321F09850872B762F07C05D
S1133EA0662311F499270DC09051862B70E060E0D1
S1133EB02AF09A95660F771F881FDAF7880F969570
S1133EC0879597F908959F3F31F0915020F4879595
S1133ED077956795B795880F911D9695879597F96E
S1133EE008959FEF80EC0895DF93CF931F930F9372
S1133EF0FF92EF92DF927B018C01689405C0DA2E69
S1133F00EF0124D1FE01E894A591259135914591C5
S1133F105591AEF3EF01DDDDFE019701A801DA94BE
S1133F2079F7DF90EF90FF900F911F91CF91DF9180
S1133F30089500240A94161617061806090608950B
S1133F4000240A9412161306140605060895092E71
S1133F500394000C11F4882352F0BB0F40F4BF2BE0
S1133F6011F460FF04C06F5F7F4F8F4F9F4F089520
S1133F7057FD9058440F551F59F05F3F71F0479516
S1133F80880F97FB991F61F09F3F79F087950895FB
S1133F90121613061406551FF2CF4695F1DF08C01A
S1133FA0161617061806991FF1CF86957105610537
S1133FB008940895E5DFA0F0BEE7B91788F4BB279D
S1133FC09F3860F41616B11D672F782F8827985FE5
S1133FD0F7CF869577956795B11D93959639C8F374
S1133FE00895E894BB2766277727CB0197F90895AE
S1133FF025DF08F48FEF08959CDF19F0A1DF09F0A5
S113400070CF40CFB901CA015ECF9F775F77B0DF31
S113401098F39923B9F35523B9F3FF27951758F467
S1134020E52FE91BED3070F75E3B10F0F1E41CC0A6
S11340309034E0F40AC0E92FE51BED3028F79E3BED
S113404010F0F1E411C0503488F4F9EA88232AF01E
S11340509A95660F771F881FDAF744232AF05A953A
S1134060220F331F441FDAF79F1B5F1BFF931F931D
S11340700F93FF92EF9279018A01BB27AB2F9B012B
S1134080AC0166D09701A801BF937B018C01AA27DC
S1134090BA2FB901CA015CD0AF919701A801EF9082
S11340A0FF900F911F9115DD52DFABD04F9140FF70
S11340B00895552747FD509509C09B01AC0160E068
S11340C070E080E89FE3D1CDDDCEFDCE59DFE8F38B
S11340D09923D9F3940F511DBBF39150504094F0A0
S11340E059F0882332F0660F771F881F9150504093
S11340F0C1F79E3F510544F7880F911D969587950A
S113410097F908955F3FACF0983E9CF0BB278695E5
S113411077956795B79508F4B1609395C1F7BB0F90
S113412058F711F460FFE8CF6F5F7F4F8F4F9F4FB9
S1134130E3CF58CF0BD00BCFFCDE28F001DF18F013
S1134140952309F09FCECDCE11244CCF11DFA0F3DF
S1134150959FD1F3950F50E0551F629FF001729F18
S1134160BB27F00DB11D639FAA27F00DB11DAA1F37
S1134170649F6627B00DA11D661F829F2227B00D84
S1134180A11D621F739FB00DA11D621F839FA00D0F
S1134190611D221F749F3327A00D611D231F849F5F
S11341A0600D211D822F762F6A2F11249F575040B6
S11341B08AF0E1F088234AF0EE0FFF1FBB1F661F51
S11341C0771F881F91505040A9F79E3F510570F00A
S11341D059CE08CF5F3FECF3983EDCF38695779594
S11341E06795B795F795E7959F5FC1F7FE2B880F05
S11341F0911D9695879597F9089511F40EF471CE53
S113420062CEBEDED0F39923D9F3CEF39F57550B7C
S113421087FF38D00024A0E640EA900180585695E4
S1134220979528F4805C660F771F881F20F0261767
S11342303707480730F4621B730B840B202931299C
S11342404A2BA69517940794202531254A2758F719
S1134250660F771F881F20F026173707480730F4AA
S1134260620B730B840B200D311D411DA09581F74A
S1134270B901842F9158880F9695879508959B01CD
S1134280AC0158CF91505040660F771F881FD2F76A
S11342900895EE0FFF1F0590F491E02D0994079007
S11342A0F691E02D1BBE0994FB01DC0102C00190D4
S11342B00D9241505040D8F70895FB019F01E894B6
S11342C04230C4F04532B4F44A3029F497FB1EF46A
S11342D0909581959F4F642F77270E94CB21805D15
S11342E08A330CF0895D8193CB010097A1F716F412
S11342F05DE251931082C9010C9498210E948C2193
S11343008081918108950E94A821272F0C94A921CE
S113431003D0808199270895E0ECF1E0378537FDDB
S1134320FDCF348538603487FC01E050F04F0895A8
S1134330DC01FC01672F71917723E1F7329704C008
S11343407C916D9370836291AE17BF07C8F3089593
S1134350262FE0ECF1E0378537FDFDCF3485377F3C
S11343603487378531FF09C036E3328738ED34BFEF
S113437031E03387378537FDFDCF33E332878083E0
S113438091831282248325E3228728ED31E024BF20
S1134390338701960895AA1BBB1B51E107C0AA1FCE
S11343A0BB1FA617B70710F0A61BB70B881F991FD2
S11343B05A95A9F780959095BC01CD01089512E016
S11343C0CEE4D2E000E006C022970109FE010BBF53
S11343D00E944F21C035D10780E00807A9F7F8945F
S10543E0FFCF09
S11343E20101000000005BF88E3CC7F20E3D3B5E0B
S11343F2563D7BDC8E3DB57EB23D0413D63DA2967E
S1134402F93D65830E3E5C30203ED4D0313E6F636D
S1134412433ECDE6543E9159663E60BA773EEE8302
S1134422843E57208D3EBEB1953E7A379E3EDEB025
S1134432A63E441DAF3E017CB73E6FCCBF3EE90DA4
S1134442C83EC93FD03E6C61D83E2F72E03E7171C6
S1134452E83E945EF03EF738F83E0000003F89D90A
S1134462033FCAA8073F776D0B3F44270F3FE8D5A8
S1134472123F1879163F8D101A3FFE9B1D3F241BD5
S1134482213FBB8D243F7CF3273F254C2B3F729762
S11344922E3F22D5313FF304353FA726383FFF395B
S11344A23B3FBD3E3E3FA634413F7D1B443F0AF3A2
S11344B2463F13BB493F60734C3FBD1B4F3FF3B3B1
S11344C2513FCE3B543F1DB3563FAE19593F516F36
S11344D25B3FD7B35D3F14E75F3FDA08623F0119E0
S11344E2643F5E17663FCA03683F1EDE693F35A616
S11344F26B3FEC5B6D3F21FF6E3FB28F703F810DCE
S1134502723F7178733F64D0743F3F15763FEA4639
S1134512773F4D65783F5170793FE2677A3FEB4BC5
S11345227B3F5C1C7C3F25D97C3F35827D3F8117D4
S11345327E3FFD987E3F9E067F3F5C607F3F2FA6B5
S11345427F3F14D87F3F05F67F3F0000803F5B002A
S11345521400D900F800F700C500E7002C01E800B8
S1134562D700010000803F0000803F000080BF00B0
S11345720080BF0000803F000080BF000080BF00B9
S113458200803F20496E68616C74737665727A6547
S11345926963686E6973002D2D2D2D2D2D2D2D2D02
S11345A22D2D2D2D2D2D2D2D2D2D2D005365697481
S11345B26520303030206269732030303900616BFD
S11345C27475656C6C2053656974652030303000F5
S11345D23031302046616872747269636874756E32
S11345E267003031312050494420756E6420434DB8
S11345F25053003031322041444320576572746570
S1134602003031332041444320546965667061733C
S113461273003031342042616C6C706F7369746959
S11346226F6E003031352042616C6C696E616B745F
S113463269760030313620555320756E6420506FF0
S1134642736974696F6E003031372046696C746522
S113465272706F736974696F6E656E0030313820E1
S11346624D505520284779726F202B2041636329CE
S113467200303139204C696E696500303230205285
S1134682617370626572727900504C41545A4841A8
S11346924C54455200616B7475656C6C20536569AA
S11346A27465203030004D6F746F7220303A004DC3
S11346B26F746F7220313A004D6F746F7220323A08
S11346C2004D6F746F7220333A00735F7068693AF9
S11346D2007068695F6A3A00434D50533A00546F60
S11346E2723A00414443303A00414443313A004172
S11346F24443323A00414443333A00414443343A56
S113470200414443353A00414443363A004144436C
S1134712373A0042616C6C77696E6B656C413A00A2
S113472242616C6C77696E6B656C523A0042616CE3
S11347326C64697374616E7A3A0042616C6C646988
S1134742737477696E3A0054534F50004C65676F27
S113475200546F72776172743246656C643A006217
S1134762616C6C5F636F756E7465723A0053575F68
S1134772706F732020202020203A0055532D766F2D
S1134782726E653A0055532D7265636874733A000C
S113479255532D68696E74656E3A0055532D6C69D4
S11347A26E6B733A00706F73583A00706F73593AB4
S11347B20055535F6E5F706F7320583A0055535F14
S11347C26E5F706F7320593A0055535F74775F7050
S11347D26F7320583A0055535F74775F706F73207C
S11347E2593A005F4D5055206E6F7420636F6D709F
S11347F2696C6564006F75743A005F5241535042AC
S113480245525259206E6F7420636F6D70696C65E6
S11348126400556E6775656C7469676520536569D4
S113482274653A0043007F0152012501F800CB0070
S10748329E0071006F
S9030000FC
