:1000000019C033C032C031C030C02FC02EC02DC087
:100010002CC02BC02AC029C028C027C026C025C09C
:1000200024C024C08BC29FC220C01FC01EC01DC0E0
:100030001CC01BC011241FBECFEFD2E0DEBFCDBF5E
:1000400011E0A0E0B1E0E4ECF6E002C005900D9212
:10005000AA30B107D9F721E0AAE0B1E001C01D92B2
:10006000A63AB207E1F7A2D02BC3CACF1F920F92D4
:100070000FB60F9211248F939F93EF93FF9380916C
:100080005001813041F028F0823039F0833041F462
:1000900006C0439A05C0419A03C05E9A01C05C9AAB
:1000A00080915201882371F080915101E0915001BB
:1000B00098E0E99FF0011124E80FF11D8EB5E05D95
:1000C000FE4F80838091520191E0892780935201F5
:1000D00080915201813081F580915001813059F039
:1000E00028F0823059F08330B9F70DC086B182FB19
:1000F000882780F90CC086B1817009C089B185FB61
:10010000882780F904C089B183FB882780F9882378
:1001100019F380915001813041F028F0823039F09C
:10012000833041F406C0439805C0419803C05E98EF
:1001300001C05C981EBC31C0809151018F5F8093DB
:10014000510180915101883041F410925101809108
:1001500050018F5F83708093500180915001811115
:1001600004C0809151018823C1F0809150018130F9
:1001700041F028F0823039F0833041F406C04398D2
:1001800005C0419803C05E9801C05C98E0915101A0
:10019000F0E0EF5FFE4F80818EBDFF91EF919F9168
:1001A0008F910F900FBE0F901F901895A8952CE07F
:1001B00088E190E00FB6F894A895809360000FBE98
:1001C000209360008FE284B98AE387B984ED8AB90D
:1001D0002A9A04B603FE04C05F9A84B7877F84BF5F
:1001E000439A419A5E9A5C9A81ED8CBD81E08DBD07
:1001F00044E050E060E070E08BE091E03CD240E20F
:1002000050E060E870E08BE091E035D291D18CE075
:1002100090E0D5D178948EEFF82EC0EEDEE290E833
:10022000E92E20ECD22E03E010E032E0C32EBB24F6
:10023000B394A89580915001811106C0809151011D
:10024000811102C04398FEBCCE010197F1F7E09204
:100250002B0180E090E040912B01FC01E05DFE4F1E
:100260006081FC01E55FFE4F508121E030E05617D0
:1002700010F020E030E0082E01C0220F0A94EAF7C7
:10028000242B20932B0101968630910521F71092A3
:100290002C0180E090E060912C01AC014A5F5F4F3F
:1002A000FA01E05DFE4F7081FA01E55FFE4F40818B
:1002B00021E030E0471710F020E030E0082E01C0C8
:1002C000220F0A94EAF7262B20932C0101968730FF
:1002D000910509F710922D0180E090E060912D01C9
:1002E000AC01435F5F4FFA01E05DFE4F7081FA01A0
:1002F000E55FFE4F408121E030E0471710F020E03D
:1003000030E0082E01C0220F0A94EAF7262B209332
:100310002D0101968630910509F710922E0180E09B
:1003200090E060912E01AC014D5E5F4FFA01E05DFF
:10033000FE4F7081FA01E55FFE4F408121E030E021
:10034000471710F020E030E0082E01C0220F0A9479
:10035000EAF7262B20932E0101968730910509F7A5
:10036000D0922F0180E090E060912F01AC01465EB9
:100370005F4FFA01E05DFE4F7081FA01E55FFE4FCD
:10038000408121E030E0471710F020E030E0082EF7
:1003900001C0220F0A94EAF7262B20932F01019621
:1003A0008630910509F7812C912CF401E55DFE4F13
:1003B000808124D18FEF881A980A85E088169104ED
:1003C000A1F780E090E011D18A3AB9F580910A0155
:1003D0008823E1F080E090E0FC01E05DFE4F308199
:1003E000DC01AA57BE4F2C91321710F420812C93B8
:1003F0003081DC01AA59BE4F2C91231710F42081C3
:100400002C9301968032910539F713CFB0920A01EF
:1004100080E090E0FC01E05DFE4F2081DC01AA5706
:10042000BE4F2C932081FC01EA59FE4F2083019698
:100430008032910579F75A9AFCCE80E090E0D5D0D1
:10044000853549F580910A01882399F080E090E094
:10045000DC01A05DBE4F3C91FC01EA59FE4F2081BA
:10046000231710F42C91208301968032910581F797
:10047000E0CEC0920A0180E090E0FC01E05DFE4F1A
:100480002081FC01EA59FE4F2083019680329105BC
:10049000A1F7299ACECE80910A01813041F51092C0
:1004A0000A0120E030E0F901EA57FE4F4081F901EE
:1004B000EA59FE4F5081852F90E0840F911D840FE3
:1004C000911DB801B1D0F901E55FFE4F60832F5F48
:1004D0003F4F2032310539F7F89440E250E060E8B0
:1004E00070E08BE091E0D6D078945A98A2CE8091BB
:1004F0000A01823009F09DCE10920A0180E090E05E
:10050000FC01EA59FE4F20812B5FFC01E55FFE4FA5
:10051000208301968032910599F7F89440E250E0EB
:1005200060E870E08BE091E0B5D07894299881CEB6
:100530001092B90088E48093B80008951F920F923A
:100540000FB60F9211248F938091C60080935501AE
:100550008091C0008871809300018F910F900FBE31
:100560000F901F9018951F920F920FB60F921124A3
:100570008F939F93EF93FF93909154018091530138
:10058000981779F0E0915301809153018F5F8F703C
:1005900080935301F0E0EA5AFE4F80818093C600B9
:1005A00005C08091C1008F7D8093C100FF91EF91C4
:1005B0009F918F910F900FBE0F901F90189597FFEE
:1005C00004C022E02093C0009F779093C5008093E1
:1005D000C40088E98093C10086E08093C2008091C6
:1005E000C10080628093C1000895009721F020919E
:1005F0000001FC01208380915501089590915401E0
:100600009F5F9F70209153019217E1F3E091540195
:10061000F0E0EA5AFE4F8083909354018091C1002C
:1006200080628093C100089597FB072E16F4009412
:1006300006D077FD08D00BD007FC05D03EF490958E
:1006400081959F4F0895709561957F4F0895AA1BDE
:10065000BB1B51E107C0AA1FBB1FA617B70710F0AD
:10066000A61BB70B881F991F5A95A9F780959095DF
:10067000BC01CD010895DC01862FE82FF999FECF4A
:100680001FBA05C0E1BDF89AE39500B40D92415040
:10069000C8F70895DC01862F02C02D9104D0415087
:1006A000E0F70895262FF999FECF1FBA1FBA81BD32
:1006B00020BD0FB6F894FA9AF99A0FBE01960895E4
:0406C000F894FFCFDC
:0A06C40001FEBEEEAEDE9ECE8E00FB
:00000001FF
